:1009E600E4FAEF6405703343F620C2F8C2F9D2FA8E
:1009F60043E180C2FCD2FBADF8EDC413135403FDF2
:100A0600AFE2AB07EB7E007802C333CE33CED8F924
:100A16007C002DFBEC3EAF03FE22EF6406703543EF
:100A2600F640D2F8C2F9D2FA43E180C2FCD2FBAD5D
:100A3600F8EDC413135403FDAFE27A00AB07EB7E67
:100A4600007802C333CE33CED8F97C002DFBEC3EC2
:070A5600FEAF0322E4FEFFE6
:010A5D002276
:0606FB00810200810300F2
:0D1939007F061209E6785CEEF208EFF2225C
:10026A007800EEF208EFF2D394C9EE94014010E25E
:10027A0094F818E29401500778037430F2801C78DD
:10028A0000E2FE08E2FFD3942CEE9402400DEF94B4
:10029A0063EE940250057803743CF27803E224C4B6
:1002AA007002613A240C60028113C37801E294EC73
:1002BA0018E29401400261467800E2FE08E2FFC3B8
:1002CA0094ECEE9401500BC3EF94E2EE94014002D9
:1002DA00618C7800E2FE08E2FFC394E2EE940150DA
:1002EA000BC3EF94DAEE9401400261AF7800E2FEAC
:1002FA0008E2FFC394DAEE9401500BC3EF94D3EEF5
:10030A009401400261D27800E2FE08E2FFC394D36E
:10031A00EE9401500BC3EF94C9EE9401400261F5CB
:10032A00C37801E294C918E2940140028113811052
:10033A00C37801E2946318E29402400BD2947F12CC
:10034A001212967F3C61FE7800E2FE08E2FFC39437
:10035A0063EE94025014C3EF9454EE9402400BD20D
:10036A00947F091212967F6461FE7800E2FE08E229
:10037A00FFC39454EE94025014C3EF9443EE9402D4
:10038A00400BD2947F081212967F6480677800E24D
:10039A00FE08E2FFC39443EE94025014C3EF943B69
:1003AA00EE9402400BD2947F071212967F64804427
:1003BA007800E2FE08E2FFC3943BEE94025014C3B5
:1003CA00EF9434EE9402400BD2947F061212967F79
:1003DA006480217800E2FE08E2FFC39434EE9402BE
:1003EA005018C3EF942CEE9402400FD2947F05125A
:1003FA0012967F6412172CC29422C37801E2942CBD
:0A040A0018E2940250031217EE22CC
:09070100871A000000000000004E
:09197400C290D2A7C293C2A622C0
:100F7400780674AAF2E418F2E47804F27806E2C27D
:100F8400907D147C007F2E1211E3D2907806E22526
:100F9400E0F27D187C007F281211E37804E204F269
:100FA400E2C3940840D6780674AAF218E204F2E286
:070FB400C3940340C3D29077
:010FBB002213
:10100000789174AAF2E418F2E4788FF27891E2C24F
:10101000907D147C007F2E1211E3D2907891E2250E
:10102000E0F27D187C007F281211E3788FE204F251
:10103000E2C3940740D6789174AAF218E204F2E26F
:07104000C3940140C3D290EC
:011047002286
:040DCE007807EFF2C1
:100DD200E408F2E47809F27808E2241AF8E230E74B
:100DE2000CC2907807E2FD7C007F24800AC29078D2
:100DF20007E2FD7C007F171211E3D2907808E2240B
:100E02001AF8C000E225E0D000F27807E2FD7C008B
:100E12007F141211E37809E204F2E2C3940840B7A6
:0B0E22007808E204F2E2C3940340A849
:010E2D0022A2
:10130000780AEFF208ECF208EDF2D2937F1412178C
:101310002CC2A7781A74C8F20874E0F2780AE2784E
:101320001CF2120F74780B08E2FF120DCED2A7D276
:02133000932206
:1012CC00780DEFF208ECF208EDF2D2937F141217BE
:1012DC002CC2A7781A74C8F20874E0F2780DE27880
:1012EC001CF2120F74780E08E2FF120DCEC2A7C2C8
:0412FC0093C29022E7
:040E86007810EFF2FF
:100E8A00E408F2121946903000E493781AF290308E
:100E9A0001E49308F2903002E49308F2903003E4FC
:100EAA009308F2903004E49308F27810E2781FF283
:100EBA00120F74E47811F27BFE7A00791A7D061219
:100ECA00147D1216477811E204F2E2C3941E40E739
:030EDA0002195E9C
:0410D700788DEFF22F
:1010DB00E408F2121946903000E493781AF290303B
:1010EB0001E49308F2903002E49308F2903003E4A9
:1010FB009308F2903004E49308F2788DE2781FF2B3
:10110B001210007BFE7A00791A7D0612147D0219EB
:01111B005E75
:0C1946007FB07E04121260D293C2A72270
:0B195E00D2A7C2937F807E250212609A
:100FBC00121946781A74C8F20874C1F2903000E421
:100FCC009308F2903001E49308F2903002E4930815
:100FDC00F2903003E49308F2903004E49308F21298
:100FEC000F747BFE7A00791A7D0712147D12167B22
:030FFC0002195E79
:100C980020910F7889E204F2C394784002E4F2C20A
:100CA8000022200041D2007889E2FFD3942340102B
:100CB800EFD39450500A7850E225E0F254FE8010A9
:100CC8007889E2D3945040147850E225E0F2440148
:100CD800F27861E204F2E47888F280057888E20428
:100CE800F2E47889F2227888E204F2C3943C40095D
:0A0CF800E47861F2D2007859F2228C
:100D020030B00F7889E204F2C394784002E4F2C270
:100D12000022200041D2007889E2FFD394234010C0
:100D2200EFD39450500A7850E225E0F254FE80103E
:100D32007889E2D3945040147850E225E0F24401DD
:100D4200F27861E204F2E47888F280057888E204BD
:100D5200F2E47889F2227888E204F2C3943C4009F2
:0A0D6200E47861F2D2007859F22221
:1011A2007861E264087039F27850E2FF7859E2FE21
:1011B2002452F8EFF2EE700C7852E2B4C806785975
:1011C2007401F222EEB4010C7853E2B4E0067859CD
:1011D2007402F222EEB40204D2078000E47859F2DB
:0111E20022EA
:070AD3007812ECF208EDF2CD
:100ADA00781A74C8F20874E0F208EFF2E47814F2B3
:100AEA00E47815F27814E2241AF8E230E70DC2A38A
:100AFA007812E2FC08E2FD7F24800BC2A37812E29E
:100B0A00FC08E2FD7F171211E3D2A37814E2241A3B
:100B1A00F8C000E225E0D000F27812E2FC08E2FD1B
:100B2A007F0F1211E37815E204F2E2C3940840B48D
:0B0B3A007814E204F2E2C3940340A52B
:010B4500228D
:070B46007816ECF208EDF255
:100B4D00781A74C8F20874E0F208EFF2E47818F23B
:100B5D00E47819F27818E2241AF8E230E70DC28130
:100B6D007816E2FC08E2FD7F24800BC2817816E244
:100B7D00FC08E2FD7F171211E3D2817818E2241AE6
:100B8D00F8C000E225E0D000F27816E2FC08E2FDA4
:100B9D007F0F1211E37819E204F2E2C3940840B416
:0B0BAD007818E204F2E2C3940340A5B4
:010BB800221A
:04070A008223000046
:10161300782374FFF2087493F2782308E22401FF1D
:0A162300F218E23400F24F70F022DA
:10162D00782374FDF20874E3F2782308E22401FFB5
:0A163D00F218E23400F24F70F022C0
:10164700782374FBF20874C7F2782308E22401FFB9
:0A165700F218E23400F24F70F022A6
:10166100782374FAF20874EFF2782308E22401FF78
:0A167100F218E23400F24F70F0228C
:10167B00782374EAF20874E7F2782308E22401FF76
:0A168B00F218E23400F24F70F02272
:10169500782374D5F20874CFF2782308E22401FF89
:0A16A500F218E23400F24F70F02258
:1016AF007823742DF208740FF2782308E22401FFD7
:0A16BF00F218E23400F24F70F0223E
:10172C00AE071FEE60107C137D88ED1DAA047001BE
:06173C001C4A60EC80F481
:011742002284
:0711E3007892ECF208EDF236
:1011EA00E408F208F2EFFDC37895E29D18E2940054
:1011FA005025E4FEEEFDD37893E29D7480F5F01855
:10120A00E2648095F040030E80EA7895E22401F2C8
:07121A0018E23400F280CE5F
:0112210022AA
:10158100E4FDFCC3ED9FEC9E5015E4FBFA0BBB00A0
:0F159100010AEB64644A70F50DBD00010C80E4A3
:0115A0002228
:1016E300E4FDFCC3ED9FEC9E500EE4FB0BEBB40456
:0816F300FB0DBD00010C80EBB2
:0116FB0022CC
:071222007821EEF208EFF263
:10122900E4F9E4FAFBD37822E29B18E29A40070B2F
:10123900BB00010A80EF09E9B432E7E4F92092160C
:10124900E4FAFBC3EB9DEA9C50070BBB00010A8043
:06125900F209E9B432E7DE
:01125F00226C
:0F070E00C12AC12982280000822600008125000F
:1013F50020001612184B785CE2FE08E2FF7800EE3A
:10140500F2FE08EFF2FF12026AD22AE4787AF27F3E
:0E1415001412172CE47800F2300002C20022FC
:1014F700D200C200E47800F2C2007800F2200013A4
:1015070012183C20000A7800E2FE08E2FF12026A85
:0415170012003A2262
:0B196900C229C223C22AD284D28322EA
:1016FC00300014D20012182D200D047FC380027FFD
:08170C00C6120E861217982286
:10153E0030001E7800E204F2C394054014C200E4A9
:10154E00F27800F27800E27006200003121952C2FF
:02155E00002269
:1015DD00302A1720A514787AE204F2C39403400A46
:0B15ED00E4F2C22A200003121952226F
:1014D1003000227800E204F2D3940A4018C200E4FA
:1014E100F27800F208F27800F208F2C200C200C2FB
:0614F10000C200C200224F
:10174300300E127851E2C39405500A7FC5120E86FB
:061753007851E204F222CD
:10175900302612788AE2C39405500A7FC4120E8695
:06176900788AE204F2227E
:10176F003022127847E2C39405500A7FC2120E86C8
:06177F007847E204F222AB
:09197D00300005C2001210902296
:1017CF0030000CC200E4787BF2C200C200C20C22CF
:1015A10030001A7800E204F2D394034010E4787B0F
:0E15B100F2C200C200C20C7800F212195E22D3
:1015600020191D201E1A2000177800E204F2D394DF
:1015700005400D7403F2C200C2002000031219528C
:011580002248
:100E2E0030A54430811D7827E22401F218E2340007
:100E3E00F2C308E2947018E29417401CE418F2C250
:100E4E00008015D37827E2943218E294004009E42A
:100E5E00F208F27825E204F27825E2D394064007F0
:100E6E00E4F2D2001217BE30000DC200D2001211F1
:080E7E001C1217BE120FBC226A
:1014A80030A5257800E2702030001D1210907800D9
:1014B8007401F2C200E47800F2C2007800F2D200AF
:0914C8001200001214F7C2002208
:1010480030A5032000387800E26401703120193798
:10105800201E347829E22401F218E23400F2C30891
:10106800E294DC18E29405401E30A5032000181213
:101078000000E47800F21213F5C200C2002230A585
:0810880006E47828F208F222C8
:1013C600308003208708D219E47871F208F23019C8
:1013D6001D787108E22401FFF218E23400FEF2C320
:0F13E600EF94D0EE94074006C219E4F208F22209
:10145100308208D21EE4787FF208F2301E1D787FB8
:1014610008E22401FFF218E23400FEF2C3EF94D047
:0C147100EE94074006C21EE4F208F222CE
:10136400782AEEF208EFF208ECF208EDF2EBFD7CDD
:10137400007FC1120AD3D2A2C2A3782AE2FE08E2F5
:10138400FF08E2FC08E2FD121222D2A2D2A3C28517
:011394002236
:10139500782EEEF208EFF208ECF208EDF2EBFD7CA8
:1013A500007FC1120B46D2A2C2A3782EE2FE08E24C
:1013B500FF08E2FC08E2FD121222C2A2C2A3C28506
:0113C5002205
:0E191D00D285C2A2D2A3121222D2A2D2A3223B
:0E192B00D285C2A2D2A3121222C2A2C2A3224D
:10109000C223C229C20EC226E47846F27868F278EA
:1010A0005AF2785EF208F27864F208F2787DF2087B
:1010B000F27860F27875F2C200C20CC200787BF25E
:1010C000C21A787CF2C201785BF2C20DC22A787A29
:0710D000F2C2227847F22270
:0C195200D223D229E47846F27868F22211
:08000300C2A41216AFD2A42220
:1017140075DCC07832E4F208741DF218E2FC08E2C9
:08172400FDECF5D1EDF5D92231
:100D6C00EF14601F14603114604324037053783205
:100D7C00E4F208740DF218E2FC08E2FDECF5D2ED99
:100D8C00F5DA2278327401F208E4F218E2FC08E297
:100D9C00FDECF5D3EDF5DB227832E4F2087480F249
:100DAC0018E2FC08E2FDECF5D5EDF5DD227832E435
:100DBC00F2087440F218E2FC08E2FDECF5D6EDF511
:020DCC00DE2225
:08198F00E4FF120D6C021714B5
:070A5E007834ECF208EDF220
:100A65007E007C2B7D3312055EE47B0CFAF9F812CF
:100A750004B8C3E49FFFE49E7836F27838EFF27845
:100A850034E2FE08E2FFEE3395E0FDFCE47B0BFA71
:100A9500F9F812042DE47B0CFAF9F81204B8C3E452
:100AA5009FFFE49EAD07FF7837F2AE057839EEF289
:100AB5007589117836E2F58C7838E2F58A8F8D8E56
:0D0AC5008BD2A9D28CD2ABD28ED2BBD2AFD5
:010AD2002201
:040EDD007896EFF222
:100EE100E408F27897E2FFC39402500A120F2978BE
:100EF10097E204F280ED7896E2FF7E007C2B7D3351
:100F010012055EE47B0CFAF9F81204B8C3E49FFF02
:100F1100E49EAD07FC7836F27838EFF25389F0435E
:070F210089011217DFD2A9BC
:010F280022A6
:0317FD00D2AF2246
:04199F004387012257
:0F17DF00C28C7838E2F58A7836E2F58CD28C220B
:1012600053A2BF75985A758920AB07AA06E4F9F80E
:101270007F807E70FDFC1204B812054A8F8B8F8D23
:101280007F01120EDDC299C298D2ACD28ED28CD21E
:06129000A9D2BCD2AF227E
:081997008F993099FDC29922DD
:10147D00788FEBF208EAF208E9F2AF051DEF601A7A
:10148D00788FE2FB0808E2F92401F218E2FA340041
:0B149D00F2120414FF12199780E022E5
:03071D00813A011D
:041296007896EFF265
:10129A00C2A012167BD2A012167BE47897F2789637
:1012AA00E2FF08E2C39F5019D2A17F147E001216F2
:1012BA00E3C2A17F147E001216E37897E204F2805B
:0112CA00DD46
:0112CB002200
:1015F800C294C2A1C2A07F5E7E011216E3D2A07F70
:0B1608005E7E011216E3D294C2942211
:01003A0022A3
:0F17EE00D2947F041212967F5012172CC29422AD
:0F180000D2947F181212967F0112172CC29422D5
:0F180F00D2947F181212967F1E12172CC29422A9
:1017BE00D2947F191212967F1E12172CC294C20059
:0117CE0022F8
:10178500D2947F021212967F5A12172CC2947F1E92
:0317950002172C0C
:0F181E00D2947F111212967F8C12172CC2942233
:0F182D00D2947F0E1212967F2812172CC294228B
:10179800D2947F031212967FB412172CC2947F142E
:0317A80002172CF9
:0F183C00D2947F0F1212967F3C12172CC2942267
:0F184B00D2947F101212967F3C12172CC2942257
:0F185A00D2947F0D1212967F6412172CC2942223
:0F186900D2947F141212967F7812172CC29422F9
:0F187800D2947F131212967F9612172CC29422CD
:0F188700D2947F091212967F5012172CC294220E
:0F189600D2947F071212967F3212172CC294221F
:0F18A500D2947F051212967F9612172CC29422AE
:0F18B400D2947F031212967F8C12172CC29422AB
:0F18C300D2947F021212967F7812172CC29422B1
:0F18D200D2947F0B1212967F5012172CC29422C1
:0F18E100D2947F0B1212967F3212172CC29422D0
:0F18F000D2947F0F1212967F5012172CC294229F
:0F18FF00D2947F0C1212967F5012172CC2942293
:0F190E00D2947F0D1212967F5012172CC2942282
:0319A70002180F14
:101332007800E204F2D3940340277405F2300021CE
:1013420020001E200E1B202618202215785CE2FEAB
:1013520008E2FF7800EEF2FE08EFF2FF12026AC224
:02136200002267
:09198600300005C2001217BE2258
:1017AB0075AF30C2AF75C7AA75C755439F01D2AF8E
:0317BB000216D53E
:1000260075AF301216D5C2AF75C7AA75C755539F9F
:04003600FED2AF2225
:0C16C900E2FC08E2FDECF5A7AF058FA6DF
:0E16D500C2AF75C7AA75C75543A401D2AF2294
:10000E00788DEEF208EFF21217AB75AF22788D12E3
:05001E0016C9020026D6
:061423007854E2FD7E306A
:10142900788DEEF208EFF208EDF21217AB75AF21E5
:10143900788DE2FC08E2FDECF5A7AF058FA608E27E
:08144900F5AE1216D5020026D3
:0715BF00783BEEF208EFF2A9
:1015C6001217ABE4F5AF783B1216C908E5AEF21276
:0615D6000026783DE2FF53
:0115DC0022EC
:10111C007F007E3012000E7852E2FD7F007E30128E
:10112C0014297853E2FD7F017E301214297F0212BC
:10113C0014237855E2FD7F037E301214297856E291
:10114C00FD7F047E301214297857E2FD7F057E3036
:03115C0002142951
:10115F007F007E3012000E7F001214237855E2FDBF
:10116F007F017E301214297856E2FD7F027E301205
:10117F0014297857E2FD7F037E301214297858E244
:10118F00FD7F047E301214297859E2FD7F057E30F1
:03119F000214290E
:0307200081420013
:100BB900E4783EF2783EE2FFC39405505EEF75F0AB
:100BC90008A4242DF8E6604C783EE2FF75F008A4ED
:100BD900242CF8E6D39400403BEF75F008A42426B2
:100BE900F8E6FE08E6AA06F9120558783EE2FF750E
:100BF900F008A4242CF816EF75F008A4242AF8E6C6
:100C0900FE08E64E700E783EE275F008A42426F838
:100C1900E4F608F6783EE204F28099120FFF021911
:010C2900A327
:07096900783FEEF208EFF207
:10097000E4FFEF75F008A42426F8E6F58308E645C1
:10098000836009EFC3940550030F80E6EFB40508B8
:1009900078427401F27F0522783FE2F58308E2F5A0
:1009A00082EF75F008A42426F8A68308A682EF75C6
:1009B000F008A42428F8A60408A605AC02AD03EFAD
:1009C00075F008A4242AF8A60408A605A22DE4338D
:1009D000FEEF75F008A4242DF8A606EF75F008A424
:0509E000242CF8E4F6F0
:0109E50022EF
:100F2900EF75F008A42426F8E6FC08E64C70097869
:100F3900427402F2D22C8002C22CEF75F008A4246C
:100F490026F8E4F608F6EF75F008A42428F8E4F684
:100F590008F6EF75F008A4242AF8E4F608F6EF7508
:0A0F6900F008A4242CF8E4F6A22CF2
:010F7300225B
:010FFF0022CF
:0419A3004387012253
:10081B00E47841F27841E2FFC39405400201DCEF3A
:10082B0075F008A42426F8E6FE08E64E700201D502
:10083B007841E2FF75F008A42428F8E6FC08E64CA2
:10084B007077EF75F008A4242DF8E6600D7841E27F
:10085B0075F008A4242CF806803D7841E275F00869
:10086B00A42426F8E6FE08E6AA06F91205587841F4
:10087B00E2FF75F008A4242CF816EF75F008A424F9
:10088B002AF8E6FE08E64E700E7841E275F008A4F1
:10089B002426F8E4F608F67841E2FF75F008A42464
:1008AB002AF8E6FC08E6FD4C6020EF75F008A4245E
:1008BB0028F8A60408A60580117841E275F008A473
:1008CB002428F808E616187001167841E204F201A4
:0108DB001FFD
:0108DC0022F9
:10072300C106C123C118C11A817B00817C00C10E9F
:10073300C126815A008264000081750081600082B5
:100743007D0000C101814600825E00008168008156
:100753007800818A00815100827300008752000073
:100763000000000000C10781590081500081610031
:10077300C180818800818900816D00816C00828144
:100783000000C105817000825C0000815B00C12212
:10079300814700C104824A0000C11982710000C16F
:1007A3000DC11D817700817A00C10CC11E827F00BB
:1007B30000824E000082620000824C0000C120C112
:1007C3000AC103C10982840000C121C111C1908102
:1007D3006B00C10BC124C10882660000826900005E
:1007E300C112C113C114C115C116C117818300827F
:1007F3006E0000828B0000C10FC102814900C12835
:10080300814800817900C12782860000C11FC11C75
:07081300817600C125C11B25
:100C2A001215F87FB07E04121260D280D28143EC92
:100C3A000343EB0353EAFC43E903D2E9D2AFC2947C
:100C4A00D290E4784CF208F2C206C290C2A7C293CC
:100C5A00D2823006081218A5120003C206302008F4
:100C6A001218B4120003C220300A081218C3120064
:100C7A0003C20A3009081218F0120003C20930220E
:0E0C8A00081218D2C22212000312199F80C451
:03000B0002003EB2
:10003E00C0E0C0F0C083C082C0D075D000C000C088
:10004E0001C002C003C004C005C006C0077836E276
:10005E00F58C7838E2F58A787308E22401FFF218FD
:10006E00E23400FEF2C3EF94D0EE94074072121900
:10007E0039B2A3785CE2FE08E2FFD3946AEE9403F1
:10008E005008D202C228C2278013C3EF947AEE948E
:10009E00034006D228C2028004C202C228300211D6
:1000AE007849E204F2D3941440071218877849E491
:1000BE00F23017267883E204F2D3940A401C786655
:1000CE00E4F208F27869F208F2C212C213C214C244
:1000DE0015C216C217C20F7883F27873E4F208F2D3
:1000EE0020810AC21F7886E4F208F2C2A320823C65
:1000FE00201739786E08E22401FFF218E23400FE70
:10010E00F2D3EF942CEE94014022E4F208F2302563
:10011E00097F121210D7C225B2A0301B057FC11263
:10012E0010D7D282C291C290C293C2A7308226202B
:10013E001723788B08E22401FFF218E23400FEF256
:10014E00D3EF94DCEE9405400CC282E4F208F2D2B6
:10015E00A7C293D291208024786208E22401FFF294
:10016E0018E23400FEF2D3EF94B8EE940B4013C2B3
:10017E00827F111210D7C290D28280067862E4F28A
:10018E0008F22080427866E4F208F2786908E224E8
:10019E0001FFF218E23400FEF2D3EF94A0EE940FBA
:1001AE004013740FF20874A2F2C212C213C214C228
:1001BE0015C216800CD212301302D214301502D290
:1001CE0016C202C22880557869E4F208F230120293
:1001DE00D213301402D215301618D217C216C2829C
:1001EE00786EE4F208F2C293D291200F051200034A
:1001FE00D20F786608E22401FFF218E23400FEF214
:10020E00D3EF94A0EE940F4013740FF20874A2F281
:10021E00C212C213C214C215C216C20F300822C2B5
:10022E0008C212C213C214C215C216C217C20F12CE
:10023E00115F1200037F0A12172C1200037883E459
:10024E00F2D007D006D005D004D003D002D001D012
:0C025E0000D0D0D082D083D0F0D0E032AD
:0300230002058B48
:10058B00C0E0C083C082C0D075D000C000C006C020
:10059B0007209802C1ECC2987859E2FF2452F8E583
:1005AB0099F2301702C18BEF701290300093FF78E5
:1005BB0052E2B5070778597401F280737859E2B4A7
:1005CB000113903001E493FF7853E2B50707785994
:1005DB007402F2805A7859E2FFB40213903002E4AD
:1005EB0093FE7854E2B5060778597403F28040EF16
:1005FB00B40313903003E493FF7855E2B507077803
:10060B00597404F280297859E2B40413903004E44D
:10061B0093FF7856E2B5070778597405F280107886
:10062B0059E2B40506D207E4F280047859E4F220CB
:10063B000702C1ECC2077857E2243D601314601A1D
:10064B0014602814603624046002C1ECD222C1EC81
:10065B00D206788AE4F2C220800AD220784CE4F2E7
:10066B0008F2C2067851F2C20A8076D20A784CE4BC
:10067B00F208F2C206788AF2C2208065D209806144
:10068B007859E2700D7852E2B4C80778597401F2C8
:10069B00804F7859E2FFB4010D7853E2B4C107786B
:1006AB00597402F2803BEFB4020778597403F2805D
:1006BB00307859E2FFB403057404F28024EFB404DC
:1006CB000778597405F28019EFB405077859740649
:1006DB00F2800EEF7859B40606E4F2D2088002E4F9
:1006EB00F2D007D006D000D0D0D082D083D0E03269
:03003B0002151B90
:10151B00C0E0C0D075D000C000C2E953EAFCD28253
:10152B00D21BC293D2917886E4F208F2D000D0D0CD
:03153B00D0E032CB
:030000000208DD16
:0C08DD00787FE4F6D8FD75814D020924F7
:10041400BB010689828A83E0225002E722BBFE02E6
:09042400E32289828A83E4932219
:10042D00E88FF0A4CC8BF0A42CFCE98EF0A42CFC6E
:10043D008AF0EDA42CFCEA8EF0A4CDA8F08BF0A4EC
:10044D002DCC3825F0FDE98FF0A42CCD35F0FCEB4B
:10045D008EF0A4FEA9F0EB8FF0A4CFC5F02ECD3910
:0F046D00FEE43CFCEAA42DCE35F0FDE43CFC227D
:10047C0075F008758200EF2FFFEE33FECD33CDCC37
:10048C0033CCC58233C5829BED9AEC99E5829840BA
:10049C000CF582EE9BFEED9AFDEC99FC0FD5F0D697
:1004AC00E4CEFBE4CDFAE4CCF9A88222B800C1B9C1
:1004BC000059BA002DEC8BF084CFCECDFCE5F0CBFF
:1004CC00F97818EF2FFFEE33FEED33FDEC33FCEB38
:1004DC0033FB10D703994004EB99FB0FD8E5E4F9F3
:1004EC00FA227818EF2FFFEE33FEED33FDEC33FCE0
:1004FC00C933C910D7059BE99A4007EC9BFCE99AD4
:10050C00F90FD8E0E4C9FAE4CCFB2275F010EF2F18
:10051C00FFEE33FEED33FDCC33CCC833C810D70718
:10052C009BEC9AE899400AED9BFDEC9AFCE899F853
:0E053C000FD5F0DAE4CDFBE4CCFAE4C8F922E6
:0E054A00C3E49FFFE49EFEE49DFDE49CFC22C2
:060558008A838982E4732E
:10055E00EC8EF0A4CCC5F0CCCDF8EFA4CEC5F02D2A
:10056E00FDE43CFCE8A42EC8C5F03DFDE43CFCEFE8
:0D057E00A4FFE5F028FEE43DFDE43CFC2276
:1008E900020C2AE493A3F8E493A34003F68001F2EF
:1008F90008DFF48029E493A3F85407240CC8C33310
:10090900C4540F4420C8834004F456800146F6DFDE
:10091900E4800B01020408102040809006FBE47E6D
:10092900019360BCA3FF543F30E509541FFEE493D3
:10093900A360010ECF54C025E060A840B8E493A39A
:10094900FAE493A3F8E493A3C8C582C8CAC583CAC5
:10095900F0A3C8C582C8CAC583CADFE9DEE780BE7D
:01081A0000DD
:00000001FF
