:1009CB00E4FAEF6405703343F620C2F8C2F9D2FAA9
:1009DB0043E180C2FCD2FBADF8EDC413135403FD0D
:1009EB00AFE2AB07EB7E007802C333CE33CED8F940
:1009FB007C002DFBEC3EAF03FE22EF64067035430B
:100A0B00F640D2F8C2F9D2FA43E180C2FCD2FBAD78
:100A1B00F8EDC413135403FDAFE27A00AB07EB7E82
:100A2B00007802C333CE33CED8F97C002DFBEC3EDD
:070A3B00FEAF0322E4FEFF01
:010A42002291
:0305500081020025
:0D1894007F061209CB7858EEF208EFF22221
:100662007800EEF208EFF2C394DAEE9403400BD274
:10067200947F121211BD7F3CE1297800E2FE08E26C
:10068200FFC394DAEE94035014C3EF94C4EE9403C0
:10069200400BD2947F091211BD7F64E1297800E2F8
:1006A200FE08E2FFC394C4EE94035014C3EF94A671
:1006B200EE9403400BD2947F081211BD7F648067D1
:1006C2007800E2FE08E2FFC394A6EE94035014C33E
:1006D200EF949CEE9403400BD2947F071211BD7FDE
:1006E2006480447800E2FE08E2FFC3949CEE940327
:1006F2005014C3EF948DEE9403400BD2947F0612F4
:1007020011BD7F6480217800E2FE08E2FFC3948D70
:10071200EE94035018C3EF9483EE9403400FD294E7
:100722007F051211BD7F64121671C29422C3780133
:0D073200E2948318E294035003121744224E
:0905530087160000000000000002
:0918B800C290D2A7C293C2A6227D
:100F0100788B74AAF2E418F2E47889F2788BE2C261
:100F1100907D147C007F2E12110AD290788BE225ED
:100F2100E0F27D187C007F2812110A7889E204F230
:100F3100E2C3940840D6788B74AAF218E204F2E274
:070F4100C3940340C3D290EA
:010F48002286
:100F4900788D74AAF2E418F2E4788BF2788DE2C213
:100F5900907D147C007F2E12110AD290788DE225A3
:100F6900E0F27D187C007F2812110A788BE204F2E6
:100F7900E2C3940740D6788D74AAF218E204F2E22B
:070F8900C3940140C3D290A4
:010F9000223E
:040DB3007803EFF2E0
:100DB700E408F2E47805F27804E22416F8E230E772
:100DC7000CC2907803E2FD7C007F24800AC29078F1
:100DD70003E2FD7C007F1712110AD2907804E22407
:100DE70016F8C000E225E0D000F27803E2FD7C00AF
:100DF7007F1412110A7805E204F2E2C3940840B79F
:0B0E07007804E204F2E2C3940340A868
:010E120022BD
:101227007806EFF208ECF208EDF2D2937F1412166B
:1012370071C2A7781674C8F20874E0F27806E278EB
:1012470018F2120F01780708E2FF120DB3D2A7D2E6
:021257009322E0
:1011F3007809EFF208ECF208EDF2D2937F1412169D
:1012030071C2A7781674C8F20874E0F27809E2781C
:1012130018F2120F01780A08E2FF120DB3C2A7C237
:0412230093C29022C0
:040E1300780CEFF276
:100E1700E408F21218DB901FFBE4937816F2901F98
:100E2700FCE49308F2901FFDE49308F2901FFEE4A0
:100E37009308F2901FFFE49308F2780CE2781BF214
:100E4700120F01E4780DF27BFE7A0079167D061207
:100E5700140312158C780DE204F2E2C3941E40E7E6
:030E67000218E08E
:041000007889EFF20A
:10100400E408F21218DB901FFBE4937816F2901FA9
:10101400FCE49308F2901FFDE49308F2901FFEE4B1
:101024009308F2901FFFE49308F27889E2781BF2A8
:10103400120F497BFE7A0079167D061214030218FA
:01104400E0CB
:0518DB00D293C2A72218
:0518E000D2A7C2932213
:101045001218DB781674C8F20874C1F2901FFBE41D
:101055009308F2901FFCE49308F2901FFDE49308B7
:10106500F2901FFEE49308F2901FFFE49308F2123A
:101075000F017BFE7A0079167D071214031215C045
:031085000218E06E
:100C7D0020910F7885E204F2C394784002E4F2C229
:100C8D000022200041D2007885E2FFD3942340104A
:100C9D00EFD39450500A784CE225E0F254FE8010C8
:100CAD007885E2D394504014784CE225E0F244016B
:100CBD00F2785DE204F2E47884F280057884E2044F
:100CCD00F2E47885F2227884E204F2C3943C400980
:0A0CDD00E4785DF2D2007855F222AF
:100CE70030B00F7885E204F2C394784002E4F2C290
:100CF7000022200041D2007885E2FFD394234010E0
:100D0700EFD39450500A784CE225E0F254FE80105D
:100D17007885E2D394504014784CE225E0F2440100
:100D2700F2785DE204F2E47884F280057884E204E4
:100D3700F2E47885F2227884E204F2C3943C400915
:0A0D4700E4785DF2D2007855F22244
:10108800785DE264087039F2784CE2FF7855E2FE48
:10109800244EF8EFF2EE700C784EE2B4C80678559C
:1010A8007401F222EEB4010C784FE2B4E0067855F0
:1010B8007402F222EEB40204D2078000E47855F2FA
:0110C8002205
:070AB800780EECF208EDF2EC
:100ABF00781674C8F20874E0F208EFF2E47810F2D6
:100ACF00E47811F27810E22416F8E230E70DC2A3B1
:100ADF00780EE2FC08E2FD7F24800BC2A3780EE2C1
:100AEF00FC08E2FD7F1712110AD2A37810E2241638
:100AFF00F8C000E225E0D000F2780EE2FC08E2FD3B
:100B0F007F0F12110A7811E204F2E2C3940840B485
:0B0B1F007810E204F2E2C3940340A54A
:010B2A0022A8
:070B2B007812ECF208EDF274
:100B3200781674C8F20874E0F208EFF2E47814F25E
:100B4200E47815F27814E22416F8E230E70DC28157
:100B52007812E2FC08E2FD7F24800BC2817812E267
:100B6200FC08E2FD7F1712110AD2817814E22416E2
:100B7200F8C000E225E0D000F27812E2FC08E2FDC3
:100B82007F0F12110A7815E204F2E2C3940840B40E
:0B0B92007814E204F2E2C3940340A5D3
:010B9D002235
:04055C00821F0000FA
:10155800781F74FFF2087493F2781F08E22401FFE1
:0A156800F218E23400F24F70F02296
:10157200781F74FDF20874E3F2781F08E22401FF79
:0A158200F218E23400F24F70F0227C
:10158C00781F74FBF20874C7F2781F08E22401FF7D
:0A159C00F218E23400F24F70F02262
:1015A600781F74FAF20874EFF2781F08E22401FF3C
:0A15B600F218E23400F24F70F02248
:1015C000781F74EAF20874E7F2781F08E22401FF3A
:0A15D000F218E23400F24F70F0222E
:1015DA00781F74D5F20874CFF2781F08E22401FF4D
:0A15EA00F218E23400F24F70F02214
:1015F400781F742DF208740FF2781F08E22401FF9B
:0A160400F218E23400F24F70F022F9
:10167100AE071FEE60107C137D88ED1DAA0470017A
:061681001C4A60EC80F43D
:011687002240
:07110A00788EECF208EDF213
:10111100E408F208F2EFFDC37891E29D18E2940031
:101121005025E4FEEEFDD3788FE29D7480F5F01832
:10113100E2648095F040030E80EA7891E22401F2A6
:0711410018E23400F280CE39
:011148002284
:1014E100E4FDFCC3ED9FEC9E5015E4FBFA0BBB0041
:0F14F100010AEB64644A70F50DBD00010C80E444
:0115000022C8
:10162800E4FDFCC3ED9FEC9E500EE4FB0BEBB40411
:08163800FB0DBD00010C80EB6D
:011640002287
:07114900781DEEF208EFF241
:10115000E4F9E4FAFBD3781EE29B18E29A40070B0D
:10116000BB00010A80EF09E9B432E7E4F9209216E6
:10117000E4FAFBC3EB9DEA9C50070BBB00010A801D
:06118000F209E9B432E7B8
:011186002246
:04056000C12AC129C2
:10137E0020001612179E7858E2FE08E2FF7800EE63
:10138E00F2FE08EFF2FF120662D22AE47876F27FBE
:0E139E0014121671E47800F2300002C2002230
:10145700D200C200E47800F2C2007800F220001344
:1014670012178F20000A7800E2FE08E2FF120662D8
:0414770012003A2203
:0B18AD00C229C223C22AD284D28322A7
:10164100300014D200121780200D047FC380027F66
:08165100C6120E131216DD2271
:10149E0030001E7800E204F2C394054014C200E44A
:1014AE00F27800F27800E270062000031218A1C252
:0214BE0000220A
:1007E300302A1720A5147876E204F2C39403400A52
:0B07F300E4F2C22A2000031218A12229
:100FD8003000227800E204F2D3940A4018C200E4F8
:100FE800F27800F208F27800F208F2C200C200C2F9
:060FF80000C200C200224D
:10168800300E12784DE2C39405500A7FC5120E132E
:06169800784DE204F2228D
:10169E003026127886E2C39405500A7FC4120E13C8
:0616AE007886E204F2223E
:1016B4003022127843E2C39405500A7FC2120E13FB
:0616C4007843E204F2226B
:0918C100300005C200120F912253
:1017250030000CC200E47877F2C200C200C20C227D
:1015010030001A7800E204F2D394034010E47877B3
:0E151100F2C200C200C20C7800F21218E022F2
:1014C00020191D201E1A2000177800E204F2D39480
:1014D00001400D7403F2C200C2002000031218A1E3
:0114E00022E9
:10073F0020A502E1C930813EE47800F208F278008A
:10074F0008E22401FFF218E23400FEF2D3EF94A086
:10075F00EE940F4013740FF20874A2F2C200C2009D
:10076F00C200C200C2008052D200300002D200305C
:10077F000048D2008044E47800F208F2300002D240
:10078F0000300002D200300007D200C2001217035F
:10079F00780008E22401FFF218E23400FEF2D3EFF2
:1007AF0094A0EE940F4013740FF20874A2F2C200DB
:1007BF00C200C200C200C200C200300016C200D286
:1007CF0000C200C200C200C200C200C20012128BDF
:0407DF0012170322C8
:10142E0030A5257800E2702030001D120F91780053
:10143E007401F2C200E47800F2C2007800F2D20029
:09144E00120000121457C2002222
:1013D80030A5032000247800E26401701D20191A4A
:1013E800201E1712155830A50320000E120000E425
:0B13F8007800F212137EC200C2002237
:10134F00308003208708D219E4786DF208F2301943
:10135F001D786D08E22401FFF218E23400FEF2C39B
:0F136F00EF94D0EE94074006C219E4F208F22280
:1013AC00308208D21EE4787BF208F2301E1D787B66
:1013BC0008E22401FFF218E23400FEF2C3EF94D0ED
:0C13CC00EE94074006C21EE4F208F22274
:1012BD007821EEF208EFF208ECF208EDF2EBFD7C8E
:1012CD00007FC1120AB8D2A2C2A37821E2FE08E2C1
:1012DD00FF08E2FC08E2FD121149D2A2D2A3C28599
:0112ED0022DE
:1012EE007825EEF208EFF208ECF208EDF2EBFD7C59
:1012FE00007FC1120B2BD2A2C2A37825E2FE08E218
:10130E00FF08E2FC08E2FD121149C2A2C2A3C28587
:01131E0022AC
:0E187800D285C2A2D2A3121149D2A2D2A322BB
:0E188600D285C2A2D2A3121149C2A2C2A322CD
:100F9100C223C229C20EC226E47842F27864F278F2
:100FA10056F2785AF208F27860F208F27879F2088B
:100FB100F2785CF27871F2C200C20CC2007877F26A
:100FC100C21A7878F2C2017857F2C20DC22A787635
:070FD100F2C2227843F22274
:0C18A100D223D229E47842F27864F222CB
:08000300C2A41215F4D2A422DC
:1016590075DCC07829E4F208741DF218E2FC08E28E
:08166900FDECF5D1EDF5D922ED
:100D5100EF14601F14603114604324037053782929
:100D6100E4F208740DF218E2FC08E2FDECF5D2EDB4
:100D7100F5DA2278297401F208E4F218E2FC08E2BB
:100D8100FDECF5D3EDF5DB227829E4F2087480F26D
:100D910018E2FC08E2FDECF5D5EDF5DD227829E459
:100DA100F2087440F218E2FC08E2FDECF5D6EDF52C
:020DB100DE2240
:0817F800E4FF120D5102165925
:070A4300782BECF208EDF244
:100A4A007E007C2B7D331203B3E47B0CFAF9F81297
:100A5A00030DC3E49FFFE49E782DF2782FEFF2781E
:100A6A002BE2FE08E2FFEE3395E0FDFCE47B0BFA95
:100A7A00F9F8120282E47B0CFAF9F812030DC3E4C6
:100A8A009FFFE49EAD07FF782EF2AE057830EEF2B6
:100A9A00758911782DE2F58C782FE2F58A8F8D8E83
:0D0AAA008BD2A9D28CD2ABD28ED2BBD2AFF0
:010AB700221C
:040E6A007892EFF299
:100E6E00E408F27893E2FFC39402500A120EB678A9
:100E7E0093E204F280ED7892E2FF7E007C2B7D33CC
:100E8E001203B3E47B0CFAF9F812030DC3E49FFFCF
:100E9E00E49EAD07FC782DF2782FEFF25389F043E4
:070EAE008901121735D2A9DA
:010EB500221A
:0318ED00D2AF2255
:0418E5004387012212
:0F173500C28C782FE2F58A782DE2F58CD28C22C7
:1011870053A2BF75985A758920AB07AA06E4F9F8E8
:101197007F807E70FDFC12030D12039F8F8B8F8D56
:1011A7007F01120E6AC299C298D2ACD28ED28CD26B
:0611B700A9D2BCD2AF2258
:0818D3008F993099FDC29922A2
:10140300788BEBF208EAF208E9F2AF051DEF601AF8
:10141300788BE2FB0808E2F92401F218E2FA3400BF
:0B142300F2120269FF1218D380E022D1
:03056400813101E1
:0411BD007892EFF243
:1011C100C2A01215C0D2A01215C0E47893F2789291
:1011D100E2FF08E2C39F5019D2A17F147E001216CC
:1011E10028C2A17F147E001216287893E204F280AF
:0111F100DD20
:0111F20022DA
:10153D00C294C2A1C2A07F5E7E01121628D2A07FE6
:0B154D005E7E01121628D294C2942288
:01003A0022A3
:0F174400D2947F041211BD7F50121671C29422ED
:0F175300D2947F181211BD7F01121671C2942219
:0F176200D2947F181211BD7F1E121671C29422ED
:10170300D2947F191211BD7F1E121671C294C200AA
:0117130022B3
:1016CA00D2947F021211BD7F5A121671C2947F1EE4
:0316DA0002167184
:0F177100D2947F111211BD7F8C121671C2942277
:0F178000D2947F0E1211BD7F28121671C29422CF
:1016DD00D2947F031211BD7FB4121671C2947F1480
:0316ED0002167171
:0F178F00D2947F0F1211BD7F3C121671C29422AB
:0F179E00D2947F101211BD7F3C121671C294229B
:0F17AD00D2947F0D1211BD7F64121671C2942267
:0F17BC00D2947F141211BD7F78121671C294223D
:0F17CB00D2947F131211BD7F96121671C2942211
:0F17DA00D2947F091211BD7F50121671C2942252
:0F17E900D2947F071211BD7F32121671C2942263
:0F180000D2947F051211BD7F96121671C29422E9
:0F180F00D2947F031211BD7F8C121671C29422E6
:0F181E00D2947F021211BD7F78121671C29422EC
:0F182D00D2947F0B1211BD7F50121671C29422FC
:0F183C00D2947F0B1211BD7F32121671C294220B
:0F184B00D2947F0F1211BD7F50121671C29422DA
:0F185A00D2947F0C1211BD7F50121671C29422CE
:0F186900D2947F0D1211BD7F50121671C29422BE
:101714007800E2700B200008200005121762D20046
:0117240022A2
:101259007800E204F2D3940340277405F2300021A8
:1012690020001E200E1B2026182022157858E2FE89
:1012790008E2FF7800EEF2FE08EFF2FF120662C202
:02128900002241
:0918CA00300005C20012170322D0
:1016F00075AF30C2AF75C7AA75C755439F01D2AF4A
:0317000002161AB4
:1000260075AF3012161AC2AF75C7AA75C755539F5A
:04003600FED2AF2225
:0C160E00E2FC08E2FDECF5A7AF058FA69A
:0E161A00C2AF75C7AA75C75543A401D2AF224F
:10000E007832EEF208EFF21216F075AF2278321255
:05001E00160E02002691
:08131F0078507F00E2FD7E30F2
:101327007834EEF208EFF208EDF21216F075AF21FD
:101337007834E2FC08E2FDECF5A7AF058FA608E2DA
:08134700F5AE12161A02002691
:07151F007837EEF208EFF24D
:101526001216F0E4F5AF783712160E08E5AEF21291
:0615360000267839E2FFF7
:01153C00228C
:10128B007F007E3012000E12131F78517F01121354
:10129B00237852E2FD7F027E301213277853E2FD52
:1012AB007F037E301213277854E2FD7F047E3002D9
:0212BB001327F7
:1010C9007F007E3012000E12131F7851E2FD7F015E
:1010D9007E301213277852E2FD7F027E30121327E9
:1010E9007853E2FD7F037E301213277854E2FD7FA7
:1010F900047E301213277855E2FD7F057E300213F6
:0111090027BE
:03056700813E00D2
:100B9E00E4783AF2783AE2FFC39405505EEF75F0CE
:100BAE0008A4242DF8E6604C783AE2FF75F008A40C
:100BBE00242CF8E6D39400403BEF75F008A42426CD
:100BCE00F8E6FE08E6AA06F91203AD783AE2FF75DA
:100BDE00F008A4242CF816EF75F008A4242AF8E6E1
:100BEE00FE08E64E700E783AE275F008A42426F858
:100BFE00E4F608F6783AE204F280991207FE02183B
:010C0E00E9FC
:07094E00783BEEF208EFF226
:10095500E4FFEF75F008A42426F8E6F58308E645DC
:10096500836009EFC3940550030F80E6EFB40508D3
:10097500783E7401F27F0522783BE2F58308E2F5C3
:1009850082EF75F008A42426F8A68308A682EF75E1
:10099500F008A42428F8A60408A605AC02AD03EFC8
:1009A50075F008A4242AF8A60408A605A22BE433AA
:1009B500FEEF75F008A4242DF8A606EF75F008A43F
:0509C500242CF8E4F60B
:0109CA00220A
:100EB600EF75F008A42426F8E6FC08E64C700978DD
:100EC6003E7402F2D22C8002C22CEF75F008A424E4
:100ED60026F8E4F608F6EF75F008A42428F8E4F6F8
:100EE60008F6EF75F008A4242AF8E4F608F6EF757C
:0A0EF600F008A4242CF8E4F6A22C66
:010F000022CE
:0107FE0022D8
:0418E900438701220E
:10080000E4783DF2783DE2FFC39405400201C1EF78
:1008100075F008A42426F8E6FE08E64E700201BA38
:10082000783DE2FF75F008A42428F8E6FC08E64CC1
:100830007077EF75F008A4242DF8E6600D783DE29E
:1008400075F008A4242CF806803D783DE275F00888
:10085000A42426F8E6FE08E6AA06F91203AD783DC0
:10086000E2FF75F008A4242CF816EF75F008A42414
:100870002AF8E6FE08E64E700E783DE275F008A410
:100880002426F8E4F608F6783DE2FF75F008A42483
:100890002AF8E6FC08E6FD4C6020EF75F008A42479
:1008A00028F8A60408A6058011783DE275F008A492
:1008B0002428F808E61618700116783DE204F201C3
:0108C0000433
:0108C1002214
:10056A00C106C123C118C11A817700817800C10E62
:10057A00C12681560082600000817100815C008280
:10058A00790000C101814200825A00008164008121
:10059A007400818600814D00826F0000874E000042
:1005AA000000000000C107815500814C00815D00F8
:1005BA00C180818400818500816900816800827D13
:1005CA000000C105816C0082580000815700C122D9
:1005DA00814300C10482460000C119826D0000C136
:1005EA000DC11D817300817600C10CC11E827B0082
:1005FA0000824A0000825E000082480000C120C1D9
:10060A000AC103C10982800000C121C111C19081C0
:10061A006700C10BC124C108826200008265000024
:10062A00C112C113C114C115C116C117817F00823D
:10063A006A000082870000C10FC102814500C128FB
:10064A00814400817500C12782820000C11FC11C3C
:07065A00817200C125C11BE4
:100C0F0012153D7FB07E04121187D280D28143EC42
:100C1F000343EB0353EAFC43E903D2E9D2AFC29497
:100C2F00D290E47848F208F2C206C290C2A7C293EB
:100C3F00D282300608121800120003C206302008B4
:100C4F0012180F120003C220300A0812181E1200C9
:100C5F0003C20A30090812184B120003C2093022CE
:0E0C6F000812182DC2221200031218E580C4CC
:03000B0002003EB2
:10003E00C0E0C0F0C083C082C0D075D000C000C088
:10004E0001C002C003C004C005C006C007782DE27F
:10005E00F58C782FE2F58A786F08E22401FFF2180A
:10006E00E23400FEF2C3EF94D0EE94075002211951
:10007E00121894B2A37858E2FE08E2FFD3946AEE07
:10008E0094035008D202C228C2278013C3EF947A79
:10009E00EE94034006D228C2028004C202C2283067
:1000AE0002117845E204F2D3941440071217DA785D
:1000BE0045E4F2301726787FE204F2D39401401C17
:1000CE007862E4F208F27865F208F2C212C213C244
:1000DE0014C215C216C217C20F787FF230812620C5
:1000EE00E923788208E22401FFF218E23400FEF2DE
:1000FE00D3EF941EEE9400400CD282C290D2A3C2D3
:10010E001BD2E9D20B786FE4F208F220810AC21FEB
:10011E007882E4F208F2C2A320823C201739786A72
:10012E0008E22401FFF218E23400FEF2D3EF942C21
:10013E00EE94014022E4F208F23025097F121210EB
:10014E0000C225B2A0301B057FC1121000D282C2A0
:10015E0091C290C293C2A7308226201723788708B7
:10016E00E22401FFF218E23400FEF2D3EF94DCEE4B
:10017E009405400CC282E4F208F2D2A7C293D29147
:10018E00208024785E08E22401FFF218E23400FE9B
:10019E00F2D3EF94B8EE940B4013C2827F1112107B
:1001AE0000C290D2828006785EE4F208F22080428D
:1001BE007862E4F208F2786508E22401FFF218E2B0
:1001CE003400FEF2D3EF94A0EE940F4013740FF2AE
:1001DE000874A2F2C212C213C214C215C216800C47
:1001EE00D212301302D214301502D216C202C22815
:1001FE00804E7865E4F208F2301202D21330140207
:10020E00D215301611D217C216C282121045200F07
:10021E0005120003D20F786208E22401FFF218E201
:10022E003400FEF2D3EF94A0EE940F4013740FF24D
:10023E000874A2F2C212C213C214C215C216C20FA1
:10024E00D007D006D005D004D003D002D001D00004
:0B025E00D0D0D082D083D0F0D0E032AE
:030023000203E0F5
:1003E000C0E0C083C082C0D075D000C000C006C0CD
:1003F00007209802A141C2987855E2FF244EF8E503
:1004000099F230170281E0EF7012901FFB93FF7892
:100410004EE2B5070778557401F280737855E2B45F
:100420000113901FFCE493FF784FE2B5070778555E
:100430007402F2805A7855E2FFB40213901FFDE473
:1004400093FE7850E2B5060778557403F28040EFCA
:10045000B40313901FFEE493FF7851E2B5070778C9
:10046000557404F280297855E2B40413901FFFE418
:1004700093FF7852E2B5070778557405F28010783B
:1004800055E2B40506D207E4F280047855E4F22080
:100490000702A141C2077853E2243D601314601A99
:1004A00014602814603624046002A141D222A141C4
:1004B000D2067886E4F2C220800AD2207848E4F29C
:1004C00008F2C206784DF2C20A8076D20A7848E471
:1004D000F208F2C2067886F2C2208065D2098061F5
:1004E0007855E2700D784EE2B4C80778557401F281
:1004F000804F7855E2FFB4010D784FE2B4C1077820
:10050000557402F2803BEFB4020778557403F28011
:10051000307855E2FFB403057404F28024EFB4048C
:100520000778557405F28019EFB4050778557406FD
:10053000F2800EEF7855B40606E4F2D2088002E4A9
:10054000F2D007D006D000D0D0D082D083D0E03215
:03003B0002147B31
:10147B00C0E0C0D075D000C000C2E953EAFCD282F4
:10148B00D21BC293D2917882E4F208F2D000D0D072
:03149B00D0E0326C
:030000000208C231
:0C08C200787FE4F6D8FD75814D0209092D
:10026900BB010689828A83E0225002E722BBFE0293
:09027900E32289828A83E49322C6
:10028200E88FF0A4CC8BF0A42CFCE98EF0A42CFC1B
:100292008AF0EDA42CFCEA8EF0A4CDA8F08BF0A499
:1002A2002DCC3825F0FDE98FF0A42CCD35F0FCEBF8
:1002B2008EF0A4FEA9F0EB8FF0A4CFC5F02ECD39BD
:0F02C200FEE43CFCEAA42DCE35F0FDE43CFC222A
:1002D10075F008758200EF2FFFEE33FECD33CDCCE4
:1002E10033CCC58233C5829BED9AEC99E582984067
:1002F1000CF582EE9BFEED9AFDEC99FC0FD5F0D644
:10030100E4CEFBE4CDFAE4CCF9A88222B800C1B96D
:100311000059BA002DEC8BF084CFCECDFCE5F0CBAB
:10032100F97818EF2FFFEE33FEED33FDEC33FCEBE4
:1003310033FB10D703994004EB99FB0FD8E5E4F99F
:10034100FA227818EF2FFFEE33FEED33FDEC33FC8C
:10035100C933C910D7059BE99A4007EC9BFCE99A80
:10036100F90FD8E0E4C9FAE4CCFB2275F010EF2FC5
:10037100FFEE33FEED33FDCC33CCC833C810D707C5
:100381009BEC9AE899400AED9BFDEC9AFCE899F800
:0E0391000FD5F0DAE4CDFBE4CCFAE4C8F92293
:0E039F00C3E49FFFE49EFEE49DFDE49CFC226F
:0603AD008A838982E473DB
:1003B300EC8EF0A4CCC5F0CCCDF8EFA4CEC5F02DD7
:1003C300FDE43CFCE8A42EC8C5F03DFDE43CFCEF95
:0D03D300A4FFE5F028FEE43DFDE43CFC2223
:1008CE00020C0FE493A3F8E493A34003F68001F225
:1008DE0008DFF48029E493A3F85407240CC8C3332B
:1008EE00C4540F4420C8834004F456800146F6DFFA
:1008FE00E4800B0102040810204080900550E47E35
:10090E00019360BCA3FF543F30E509541FFEE493EE
:10091E00A360010ECF54C025E060A840B8E493A3B5
:10092E00FAE493A3F8E493A3C8C582C8CAC583CAE0
:10093E00F0A3C8C582C8CAC583CADFE9DEE780BE98
:010661000098
:00000001FF
