:10056B00E4FAEF6405703343F620C2F8C2F9D2FA0D
:10057B0043E180C2FCD2FBADF8EDC413135403FD71
:10058B00AFE2AB07EB7E007802C333CE33CED8F9A4
:10059B007C002DFBEC3EAF03FE22EF64067035436F
:1005AB00F640D2F8C2F9D2FA43E180C2FCD2FBADDD
:1005BB00F8EDC413135403FDAFE27A00AB07EB7EE7
:1005CB00007802C333CE33CED8F97C002DFBEC3E42
:0705DB00FEAF0322E4FEFF66
:0105E20022F6
:0603AC0081020081030044
:0D13AD007F0612056B7850EEF208EFF22279
:100E6D007846E2FE08E2FF7850E2FC08E2FDC39FFF
:100E7D00EC9E4009D3ED9417EC940340077846ECB3
:0E0E8D00F208EDF27846E2FE08E2FF020003F2
:100003007800EEF208EFF2D2947F08120DD47F4607
:10001300121175C37801E294A818E29402500221E8
:100023001A7800E2FE08E2FFC394A8EE9402400AA5
:10003300EF94B6EE94025002219D7800E2FE08E2AE
:10004300FFC394B6EE94024016EF94C7EE940250A9
:100053000E7F15120DD47F1E1211757F1041177874
:1000630000E2FE08E2FFC394C7EE94024020EF943F
:10007300D8EE940250187F0D120DD47F1E12117505
:100083007F15120DD47F1E1211757F0C4117780056
:10009300E2FE08E2FFC394D8EE94024020EF94E21C
:1000A300EE940250187F0D120DD47F1E1211757F2E
:1000B30015120DD47F1E1211757F1341177800E2BC
:1000C300FE08E2FFC394E2EE94024020EF94ECEECC
:1000D300940250187F0E120DD47F1E1211757F15D6
:1000E300120DD47F1E1211757F1141177800E2FEA5
:1000F30008E2FFC394ECEE94024020EF94F7EE94F1
:100103000250187F0F120DD47F1E1211757F151226
:100113000DD47F1E1211757F0E41177800E2FE0881
:10012300E2FFC394F7EE94024020EF9402EE9403AF
:1001330050187F10120DD47F1E1211757F15120DEA
:10014300D47F1E1211757F0C41177800E2FE08E27E
:10015300FFC39402EE94034016EF940CEE94035005
:100163000E7F11120DD47F1E1211757F1541177862
:1001730000E2FE08E2FFC3940CEE94034020EF94E8
:1001830011EE940350187F11120DD47F1E121175B6
:100193007F15120DD47F1E1211757F1280767800A1
:1001A300E2FE08E2FFC39411EE94034020EF94159E
:1001B300EE940350187F12120DD47F1E1211757F17
:1001C30015120DD47F1E1211757F0F80477800E240
:1001D300FE08E2FFC39415EE94034020EF9417EE5C
:1001E300940350187F13120DD47F1E1211757F15BF
:1001F300120DD47F1E1211757F0D8018C37801E292
:10020300941718E2940340147F14120DD47F1E1226
:1002130011757F15120DD47F1E1211757F0B120DF0
:10022300D47F3C121175C294D2A01210C3C2A00293
:0202330010C3F6
:0903B200870D00000000000000AE
:100B8A00780674AAF2E418F2E47804F27806E2C26B
:100B9A00907D147C007F2E120D28D2907806E225D3
:100BAA00E0F27D187C007F28120D287804E204F216
:100BBA00E2C3940840D6780674AAF218E204F2E274
:070BCA00C3940140C3D29067
:010BD1002201
:100BD200780974AAF2E418F2E47807F27809E2C21A
:100BE200907D147C007F2E120D28D2907809E22588
:100BF200E0F27D187C007F28120D287807E204F2CB
:100C0200E2C3940440D6780974AAF218E204F2E22C
:070C1200C3940140C3D2901E
:010C190022B8
:04093600780AEFF25A
:10093A00E408F2E4780CF2780BE2240DF8E230E7EE
:10094A000CC290780AE2FD7C007F24800AC290786B
:10095A000AE2FD7C007F17120D28D290780BE22460
:10096A000DF8C000E225E0D000F2780AE2FD7C0032
:10097A007F14120D28780CE204F2E2C3940840B7FF
:0B098A00780BE204F2E2C3940340A8E3
:01099500223F
:1008000020910F7800E204F2C394784002E4F2C22F
:100810000022200041D2007800E2FFD39423401050
:10082000EFD39450500A7800E225E0F254FE801095
:100830007800E2D3945040147800E225E0F24401BD
:10084000F27800E204F2E47800F280057800E20435
:10085000F2E47800F2227800E204F2C3943C40090A
:0A086000E47800F2D2007800F222E2
:10086A0030B00F7800E204F2C394784002E4F2C296
:10087A000022200041D2007800E2FFD394234010E6
:10088A00EFD39450500A7800E225E0F254FE80102B
:10089A007800E2D3945040147800E225E0F2440153
:1008AA00F27800E204F2E47800F280057800E204CB
:1008BA00F2E47800F2227800E204F2C3943C4009A0
:0A08CA00E47800F2D2007800F22278
:100CE7007800E264087039F27800E2FF7800E2FEEB
:100CF7002400F8EFF2EE700C7800E2B4C806780032
:100D07007401F222EEB4010C7800E2B4E006780038
:100D17007402F222EEB40204D2008000E47800F2FA
:010D270022A9
:0403BB0082180000A4
:100FE600781874FFF2087493F2781808E22401FF67
:0A0FF600F218E23400F24F70F0220E
:10107500781874FDF20874E3F2781808E22401FF89
:0A108500F218E23400F24F70F0227E
:10108F00781874FBF20874C7F2781808E22401FF8D
:0A109F00F218E23400F24F70F02264
:1010A900781874FAF20874EFF2781808E22401FF4C
:0A10B900F218E23400F24F70F0224A
:1010C300781874EAF20874E7F2781808E22401FF4A
:0A10D300F218E23400F24F70F02230
:1010DD00781874D5F20874CFF2781808E22401FF5D
:0A10ED00F218E23400F24F70F02216
:1010F7007818742DF208740FF2781808E22401FFAB
:0A110700F218E23400F24F70F022FB
:10117500AE071FEE60107C137D88ED1DAA0470017B
:061185001C4A60EC80F43E
:01118B002241
:070D28007814ECF208EDF273
:100D2F00E408F208F2EFFDC37817E29D18E2940091
:100D3F005025E4FEEEFDD37815E29D7480F5F01892
:100D4F00E2648095F040030E80EA7817E22401F206
:070D5F0018E23400F280CE1F
:010D6600226A
:100FA800E4FDFCC3ED9FEC9E5015E4FBFA0BBB007F
:0F0FB800010AEB64644A70F50DBD00010C80E482
:010FC7002207
:10112B00E4FDFCC3ED9FEC9E500EE4FB0BEBB40413
:08113B00FB0DBD00010C80EB6F
:011143002289
:1003BF00C11BC11A8222000082200000811D00C1D2
:0C03CF0019821A0000821E0000811C0030
:100FC8002006061212DB120E6DD21BE4785CF27F4B
:0E0FD80014121175E47800F2300602C20622EF
:100E0A00D20DC210E47800F2C2007800F21210F794
:100E1A001210F71210F71210F7C285200002D280C2
:100E2A0020060E12125AC285200003120E6D1207F6
:020E3A00FF2295
:0513F400C21AC21B2219
:0C13BA00300008D2001212CC12124722A0
:100F430030001E7800E204F2C3940F4014C200E4A0
:100F5300F27800F27800E270062003031213C6C28F
:020F6300032267
:10100000301B1A30A503300014785CE204F2C3945C
:0E10100003400AE4F2C21B2003031213C6229F
:100F1D003000227800E204F2D3940A4018C200E4B3
:100F2D00F2784BF208F2784DF208F2C209C20AC209
:060F3D000BC20CC20E22E3
:10118C003000127800E2C39405500A7FC5120000AB
:06119C007800E204F222DB
:1011A2003000127800E2C39405500A7FC412000096
:0611B2007800E204F222C5
:1011B8003017127845E2C39414500A7FC212000017
:0611C8007845E204F2226A
:0913D200300805C208120C1A22B1
:1012800030000CC200E47800F2C200C200C20422A6
:10101E0030001A7800E204F2D394054010E4780010
:0E102E00F2C200C200C2047800F212000022DA
:100F870020191D20151A2000177848E204F2D3947F
:100F970006400D7407F2C20DC2002003031213C6E8
:010FA7002227
:1007380020A50330004B30A7257821E22401F218C8
:10074800E23400F2C308E2947018E294174024746B
:1007580017F2087471F2E4781DF2C2008015D3789C
:1007680021E2943218E294004009E4F208F2781D7C
:10077800E204F2781DE2D394064020E4F2D200802D
:100788001720A5177800E2701220000F30110CC254
:0C07980011D212C200120C611211CE220C
:100D670020A5033000307800E2702B3000282003E4
:100D770025120C1A78007401F2C210E47800F2C24E
:100D8700007800F2D20D120000120E0AC200C20053
:070D9700E47800F208F222EB
:1007A40020A503300006300D033000457800E264D4
:1007B40001703EC28020134220153F7823E22401B9
:1007C400F218E23400F2C308E294DC18E294054023
:1007D4002930A506300D03300020120000E4780013
:1007E400F2120FC8C208C210E47800F208F2C20084
:0B07F4002230A506E47822F208F22271
:1006C90030820630820320A621781CE204F2C3940A
:1006D90002401BE4F2D2137859F208F2D219781ABF
:1006E900F208F27800F208F28004E4781CF2301380
:1006F9001D785908E22401FFF218E23400FEF2C322
:10070900EF94A0EE940F4006C213E4F208F23019F8
:100719001D781A08E22401FFF218E23400FEF2C340
:0F072900EF9410EE94274006C219E4F208F22272
:100E3C0030810DD215E4785FF208F27800F208F2F6
:100E4C0030151D785F08E22401FFF218E23400FE31
:100E5C00F2C3EF94D0EE94074006C215E4F208F208
:010E6C002263
:100C1A00C200C21AC200C200E47844F27855F278DF
:100C2A0000F27852F208F27800F208F2785DF208DF
:100C3A00F27800F27800F2C200C204C2007800F230
:100C4A00C2007800F2C200784FF2C205C21B785C7B
:070C5A00F2C2177845F222F7
:0C13C600D200D21AE47844F27855F222EA
:10115D0075DCC07824E4F208741DF218E2FC08E294
:08116D00FDECF5D1EDF5D922EE
:1008D400EF14601F146031146043240370537824B0
:1008E400E4F208740DF218E2FC08E2FDECF5D2ED36
:1008F400F5DA2278247401F208E4F218E2FC08E242
:10090400FDECF5D3EDF5DB227824E4F2087480F2F3
:1009140018E2FC08E2FDECF5D5EDF5DD227824E4DF
:10092400F2087440F218E2FC08E2FDECF5D6EDF5AD
:02093400DE22C1
:0813E400E4FF1208D402115DC0
:0705E3007826ECF208EDF2AE
:1005EA007E007C2B7D3312037FE47B0CFAF9F81230
:1005FA0002D9C3E49FFFE49E782AF2782CEFF278BE
:10060A0026E2FE08E2FFEE3395E0FDFCE47B0BFAFE
:10061A00F9F812024EE47B0CFAF9F81202D9C3E493
:10062A009FFFE49EAD07FF782BF2AE05782DEEF220
:10063A00758911782AE2F58C782CE2F58A8F8D8EED
:0D064A008BD2A9D28CD2ABD28ED2BBD2AF54
:010657002280
:040AF3007828EFF27E
:100AF700E408F27829E2FFC39402500A120B3F7808
:100B070029E204F280ED7828E2FF7E007C2B7D331A
:100B170012037FE47B0CFAF9F81202D9C3E49FFFB2
:100B2700E49EAD07FC782AF2782CEFF25389F04364
:070B37008901121290D2A9FE
:010B3E002294
:03140100D2AF2245
:0413F9004387012203
:0F129000C28C782CE2F58A782AE2F58CD28C2277
:100D9E0053A2BF75985A758920AB07AA06E4F9F8D5
:100DAE007F807E70FDFC1202D912036B8F8B8F8DAC
:100DBE007F01120AF3C299C298D2ACD28ED28CD2D3
:060DCE00A9D2BCD2AF2245
:0813EC008F993099FDC299228E
:100EC900782EEBF208EAF208E9F2AF051DEF601A95
:100ED900782EE2FB0808E2F92401F218E2FA34005C
:0B0EE900F2120235FF1213EC80E02231
:0303DB008133016A
:040DD4007831EFF291
:100DD800D2A01210C3C2A01210C3E47832F2783144
:100DE800E2FF08E2C39F5019D2A17F147E001211BE
:100DF8002BC2A17F147E0012112B7832E204F280FC
:010E0800DD0C
:010E090022C6
:10114400C294C2A1D2A07F5E7E0112112BC2A07FE5
:091154005E7E0112112BC29422EF
:0107FF0022D7
:0F129F00D2947F04120DD47F50121175C2942285
:0F12AE00D2947F18120DD47F01121175C29422B1
:10122100D2947F1A120DD47F1E121175D200E47868
:0312310000F222A6
:1011CE00D294E47800F27F1B120DD47F1E1211759B
:0511DE00C294C21222C0
:10123400D2947F02120DD47F5A121175C2947F1E6C
:031244000211751F
:0F12BD00D2947F16120DD47F8C121175C2942219
:0F12CC00D2947F07120DD47F3C121175C2942269
:10124700D2947F03120DD47FB4121175C2947F1408
:031257000211750C
:10125A00D294E47800F27F09120DD47F3C12117502
:03126A00C2942209
:0F12DB00D2947F0A120DD47F3C121175C2942257
:0F12EA00D2947F0F120DD47F64121175C294221B
:0F12F900D2947F1C120DD47F78121175C29422EB
:0F130800D2947F15120DD47F96121175C29422C4
:0F131700D2947F06120DD47F50121175C294220A
:0F132600D2947F05120DD47F32121175C294221A
:0F133500D2947F04120DD47FB4121175C294228A
:0F134400D2947F03120DD47F8C121175C29422A4
:0F135300D2947F02120DD47F78121175C29422AA
:0F136200D2947F0B120DD47F50121175C29422BA
:0F137100D2947F07120DD47F32121175C29422CD
:0F138000D2947F08120DD47F50121175C294229F
:0F138F00D2947F0C120DD47F50121175C294228C
:0F139E00D2947F0D120DD47F50121175C294227C
:03140400021221B0
:100F65007863E204F2D3940340177405F230161146
:100F750020000E20000B200008201705120E6DC260
:020F8500162232
:0913DB00301805C2181211CE22CF
:10126D0075AF30C2AF75C7AA75C755439F01D2AFD1
:03127D0002111D3E
:10120D0075AF3012111DC2AF75C7AA75C755539F63
:04121D00FED2AF222C
:0C111100E2FC08E2FDECF5A7AF058FA69C
:0E111D00C2AF75C7AA75C75543A401D2AF2251
:1011E3007834EEF208EFF212126D75AF22783412F2
:0511F300111102120DB4
:060E9B007800E2FD7E304C
:100EA1007836EEF208EFF208EDF212126D75AF210D
:100EB1007836E2FC08E2FDECF5A7AF058FA608E263
:080EC100F5AE12111D02120D25
:07103C007839EEF208EFF233
:1010430012126DE4F5AF783912111108E5AEF21200
:06105300120D783BE2FFE4
:011059002274
:100C61007F007E301211E37800E2FD7F007E3012BA
:100C71000EA17800E2FD7F017E30120EA17F0212EB
:100C81000E9B7800E2FD7F037E30120EA17800E218
:100C9100FD7F047E30120EA17800E2FD7F057E30DB
:030CA100020EA19F
:100CA4007F007E301211E37F00120E9B7800E2FD7C
:100CB4007F017E30120EA17800E2FD7F027E3012A9
:100CC4000EA17800E2FD7F037E30120EA17800E2CF
:100CD400FD7F047E30120EA17800E2FD7F057E3098
:030CE400020EA15C
:0203DE00C11C40
:1009F100780D74C8F20874E0F20874C1F2E4786505
:100A0100F2E47866F27865E2240DF8E230E707C295
:100A1100901210A98005C290121075D2907865E2EB
:100A2100240DF8C000E2FF25E0D000F21210757825
:100A310066E204F2E2C3940840CB7865E204F2E294
:050A4100C3940340BC5A
:010A4600228D
:100A4700780D74C8F20874E0F20874C2F2E47865AD
:100A5700F2E47866F27865E2240DF8E230E707C23F
:100A6700901210A98005C290121075D2907865E295
:100A7700240DF8C000E2FF25E0D000F212107578CF
:100A870066E204F2E2C3940840CB7865E204F2E23E
:050A9700C3940340BC04
:010A9C002237
:100A9D00780D74C8F20874E0F20874C3F2E4786556
:100AAD00F2E47866F27865E2240DF8E230E707C2E9
:100ABD00901210A98005C290121075D2907865E23F
:100ACD00240DF8C000E2FF25E0D000F21210757879
:100ADD0066E204F2E2C3940840CB7865E204F2E2E8
:050AED00C3940340BCAE
:010AF20022E1
:1011F8001210F71210F71210F71210F71210F71258
:0512080010F70210F7D1
:10105A001210F71210F71210F71210F71210F712F7
:0B106A0010F71210F71210F70210F739
:100EF400301C13783CE204F2E2C3940A401AE4F290
:100F0400120000C21C22783CE204F2E2C3940A40BC
:090F140007E4F2120000D21C22D5
:0303E00081400059
:10065800E4783DF2783DE2FFC39402505EEF75F016
:1006680008A4240FF8E6604C783DE2FF75F008A472
:10067800240EF8E6D39400403BEF75F008A4240854
:10068800F8E6FE08E6AA06F9120379783DE2FF7556
:10069800F008A4240EF816EF75F008A4240CF8E668
:1006A800FE08E64E700E783DE275F008A42408F8BE
:1006B800E4F608F6783DE204F28099121407021372
:0106C800FD34
:0704EE00783EEEF208EFF288
:1004F500E4FFEF75F008A42408F8E6F58308E6455F
:10050500836009EFC3940250030F80E6EFB402083D
:1005150078407401F27F0222783EE2F58308E2F525
:1005250082EF75F008A42408F8A68308A682EF7563
:10053500F008A4240AF8A60408A605AC02AD03EF4A
:1005450075F008A4240CF8A60408A605A21DE4333A
:10055500FEEF75F008A4240FF8A606EF75F008A4C1
:05056500240EF8E4F68D
:01056A00226E
:100B3F00EF75F008A42408F8E6FC08E64C70097875
:100B4F00407402F2D21E8002C21EEF75F008A42478
:100B5F0008F8E4F608F6EF75F008A4240AF8E4F6AE
:100B6F0008F6EF75F008A4240CF8E4F608F6EF7514
:0A0B7F00F008A4240EF8E4F6A21E0C
:010B89002249
:0114070022C2
:0413FD0043870122FF
:1003E300825D0000C10081440082520000815500FB
:1003F30081560082610000C10281580082500000D2
:1004030082460000814F00C117814500C101824926
:100413000000C11382590000C105C114815B008132
:100423005C00C104C115825F0000C108824B00005B
:10043300824D0000C109C10AC10BC10CC10EC10F1D
:10044300815700C111815400C106C112816300C1EB
:0E04530016C107C103C118C10D814800C110B8
:0309960012140137
:10099900120A47E47864F21210F77864E204F2E28A
:1009A900C3940A40F2120A9DE47864F21210F778AF
:1009B90064E204F2E2C3940440F21209F1E47864B7
:1009C900F21210F77864E204F2E2C3940A40F212D8
:1009D9000A9DE47864F27864E2C3940450B2121078
:0809E900F77864E204F280EEED
:0300000002046295
:0C046200787FE4F6D8FD7581230204A920
:10023500BB010689828A83E0225002E722BBFE02C7
:09024500E32289828A83E49322FA
:10024E00E88FF0A4CC8BF0A42CFCE98EF0A42CFC4F
:10025E008AF0EDA42CFCEA8EF0A4CDA8F08BF0A4CD
:10026E002DCC3825F0FDE98FF0A42CCD35F0FCEB2C
:10027E008EF0A4FEA9F0EB8FF0A4CFC5F02ECD39F1
:0F028E00FEE43CFCEAA42DCE35F0FDE43CFC225E
:10029D0075F008758200EF2FFFEE33FECD33CDCC18
:1002AD0033CCC58233C5829BED9AEC99E58298409B
:1002BD000CF582EE9BFEED9AFDEC99FC0FD5F0D678
:1002CD00E4CEFBE4CDFAE4CCF9A88222B800C1B9A2
:1002DD000059BA002DEC8BF084CFCECDFCE5F0CBE0
:1002ED00F97818EF2FFFEE33FEED33FDEC33FCEB19
:1002FD0033FB10D703994004EB99FB0FD8E5E4F9D4
:10030D00FA227818EF2FFFEE33FEED33FDEC33FCC0
:10031D00C933C910D7059BE99A4007EC9BFCE99AB4
:10032D00F90FD8E0E4C9FAE4CCFB2275F010EF2FF9
:10033D00FFEE33FEED33FDCC33CCC833C810D707F9
:10034D009BEC9AE899400AED9BFDEC9AFCE899F834
:0E035D000FD5F0DAE4CDFBE4CCFAE4C8F922C7
:0E036B00C3E49FFFE49EFEE49DFDE49CFC22A3
:060379008A838982E4730F
:10037F00EC8EF0A4CCC5F0CCCDF8EFA4CEC5F02D0B
:10038F00FDE43CFCE8A42EC8C5F03DFDE43CFCEFC9
:0D039F00A4FFE5F028FEE43DFDE43CFC2257
:10046E00020996E493A3F8E493A34003F68001F205
:10047E0008DFF48029E493A3F85407240CC8C3338F
:10048E00C4540F4420C8834004F456800146F6DF5E
:10049E00E4800B01020408102040809003ACE47E3F
:1004AE00019360BCA3FF543F30E509541FFEE49353
:1004BE00A360010ECF54C025E060A840B8E493A31A
:1004CE00FAE493A3F8E493A3C8C582C8CAC583CA45
:1004DE00F0A3C8C582C8CAC583CADFE9DEE780BEFD
:01046100009A
:00000001FF
