:10031D00C104C10FC109C10B812500812600C1088F
:10032D00C110810E0082160000812100811400820F
:10033D00270000C101810000821200008119008197
:10034D002300812F00810500821F00008706000019
:10035D000000000000C105810D0081040081150021
:10036D00C180812D00812E00811B00811A00822BFE
:10037D000000C103811C0082100000810F00C10E1E
:10038D00810100C10282020000C10A821D0000C16C
:10039D0007C10C812200812400C106C10D822900F4
:0403AD0000811800B3
:100E63007D647C007F321204CDD2A4D2A0C2901242
:040E7300102F80FBC1
:03000B0002085791
:10085700C0E0C0D075D000C000C006C0077867E20E
:10086700F58C7869E2F58A781F08E22401FFF2180F
:10087700E23400FEF2C3EF940AEE94004006E4F27D
:1008870008F2B2A720A40E7818E204F2C3944640F7
:1008970004E4F2D2A4D007D006D000D0D0D0E03202
:03001B000201815E
:10018100C0E0C0D075D000C000C006C0077868E2EA
:10019100F58D786AE2F58B30B00EC200782EE2045C
:1001A100F264787064F2806120004AD200782EE215
:1001B100FFD394144018EFD3945050127804E225E1
:1001C100E0F254FEF27815E204F2782DE4F2782E92
:1001D100E2D3945040147804E225E0F24401F2782D
:1001E10015E204F2782DE4F28005782DE204F2782C
:1001F1002EE4F28014782DE204F2E2C3943C40092B
:100201007815E4F2D200780DF27815E26408703BBB
:10021100F27804E2FF780DE2FE2406F8EFF2EE70C8
:100221000D7806E2B4C807780D7401F2801DEEB4B2
:10023100010D7807E2B4E007780D7402F2800CEE4C
:10024100B40204D2058000780DE4F230050FC20536
:100251007808E2243F7006C2A47818E4F2D007D0EF
:0802610006D000D0D0D0E0323D
:10045500E4FAEF6405703343F620C2F8C2F9D2FA24
:1004650043E180C2FCD2FBADF8EDC413135403FD88
:10047500AFE2AB07EB7E007802C333CE33CED8F9BB
:100485007C002DFBEC3EAF03FE22EF640670354386
:10049500F640D2F8C2F9D2FA43E180C2FCD2FBADF4
:1004A500F8EDC413135403FDAFE27A00AB07EB7EFE
:1004B500007802C333CE33CED8F97C002DFBEC3E59
:0704C500FEAF0322E4FEFF7D
:0104CC00220D
:0303B10081320096
:0D000E007F061204557810EEF208EFF22282
:100269007830EEF208EFF2C3941BEE9403400BD200
:10027900947F12120ACA7F3C61077830E2FE08E2D5
:10028900FFC3941BEE94035014C3EF940CEE940334
:10029900400BD2947F08120ACA7F6480617830E2E9
:1002A900FE08E2C3940CEE94035011C3EE9403408C
:1002B9000BD2947F07120ACA7F6480427830E2FE2B
:1002C90008E2FFC3EE94035014C3EF94F5EE9402D1
:1002D900400BD2947F06120ACA7F6480217830E2EB
:1002E900FE08E2FFC394F5EE94025018C3EF94E1BF
:1002F900EE9402400FD2947F05120ACA7F64120E4F
:100309000AC29422C37831E294E118E294025003BC
:04031900120EAE22F0
:0903B400874E000000000000006B
:09101500C290D2A7C293C2A62228
:1008A700783574AAF2E418F2E47833F27835E2C2C4
:1008B700907D147C007F2E120A49D2907835E2256C
:1008C700E0F27D187C007F28120A497833E204F2AF
:1008D700E2C3940840D6783574AAF218E204F2E22B
:0708E700C3940240C3D2904C
:0108EE0022E7
:1008EF00783874AAF2E418F2E47836F27838E2C273
:1008FF00907D147C007F2E120A49D2907838E22521
:10090F00E0F27D187C007F28120A497836E204F263
:10091F00E2C3940640D6783874AAF218E204F2E2E1
:07092F00C3940240C3D29003
:01093600229E
:04075E007839EFF205
:10076200E408F2E4783BF2783AE2244EF8E230E729
:100772000CC2907839E2FD7C007F24800AC2907816
:1007820039E2FD7C007F17120A49D290783AE224BE
:100792004EF8C000E225E0D000F27839E2FD7C009C
:1007A2007F14120A49783BE204F2E2C3940840B78C
:0B07B200783AE204F2E2C3940340A88E
:0107BD002219
:100B3400783CEFF208ECF208EDF2D2937F14120E37
:100B44000AC2A7784E74C8F20874E0F2783CE278DE
:100B540050F21208A7783D08E2FF12075ED2A7D22E
:020B64009322DA
:100B0000783FEFF208ECF208EDF2D2937F14120E68
:100B10000AC2A7784E74C8F20874E0F2783FE2780F
:100B200050F21208A7784008E2FF12075EC2A7C27F
:040B300093C29022BA
:040800007842EFF259
:10080400E408F212100B900000E493784EF290008A
:1008140000E49308F2900000E49308F2900000E4EE
:100824009308F2900000E49308F27842E27853F2DD
:100834001208A7E47843F27BFE7A00794E7D061213
:100844000BC8120D3F7843E204F2E2C3941E40E762
:03085400020FD6BA
:040937007844EFF21F
:10093B00E408F212100B900000E493784EF2900052
:10094B0000E49308F2900000E49308F2900000E4B6
:10095B009308F2900000E49308F27844E27853F2A3
:10096B001208EF7BFE7A00794E7D06120BC8020F40
:01097B00D6A5
:0A100B00120C63D28CD293C2A7220C
:0C0FD600D2A7C293C290120C40D28C2211
:100A060012100B784E74C8F20874C1F2900000E41C
:100A16009308F2900000E49308F2900000E4930833
:100A2600F2900000E49308F2900000E49308F212BA
:100A360008A77BFE7A00794E7D07120BC8120D734C
:030A4600020FD6C6
:1006280020910F782EE204F2C394784002E4F2C2DB
:100638000022200041D200782EE2FFD394234010FC
:10064800EFD39450500A7804E225E0F254FE80106B
:10065800782EE2D3945040147804E225E0F2440165
:10066800F27815E204F2E4782DF28005782DE204A0
:10067800F2E4782EF222782DE204F2C3943C400989
:0A068800E47815F2D200780DF2229A
:1006920030B00F782EE204F2C394784002E4F2C242
:1006A2000022200041D200782EE2FFD39423401092
:1006B200EFD39450500A7804E225E0F254FE801001
:1006C200782EE2D3945040147804E225E0F24401FB
:1006D200F27815E204F2E4782DF28005782DE20436
:1006E200F2E4782EF222782DE204F2C3943C40091F
:0A06F200E47815F2D200780DF22230
:1007BE007815E264087039F27804E2FF780DE2FEF3
:1007CE002406F8EFF2EE700C7806E2B4C806780D47
:1007DE007401F222EEB4010C7807E2B4E006780D53
:1007EE007402F222EEB40204D2058000E4780DF217
:0107FE0022D8
:070542007846ECF208EDF22F
:10054900784E74C8F20874E0F208EFF2E47848F2E1
:10055900E47849F27848E2244EF8E230E70DC2A384
:100569007846E2FC08E2FD7F24800BC2A37846E2CC
:10057900FC08E2FD7F17120A49D2A37848E2244E0B
:10058900F8C000E225E0D000F27846E2FC08E2FD7E
:100599007F0F120A497849E204F2E2C3940840B491
:0B05A9007848E204F2E2C3940340A58E
:0105B4002224
:0705B500784AECF208EDF2B8
:1005BC00784E74C8F20874E0F208EFF2E4784CF26A
:1005CC00E4784DF2784CE2244EF8E230E70DC2812B
:1005DC00784AE2FC08E2FD7F24800BC281784AE273
:1005EC00FC08E2FD7F17120A49D281784CE2244EB6
:1005FC00F8C000E225E0D000F2784AE2FC08E2FD07
:10060C007F0F120A49784DE204F2E2C3940840B419
:0B061C00784CE204F2E2C3940340A516
:0106270022B0
:0403BD00825B00005F
:100D2500785B74FFF2087493F2785B08E22401FFA4
:0A0D3500F218E23400F24F70F022D1
:100D3F00785B74FDF20874E3F2785B08E22401FF3C
:0A0D4F00F218E23400F24F70F022B7
:100D5900785B74FBF20874C7F2785B08E22401FF40
:0A0D6900F218E23400F24F70F0229D
:100D7300785B74EAF20874E7F2785B08E22401FF17
:0A0D8300F218E23400F24F70F02283
:100D8D00785B74D5F20874CFF2785B08E22401FF2A
:0A0D9D00F218E23400F24F70F02269
:100DA700785B742DF208740FF2785B08E22401FF78
:0A0DB700F218E23400F24F70F0224F
:100E0A00AE071FEE60107C137D88ED1DAA047001E9
:060E1A001C4A60EC80F4AC
:010E200022AF
:070A49007855ECF208EDF214
:100A5000E408F208F2EFFDC37858E29D18E2940032
:100A60005025E4FEEEFDD37856E29D7480F5F01833
:100A7000E2648095F040030E80EA7858E22401F2A7
:070A800018E23400F280CE01
:010A8700224C
:100CEA00E4FDFCC3ED9FEC9E5015E4FBFA0BBB0040
:0F0CFA00010AEB64644A70F50DBD00010C80E443
:010D090022C7
:100DC100E4FDFCC3ED9FEC9E500EE4FB0BEBB40481
:080DD100FB0DBD00010C80EBDD
:010DD90022F7
:070A88007859EEF208EFF2CD
:100A8F00E4F9E4FAFBD3785AE29B18E29A40070B99
:100A9F00BB00010A80EF09E9B432E7E4F9209216AE
:100AAF00E4FAFBC3EB9DEA9C50070BBB00010A80E5
:060ABF00F209E9B432E780
:010AC500220E
:0403C100C112C11193
:100CA800200009121000D200E47800F2D212E47891
:100CB80024F27F14120E0AE47800F2300002C20017
:010CC8002209
:100CC900D200C200E47822F2C20C7800F2200010AF
:100CD900120FED7800E2FE08E2FF1202691207FF27
:010CE90022E8
:0B0FE200C211C20FC212D284D28322BF
:10097C0030091F7825E2C394045017D204120EDB01
:10098C007825E204F2C394044008E4F2C209C204DC
:10099C00C206300B1F7826E2C394045017D20412FF
:1009AC000E8A7826E204F2C394044008E4F2C20BE7
:0509BC00C204C2062286
:100C8600300C1E7822E204F2C394034014E4F2C24C
:100C96000C7800F2781CE27006200003120E9DC24A
:020CA60000222A
:100DDA0030121420A4117824E204F2C394034007C9
:080DEA00E4F2C212120E9D2278
:100BF3003000247800E204F2D39405401AE478002C
:100C0300F208F27800F208F2C200C200C200C20089
:080C1300C200C2007800F222C9
:100E21003008127805E2C39405500A7FC512080004
:060E31007805E204F22244
:100E3700301012782FE2C39405500A7FC4120800BD
:060E4700782FE204F22204
:100E4D00300E127801E2C39405500A7FC2120800D9
:060E5D007801E204F2221C
:100B6600785DEEF208EFF208ECF208EDF2EBFD7CB0
:100B7600007FC1120542D2A2C2A3785DE2FE08E25E
:100B8600FF08E2FC08E2FD120A88D2A2D2A3C285BF
:010B9600223C
:100B97007861EEF208EFF208ECF208EDF2EBFD7C7B
:100BA700007FC11205B5D2A2C2A37861E2FE08E2B6
:100BB700FF08E2FC08E2FD120A88C2A2C2A3C285AE
:010BC700220B
:0E0FAD00D285C2A2D2A3120A88D2A2D2A32257
:0E0FBB00D285C2A2D2A3120A88C2A2C2A32269
:1009C100C20FC211C208C210E47800F27819F2789D
:1009D1000EF27812F208F27816F208F27827F2088D
:1009E100F27814F27821F2C204C2097825F2C20B1E
:1009F1007826F2C201780FF2C207C2127824F2C23D
:050A01000E7801F22255
:100E9D00D20FD211E47800F27819F2C2127824F24E
:010EAD002222
:08000300C2A4120DA7D2A42231
:100DF20075DCC07865E4F208741DF218E2FC08E2C2
:080E0200FDECF5D1EDF5D9225C
:1006FC00EF14601F14603114604324037053786549
:10070C00E4F208740DF218E2FC08E2FDECF5D2ED0F
:10071C00F5DA2278657401F208E4F218E2FC08E2DA
:10072C00FDECF5D3EDF5DB227865E4F2087480F28C
:10073C0018E2FC08E2FDECF5D5EDF5DD227865E478
:10074C00F2087440F218E2FC08E2FDECF5D6EDF587
:02075C00DE229B
:080FF800E4FF1206FC020DF2F9
:0704CD007871ECF208EDF27A
:1004D4007E007C2B7D33120154E47B0CFAF9F81274
:1004E40000C2C3E49FFFE49E7867F27869EFF27874
:1004F40071E2FE08E2FFEE3395E0FDFCE47B0BFACB
:10050400F9F8120037E47B0CFAF9F81200C2C3E4DC
:100514009FFFE49EAD07FF7868F2AE05786AEEF2BD
:100524007589117867E2F58C7869E2F58A8F8D8E8A
:0D0534008BD2A9D28CD2ABD28ED2BBD2AF6B
:010541002297
:100C1B007E007C2B7D33120154E47B0CFAF9F81225
:100C2B0000C2C3E49FFFE49E7867F27869EFF27528
:040C3B008921D28CAD
:010C3F002292
:04102F0043870122D0
:100C400053A2BF75985A758920758BFD758DFDD29D
:100C50008E7F01120C1BC299C298D2ACD2A9D2BC11
:030C6000D2AF22EE
:100C630053A2BF75985A758920758BE8758DE8D2A4
:100C73008E7F01120C1BC299C298D2ACD2A9D2BCEE
:030C8300D2AF22CB
:081027008F993099FDC2992256
:100BC800786BEBF208EAF208E9F2AF051DEF601A5C
:100BD800786BE2FB0808E2F92401F218E2FA340023
:0B0BE800F212001EFF12102780E02216
:0303C50081700143
:040AC600D2947F192E
:040ACA00786EEFF261
:100ACE00C2A0120D73D2A0120D73E4786FF2786E7D
:100ADE00E2FF08E2C39F5019D2A17F147E00120DCF
:100AEE00C1C2A17F147E00120DC1786FE204F280A4
:010AFE00DD1A
:010AFF0022D4
:100D0A00C294C2A1C2A07F5E7E01120DC1D2A07F91
:0B0D1A005E7E01120DC1D294C2942233
:0107FF0022D7
:0F0EAE00D2947F04120ACA7F50120E0AC29422F5
:0F0EBD00D2947F18120ACA7F1E120E0AC2942204
:0D0FC900120AC67F1E120E0AC294C2002238
:100E7700D2947F02120ACA7F5A120E0AC2947F1EA8
:030E8700020E0A4E
:0F0ECC00D2947F11120ACA7F8C120E0AC294228E
:0F0EDB00D2947F0E120ACA7F50120E0AC29422BE
:100E8A00D2947F03120ACA7FB4120E0AC2947F1444
:030E9A00020E0A3B
:0B0FED00120AC67F1E120E0AC29422D8
:0B100000120AC67F1E120E0AC29422C4
:0F0EEA00D2947F0D120ACA7F64120E0AC294229C
:0F0EF900D2947F14120ACA7F78120E0AC2942272
:0F0F0800D2947F13120ACA7F96120E0AC2942245
:0F0F1700D2947F09120ACA7F50120E0AC2942286
:0F0F2600D2947F07120ACA7F32120E0AC2942297
:0F0F3500D2947F05120ACA7F96120E0AC2942226
:0F0F4400D2947F03120ACA7F8C120E0AC2942223
:0F0F5300D2947F02120ACA7F78120E0AC2942229
:0F0F6200D2947F0B120ACA7F50120E0AC2942239
:0F0F7100D2947F0B120ACA7F32120E0AC2942248
:0F0F8000D2947F0F120ACA7F50120E0AC2942217
:0F0F8F00D2947F0C120ACA7F50120E0AC294220B
:0F0F9E00D2947F0D120ACA7F50120E0AC29422FB
:09101E00300005C200120EBD22D3
:030000000203C92F
:0C03C900787FE4F6D8FD75812202041054
:10001E00BB010689828A83E0225002E722BBFE02E0
:09002E00E32289828A83E4932213
:10003700E88FF0A4CC8BF0A42CFCE98EF0A42CFC68
:100047008AF0EDA42CFCEA8EF0A4CDA8F08BF0A4E6
:100057002DCC3825F0FDE98FF0A42CCD35F0FCEB45
:100067008EF0A4FEA9F0EB8FF0A4CFC5F02ECD390A
:0F007700FEE43CFCEAA42DCE35F0FDE43CFC2277
:1000860075F008758200EF2FFFEE33FECD33CDCC31
:1000960033CCC58233C5829BED9AEC99E5829840B4
:1000A6000CF582EE9BFEED9AFDEC99FC0FD5F0D691
:1000B600E4CEFBE4CDFAE4CCF9A88222B800C1B9BB
:1000C6000059BA002DEC8BF084CFCECDFCE5F0CBF9
:1000D600F97818EF2FFFEE33FEED33FDEC33FCEB32
:1000E60033FB10D703994004EB99FB0FD8E5E4F9ED
:1000F600FA227818EF2FFFEE33FEED33FDEC33FCDA
:10010600C933C910D7059BE99A4007EC9BFCE99ACD
:10011600F90FD8E0E4C9FAE4CCFB2275F010EF2F12
:10012600FFEE33FEED33FDCC33CCC833C810D70712
:100136009BEC9AE899400AED9BFDEC9AFCE899F84D
:0E0146000FD5F0DAE4CDFBE4CCFAE4C8F922E0
:10015400EC8EF0A4CCC5F0CCCDF8EFA4CEC5F02D38
:10016400FDE43CFCE8A42EC8C5F03DFDE43CFCEFF6
:0D017400A4FFE5F028FEE43DFDE43CFC2284
:1003D500020E63E493A3F8E493A34003F68001F2CD
:1003E50008DFF48029E493A3F85407240CC8C33329
:1003F500C4540F4420C8834004F456800146F6DFF8
:10040500E4800B010204081020408090031DE47E67
:10041500019360BCA3FF543F30E509541FFEE493EC
:10042500A360010ECF54C025E060A840B8E493A3B3
:10043500FAE493A3F8E493A3C8C582C8CAC583CADE
:10044500F0A3C8C582C8CAC583CADFE9DEE780BE96
:0103C8000034
:00000001FF
