:03000000020003F8
:0C000300787FE4F6D8FD75812002004AE9
:0903B900C101C100C10281000074
:10008F00120241120356120241D2A2C2A312017DE3
:10009F00D2A2D2A3E4780CF230004BC2007FCF7E05
:1000AF00D512038AC2A2D2A3E4780DF27F0F7E2D60
:1000BF0012038A780DE204F2E2C3940440EED2A256
:1000CF00D2A3E4780DF27FCF7ED512038A780DE2AA
:1000DF0004F2E2C3940240EE120241D2A2C2A31272
:1000EF00017DD2A2D2A37800E2C394054002C2964A
:1000FF00780CE204F2E2C39407409DE47800F2C268
:01010F0000EF
:0101100022CC
:10011100C2A2D2A31201DFD2A2D2A3C202E4780CFE
:10012100F230003CC2007FCF7ED512038A12024119
:10013100D2A2C2A3E4780DF27F0F7E2D12038A783A
:100141000DE204F2E2C3940440EED2A2D2A37FCF27
:100151007ED512038AC2A2D2A31201DFD2A2D2A3F8
:100161007800E2C394054002C296780CE204F2E200
:0B017100C3940740ACE47800F2C20029
:01017C002260
:10024100780274C8F20874E0F20874C1F2E4780E1E
:10025100F2E4780FF2780EE22402F8E230E707C206
:10026100A31203228005C2A31202EED2A3780EE2EA
:100271002402F8C000E2FF25E0D000F21202EE787D
:100281000FE204F2E2C3940840CB780EE204F2E2FA
:05029100C3940340BC12
:010296002245
:10017D00120356120356120356120356E4780EF26A
:10018D0008F2309202D200200003120308780FE229
:10019D002401F218E23400F2C308E2941418E29438
:1001AD000040DF200023E47810F208F27F0F7E2D4F
:1001BD0012038A7811E22401F218E23400F2C30826
:1001CD00E2940618E2940040E33000057800E20462
:0101DD00F22F
:0101DE0022FE
:1001DF00120356120356120356120356E4780EF208
:1001EF0008F2309202D200200003120308780FE2C7
:1001FF002401F218E23400F2C308E2941418E294D6
:10020F000040DF200023E47810F208F27F0F7E2DEC
:10021F0012038A7811E22401F218E23400F2C308C3
:10022F00E2940618E2940040E33000057800E204FF
:01023F00F2CC
:01024000229B
:10029700E4780BF2D2963096FDE4780BF27F0F7E6E
:1002A7002D12038A780BE204F2E2C3940A40EE129D
:1002B7000111E4780BF27F0F7E2D12038A780BE28F
:0D02C70004F2E2C3940A40EE12008F80C9D9
:0403C20082090000AC
:10038A007809EEF208EFF2780908E22401FFF21880
:08039A00E23400F24F70F02282
:1002D400780974FFF2087493F2780908E22401FFA4
:0A02E400F218E23400F24F70F0222D
:1002EE00780974FDF20874E3F2780908E22401FF3C
:0A02FE00F218E23400F24F70F02213
:10030800780974FBF20874C7F2780908E22401FF3F
:0A031800F218E23400F24F70F022F8
:10032200780974FAF20874EFF2780908E22401FFFE
:0A033200F218E23400F24F70F022DE
:10033C00780974EAF20874E7F2780908E22401FFFC
:0A034C00F218E23400F24F70F022C4
:10035600780974D5F20874CFF2780908E22401FF0F
:0A036600F218E23400F24F70F022AA
:100370007809742DF208740FF2780908E22401FF5D
:0A038000F218E23400F24F70F02290
:1003A200AE071FEE60107C137D88ED1DAA0470015C
:0603B2001C4A60EC80F41F
:0103B8002222
:10000F00020297E493A3F8E493A34003F68001F26E
:10001F0008DFF48029E493A3F85407240CC8C333F2
:10002F00C4540F4420C8834004F456800146F6DFC1
:10003F00E4800B01020408102040809003B9E47E95
:10004F00019360BCA3FF543F30E509541FFEE493B6
:10005F00A360010ECF54C025E060A840B8E493A37D
:10006F00FAE493A3F8E493A3C8C582C8CAC583CAA8
:10007F00F0A3C8C582C8CAC583CADFE9DEE780BE60
:0103C6000036
:00000001FF
