:10078300C104C11BC115C117812B00812C00C109F4
:10079300C11C811000821B00008127008118008288
:1007A3002D0000C10181000082160000811E00811E
:1007B300290081350081050082250000870800009B
:1007C3000000000000C106810F00810400811A00AF
:1007D300C180813300813400812000811F00823178
:1007E3000000C10381220082140000811300C11A9A
:1007F300810100C10282020000C11682230000C1F0
:1008030008C118812800C105812A00C107C11982C6
:100813002F0000C10C8206000082110000C10DC12F
:100823000EC10FC110C111C112812100C113811961
:0A08330000C10AC114811D00C10BB1
:1008E2001213B312127AC205C21BD21DD284D28352
:1008F200D2901215FAD2A7C29378297406F2D2A224
:10090200D2A37D407C1F7F887E131215D0D2A6C24F
:1009120094D285D28C120D39301522782BE2C394F1
:1009220004501AD20420A4031214E0782BE204F239
:10093200C394044008E4F2C215C204C2073017D5BA
:10094200782CE2C3940450CDD20420A403121438AC
:10095200782CE204F2C3940440BBE4F2C217C2044E
:04096200C20780B197
:03000B00020026CA
:10002600C0E0C0F0C083C082C0D075D000C000C0A0
:1000360001C002C003C004C005C006C0077866E25E
:10004600F58C7868E2F58A782508E22401FFF21833
:10005600E23400FEF2C3EF94D0EE94074063E4F27C
:1000660008F27822E2B401031215FA30181978283A
:10007600E204F2C39405400FE4F2C2187819F2784C
:1000860022E27003121471301D1420A411782AE2A2
:1000960004F2C394034007E4F2C21D121471301037
:1000A600207821E204F2D3940540167806E4F2089B
:1000B600F27811F208F2C20DC20EC20FC2107821F8
:1000C600F2300C13C20C1214C27E147FE0120E41E1
:1000D6007E147F38120E4130A43E7811E4F208F205
:1000E600780608E22401FFF218E23400FEF2D3EFAC
:1000F60094A0EE940F4013740FF20874A2F2C20D8E
:10010600C20EC20FC210C211804DD20D300E02D2E5
:100116000F301043D211803F7806E4F208F2300D1A
:1001260002D20E300F02D210301102D2127811080C
:10013600E22401FFF218E23400FEF2D3EF94A0EEBF
:10014600940F4013740FF20874A2F2C20DC20EC2CD
:100156000FC210C211C21230131FC213D214C20D25
:10016600C20EC20FC210C211C2127E0F7F5CE4FB28
:10017600FAFDFC120B3512148230A4207822E270AC
:100186001B3018181212FE30A412120ED27828E470
:10019600F2C2187819F21214931214A420A41F782C
:1001A60022E2B401192016162019131212FE20A4F9
:1001B6000D7822E4F21211FFC20B781DE4F23080B2
:1001C60003208708D2167823E4F208F230161D7849
:1001D6002308E22401FFF218E23400FEF2C3EF9492
:1001E600D0EE94074006C216E4F208F2308208D236
:1001F60019782FE4F208F230191D782F08E224014D
:10020600FFF218E23400FEF2C3EF94D0EE940740FA
:1002160006C219E4F208F2308003208708D2167865
:1002260023E4F208F22005030203437800E2146097
:10023600421470030202C12402600302031A3080D2
:1002460003208728200425201422781EE204F2C306
:100256009401500302031AE4F2780004F2121366C2
:1002660012136612136612136602031A781EE4F25C
:1002760002031A3080032087167810E204F2C39432
:10028600014010E4F278007402F21214258004781A
:1002960010E4F2781608E22401FFF218E23400FEB8
:1002A600F2C3EF94A0EE940F406A7800E4F278105F
:1002B600F2781EF27816F208F28059308003208711
:1002C600147818E204F2C39401400EE4F2D215D277
:1002D60017D20780047818E4F2781B08E22401FF9D
:1002E600F218E23400FEF2C3EF94A0EE940F40241D
:1002F6007800E4F2781EF27810F27816F208F278B6
:100306001BF208F2782D7403F2087420F27818E4D0
:10031600F27827F22081187813E2C394335010E262
:1003260004F294324017D215D2177433F2800E308D
:10033600810B2007087813E4F2C215C217301B425E
:10034600208413781FE204F2B40A16D21CC20920D4
:10035600030FD201800BC21C7835E4F2781FF2C27B
:10036600012083137820E204F2B40A16D209C21CD3
:1003760020030FD201800BC2097805E4F27820F23F
:10038600C201300142783108E22401FFF218E2345A
:1003960000FEF2C3EF94A0EE940F402BC201E4F2EC
:1003A60008F2D2037800F2781EF27810F27816F28C
:1003B60008F2781BF208F2782D7403F2087420F222
:1003C6007818E4F27827F230870320801FD3780369
:1003D600E2948818E2941340137F031213E43087E3
:1003E60003208008D2027802E4F208F2780208E2DA
:1003F6002401FFF218E23400FEF2C3EF9488EE9473
:100406001340097413F2087489F2C202D007D006A9
:10041600D005D004D003D002D001D000D0D0D082F5
:07042600D083D0F0D0E032DA
:030023000205963D
:10059600C0E0C0F0C083C082C0D075D000C000C02B
:1005A60001C002C003C004C005C006C007209803EE
:1005B600020689C298780FE2FF2408F8E599F2301E
:1005C600120302067BEF701390300093FF7808E267
:1005D600B50708780F7401F2020689780FE2B401B4
:1005E60014903001E493FF7809E2B50708780F7498
:1005F60002F2020689780FE2FFB40213903002E499
:1006060093FE780AE2B50607780F7403F28074EF5A
:10061600B40313903003E493FF780BE2B507077831
:100626000F7404F2805D780FE2B40413903004E492
:1006360093FF780CE2B50707780F7405F2804478CB
:100646000FE26405702990300593FF780DE2B50737
:100656001E780FE4F2D2187828F2120ED2D20C7855
:1006660019E2FF04F2EFC394014018D20A8014780D
:100676000FE4F2800E780FE204F2C394064004E41D
:10068600F2D213D007D006D005D004D003D002D0C2
:0E06960001D000D0D0D082D083D0F0D0E0329E
:1009DB00E4FAEF6405703343F620C2F8C2F9D2FA99
:1009EB0043E180C2FCD2FBADF8EDC413135403FDFD
:1009FB00AFE2AB07EB7E007802C333CE33CED8F930
:100A0B007C002DFBEC3EAF03FE22EF6406703443FB
:100A1B00F640D2F8C2F9D2FA43E180C2FCD2FBAD68
:100A2B00F8EDC413135403FDAFE27A00AB07EB7E72
:100A3B00007802C333CE33CED8F97C002DFBEC3ECD
:030A4B00FEAF03F8
:010A4E002285
:03083D0081360001
:0D15FA007F061209DB7814EEF208EFF222F2
:1006A4007875EEF208EFF2C394DAEE9403400CD2BC
:1006B400947F121210A07F3C02076D7875E2FE0849
:1006C400E2FFC394DAEE94035015C3EF94C4EE949E
:1006D40003400CD2947F091210A07F6402076D7846
:1006E40075E2FE08E2FFC394C4EE94035014C3EF12
:1006F40094A6EE9403400BD2947F081210A07F645A
:1007040080677875E2FE08E2FFC394A6EE94035076
:1007140014C3EF949CEE9403400BD2947F07121001
:10072400A07F6480447875E2FE08E2FFC3949CEEE7
:1007340094035014C3EF948DEE9403400BD2947F32
:10074400061210A07F6480217875E2FE08E2FFC3E0
:10075400948DEE94035018C3EF9483EE9403400FEA
:10076400D2947F051210A07F641213E4C29422C3B2
:0F0774007876E2948318E2940350031214B322B0
:09084000874D00000000000000DB
:100E8A00783974AAF2E418F2E47837F27839E2C2CF
:100E9A00907D147C007F2E121023D2907839E2259F
:100EAA00E0F27D187C007F281210237837E204F2E2
:100EBA00E2C3940840D6783974AAF218E204F2E23E
:070ECA00C3940240C3D29063
:010ED10022FE
:040CD900783AEFF284
:100CDD00E408F2E4783CF2783BE2244DF8E230E7A8
:100CED000CC290783AE2FD7C007F24800AC2907895
:100CFD003AE2FD7C007F17121023D290783BE2245C
:100D0D004DF8C000E225E0D000F2783AE2FD7C001B
:100D1D007F14121023783CE204F2E2C3940840B72A
:0B0D2D00783BE204F2E2C3940340A80C
:010D38002298
:10113D00783DEFF208ECF208EDF2D2937F14121322
:10114D00E4C2A7784D74C8F20874E0F2783DE278F5
:10115D004FF2120E8A783E08E2FF120CD9D2A7D2B6
:02116D009322CB
:1010D6007840EFF208ECF208EDF2D2937F14121387
:1010E600E4C2A7784D74C8F20874E0F27840E2785A
:1010F6004FF2120E8A784108E2FF120CD9C2A7C23B
:0411060093C29022DE
:040D94007843EFF2BF
:100D9800E408F2120003903000E493784DF29030AA
:100DA80001E49308F2903002E49308F2903003E4EF
:100DB8009308F2903004E49308F27843E27852F210
:100DC800120E8AE47844F27BFE7A00794D7D061291
:100DD800122A12134C7844E204F2E2C3941240E758
:030DE800021607E9
:0800030012129DD293C2A72244
:0A160700D2A7C29312127AD28C22ED
:100BA30012129DD293C2A7784D74C8F20874C1F291
:100BB300903000E49308F2903001E49308F290300F
:100BC30002E49308F2903003E49308F2903004E4D3
:100BD3009308F2120E8A7BFE7A00794D7D0712127A
:100BE3002A1213187BFE7A00794D7D0712122A12FE
:100BF30013187BFE7A00794D7D0712122A121318FF
:0A0C0300D2A7C29312127AD28C22FB
:100C0D0020910F7834E204F2C394784002E4F2C2EA
:100C1D000022200041D2007834E2FFD3942340100B
:100C2D00EFD39450500A7804E225E0F254FE801080
:100C3D007834E2D3945040147804E225E0F2440174
:100C4D00F2781AE204F2E47833F280057833E204A4
:100C5D00F2E47834F2227833E204F2C3943C400992
:0A0C6D00E4781AF2D200780FF222A8
:100FE200781AE264087039F27804E2FF780FE2FEC0
:100FF2002408F8EFF2EE700C7808E2B4C806780F15
:101002007401F222EEB4010C7809E2B4E006780F22
:101012007402F222EEB40204D2068000E4780FF2E7
:0110220022AB
:070A4F007845ECF208EDF21E
:100A5600784D74C8F20874E0F208EFF2E47847F2D1
:100A6600E47848F27847E2244DF8E230E70DC2A375
:100A76007845E2FC08E2FD7F24800BC2A37845E2BC
:100A8600FC08E2FD7F17121023D2A37847E2244D1B
:100A9600F8C000E225E0D000F27845E2FC08E2FD6D
:100AA6007F0F1210237848E204F2E2C3940840B4A0
:0B0AB6007847E204F2E2C3940340A57D
:010AC1002212
:070AC2007849ECF208EDF2A7
:100AC900784D74C8F20874E0F208EFF2E4784BF25A
:100AD900E4784CF2784BE2244DF8E230E70DC2811C
:100AE9007849E2FC08E2FD7F24800BC2817849E263
:100AF900FC08E2FD7F17121023D281784BE2244DC6
:100B0900F8C000E225E0D000F27849E2FC08E2FDF5
:100B19007F0F121023784CE204F2E2C3940840B428
:0B0B2900784BE204F2E2C3940340A505
:010B3400229E
:0408490082580000D1
:1012FE00785874FFF2087493F2785808E22401FFCC
:0A130E00F218E23400F24F70F022F2
:10131800785874FDF20874E3F2785808E22401FF63
:0A132800F218E23400F24F70F022D8
:10133200785874FBF20874C7F2785808E22401FF67
:0A134200F218E23400F24F70F022BE
:10134C00785874EAF20874E7F2785808E22401FF3E
:0A135C00F218E23400F24F70F022A4
:101366007858742DF208740FF2785808E22401FFB9
:0A137600F218E23400F24F70F0228A
:1013E400AE071FEE60107C137D88ED1DAA0470010A
:0613F4001C4A60EC80F4CD
:0113FA0022D0
:071023007854ECF208EDF235
:10102A00E408F208F2EFFDC37857E29D18E2940053
:10103A005025E4FEEEFDD37855E29D7480F5F01854
:10104A00E2648095F040030E80EA7857E22401F2C8
:07105A0018E23400F280CE21
:01106100226C
:1012C000E4FDFCC3ED9FEC9E5015E4FBFA0BBB0064
:0F12D000010AEB64644A70F50DBD00010C80E467
:0112DF0022EC
:10139A00E4FDFCC3ED9FEC9E500EE4FB0BEBB404A2
:0813AA00FB0DBD00010C80EBFE
:0113B2002218
:071062007879EEF208EFF2CD
:10106900E4F9E4FAFBD3787AE29B18E29A40070B99
:10107900BB00010A80EF09E9B432E7E4F9209216CE
:10108900E4FAFBC3EB9DEA9C50070BBB00010A8005
:06109900F209E9B432E7A0
:01109F00222E
:02084D00C11DCB
:1011FF00200A0A7814E2FE08E2FF1206A41215EC88
:10120F00200A031214FED21DE4782AF27F1412135F
:0B121F00E4E47819F2300A02C20A224F
:0F14A400200A061214EF12110A78227401F222A4
:10116F00785AEEF208EFF208ECF208EDF2EBFD7CA4
:10117F00007FC1120A4FD2A2C2A3785AE2FE08E240
:10118F00FF08E2FC08E2FD121062D2A2D2A3C285D0
:01119F00222D
:1011A000785EEEF208EFF208ECF208EDF2EBFD7C6F
:1011B000007FC1120AC2D2A2C2A3785EE2FE08E298
:1011C000FF08E2FC08E2FD121062C2A2C2A3C285BF
:0111D00022FC
:0E15D000D285C2A2D2A3121062D2A2D2A3224E
:0E15DE00D285C2A2D2A3121062C2A2C2A32260
:100ED200C21BC205C209C21CE47800F2781EF27875
:100EE20010F27816F208F2781BF208F2782DF20866
:100EF200F27818F27827F2C204C215782BF2C217E0
:100F0200782CF2C2017813F2C208C21D782AF2C20A
:050F12001A7801F22233
:10147100D21BD205E47800F2781EF2C21D782AF25E
:011481002248
:08161100C2A412134CD2A42262
:1013CC0075DCC07862E4F208741DF218E2FC08E2E5
:0813DC00FDECF5D1EDF5D9227D
:100C7700EF14601F146031146043240370537862CB
:100C8700E4F208740DF218E2FC08E2FDECF5D2ED8F
:100C9700F5DA2278627401F208E4F218E2FC08E25D
:100CA700FDECF5D3EDF5DB227862E4F2087480F20F
:100CB70018E2FC08E2FDECF5D5EDF5DD227862E4FB
:100CC700F2087440F218E2FC08E2FDECF5D6EDF507
:020CD700DE221B
:08161900E4FF120C770213CC70
:070966007864ECF208EDF2E9
:10096D007E007C2B7D33120569E47B0CFAF9F812BD
:10097D0004D1C3E49FFFE49E7866F27868EFF278C5
:10098D0064E2FE08E2FFEE3395E0FDFCE47B0BFA3A
:10099D00F9F8120446E47B0CFAF9F81204D1C3E419
:1009AD009FFFE49EAD07FF7867F2AE057869EEF222
:1009BD007589117866E2F58C7868E2F58A8F8D8EEF
:0D09CD008BD2A9C28CD2ABD28ED2BBD2AFDE
:0109DA0022FA
:101255007E007C2B7D33120569E47B0CFAF9F812CC
:1012650004D1C3E49FFFE49E7866F27868EFF275D7
:041275008921C28C7D
:011279002252
:0416290043870122D0
:10127A0053A2BF75985A758920758BFD758DFDD25D
:10128A008E7F01121255C299C298D2ACD2A9D2BC91
:03129A00D2AF22AE
:10129D0053A2BF75985A758920758BE8758DE8D264
:1012AD008E7F01121255C299C298D2ACD2A9D2BC6E
:0312BD00D2AF228B
:081621008F993099FDC2992256
:10122A00786AEBF208EAF208E9F2AF051DEF601AF4
:10123A00786AE2FB0808E2F92401F218E2FA3400BB
:0B124A00F212042DFF12162180E0229A
:03084F00816D01B7
:0410A0007879EFF27A
:1010A400C2A012134CD2A012134CE4787AF27879CD
:1010B400E2FF08E2C39F5019D2A17F147E001213ED
:1010C4009AC2A17F147E0012139A787AE204F28005
:0110D400DD3E
:0110D50022F8
:1013B300C294C2A1C2A07F5E7E0112139AD2A07F03
:0913C3005E7E0112139AD29422FD
:10110A00786DE224FE600E047028D2947F1A1210C1
:10111A00A07F648013D2947F0E1210A07F2812132E
:10112A00E47F0C1210A07F3C1213E4C294786D7411
:03113A0001F2229D
:0F14B300D2947F041210A07F501213E4C294222F
:0F14C200D2947F181210A07F1E1213E4C294223E
:10148200D2947F191210A07F1E1213E4C294C214C8
:011492002237
:10142500D2947F021210A07F5A1213E4C2947F1E39
:031435000213E4BB
:0F14D100D2947F111210A07F8C1213E4C29422C8
:0F14E000D2947F0E1210A07F501213E4C29422F8
:10143800D2947F031210A07FB41213E4C2947F14D5
:031448000213E4A8
:0F14EF00D2947F0F1210A07F3C1213E4C29422FC
:0F14FE00D2947F101210A07F3C1213E4C29422EC
:0F150D00D2947F0D1210A07F641213E4C29422B7
:0F151C00D2947F141210A07F781213E4C294228D
:0F152B00D2947F131210A07F961213E4C2942261
:0F153A00D2947F091210A07F501213E4C29422A2
:0F154900D2947F071210A07F321213E4C29422B3
:0F155800D2947F051210A07F961213E4C2942242
:0F156700D2947F031210A07F8C1213E4C294223F
:0F157600D2947F021210A07F781213E4C2942245
:0F158500D2947F071210A07F501213E4C2942259
:0F159400D2947F0B1210A07F321213E4C2942264
:0F15A300D2947F0F1210A07F501213E4C2942233
:0F15B200D2947F0C1210A07F501213E4C2942227
:0F15C100D2947F0D1210A07F501213E4C2942217
:10144B0075AF30C2AF75C7AA75C755439F01D2AFF1
:03145B0002138CED
:1014110075AF3012138CC2AF75C7AA75C755539FEC
:04142100FED2AF2226
:0C138000E2FC08E2FDECF5A7AF058FA62B
:0E138C00C2AF75C7AA75C75543A401D2AF22E0
:10000E007875EEF208EFF212144B75AF2278751276
:05001E00138002141123
:0611D100780AE2FD7E3009
:1011D7007875EEF208EFF208EDF212144B75AF21B5
:1011E7007875E2FC08E2FDECF5A7AF058FA608E2EB
:0811F700F5AE12138C02141175
:0712E000786EEEF208EFF258
:1012E70012144BE4F5AF786E12138008E5AEF212D4
:0612F70014117870E2FF03
:0112FD0022CE
:100F5C007F007E3012000E7808E2FD7F007E30129A
:100F6C0011D77809E2FD7F017E301211D77F021272
:100F7C0011D1780BE2FD7F037E301211D7780CE291
:100F8C00FD7F047E301211D7780DE2FD7F057E3097
:030F9C000211D768
:100F9F007F007E3012000E7F001211D1780BE2FD20
:100FAF007F017E301211D7780CE2FD7F027E301266
:100FBF0011D7780DE2FD7F037E301211D7780EE244
:100FCF00FD7F047E301211D7780FE2FD7F057E3052
:030FDF000211D725
:10149300120DEBD2A2C2A312145ED2A2D2A3C285B2
:0114A3002226
:0E15EC00D285C2A2D2A31213FBD2A2D2A32296
:100DEB00784D74C8F20874E0F20874C1F2E47875B7
:100DFB00F2E47876F27875E2244DF8E230E707C238
:100E0B00A31213328005C2A3121318D2A37875E272
:100E1B00244DF8C000E2FF25E0D000F21213187841
:100E2B0076E204F2E2C3940840CB7875E204F2E276
:050E3B00C3940340BC5C
:010E4000228F
:10145E001213661213662092091213661213661285
:03146E00136622E0
:1013FB0012136612136620920C12136612136612E6
:06140B00136612136622B5
:03085200817100B1
:100D3900E47879F27879E2FFC3940A5048EF75F0C4
:100D490007A4242AF8E6D3940040337879E2FF75A2
:100D5900F007A4242AF816EF75F007A42424F8E66E
:100D6900FE08E6AA06F91205637879E2FF75F0072D
:100D7900A42428F8E6FC08E64C7003120F177879CA
:0B0D8900E204F280AF12163102162DBA
:070B35007875EEF208EFF203
:100B3C00E4FFEF75F007A42424F8E6F58308E645F6
:100B4C00836009EFC3940A50030F80E6EFB40A08E0
:100B5C0078717401F27F0A227875E2F58308E2F568
:100B6C0082EF75F007A42424F8A68308A682EF75FB
:100B7C00F007A42426F8A60408A605AC02AD03EFE2
:100B8C0075F007A42428F8A60408A605EF75F0074D
:060B9C00A4242AF87601F2
:010BA2002230
:100F1700EF75F007A42424F8E6FC08E64C70057882
:100F2700717402F2EF75F007A42424F8E4F608F6CA
:100F3700EF75F007A42426F8E4F608F6EF75F00736
:100F4700A42428F8E4F608F6EF75F007A4242AF895
:040F5700E4F6A21EFC
:010F5B002273
:100E4100E4FDED75F007A42424F8E6FA08E66F70D6
:100E510002EA6E702EED75F007A42424F8E4F6087A
:100E6100F6ED75F007A42426F8E4F608F6ED75F022
:100E710007A42428F8E4F608F6ED75F007A4242A5F
:080E8100F8E4F60DEDB40ABA25
:010E89002246
:011631002296
:04162D0043870122CC
:030000000208569D
:0C085600787FE4F6D8FD75816902089DEA
:10042D00BB010689828A83E0225002E722BBFE02CD
:09043D00E32289828A83E4932200
:10044600E88FF0A4CC8BF0A42CFCE98EF0A42CFC55
:100456008AF0EDA42CFCEA8EF0A4CDA8F08BF0A4D3
:100466002DCC3825F0FDE98FF0A42CCD35F0FCEB32
:100476008EF0A4FEA9F0EB8FF0A4CFC5F02ECD39F7
:0F048600FEE43CFCEAA42DCE35F0FDE43CFC2264
:1004950075F008758200EF2FFFEE33FECD33CDCC1E
:1004A50033CCC58233C5829BED9AEC99E5829840A1
:1004B5000CF582EE9BFEED9AFDEC99FC0FD5F0D67E
:1004C500E4CEFBE4CDFAE4CCF9A88222B800C1B9A8
:1004D5000059BA002DEC8BF084CFCECDFCE5F0CBE6
:1004E500F97818EF2FFFEE33FEED33FDEC33FCEB1F
:1004F50033FB10D703994004EB99FB0FD8E5E4F9DA
:10050500FA227818EF2FFFEE33FEED33FDEC33FCC6
:10051500C933C910D7059BE99A4007EC9BFCE99ABA
:10052500F90FD8E0E4C9FAE4CCFB2275F010EF2FFF
:10053500FFEE33FEED33FDCC33CCC833C810D707FF
:100545009BEC9AE899400AED9BFDEC9AFCE899F83A
:0E0555000FD5F0DAE4CDFBE4CCFAE4C8F922CD
:060563008A838982E47323
:10056900EC8EF0A4CCC5F0CCCDF8EFA4CEC5F02D1F
:10057900FDE43CFCE8A42EC8C5F03DFDE43CFCEFDD
:0D058900A4FFE5F028FEE43DFDE43CFC226B
:100862000208E2E493A3F8E493A34003F68001F2C2
:1008720008DFF48029E493A3F85407240CC8C33397
:10088200C4540F4420C8834004F456800146F6DF66
:10089200E4800B0102040810204080900783E47E6C
:1008A200019360BCA3FF543F30E509541FFEE4935B
:1008B200A360010ECF54C025E060A840B8E493A322
:1008C200FAE493A3F8E493A3C8C582C8CAC583CA4D
:1008D200F0A3C8C582C8CAC583CADFE9DEE780BE05
:0108550000A2
:00000001FF
