:1004D800E4FAEF6405703343F620C2F8C2F9D2FAA1
:1004E80043E180C2FCD2FBADF8EDC413135403FD05
:1004F800AFE2AB07EB7E007802C333CE33CED8F938
:100508007C002DFBEC3EAF03FE22EF640670354302
:10051800F640D2F8C2F9D2FA43E180C2FCD2FBAD70
:10052800F8EDC413135403FDAFE27A00AB07EB7E7A
:10053800007802C333CE33CED8F97C002DFBEC3ED5
:07054800FEAF0322E4FEFFF9
:01054F002289
:06031900810200810300D7
:0D165C007F061204D87870EEF208EFF2223B
:101091007866E2FE08E2FF7870E2FC08E2FDC39F99
:1010A100EC9E4009D3ED9411EC940240077866EC74
:0E10B100F208EDF27866E2FE08E2FF020003AC
:100003007800EEF208EFF2D2947F08120F097F46D0
:1000130012140BC37801E294DD18E2940150047FBB
:100023000D21847800E2FE08E2FFC394DDEE940123
:10003300400CEF94E5EE940150047F102184780086
:10004300E2FE08E2FFC394E5EE9401400CEF94EA6C
:10005300EE940150047F1521847800E2FE08E2FF4C
:10006300C394EAEE94014020EF94F6EE9401501805
:100073007F0D120F097F1E12140B7F15120F097FBC
:100083001E12140B7F1021847800E2FE08E2FFC3E6
:1000930094F6EE94014020EF94FAEE940150187F09
:1000A3000E120F097F1E12140B7F15120F097F1EEC
:1000B30012140B7F0E21847800E2FE08E2FFC39442
:1000C300FAEE94014016EF9402EE9402500E7F0F65
:1000D300120F097F1E12140B7F1521847800E2FE94
:1000E30008E2FFC39402EE94024020EF9406EE94DC
:1000F3000250187F0F120F097F1E12140B7F151267
:100103000F097F1E12140B7F1280767800E2FE081F
:10011300E2FFC39406EE94024020EF940CEE9402A7
:1001230050187F10120F097F1E12140B7F15120F28
:10013300097F1E12140B7F1080477800E2FE08E24D
:10014300FFC3940CEE94024020EF9411EE940250FE
:10015300187F11120F097F1E12140B7F15120F093E
:100163007F1E12140B7F0E8018C37801E2941118BE
:10017300E2940240147F12120F097F1E12140B7FA8
:1001830015120F097F1E12140B7F0B120F097F3CF0
:0F01930012140BC294D2A0121342C2A002134244
:09031F008723000000000000002B
:0716CB00C290D2A7C29322D6
:1005C500782374C8F20874C1F2903000E49308F2FD
:1005D500903001E49308F2903002E49308F29030F1
:0C05E50003E49308F2903004E49308F261
:1005F100780674AAF2E418F2E47804F27806E2C20A
:10060100907D147C007F2E120DE1D2907806E225B8
:10061100E0F27D187C007F28120DE17804E204F2FB
:10062100E2C3940840D6780674AAF218E204F2E212
:07063100C3940140C3D29005
:01063800229F
:100C4400780974AAF2E418F2E47807F27809E2C2A7
:100C5400907D147C007F2E120DE1D2907809E2255C
:100C6400E0F27D187C007F28120DE17807E204F29F
:100C7400E2C3940440D6780974AAF218E204F2E2BA
:070C8400C3940140C3D290AC
:010C8B002246
:0409AC00780AEFF2E4
:1009B000E408F2E4780CF2780BE22423F8E230E762
:1009C0000CC290780AE2FD7C007F24800AC29078F5
:1009D0000AE2FD7C007F17120DE1D290780BE22431
:1009E00023F8C000E225E0D000F2780AE2FD7C00A6
:1009F0007F14120DE1780CE204F2E2C3940840B7D0
:0B0A0000780BE204F2E2C3940340A86C
:010A0B0022C8
:100F7300780DEFF208ECF208EDF2D2937F1412141D
:100F83000BC2A7782374C8F20874E0F2780DE278F4
:100F930025F21205F1780E08E2FF1209ACD2A7D2AE
:020FA300932297
:100F3F007810EFF208ECF208EDF2D2937F1412144E
:100F4F000BC2A7782374C8F20874E0F27810E27825
:100F5F0025F21205F1781108E2FF1209ACC2A7C2FF
:040F6F0093C2902277
:040A0C007813EFF27A
:100A1000E408F21216D2903000E4937823F290307A
:100A200001E49308F2903002E49308F2903003E47A
:100A30009308F2903004E49308F27813E27828F2F5
:100A40001205F1E47814F27BFE7A0079237D061218
:100A500010ED12130E7814E204F2E2C394A040E702
:060A60001216DB02137602
:040C8C007815EFF2F6
:100C9000E408F2121669903000E4937823F2903061
:100CA00001E49308F2903002E49308F2903003E4F8
:100CB0009308F2903004E49308F27815E27828F271
:100CC000120C447BFE7A0079237D061210EDC2934C
:030CD00002169871
:040B15007817EFF26C
:100B1900E408F2121669903000E4937823F29030D9
:100B290001E49308F2903002E49308F2903003E470
:100B39009308F2903004E49308F27817E27828F2E7
:100B49001212DA1212DA1212DA7BFE7A0079237D96
:090B5900061210EDC29302169879
:100E2000E47819F2903000937823F2903001E49343
:100E300008F2903002E49308F2903003E49308F251
:100E4000903004E49308F208EFF21212DA1212DA88
:0E0E50001212DA7BFE7A0079237D060210ED85
:0516D200D293C2A72223
:0C1669007F807E25120ED3D293C2A722F0
:0316DB00C2932295
:09169800C2937FB07E04020ED360
:1013F4001216D21205C57BFE7A0079237D081210DD
:07140400ED1213420216DB9A
:1011E800D293C2A77F807E25120ED31205C57BFE3F
:0F11F8007A0079237D081210ED121342C2932260
:1007920020910F7800E204F2C394784002E4F2C29E
:1007A2000022200041D2007800E2FFD394234010BF
:1007B200EFD39450500A7800E225E0F254FE801004
:1007C2007800E2D3945040147800E225E0F244012C
:1007D200F27800E204F2E47800F280057800E204A4
:1007E200F2E47800F2227800E204F2C3943C400979
:0A07F200E47800F2D2007800F22251
:1008E00030B00F7800E204F2C394784002E4F2C220
:1008F0000022200041D2007800E2FFD39423401070
:10090000EFD39450500A7800E225E0F254FE8010B4
:100910007800E2D3945040147800E225E0F24401DC
:10092000F27800E204F2E47800F280057800E20454
:10093000F2E47800F2227800E204F2C3943C400929
:0A094000E47800F2D2007800F22201
:100DA0007800E264087039F27800E2FF7800E2FE31
:100DB0002400F8EFF2EE700C7800E2B4C806780078
:100DC0007401F222EEB4010C7800E2B4E00678007F
:100DD0007402F222EEB40204D2008000E47800F241
:010DE00022F0
:07063900781AECF208EDF263
:10064000782374C8F20874E0F208EFF2E4781CF240
:10065000E4781DF2781CE22423F8E230E70DC2A30F
:10066000781AE2FC08E2FD7F24800BC2A3781AE22C
:10067000FC08E2FD7F17120DE1D2A3781CE22423CF
:10068000F8C000E225E0D000F2781AE2FC08E2FDB2
:100690007F0F120DE1781DE204F2E2C3940840B42A
:0B06A000781CE204F2E2C3940340A5C2
:0106AB00222C
:0706AC00781EECF208EDF2EC
:1006B300782374C8F20874E0F208EFF2E47820F2C9
:1006C300E47821F27820E22423F8E230E70DC281B6
:1006D300781EE2FC08E2FD7F24800BC281781EE2D3
:1006E300FC08E2FD7F17120DE1D2817820E224237A
:1006F300F8C000E225E0D000F2781EE2FC08E2FD3B
:100703007F0F120DE17821E204F2E2C3940840B4B2
:0B0713007820E204F2E2C3940340A54A
:01071E0022B8
:100BAE00E47822F2903000937823F2903001E493AF
:100BBE0008F2903002E49308F2903003E49308F2C6
:100BCE00903004E49308F208EFF21205F1E4782273
:100BDE00F27BFE7A0079237D061210ED12130E7849
:0A0BEE0022E204F2E2C3940A40E799
:010BF80022DA
:04032800823000001F
:1012DA00783074FFF2087493F2783008E22401FF40
:0A12EA00F218E23400F24F70F02217
:1012F400783074FDF20874E3F2783008E22401FFD8
:0A130400F218E23400F24F70F022FC
:10130E00783074FBF20874C7F2783008E22401FFDB
:0A131E00F218E23400F24F70F022E2
:10132800783074FAF20874EFF2783008E22401FF9A
:0A133800F218E23400F24F70F022C8
:10134200783074EAF20874E7F2783008E22401FF98
:0A135200F218E23400F24F70F022AE
:10135C00783074D5F20874CFF2783008E22401FFAB
:0A136C00F218E23400F24F70F02294
:101376007830742DF208740FF2783008E22401FFF9
:0A138600F218E23400F24F70F0227A
:10140B00AE071FEE60107C137D88ED1DAA047001E2
:06141B001C4A60EC80F4A5
:0114210022A8
:070DE100782AECF208EDF2A4
:100DE800E408F208F2EFFDC3782DE29D18E29400C2
:100DF8005025E4FEEEFDD3782BE29D7480F5F018C3
:100E0800E2648095F040030E80EA782DE22401F236
:070E180018E23400F280CE65
:010E1F0022B0
:1011C800E4FDFCC3ED9FEC9E5015E4FBFA0BBB005D
:0F11D800010AEB64644A70F50DBD00010C80E460
:0111E70022E5
:1013AA00E4FDFCC3ED9FEC9E500EE4FB0BEBB40492
:0813BA00FB0DBD00010C80EBEE
:0113C2002208
:070E5E00782EEEF208EFF21E
:100E6500E4F9E4FAFBD3782FE29B18E29A40070BEA
:100E7500BB00010A80EF09E9B432E7E4F9209216D4
:100E8500E4FAFBC3EB9DEA9C50070BBB00010A800B
:060E9500F209E9B432E7A6
:010E9B002234
:10032C00C11BC11A823A000082380000813500C11D
:0C033C001982320000823600008134007B
:1012450020060612156E121091D21BE4787CF27FEF
:0E1255001412140BE47800F2300602C20622D6
:10106200D20DC210E47800F2C2007800F2121376B8
:10107200121376121376121376C285D29620060EBA
:0F1082001214DBC285200003121091120FFF22FF
:0B168D00C21AC200C21BD284D283220A
:0C167500300008D20012155F1214C822C9
:1011630030001E7800E204F2C3940F4014C200E47E
:10117300F27800F27800E27006200303121681C2AF
:02118300032245
:10126300301B1A30A503300014787CE204F2C394D7
:0E12730003400AE4F2C21B200303121681227C
:101118003000227800E204F2D3940A4018C200E4B6
:10112800F2786BF208F2786DF208F2C209C20AC2CC
:061138000BC20CC20E22E6
:101422003000127800E2C39405500A7FC5120A0CFC
:061432007800E204F22242
:101438003000127800E2C39405500A7FC4120A0CE7
:061448007800E204F2222C
:10144E003017127865E2C39414500A7FC2120A0C48
:06145E007865E204F222B1
:0916A100300805C208120CD32226
:1015130030000CC200E47800F2C200C200C2042210
:1012810030001A7800E204F2D394054010E47800AB
:0E129100F2C200C200C2047800F21216DB2284
:1011A70020191D20151A2000177868E204F2D3943D
:1011B70006400D7407F2C20DC20020030312168108
:0111C7002205
:10071F0020A503300050C2A43081257839E224018E
:10072F00F218E23400F2C308E2947018E294174012
:10073F00247417F2087471F2E47835F2C200801550
:10074F00D37839E2943218E294004009E4F208F2C7
:10075F007835E204F27835E2D394064016E4F2D20B
:10076F0000121464800D20A50A7800E270052000A5
:10077F0002D2A430110CC211D212C200120D1A12E1
:03078F00146422CD
:100E9C0020A5033000307800E2702B3000282003AE
:100EAC0025120CD378007401F2C210E47800F2C25F
:100EBC00007800F2D20D121207121062C200C200AA
:070ECC00E47800F208F222B5
:100A660020A503300006300D033000437800E26411
:100A760001703C20134220153F783BE22401F21816
:100A8600E23400F2C308E294DC18E294054029300F
:100A9600A506300D03300020121501E47800F2128D
:100AA6001245C208C210E47800F208F2C2002230F1
:090AB600A506E4783AF208F222E8
:1008710030800630800320A6217834E204F2C3944C
:1008810002401BE4F2D2137879F208F2D2197832DD
:10089100F208F27800F208F28004E47834F23013BE
:1008A1001D787908E22401FFF218E23400FEF2C358
:1008B100EF94A0EE940F4006C213E4F208F230194F
:1008C1001D783208E22401FFF218E23400FEF2C37F
:0F08D100EF9410EE94274006C219E4F208F222C9
:100FA50030820DD215E4787FF208F27800F208F26B
:100FB50030151D787F08E22401FFF218E23400FEA7
:100FC500F2C3EF94D0EE94074006C215E4F208F29E
:010FD50022F9
:10100000783CEEF208EFF208ECF208EDF2EBFD7C32
:10101000007FC1120639D2A2C2A3783CE2FE08E2E8
:10102000FF08E2FC08E2FD120E5ED2A2D2A3C28546
:01103000229D
:101031007840EEF208EFF208ECF208EDF2EBFD7CFD
:10104100007FC11206ACD2A2C2A37840E2FE08E240
:10105100FF08E2FC08E2FD120E5EC2A2C2A3C28535
:01106100226C
:0E164000D285C2A2D2A3120E5ED2A2D2A322E3
:0E164E00D285C2A2D2A3120E5EC2A2C2A322F5
:100CD300C200C21AC200C200E47864F27875F278E6
:100CE30000F27872F208F27800F208F2787DF208E6
:100CF300F27800F27800F2C200C204C2007800F277
:100D0300C2007800F2C200786FF2C205C21B787C81
:070D1300F2C2177865F2221D
:0C168100D200D21AE47864F27875F222EC
:0816B300C2A4121376D2A42296
:1013DC0075DCC07844E4F208741DF218E2FC08E2F3
:0813EC00FDECF5D1EDF5D9226D
:10094A00EF14601F14603114604324037053784419
:10095A00E4F208740DF218E2FC08E2FDECF5D2EDBF
:10096A00F5DA2278447401F208E4F218E2FC08E2AB
:10097A00FDECF5D3EDF5DB227844E4F2087480F25D
:10098A0018E2FC08E2FDECF5D5EDF5DD227844E449
:10099A00F2087440F218E2FC08E2FDECF5D6EDF537
:0209AA00DE224B
:0816BB00E4FF12094A0213DCEE
:070550007846ECF208EDF221
:100557007E007C2B7D331202ECE47B0CFAF9F81257
:100567000246C3E49FFFE49E784AF2784CEFF278A4
:1005770046E2FE08E2FFEE3395E0FDFCE47B0BFA72
:10058700F9F81201BBE47B0CFAF9F8120246C3E44E
:100597009FFFE49EAD07FF784BF2AE05784DEEF274
:1005A700758911784AE2F58C784CE2F58A8F8D8E41
:0D05B7008BD2A9D28CD2ABD28ED2BBD2AFE8
:0105C4002214
:040B62007848EFF2EE
:100B6600E408F27849E2FFC39402500A120BF978BE
:100B760049E204F280ED7848E2FF7E007C2B7D336B
:100B86001202ECE47B0CFAF9F8120246C3E49FFF6A
:100B9600E49EAD07FC784AF2784CEFF25389F043B5
:070BA6008901121523D2A9F9
:010BAD002225
:0316DE00D2AF2266
:0407FC00438701220C
:0F152300C28C784CE2F58A784AE2F58CD28C22A1
:100ED30053A2BF75985A758920AB07AA06E4F9F89F
:100EE3007F807E70FDFC1202461202D88F8B8F8D9D
:100EF3007F01120B62C299C298D2ACD28ED28CD22D
:060F0300A9D2BCD2AF220E
:0816C3008F993099FDC29922B4
:1010ED00784EEBF208EAF208E9F2AF051DEF601A4F
:1010FD00784EE2FB0808E2F92401F218E2FA340016
:0B110D00F21201A2FF1216C380E022C4
:03034800815301DD
:040F09007851EFF23A
:100F0D00D2A0121342C2A0121342E47852F27851C9
:100F1D00E2FF08E2C39F5019D2A17F147E00121385
:100F2D00AAC2A17F147E001213AA7852E204F280A5
:010F3D00DDD6
:010F3E002290
:1013C300C294C2A1D2A07F5E7E011213AAC2A07FE3
:0913D3005E7E011213AAC29422ED
:010FFF0022CF
:0F153200D2947F04120F097F5012140BC294221F
:0F154100D2947F18120F097F0112140BC294224B
:1014A200D2947F1A120F097F1E12140BD200E47815
:0314B20000F22223
:10146400D294E47800F27F1B120F097F1E12140B32
:05147400C294C2122227
:1014B500D2947F02120F097F5A12140BC2947F1E19
:0314C50002140B03
:0F155000D2947F16120F097F8C12140BC29422B3
:0F155F00D2947F07120F097F3C12140BC2942203
:1014C800D2947F03120F097FB412140BC2947F14B5
:0314D80002140BF0
:1014DB00D294E47800F27F09120F097F3C12140BAF
:0314EB00C2942286
:0F156E00D2947F0A120F097F3C12140BC29422F1
:0F157D00D2947F0F120F097F6412140BC29422B5
:0F158C00D2947F1C120F097F7812140BC2942285
:0F159B00D2947F15120F097F9612140BC294225F
:0F15AA00D2947F06120F097F5012140BC29422A5
:0F15B900D2947F05120F097F3212140BC29422B5
:0F15C800D2947F04120F097FB412140BC2942225
:0F15D700D2947F03120F097F8C12140BC294223F
:0F15E600D2947F02120F097F7812140BC2942245
:0F15F500D2947F0B120F097F5012140BC2942255
:0F160400D2947F07120F097F3212140BC2942267
:0F161300D2947F08120F097F5012140BC2942239
:0F162200D2947F0C120F097F5012140BC2942226
:0F163100D2947F0D120F097F5012140BC2942216
:0316E1000214A24E
:101185007883E204F2D3940340177405F230161104
:1011950020000E20000B200008201705121091C218
:0211A500162210
:0916AA00301805C2181214642264
:1014EE0075AF30C2AF75C7AA75C755439F01D2AF4E
:0314FE0002139C3A
:10148E0075AF3012139CC2AF75C7AA75C755539F5F
:04149E00FED2AF22A9
:0C139000E2FC08E2FDECF5A7AF058FA61B
:0E139C00C2AF75C7AA75C75543A401D2AF22D0
:101479007854EEF208EFF21214EE75AF2278541296
:05148900139002148E17
:0610BF007800E2FD7E3026
:1010C5007856EEF208EFF208EDF21214EE75AF2144
:1010D5007856E2FC08E2FDECF5A7AF058FA608E21D
:0810E500F5AE12139C02148EFB
:07129F007859EEF208EFF2AE
:1012A6001214EEE4F5AF785912139008E5AEF21277
:0612B600148E785BE2FFDC
:0112BC00220F
:100D1A007F007E301214797800E2FD7F007E301267
:100D2A0010C57800E2FD7F017E301210C57F0212E5
:100D3A0010BF7800E2FD7F037E301210C57800E212
:100D4A00FD7F047E301210C57800E2FD7F057E30FB
:030D5A000210C5BF
:100D5D007F007E301214797F001210BF7800E2FD03
:100D6D007F017E301210C57800E2FD7F027E3012C9
:100D7D0010C57800E2FD7F037E301210C57800E2C9
:100D8D00FD7F047E301210C57800E2FD7F057E30B8
:030D9D000210C57C
:02034B00C11CD3
:0316E400021501EB
:1012070053B1FB53B2FBC282120ABFD2A2C2A312CE
:0F1217001226D2A2D2A3D28243B10453B2FB2239
:10150100D285D2A4C296C2A2D2A312113ED2A2D235
:02151100A32213
:100ABF00782374C8F20874E0F20874C1F2E4788401
:100ACF00F2E47885F27884E22423F8E230E707C273
:100ADF00A31213288005C2A31212F4D2A37884E2C2
:100AEF002423F8C000E2FF25E0D000F21212F478C0
:100AFF0085E204F2E2C3940840CB7884E204F2E288
:050B0F00C3940340BC8B
:010B140022BE
:10122600121376121376121376121376121376129F
:0F12360013761213762092061213761213762275
:10113E001213761213761213761213761213761288
:10114E00137612137612137612137620920612135A
:05115E00761213762259
:100FD600301C13785CE204F2E2C3940A401AE4F28D
:100FE600121207C21C22785CE204F2E2C3940A40A1
:090FF60007E4F2121501D21C22DD
:03034D00816000CC
:10080000E4785DF2785DE2FFC39402505EEF75F02C
:1008100008A4240FF8E6604C785DE2FF75F008A4A8
:10082000240EF8E6D39400403BEF75F008A42408AA
:10083000F8E6FE08E6AA06F91202E6785DE2FF7520
:10084000F008A4240EF816EF75F008A4240CF8E6BE
:10085000FE08E64E700E785DE275F008A42408F8F4
:10086000E4F608F6785DE204F280991216E70216C3
:01087000D7B0
:07045B00785EEEF208EFF2FB
:10046200E4FFEF75F008A42408F8E6F58308E645F2
:10047200836009EFC3940250030F80E6EFB40208D1
:1004820078607401F27F0222785EE2F58308E2F579
:1004920082EF75F008A42408F8A68308A682EF75F7
:1004A200F008A4240AF8A60408A605AC02AD03EFDE
:1004B20075F008A4240CF8A60408A605A21DE433CE
:1004C200FEEF75F008A4240FF8A606EF75F008A455
:0504D200240EF8E4F621
:0104D7002202
:100BF900EF75F008A42408F8E6FC08E64C700978BB
:100C0900607402F2D21E8002C21EEF75F008A4249D
:100C190008F8E4F608F6EF75F008A4240AF8E4F6F3
:100C290008F6EF75F008A4240CF8E4F608F6EF7559
:0A0C3900F008A4240EF8E4F6A21E51
:010C4300228E
:0116E70022E0
:0416D7004387012222
:10035000827D0000C100816400827200008175000E
:1003600081760082810000C10281780082700000E5
:1003700082660000816F00C117816500C10182693A
:100380000000C11382790000C105C114817B008186
:100390007C00C104C115827F0000C108826B00008F
:1003A000826D0000C109C10AC10BC10CC10EC10F91
:1003B000817700C111817400C106C112818300C11F
:0E03C00016C107C103C118C10D816800C1102C
:1012BD001216DE1213761213761213761215011210
:0D12CD00137612137612137612120780E6C4
:030000000203CF29
:0C03CF00787FE4F6D8FD75812302041647
:1001A200BB010689828A83E0225002E722BBFE025B
:0901B200E32289828A83E493228E
:1001BB00E88FF0A4CC8BF0A42CFCE98EF0A42CFCE3
:1001CB008AF0EDA42CFCEA8EF0A4CDA8F08BF0A461
:1001DB002DCC3825F0FDE98FF0A42CCD35F0FCEBC0
:1001EB008EF0A4FEA9F0EB8FF0A4CFC5F02ECD3985
:0F01FB00FEE43CFCEAA42DCE35F0FDE43CFC22F2
:10020A0075F008758200EF2FFFEE33FECD33CDCCAB
:10021A0033CCC58233C5829BED9AEC99E58298402E
:10022A000CF582EE9BFEED9AFDEC99FC0FD5F0D60B
:10023A00E4CEFBE4CDFAE4CCF9A88222B800C1B935
:10024A000059BA002DEC8BF084CFCECDFCE5F0CB73
:10025A00F97818EF2FFFEE33FEED33FDEC33FCEBAC
:10026A0033FB10D703994004EB99FB0FD8E5E4F967
:10027A00FA227818EF2FFFEE33FEED33FDEC33FC54
:10028A00C933C910D7059BE99A4007EC9BFCE99A48
:10029A00F90FD8E0E4C9FAE4CCFB2275F010EF2F8D
:1002AA00FFEE33FEED33FDCC33CCC833C810D7078D
:1002BA009BEC9AE899400AED9BFDEC9AFCE899F8C8
:0E02CA000FD5F0DAE4CDFBE4CCFAE4C8F9225B
:0E02D800C3E49FFFE49EFEE49DFDE49CFC2237
:0602E6008A838982E473A3
:1002EC00EC8EF0A4CCC5F0CCCDF8EFA4CEC5F02D9F
:1002FC00FDE43CFCE8A42EC8C5F03DFDE43CFCEF5D
:0D030C00A4FFE5F028FEE43DFDE43CFC22EA
:1003DB000212BDE493A3F8E493A34003F68001F269
:1003EB0008DFF48029E493A3F85407240CC8C33323
:1003FB00C4540F4420C8834004F456800146F6DFF2
:10040B00E4800B0102040810204080900319E47E65
:10041B00019360BCA3FF543F30E509541FFEE493E6
:10042B00A360010ECF54C025E060A840B8E493A3AD
:10043B00FAE493A3F8E493A3C8C582C8CAC583CAD8
:10044B00F0A3C8C582C8CAC583CADFE9DEE780BE90
:0103CE00002E
:00000001FF
