:10042800E4FAEF6405703343F620C2F8C2F9D2FA51
:1004380043E180C2FCD2FBADF8EDC413135403FDB5
:10044800AFE2AB07EB7E007802C333CE33CED8F9E8
:100458007C002DFBEC3EAF03FE22EF6406703543B3
:10046800F640D2F8C2F9D2FA43E180C2FCD2FBAD21
:10047800F8EDC413135403FDAFE27A00AB07EB7E2B
:10048800007802C333CE33CED8F97C002DFBEC3E86
:07049800FEAF0322E4FEFFAA
:01049F00223A
:06025D0081020081030094
:0D173E007F061204287871EEF208EFF22207
:1011D6007867E2FE08E2FF7871E2FC08E2FDC39F51
:1011E600EC9E4009D3ED9491EC940240077867ECAD
:0E11F600F208EDF27867E2FE08E2FF020A5707
:100A57007800EEF208EFF2D294C3945FEE9402505E
:100A6700097F271210AB7F328031D37801E294914E
:100A770018E2940240287F081210AB7F4612151F18
:100A87007F121210AB7F1E12151F7F151210AB7F3E
:100A97001E12151F7F0B1210AB7F3C12151FC2943D
:0A0AA700D2A0121456C2A002145689
:09026300872300000000000000E8
:0717B100C290D2A7C29322EF
:10051500782374C8F20874C1F2903000E49308F2AD
:10052500903001E49308F2903002E49308F29030A1
:0C05350003E49308F2903004E49308F211
:10054100780674AAF2E418F2E47804F27806E2C2BA
:10055100907D147C007F2E120FBCD2907806E2258C
:10056100E0F27D187C007F28120FBC7804E204F2CF
:10057100E2C3940840D6780674AAF218E204F2E2C3
:07058100C3940140C3D290B6
:010588002250
:100DE200780974AAF2E418F2E47807F27809E2C208
:100DF200907D147C007F2E120FBCD2907809E225E0
:100E0200E0F27D187C007F28120FBC7807E204F222
:100E1200E2C3940440D6780974AAF218E204F2E21A
:070E2200C3940140C3D2900C
:010E290022A6
:04099C00780AEFF2F4
:1009A000E408F2E4780CF2780BE22423F8E230E772
:1009B0000CC290780AE2FD7C007F24800AC2907805
:1009C0000AE2FD7C007F17120FBCD290780BE22464
:1009D00023F8C000E225E0D000F2780AE2FD7C00B6
:1009E0007F14120FBC780CE204F2E2C3940840B703
:0B09F000780BE204F2E2C3940340A87D
:0109FB0022D9
:10111500780DEFF208ECF208EDF2D2937F14121578
:101125001FC2A7782374C8F20874E0F2780DE2783C
:1011350025F2120541780E08E2FF12099CD2A7D2CA
:021145009322F3
:1010E1007810EFF208ECF208EDF2D2937F141215AA
:1010F1001FC2A7782374C8F20874E0F27810E2786E
:1011010025F2120541781108E2FF12099CC2A7C21B
:0411110093C29022D3
:040AB1007813EFF2D5
:100AB500E408F2120FFB903000E4937823F29030B3
:100AC50001E49308F2903002E49308F2903003E4D5
:100AD5009308F2903004E49308F27813E27828F250
:100AE500120541E47814F27BFE7A0079237D061223
:100AF500125D1214227814E204F2E2C394A040E7D6
:060B05001217C602148A5B
:040E2A007815EFF256
:100E2E00E408F212174B903000E4937823F29030DE
:100E3E0001E49308F2903002E49308F2903003E458
:100E4E009308F2903004E49308F27815E27828F2D1
:100E5E00120DE27BFE7A0079237D0612125DC2939B
:030E6E00021786E2
:040CB3007817EFF2CD
:100CB700E408F212174B903000E4937823F2903057
:100CC70001E49308F2903002E49308F2903003E4D1
:100CD7009308F2903004E49308F27817E27828F248
:100CE7001213EE1213EE1213EE7BFE7A0079237DB8
:090CF7000612125DC29302178679
:1007C200E47819F2903000937823F2903001E493A8
:1007D20008F2903002E49308F2903003E49308F2B6
:1007E200903004E49308F208EFF21213EE1213EEC3
:0E07F2001213EE7BFE7A0079237D0602125D63
:050FFB00D293C2A72201
:0C174B007F807E25121075D293C2A72269
:0317C600C29322A9
:09178600C2937FB07E04021075CD
:10150800120FFB1205157BFE7A0079237D08121253
:071518005D1214560217C614
:10137600D293C2A77F807E251210751205157BFEBB
:0F1386007A0079237D0812125D121456C2932249
:1008000020910F7800E204F2C394784002E4F2C22F
:100810000022200041D2007800E2FFD39423401050
:10082000EFD39450500A7800E225E0F254FE801095
:100830007800E2D3945040147800E225E0F24401BD
:10084000F27800E204F2E47800F280057800E20435
:10085000F2E47800F2227800E204F2C3943C40090A
:0A086000E47800F2D2007800F222E2
:10086A0030B00F7800E204F2C394784002E4F2C296
:10087A000022200041D2007800E2FFD394234010E6
:10088A00EFD39450500A7800E225E0F254FE80102B
:10089A007800E2D3945040147800E225E0F2440153
:1008AA00F27800E204F2E47800F280057800E204CB
:1008BA00F2E47800F2227800E204F2C3943C4009A0
:0A08CA00E47800F2D2007800F22278
:100F7B007800E264087039F27800E2FF7800E2FE54
:100F8B002400F8EFF2EE700C7800E2B4C80678009B
:100F9B007401F222EEB4010C7800E2B4E0067800A2
:100FAB007402F222EEB40204D2008000E47800F264
:010FBB002213
:07058900781AECF208EDF214
:10059000782374C8F20874E0F208EFF2E4781CF2F1
:1005A000E4781DF2781CE22423F8E230E70DC2A3C0
:1005B000781AE2FC08E2FD7F24800BC2A3781AE2DD
:1005C000FC08E2FD7F17120FBCD2A3781CE22423A3
:1005D000F8C000E225E0D000F2781AE2FC08E2FD63
:1005E0007F0F120FBC781DE204F2E2C3940840B4FE
:0B05F000781CE204F2E2C3940340A573
:0105FB0022DD
:0705FC00781EECF208EDF29D
:10060300782374C8F20874E0F208EFF2E47820F279
:10061300E47821F27820E22423F8E230E70DC28166
:10062300781EE2FC08E2FD7F24800BC281781EE283
:10063300FC08E2FD7F17120FBCD2817820E224234D
:10064300F8C000E225E0D000F2781EE2FC08E2FDEB
:100653007F0F120FBC7821E204F2E2C3940840B486
:0B0663007820E204F2E2C3940340A5FB
:01066E002269
:100D4C00E47822F2903000937823F2903001E4930F
:100D5C0008F2903002E49308F2903003E49308F226
:100D6C00903004E49308F208EFF2120541E4782283
:100D7C00F27BFE7A0079237D0612125D1214227822
:0A0D8C0022E204F2E2C3940A40E7F9
:010D9600223A
:04026C0082300000DC
:1013EE00783074FFF2087493F2783008E22401FF2B
:0A13FE00F218E23400F24F70F02202
:10140800783074FDF20874E3F2783008E22401FFC2
:0A141800F218E23400F24F70F022E7
:10142200783074FBF20874C7F2783008E22401FFC6
:0A143200F218E23400F24F70F022CD
:10143C00783074FAF20874EFF2783008E22401FF85
:0A144C00F218E23400F24F70F022B3
:10145600783074EAF20874E7F2783008E22401FF83
:0A146600F218E23400F24F70F02299
:10147000783074D5F20874CFF2783008E22401FF96
:0A148000F218E23400F24F70F0227F
:10148A007830742DF208740FF2783008E22401FFE4
:0A149A00F218E23400F24F70F02265
:10151F00AE071FEE60107C137D88ED1DAA047001CD
:06152F001C4A60EC80F490
:011535002293
:070FBC00782AECF208EDF2C7
:100FC300E408F208F2EFFDC3782DE29D18E29400E5
:100FD3005025E4FEEEFDD3782BE29D7480F5F018E6
:100FE300E2648095F040030E80EA782DE22401F25A
:070FF30018E23400F280CE89
:010FFA0022D4
:10135600E4FDFCC3ED9FEC9E5015E4FBFA0BBB00CD
:0F136600010AEB64644A70F50DBD00010C80E4D0
:011375002255
:1014BE00E4FDFCC3ED9FEC9E500EE4FB0BEBB4047D
:0814CE00FB0DBD00010C80EBD9
:0114D60022F3
:07100000782EEEF208EFF27A
:10100700E4F9E4FAFBD3782FE29B18E29A40070B46
:10101700BB00010A80EF09E9B432E7E4F920921630
:10102700E4FAFBC3EB9DEA9C50070BBB00010A8067
:06103700F209E9B432E702
:01103D002290
:10027000C11CC11B823A000082380000813500C1D8
:0C0280001A823200008236000081340037
:1013140020060912163F12163F1211D6D21CE47889
:101324007EF27F1412151FE47800F2300602C20622
:011334002296
:10123200D20DC210E47800F2C2007800F212148AD1
:1012420012148A12148A12148A200002D2961216DA
:0B1252003F2006062000031211D622E8
:0B177B00C21BC200C21CD284D2832219
:0617B800300002D2002205
:1012AE0030001E7800E204F2C3940F4014C200E432
:1012BE00F27800F27800E2700620030312176FC274
:0212CE000322F9
:10139500301C1A30A503300014787EE204F2C394A1
:0E13A50003400AE4F2C21C20030312176F2259
:101288003000227800E204F2D3940A4018C200E445
:10129800F2786CF208F2786EF208F2C209C20AC259
:0612A8000BC20CC20E2275
:101536003000127800E2C39405500A7FC5120AB142
:061546007800E204F2222D
:10154C003000127800E2C39405500A7FC4120AB12D
:06155C007800E204F22217
:101562003018127866E2C39414500A7FC2120AB18C
:061572007866E204F2229B
:09178F00300805C208120C6322A7
:1016020030000CC200E47800F2C200C200C2042220
:1012D00030001E7800E204F2D394024014E4780057
:1012E000F2C200C200C2047800F21217C6C296D23F
:0212F000852255
:10133500201A1D20161A2000177869E204F2D394AA
:1013450006400D7407F2C20DC20020030312176F89
:011355002275
:10066F0020A503300050C2A43081257839E224013F
:10067F00F218E23400F2C308E2947018E2941740C3
:10068F00247417F2087471F2E47835F2C200801501
:10069F00D37839E2943218E294004009E4F208F278
:1006AF007835E204F27835E2D394064016E4F2D2BC
:1006BF0000121578800D20A50A7800E27005200041
:1006CF0002D2A430110CC211D213C200120E711239
:0306DF0015782269
:10103E0020A5033000307800E2702B30002820030A
:10104E0025120C6378007401F2C210E47800F2C22B
:10105E00007800F2D20D1208D4121232C200C20071
:07106E00E47800F208F22211
:1009FC0020A503300006300D033000457800E2647A
:100A0C0001703E201444201641783BE22401F21878
:100A1C00E23400F2C308E294DC18E29405402B3077
:100A2C00A506300D03300022C296120B0BE47800A1
:100A3C00F2121314C208C210E47800F208F2C200D9
:0B0A4C002230A506E4783AF208F222FE
:1007530030800630800320A6217834E204F2C3946B
:1007630001401BE4F2D214787BF208F2D21A7832F9
:10077300F208F27800F208F28004E47834F23014DC
:100783001D787B08E22401FFF218E23400FEF2C375
:10079300EF94A0EE940F4006C214E4F208F2301A6C
:1007A3001D783208E22401FFF218E23400FEF2C39E
:0F07B300EF9410EE94274006C21AE4F208F222E7
:1011470030820DD216E47881F208F27800F208F2C4
:1011570030161D788108E22401FFF218E23400FE00
:10116700F2C3EF94D0EE94074006C216E4F208F2F9
:011177002255
:10117800783CEEF208EFF208ECF208EDF2EBFD7CB9
:10118800007FC1120589D2A2C2A3783CE2FE08E220
:0F119800FF08E2FC08E2FD121000D2A2D2A3224F
:1011A7007840EEF208EFF208ECF208EDF2EBFD7C86
:1011B700007FC11205FCD2A2C2A37840E2FE08E27A
:0F11C700FF08E2FC08E2FD121000C2A2C2A32240
:0C175700C2A2D2A3121000D2A2D2A32280
:0C176300C2A2D2A3121000C2A2C2A32294
:100C6300C200C21BC200C200E47865F27876F27853
:100C730000F27873F208F27800F208F2787FF20853
:100C8300F27800F27800F2C200C204C2007800F2E7
:100C9300C2007800F2C2007870F2C205C21C787EEE
:100CA300F2C2187866F27800E27004D285C2962206
:0C176F00D200D21BE47865F27876F222FA
:08000300C2A412148AD2A42247
:1014F00075DCC07844E4F208741DF218E2FC08E2DE
:08150000FDECF5D1EDF5D92257
:10093A00EF14601F14603114604324037053784429
:10094A00E4F208740DF218E2FC08E2FDECF5D2EDCF
:10095A00F5DA2278447401F208E4F218E2FC08E2BB
:10096A00FDECF5D3EDF5DB227844E4F2087480F26D
:10097A0018E2FC08E2FDECF5D5EDF5DD227844E459
:10098A00F2087440F218E2FC08E2FDECF5D6EDF547
:02099A00DE225B
:0817A100E4FF12093A0214F002
:0704A0007846ECF208EDF2D2
:1004A7007E007C2B7D33120158E47B0CFAF9F8129D
:1004B70000B2C3E49FFFE49E7848F2784AEFF278EF
:1004C70046E2FE08E2FFEE3395E0FDFCE47B0BFA23
:1004D700F9F8120027E47B0CFAF9F81200B2C3E42A
:1004E7009FFFE49EAD07FF7849F2AE05784BEEF229
:1004F7007589117848E2F58C784AE2F58A8F8D8EF6
:0D0507008BD2A9D28CD2ABD28ED2BBD2AF98
:0105140022C4
:040D00007889EFF20D
:100D0400E408F2788AE2FFC39402500A120D97783D
:100D14008AE204F280ED7889E2FF7E007C2B7D3349
:100D2400120158E47B0CFAF9F81200B2C3E49FFFF5
:100D3400E49EAD07FC7848F2784AEFF25389F04319
:070D44008901121612D2A969
:010D4B002285
:0317C900D2AF227A
:0417BE00438701223A
:0F161200C28C784AE2F58A7848E2F58CD28C22B5
:1010750053A2BF75985A758920AB07AA06E4F9F8FB
:101085007F807E70FDFC1200B21201448F8B8F8D24
:101095007F01120D00C299C298D2ACD28ED28CD2E9
:0610A500A9D2BCD2AF226B
:0817A9008F993099FDC29922CD
:10125D00784CEBF208EAF208E9F2AF051DEF601ADF
:10126D00784CE2FB0808E2F92401F218E2FA3400A6
:0B127D00F212000EFF1217A980E02201
:03028C00814F019E
:0410AB007889EFF25F
:1010AF00D2A0121456C2A0121456E4788AF278898C
:1010BF00E2FF08E2C39F5019D2A17F147E001214E1
:1010CF00BEC2A17F147E001214BE788AE204F280A1
:0110DF00DD33
:0110E00022ED
:1014D700C294C2A1D2A07F5E7E011214BEC2A07FB9
:0914E7005E7E011214BEC29422C3
:0117D20022F4
:0F162100D2947F041210AB7F5012151FC2942277
:0F163000D2947F181210AB7F0112151FC29422A3
:0F163F00D2947F1A1210AB7F1E12151FC2942275
:10157800D294E47800F27F1B1210AB7F1E12151F65
:05158800C294C2132211
:1015B600D2947F021210AB7F5A12151FC2947F1E5F
:0315C60002151FEC
:0F164E00D2947F161210AB7F8C12151FC29422FC
:0F165D00D2947F071210AB7F3C12151FC294224C
:1015C900D2947F031210AB7FB412151FC2947F14FB
:0315D90002151FD9
:1015DC00D294E47800F27F091210AB7F3C12151FF5
:0315EC00C2942284
:0F166C00D2947F0A1210AB7F3C12151FC294223A
:0F167B00D2947F0F1210AB7F6412151FC29422FE
:0F168A00D2947F1C1210AB7F7812151FC29422CE
:0F169900D2947F151210AB7F9612151FC29422A8
:0F16A800D2947F061210AB7F5012151FC29422EE
:0F16B700D2947F051210AB7F3212151FC29422FE
:0F16C600D2947F041210AB7FB412151FC294226E
:0F16D500D2947F031210AB7F8C12151FC2942288
:0F16E400D2947F021210AB7F7812151FC294228E
:0F16F300D2947F0B1210AB7F5012151FC294229E
:0F170200D2947F071210AB7F3212151FC29422B0
:0F171100D2947F081210AB7F5012151FC2942282
:0F172000D2947F0C1210AB7F5012151FC294226F
:0F172F00D2947F0D1210AB7F5012151FC294225F
:0317CC0002163FC3
:1012F2007885E204F2D3940340177405F230171193
:1013020020000E20000B2000082018051211D6C262
:021312001722A0
:09179800301905C219121578225E
:1015EF0075AF30C2AF75C7AA75C755439F01D2AF4C
:0315FF000214B023
:1015A20075AF301214B0C2AF75C7AA75C755539F35
:0415B200FED2AF2294
:0C14A400E2FC08E2FDECF5A7AF058FA606
:0E14B000C2AF75C7AA75C75543A401D2AF22BB
:10158D007850EEF208EFF21215EF75AF2278501287
:05159D0014A40215A2D8
:061204007800E2FD7E30DF
:10120A007852EEF208EFF208EDF21215EF75AF21FF
:10121A007852E2FC08E2FDECF5A7AF058FA608E2DA
:08122A00F5AE1214B00215A28A
:0713B3007855EEF208EFF29D
:1013BA001215EFE4F5AF78551214A408E5AEF2124F
:0613CA0015A27857E2FFB6
:0113D00022FA
:100E71007F007E3012158D7800E2FD7F007E3012FA
:100E8100120A7800E2FD7F017E3012120A7F0212FF
:100E910012047800E2FD7F037E3012120A7800E22C
:100EA100FD7F047E3012120A7800E2FD7F057E305C
:030EB10002120A20
:100EB4007F007E3012158D7F001212047800E2FD4F
:100EC4007F017E3012120A7800E2FD7F027E30122A
:100ED400120A7800E2FD7F037E3012120A7800E2E3
:100EE400FD7F047E3012120A7800E2FD7F057E3019
:030EF40002120ADD
:09028F00C11EC11DC11F815C00EC
:0317CF00020B0BFF
:1008D400D2A753B1FB53B2FBC282120B61D2A2C2A4
:1008E400A3120EF7D2A2D2A3E47886F2301D2DC251
:1008F4001D121470C2A2D2A312148A12148A1214E2
:100904008A12148AD2A2D2A3121470121470120B77
:1009140061D2A2C2A3120EF7D2A2D2A37886E204B5
:10092400F2E2C3940740C5D28243B10453B2FBC27E
:050934001DD285C2A7E1
:01093900229B
:100B0B00D2A7D285D2A4C296C2A2D2A3120F39D237
:100B1B00A2D2A3C21FE47886F2301D2AC21D121482
:100B2B0070120B61D2A2C2A312148A12148A12146D
:100B3B008A12148AD2A2D2A3121470C2A2D2A31206
:100B4B000F39D2A2D2A37886E204F2E2C394074013
:050B5B00C8C21DC2A785
:010B60002272
:100B6100782374C8F20874E0F20874C1F2E478875B
:100B7100F2E47888F27887E22423F8E230E707C2CA
:100B8100A312143C8005C2A3121408D2A37887E2F1
:100B91002423F8C000E2FF25E0D000F21214087807
:100BA10088E204F2E2C3940840CB7887E204F2E2DF
:050BB100C3940340BCE9
:010BB600221C
:100BB700782374C8F20874E0F20874C2F2E4785833
:100BC700F2E47859F27858E22423F8E230E707C2D2
:100BD7009012143C8005C290121408D2907858E203
:100BE7002423F8C000E2FF25E0D000F212140878B1
:100BF70059E204F2E2C3940840CB7858E204F2E2E7
:050C0700C3940340BC92
:010C0C0022C5
:100C0D00782374C8F20874E0F20874C3F2E4785AD9
:100C1D00F2E4785BF2785AE22423F8E230E707C277
:100C2D009012143C8005C290121408D290785AE2AA
:100C3D002423F8C000E2FF25E0D000F2121408785A
:100C4D005BE204F2E2C3940840CB785AE204F2E28C
:050C5D00C3940340BC3C
:010C6200226F
:100EF700121470121470121470121470E47887F2BE
:100F070008F2309202D21D201D031214227888E2C3
:100F17002401F218E23400F2C308E2942318E294A1
:100F27000040DF201D0312148A301D05785CE2049F
:010F3700F2C7
:010F38002296
:100F3900121470121470121470121470E47887F27B
:100F490008F2309202D21D201D031214227888E281
:100F59002401F218E23400F2C308E2942318E2945F
:100F69000040DF201D0312148A301D05785CE2045D
:010F7900F285
:010F7A002254
:0302980081610081
:1006E200E4785EF2785EE2FFC39402505EEF75F04A
:1006F20008A4240FF8E6604C785EE2FF75F008A4C7
:10070200240EF8E6D39400403BEF75F008A42408C9
:10071200F8E6FE08E6AA06F9120152785EE2FF75D3
:10072200F008A4240EF816EF75F008A4240CF8E6DD
:10073200FE08E64E700E785EE275F008A42408F812
:10074200E4F608F6785EE204F280991217D30217F3
:01075200C2E4
:0703AB00785FEEF208EFF2AB
:1003B200E4FFEF75F008A42408F8E6F58308E645A3
:1003C200836009EFC3940250030F80E6EFB4020882
:1003D20078617401F27F0222785FE2F58308E2F528
:1003E20082EF75F008A42408F8A68308A682EF75A8
:1003F200F008A4240AF8A60408A605AC02AD03EF8F
:1004020075F008A4240CF8A60408A605A220E4337B
:10041200FEEF75F008A4240FF8A606EF75F008A405
:05042200240EF8E4F6D1
:0104270022B2
:100D9700EF75F008A42408F8E6FC08E64C7009781B
:100DA700617402F2D2218002C221EF75F008A424F7
:100DB70008F8E4F608F6EF75F008A4240AF8E4F654
:100DC70008F6EF75F008A4240CF8E4F608F6EF75BA
:0A0DD700F008A4240EF8E4F6A221AF
:010DE10022EF
:0117D30022F3
:0417C2004387012236
:10029B00827F0000C10081650082730000817600BF
:1002AB0081770082830000C102817A008271000095
:1002BB0082670000817000C118816600C101826AEB
:1002CB000000C114827B0000C105C115817D008136
:1002DB007E00C104C11682810000C108826C00003F
:1002EB00826E0000C109C10AC10BC10CC10EC10F46
:1002FB00817900C111817500C106C113818500C1CF
:10030B0017C107C103C119C10D816900C110C11209
:03031B00817800E6
:1013D1001214D712163F7F32120D0043B10253B2DD
:0D13E100FDD285D28CD2A9D2BCD2AF80FE45
:03000B000201856A
:10018500C0E0C0F0C083C082C0D075D000C000C040
:1001950001C002C003C004C005C006C0077848E21C
:1001A500F58C784AE2F58AB2A730850820120578E1
:1001B50078E204F230852F7878E2D3943250272004
:1001C500122412148A12148A12148A12148A12140E
:1001D5008A120B0B12148A12148A12148A12148AA8
:1001E50012148A1208D4208113121456208112D2B7
:1001F50012D2857878E4F2785CF28005301202C27A
:1002050012780008E22401FFF218E23400FEF2C37E
:10021500EF9428EE94004025E4F208F230811E7830
:1002250078E2D3943250062085031215787878E267
:10023500D3943240087433F212163FB285D007D0FA
:1002450006D005D004D003D002D001D000D0D0D044
:0802550082D083D0F0D0E0322A
:0300000002031FD9
:0C031F00787FE4F6D8FD758124020366A7
:10000E00BB010689828A83E0225002E722BBFE02F0
:09001E00E32289828A83E4932223
:10002700E88FF0A4CC8BF0A42CFCE98EF0A42CFC78
:100037008AF0EDA42CFCEA8EF0A4CDA8F08BF0A4F6
:100047002DCC3825F0FDE98FF0A42CCD35F0FCEB55
:100057008EF0A4FEA9F0EB8FF0A4CFC5F02ECD391A
:0F006700FEE43CFCEAA42DCE35F0FDE43CFC2287
:1000760075F008758200EF2FFFEE33FECD33CDCC41
:1000860033CCC58233C5829BED9AEC99E5829840C4
:100096000CF582EE9BFEED9AFDEC99FC0FD5F0D6A1
:1000A600E4CEFBE4CDFAE4CCF9A88222B800C1B9CB
:1000B6000059BA002DEC8BF084CFCECDFCE5F0CB09
:1000C600F97818EF2FFFEE33FEED33FDEC33FCEB42
:1000D60033FB10D703994004EB99FB0FD8E5E4F9FD
:1000E600FA227818EF2FFFEE33FEED33FDEC33FCEA
:1000F600C933C910D7059BE99A4007EC9BFCE99ADE
:10010600F90FD8E0E4C9FAE4CCFB2275F010EF2F22
:10011600FFEE33FEED33FDCC33CCC833C810D70722
:100126009BEC9AE899400AED9BFDEC9AFCE899F85D
:0E0136000FD5F0DAE4CDFBE4CCFAE4C8F922F0
:0E014400C3E49FFFE49EFEE49DFDE49CFC22CC
:060152008A838982E47338
:10015800EC8EF0A4CCC5F0CCCDF8EFA4CEC5F02D34
:10016800FDE43CFCE8A42EC8C5F03DFDE43CFCEFF2
:0D017800A4FFE5F028FEE43DFDE43CFC2280
:10032B000213D1E493A3F8E493A34003F68001F204
:10033B0008DFF48029E493A3F85407240CC8C333D3
:10034B00C4540F4420C8834004F456800146F6DFA2
:10035B00E4800B010204081020408090025DE47ED3
:10036B00019360BCA3FF543F30E509541FFEE49397
:10037B00A360010ECF54C025E060A840B8E493A35E
:10038B00FAE493A3F8E493A3C8C582C8CAC583CA89
:10039B00F0A3C8C582C8CAC583CADFE9DEE780BE41
:01031E0000DE
:00000001FF
