:10027500C104C10FC109C10B812500812600C10838
:10028500C110810E008216000081210081140082B8
:10029500270000C101810000821200008119008140
:1002A5002300812F00810500821F000087060000C2
:1002B5000000000000C105810D00810400811500CA
:1002C500C180812D00812E00811B00811A00822BA7
:1002D5000000C103811C0082100000810F00C10EC7
:1002E500810100C10282020000C10A821D0000C115
:1002F50007C10C812200812400C106C10D8229009D
:04030500008118005B
:100FE6007D647C007F321204B553B5EF43B610D250
:0A0FF600A4D2A0C29012139E80FB4B
:03000B000209E106
:1009E100C0E0C0D075D000C000C006C0077878E272
:1009F100F58C787AE2F58A781F08E22401FFF21873
:100A0100E23400FEF2C3EF940AEE94004006E4F2F1
:100A110008F2B2A720A40E7818E204F2C394284089
:100A210004E4F2D2A4D007D006D000D0D0D0E03276
:03001B0002018F50
:10018F00C0E0C0D075D000C000C006C0077879E2CB
:10019F00F58D787BE2F58B30B00EC200782EE2043D
:1001AF00F264967066F2806320004AD200782EE2E5
:1001BF00FFD394144018EFD3945050127804E225D3
:1001CF00E0F254FEF27815E204F2782DE4F2782E84
:1001DF00E2D3945040147804E225E0F24401F2781F
:1001EF0015E204F2782DE4F28005782DE204F2781E
:1001FF002EE4F28016782DE204F2E2C39464400BF1
:10020F007815E4F2D200780DF2D2A47815E26408E2
:10021F00703BF27804E2FF780DE2FE2406F8EFF26D
:10022F00EE700D7806E2B4C807780D7401F2801DE8
:10023F00EEB4010D7807E2B4E007780D7402F28096
:10024F000CEEB40204D2058000780DE4F230050BF9
:10025F00C2057808E2243F7002C2A4D007D006D0AE
:06026F0000D0D0D0E03207
:1003C800E4FAEF6405703343F620C2F8C2F9D2FAB2
:1003D80043E180C2FCD2FBADF8EDC413135403FD16
:1003E800AFE2AB07EB7E007802C333CE33CED8F949
:1003F8007C002DFBEC3EAF03FE22EF640670354314
:10040800F640D2F8C2F9D2FA43E180C2FCD2FBAD81
:10041800F8EDC413135403FDAFE27A00AB07EB7E8B
:10042800007802C333CE33CED8F97C002DFBEC3EE6
:07043800FEAF0322E4FEFF0A
:01043F00229A
:0603090081320081330087
:0D000E007F061203C87810EEF208EFF22210
:1007D0007800E2FE08E2FF7810E2FC08E2FDC39F29
:1007E000EC9E4009D3ED9493EC940240077800EC22
:0E07F000F208EDF27800E2FE08E2FF0204409B
:100440007830EEF208EFF2D2947F08120D547F4616
:10045000121135C37831E2944218E2940250047FBD
:100460000D80347830E2FE08E2FFC39442EE94023D
:10047000400CEF9450EE940250047F1080197830B5
:10048000E2FE08E2FFC39450EE94024012EF945F44
:10049000EE9402500A7F15120D547F1E1211357F03
:1004A0000B120D547F3C121135C294D2A01210864B
:0504B000C2A00210864D
:09030F008753000000000000000B
:07139200C290D2A7C2932212
:10052A00785374C8F20874C1F2900000E49308F298
:10053A00900000E49308F2900000E49308F290001F
:0C054A0000E49308F2900000E49308F233
:10055600783674AAF2E418F2E47834F27836E2C215
:10056600907D147C007F2E120C2CD2907836E225DA
:10057600E0F27D187C007F28120C2C7834E204F21D
:10058600E2C3940840D6783674AAF218E204F2E27E
:07059600C3940140C3D290A1
:01059D00223B
:100B1500783974AAF2E418F2E47837F27839E2C247
:100B2500907D147C007F2E120C2CD2907839E22512
:100B3500E0F27D187C007F28120C2C7837E204F255
:100B4500E2C3940440D6783974AAF218E204F2E2BA
:070B5500C3940140C3D290DC
:010B5C002276
:0408CC00783AEFF295
:1008D000E408F2E4783CF2783BE22453F8E230E7B3
:1008E0000CC290783AE2FD7C007F24800AC29078A6
:1008F0003AE2FD7C007F17120C2CD290783BE22468
:1009000053F8C000E225E0D000F2783AE2FD7C0026
:100910007F14120C2C783CE204F2E2C3940840B736
:0B092000783BE204F2E2C3940340A81D
:01092B0022A9
:100DBE00783DEFF208ECF208EDF2D2937F141211A7
:100DCE0035C2A7785374C8F20874E0F2783DE27821
:100DDE0055F2120556783E08E2FF1208CCD2A7D281
:020DEE0093224E
:100D8A007840EFF208ECF208EDF2D2937F141211D8
:100D9A0035C2A7785374C8F20874E0F27840E27852
:100DAA0055F2120556784108E2FF1208CCC2A7C2D2
:040DBA0093C290222E
:040987007843EFF2D0
:10098B00E408F2121399900000E4937853F290006C
:10099B0000E49308F2900000E49308F2900000E466
:1009AB009308F2900000E49308F27843E27858F24F
:1009BB00120556E47844F27BFE7A0079537D0612D9
:1009CB000EB51210527844E204F2E2C394A040E751
:0609DB001213A20210BA83
:040B5D007845EFF2F6
:100B6100E408F2121338900000E4937853F29000F5
:100B710000E49308F2900000E49308F2900000E48E
:100B81009308F2900000E49308F27845E27858F275
:100B9100120B157BFE7A0079537D06120EB5C293B6
:030BA100021367D5
:040A31007847EFF221
:100A3500E408F2121338900000E4937853F2900022
:100A450000E49308F2900000E49308F2900000E4BB
:100A55009308F2900000E49308F27847E27858F2A0
:100A650012101E12101E12101E7BFE7A0079537D85
:090A750006120EB5C293021367CC
:100C6B00E47849F2900000937853F2900000E493FB
:100C7B0008F2900000E49308F2900000E49308F26D
:100C8B00900000E49308F208EFF212101E12101EEF
:0E0C9B0012101E7BFE7A0079537D06020EB504
:05139900D293C2A7225F
:0C1338007F807E25120D1ED293C2A722DA
:0313A200C29322D1
:09136700C2937FB07E04020D1E4A
:10111E0012139912052A7BFE7A0079537D08120E5E
:07112E00B51210860213A2A6
:100F8B00D293C2A77F807E25120D1E12052A7BFEEF
:0F0F9B007A0079537D08120EB5121086C2932288
:1007660020910F782EE204F2C394784002E4F2C29C
:100776000022200041D200782EE2FFD394234010BD
:10078600EFD39450500A7804E225E0F254FE80102C
:10079600782EE2D3945040147804E225E0F2440126
:1007A600F27815E204F2E4782DF28005782DE20461
:1007B600F2E4782EF222782DE204F2C3943C40094A
:0A07C600E47815F2D200780DF2225B
:1008000030B00F782EE204F2C394784002E4F2C2D2
:100810000022200041D200782EE2FFD39423401022
:10082000EFD39450500A7804E225E0F254FE801091
:10083000782EE2D3945040147804E225E0F244018B
:10084000F27815E204F2E4782DF28005782DE204C6
:10085000F2E4782EF222782DE204F2C3943C4009AF
:0A086000E47815F2D200780DF222C0
:100BEB007815E264087039F27804E2FF780DE2FEC2
:100BFB002406F8EFF2EE700C7806E2B4C806780D16
:100C0B007401F222EEB4010C7807E2B4E006780D21
:100C1B007402F222EEB40204D2058000E4780DF2E5
:010C2B0022A6
:07059E00784AECF208EDF2CF
:1005A500785374C8F20874E0F208EFF2E4784CF27C
:1005B500E4784DF2784CE22453F8E230E70DC2A31B
:1005C500784AE2FC08E2FD7F24800BC2A3784AE268
:1005D500FC08E2FD7F17120C2CD2A3784CE22453C1
:1005E500F8C000E225E0D000F2784AE2FC08E2FD1E
:1005F5007F0F120C2C784DE204F2E2C3940840B44C
:0B060500784CE204F2E2C3940340A52D
:0106100022C7
:07061100784EECF208EDF257
:10061800785374C8F20874E0F208EFF2E47850F204
:10062800E47851F27850E22453F8E230E70DC281C1
:10063800784EE2FC08E2FD7F24800BC281784EE20E
:10064800FC08E2FD7F17120C2CD2817850E224536B
:10065800F8C000E225E0D000F2784EE2FC08E2FDA6
:100668007F0F120C2C7851E204F2E2C3940840B4D4
:0B0678007850E204F2E2C3940340A5B6
:010683002254
:100ACA00E47852F2900000937853F2900000E49395
:100ADA0008F2900000E49308F2900000E49308F210
:100AEA00900000E49308F208EFF2120556E47852F7
:100AFA00F27BFE7A0079537D06120EB512105278F7
:0A0B0A0052E204F2E2C3940A40E74D
:010B140022BE
:0403180082600000FF
:10101E00786074FFF2087493F2786008E22401FF9E
:0A102E00F218E23400F24F70F022D5
:10103800786074FDF20874E3F2786008E22401FF36
:0A104800F218E23400F24F70F022BB
:10105200786074FBF20874C7F2786008E22401FF3A
:0A106200F218E23400F24F70F022A1
:10106C00786074FAF20874EFF2786008E22401FFF9
:0A107C00F218E23400F24F70F02287
:10108600786074EAF20874E7F2786008E22401FFF7
:0A109600F218E23400F24F70F0226D
:1010A000786074D5F20874CFF2786008E22401FF0A
:0A10B000F218E23400F24F70F02253
:1010BA007860742DF208740FF2786008E22401FF58
:0A10CA00F218E23400F24F70F02239
:10113500AE071FEE60107C137D88ED1DAA047001BB
:061145001C4A60EC80F47E
:01114B002281
:070C2C00785AECF208EDF22A
:100C3300E408F208F2EFFDC3785DE29D18E2940048
:100C43005025E4FEEEFDD3785BE29D7480F5F01849
:100C5300E2648095F040030E80EA785DE22401F2BD
:070C630018E23400F280CE1C
:010C6A002267
:100F6B00E4FDFCC3ED9FEC9E5015E4FBFA0BBB00BC
:0F0F7B00010AEB64644A70F50DBD00010C80E4BF
:010F8A002244
:1010D400E4FDFCC3ED9FEC9E500EE4FB0BEBB4046B
:0810E400FB0DBD00010C80EBC7
:0110EC0022E1
:070CA900785EEEF208EFF2A5
:100CB000E4F9E4FAFBD3785FE29B18E29A40070B71
:100CC000BB00010A80EF09E9B432E7E4F92092168B
:100CD000E4FAFBC3EB9DEA9C50070BBB00010A80C2
:060CE000F209E9B432E75D
:010CE60022EB
:10031C00C113C112826A000082680000816500C1AD
:0C032C0011826200008266000081640003
:100FAA0020000612124A1207D0D213E47824F27FE4
:0E0FBA0014121135E47800F2300002C2002259
:100DF000D200C200E47800F2C2007800F21210BA09
:100E00001210BA1210BA1210BAC285200002D2967D
:100E100020000E1211DCC2852000031207D0120739
:020E2000FE22B0
:0B135C00C212C20FC213D284D283223F
:0C134400300008D20012123B1211C92226
:100F060030001E7800E204F2C3940F4014C200E4DD
:100F1600F27800F27800E27006200003121350C245
:020F26000022A7
:100FC80030131A30A5033000147824E204F2C394D5
:0E0FD80003400AE4F2C2132000031213502259
:100EE0003000227800E204F2D3940A4018C200E4F1
:100EF000F27800F208F27800F208F2C200C200C2F2
:060F000000C200C2002245
:10114C003008127805E2C39405500A7FC51209874E
:06115C007805E204F22216
:10116200301012782FE2C39405500A7FC412098707
:06117200782FE204F222D6
:10117800300E127801E2C39414500A7FC212098714
:061188007801E204F222EE
:09137000300005C200120BA4229A
:1011EF0030000CC200E47825F2C200C200C2062211
:1010000030001A7800E204F2D394054010E4782509
:0E101000F2C200C200C2067800F21213A22241
:100F4A0020111D200D1A2000177800E204F2D39414
:100F5A0006400D7407F2C200C200200003121350AB
:010F6A002264
:1006840020A503300050C2A43081257869E22401FA
:10069400F218E23400F2C308E2947018E2941740AE
:1006A400247417F2087471F2E47865F2C2008015BC
:1006B400D37869E2943218E294004009E4F208F233
:1006C4007865E204F27865E2D394064016E4F2D247
:1006D4000012118E800D20A50A7800E2700520001A
:1006E40002D2A430000CC200D200C20012000012D8
:0306F400118E2242
:100CE70020A5033000307800E2702B300028200068
:100CF70025120BA478007401F2C200E47800F2C256
:100D0700007800F2D200120000120DF0C200C200FB
:070D1700E47800F208F2226B
:10092C0020A5033000063000033000457800E26457
:10093C0001703EC296200A42200D3F786BE22401E2
:10094C00F218E23400F2C308E294DC18E294054099
:10095C002930A506300003300020120000E4780096
:10096C00F2120FAAC200C200E47800F208F2C20030
:0B097C002230A506E4786AF208F2229F
:1006F70030800630800320A6217864E204F2C39498
:1007070002401BE4F2D20A781DF208F2D211786295
:10071700F208F27800F208F28004E47864F2300A12
:100727001D781D08E22401FFF218E23400FEF2C32F
:10073700EF94A0EE940F4006C20AE4F208F23011DB
:100747001D786208E22401FFF218E23400FEF2C3CA
:0F075700EF9410EE94274006C211E4F208F2224C
:100E220030820DD20DE47829F208F27800F208F24D
:100E3200300D1D782908E22401FFF218E23400FE89
:100E4200F2C3EF94D0EE94074006C20DE4F208F22A
:010E5200227D
:100E5300786CEEF208EFF208ECF208EDF2EBFD7CB1
:100E6300007FC112059ED2A2C2A3786CE2FE08E203
:100E7300FF08E2FC08E2FD120CA9D2A2D2A3C285AC
:010E8300224C
:100E84007870EEF208EFF208ECF208EDF2EBFD7C7C
:100E9400007FC1120611D2A2C2A37870E2FE08E25A
:100EA400FF08E2FC08E2FD120CA9C2A2C2A3C2859B
:010EB400221B
:0E131C00D285C2A2D2A3120CA9D2A2D2A322C1
:0E132A00D285C2A2D2A3120CA9C2A2C2A322D3
:100BA400C20FC212C208C210E47800F27819F278B7
:100BB4000EF27812F208F27816F208F27827F208A8
:100BC400F27814F27821F2C200C206C2007825F24B
:100BD400C20B7826F2C201780FF2C207C21378243E
:070BE400F2C20E7801F222BB
:0C135000D20FD212E47800F27819F222D9
:08000300C2A41210BAD2A4221B
:1011060075DCC07874E4F208741DF218E2FC08E29B
:08111600FDECF5D1EDF5D92245
:10086A00EF14601F146031146043240370537874CA
:10087A00E4F208740DF218E2FC08E2FDECF5D2EDA0
:10088A00F5DA2278747401F208E4F218E2FC08E25C
:10089A00FDECF5D3EDF5DB227874E4F2087480F20E
:1008AA0018E2FC08E2FDECF5D5EDF5DD227874E4FA
:1008BA00F2087440F218E2FC08E2FDECF5D6EDF518
:0208CA00DE222C
:08138200E4FF12086A021106E3
:0704B5007882ECF208EDF281
:1004BC007E007C2B7D33120162E47B0CFAF9F8127E
:1004CC0000C2C3E49FFFE49E7878F2787AEFF2786A
:1004DC0082E2FE08E2FFEE3395E0FDFCE47B0BFAD2
:1004EC00F9F8120037E47B0CFAF9F81200C2C3E4F5
:1004FC009FFFE49EAD07FF7879F2AE05787BEEF2B4
:10050C007589117878E2F58C787AE2F58A8F8D8E80
:0D051C008BD2A9D28CD2ABD28ED2BBD2AF83
:0105290022AF
:040A7E007876EFF2A5
:100A8200E408F27877E2FFC39402500A1200007879
:100A920077E204F280ED7876E2FF7E007C2B7D33F4
:100AA200120162E47B0CFAF9F81200C2C3E49FFF60
:100AB200E49EAD07FC7878F2787AEFF25389F0433E
:070AC20089011211FFD2A906
:010AC900220A
:0313A500D2AF22A2
:04139E00438701225E
:0F11FF00C28C787AE2F58A7878E2F58CD28C226D
:100D1E0053A2BF75985A758920AB07AA06E4F9F855
:100D2E007F807E70FDFC1200C21201548F8B8F8D5E
:100D3E007F01120A7EC299C298D2ACD28ED28CD2C8
:060D4E00A9D2BCD2AF22C5
:08138A008F993099FDC29922F0
:100EB500787CEBF208EAF208E9F2AF051DEF601A5B
:100EC500787CE2FB0808E2F92401F218E2FA340022
:0B0ED500F212001EFF12138A80E022C0
:03033800818101BF
:040D5400787FEFF2C3
:100D5800D2A0121086C2A0121086E47880F2787FA2
:100D6800E2FF08E2C39F5019D2A17F147E0012103F
:100D7800D4C2A17F147E001210D47880E204F280DD
:010D8800DD8D
:010D89002247
:1010ED00C294C2A1D2A07F5E7E011210D4C2A07F95
:0910FD005E7E011210D4C294229F
:0107FE0022D8
:0F120E00D2947F04120D547F50121135C29422D6
:0F121D00D2947F18120D547F01121135C2942202
:1011A300D2947F1A120D547F1E121135D200E478A7
:0311B30000F22225
:10118E00D294E47800F27F1B120D547F1E1211359B
:05119E00C294C2002212
:1011B600D2947F02120D547F5A121135C2947F1EAB
:0311C600021135DE
:0F122C00D2947F16120D547F8C121135C294226A
:0F123B00D2947F07120D547F3C121135C29422BA
:1011C900D2947F03120D547FB4121135C2947F1447
:0311D900021135CB
:1011DC00D294E47800F27F09120D547F3C12113541
:0311EC00C2942288
:0F124A00D2947F0A120D547F3C121135C29422A8
:0F125900D2947F0F120D547F64121135C294226C
:0F126800D2947F1C120D547F78121135C294223C
:0F127700D2947F15120D547F96121135C2942216
:0F128600D2947F06120D547F50121135C294225C
:0F129500D2947F05120D547F32121135C294226C
:0F12A400D2947F04120D547FB4121135C29422DC
:0F12B300D2947F03120D547F8C121135C29422F6
:0F12C200D2947F02120D547F78121135C29422FC
:0F12D100D2947F0B120D547F50121135C294220C
:0F12E000D2947F07120D547F32121135C294221F
:0F12EF00D2947F08120D547F50121135C29422F1
:0F12FE00D2947F0C120D547F50121135C29422DE
:0F130D00D2947F0D120D547F50121135C29422CD
:0313A8000211A38C
:100F28007800E204F2D3940340177405F2300011FC
:100F380020000E20080B201008200E051207D0C232
:020F4800002285
:09137900300005C20012118E22A1
:0300000002033CBC
:0C033C00787FE4F6D8FD7581220203836F
:10001E00BB010689828A83E0225002E722BBFE02E0
:09002E00E32289828A83E4932213
:10003700E88FF0A4CC8BF0A42CFCE98EF0A42CFC68
:100047008AF0EDA42CFCEA8EF0A4CDA8F08BF0A4E6
:100057002DCC3825F0FDE98FF0A42CCD35F0FCEB45
:100067008EF0A4FEA9F0EB8FF0A4CFC5F02ECD390A
:0F007700FEE43CFCEAA42DCE35F0FDE43CFC2277
:1000860075F008758200EF2FFFEE33FECD33CDCC31
:1000960033CCC58233C5829BED9AEC99E5829840B4
:1000A6000CF582EE9BFEED9AFDEC99FC0FD5F0D691
:1000B600E4CEFBE4CDFAE4CCF9A88222B800C1B9BB
:1000C6000059BA002DEC8BF084CFCECDFCE5F0CBF9
:1000D600F97818EF2FFFEE33FEED33FDEC33FCEB32
:1000E60033FB10D703994004EB99FB0FD8E5E4F9ED
:1000F600FA227818EF2FFFEE33FEED33FDEC33FCDA
:10010600C933C910D7059BE99A4007EC9BFCE99ACD
:10011600F90FD8E0E4C9FAE4CCFB2275F010EF2F12
:10012600FFEE33FEED33FDCC33CCC833C810D70712
:100136009BEC9AE899400AED9BFDEC9AFCE899F84D
:0E0146000FD5F0DAE4CDFBE4CCFAE4C8F922E0
:0E015400C3E49FFFE49EFEE49DFDE49CFC22BC
:10016200EC8EF0A4CCC5F0CCCDF8EFA4CEC5F02D2A
:10017200FDE43CFCE8A42EC8C5F03DFDE43CFCEFE8
:0D018200A4FFE5F028FEE43DFDE43CFC2276
:10034800020FE6E493A3F8E493A34003F68001F2D6
:1003580008DFF48029E493A3F85407240CC8C333B6
:10036800C4540F4420C8834004F456800146F6DF85
:10037800E4800B0102040810204080900275E47E9E
:10038800019360BCA3FF543F30E509541FFEE4937A
:10039800A360010ECF54C025E060A840B8E493A341
:1003A800FAE493A3F8E493A3C8C582C8CAC583CA6C
:1003B800F0A3C8C582C8CAC583CADFE9DEE780BE24
:01033B0000C1
:00000001FF
