:10040B00C104C10FC109C10B812500812600C108A0
:10041B00C110810E00821600008121008114008220
:10042B00270000C1018100008212000081190081A8
:10043B002300812F00810500821F0000870600002A
:10044B000000000000C105810D0081040081150032
:10045B00C180812D00812E00811B00811A00822B0F
:10046B000000C103811C0082100000810F00C10E2F
:10047B00810100C10282020000C10A821D0000C17D
:10048B0007C10C812200812400C106C10D82290005
:04049B0000811800C4
:10118D007D647C007F321205C9D2A4D2A0C2901218
:04119D000FFB80FBC9
:03000B00020C4D97
:100C4D00C0E0C0D075D000C000C006C0077872E209
:100C5D00F58C7874E2F58A781F08E22401FFF2180A
:100C6D00E23400FEF2C3EF940AEE94004006E4F283
:0F0C7D0008F2B2A7D007D006D000D0D0D0E03216
:03001B00020325B8
:10032500C0E0C0D075D000C000C006C0077873E239
:10033500F58D7875E2F58B30B00EC200782EE204AB
:10034500F264967066F2806320004AD200782EE24D
:10035500FFD394144018EFD3945050127804E2253B
:10036500E0F254FEF27815E204F2782DE4F2782EEC
:10037500E2D3945040147804E225E0F24401F27887
:1003850015E204F2782DE4F28005782DE204F27886
:100395002EE4F28016782DE204F2E2C39464400B59
:1003A5007815E4F2D200780DF2D2A47815E264084B
:1003B500703BF27804E2FF780DE2FE2406F8EFF2D6
:1003C500EE700D7806E2B4C807780D7401F2801D51
:1003D500EEB4010D7807E2B4E007780D7402F280FF
:1003E5000CEEB40204D2058000780DE4F230050B62
:1003F500C2057808E2243F7002C2A4D007D006D017
:0604050000D0D0D0E0326F
:10055100E4FAEF6405703343F620C2F8C2F9D2FA27
:1005610043E180C2FCD2FBADF8EDC413135403FD8B
:10057100AFE2AB07EB7E007802C333CE33CED8F9BE
:100581007C002DFBEC3EAF03FE22EF640670354389
:10059100F640D2F8C2F9D2FA43E180C2FCD2FBADF7
:1005A100F8EDC413135403FDAFE27A00AB07EB7E01
:1005B100007802C333CE33CED8F97C002DFBEC3E5C
:0705C100FEAF0322E4FEFF80
:0105C8002210
:06049F00813200813300F0
:0D000E007F061205517810EEF208EFF22285
:10001E007830EEF208EFF2C394A0EE940250077817
:10002E00337430F28011D37831E294A118E2940245
:10003E0040057833743CF27833E224C4700201DA5E
:10004E00240C600221B3C37831E2946118E2940269
:10005E00400201E67830E2FE08E2FFC39461EE94BE
:10006E0002500BC3EF9457EE94024002212C7830CD
:10007E00E2FE08E2FFC39457EE9402500BC3EF94D6
:10008E004DEE94024002214F7830E2FE08E2FFC3AB
:10009E00944DEE9402500BC3EF9443EE9402400243
:1000AE0021727830E2FE08E2FFC39443EE940250D0
:1000BE000BC3EF9436EE940240022195C37831E2E1
:1000CE00943618E29402400221B321B0C37831E293
:1000DE0094F918E29402400BD2947F14120D3F7FD4
:1000EE003C219E7830E2FE08E2FFC394F9EE9402C2
:1000FE005014C3EF94E5EE9402400BD2947F091294
:10010E000D3F7F64219E7830E2FE08E2FFC394E546
:10011E00EE94025014C3EF94CFEE9402400BD2949F
:10012E007F08120D3F7F6480677830E2FE08E2FFA1
:10013E00C394CFEE94025014C3EF94C7EE940240D2
:10014E000BD2947F07120D3F7F6480447830E2FE1D
:10015E0008E2FFC394C7EE94025014C3EF94BDEEB1
:10016E009402400BD2947F06120D3F7F648021785B
:10017E0030E2FE08E2FFC394BDEE94025018C3EFC6
:10018E0094B3EE9402400FD2947F05120D3F7F641C
:10019E00121134C29422C37831E294B318E294025D
:0601AE00500312120822AA
:0904A50087520000000000000075
:09139500C290D2A7C293C2A622A5
:100A6300783674AAF2E418F2E47834F27836E2C203
:100A7300907D147C007F2E120C8CD2907836E22568
:100A8300E0F27D187C007F28120C8C7834E204F2AB
:100A9300E2C3940840D6783674AAF218E204F2E26C
:070AA300C3940140C3D2908F
:010AAA002229
:100AAB00783974AAF2E418F2E47837F27839E2C2B2
:100ABB00907D147C007F2E120C8CD2907839E2251D
:100ACB00E0F27D187C007F28120C8C7837E204F260
:100ADB00E2C3940740D6783974AAF218E204F2E222
:070AEB00C3940140C3D29047
:010AF20022E1
:04086200783AEFF2FF
:10086600E408F2E4783CF2783BE22452F8E230E71E
:100876000CC290783AE2FD7C007F24800AC2907810
:100886003AE2FD7C007F17120C8CD290783BE22472
:1008960052F8C000E225E0D000F2783AE2FD7C0092
:1008A6007F14120C8C783CE204F2E2C3940840B741
:0B08B600783BE204F2E2C3940340A888
:0108C1002214
:100DA900783DEFF208ECF208EDF2D2937F141211BC
:100DB90034C2A7785274C8F20874E0F2783DE27838
:100DC90054F2120A63783E08E2FF120862D2A7D2EF
:020DD900932263
:100D75007840EFF208ECF208EDF2D2937F141211ED
:100D850034C2A7785274C8F20874E0F27840E27869
:100D950054F2120A63784108E2FF120862C2A7C240
:040DA50093C2902243
:040921007843EFF236
:10092500E408F2121350900000E4937852F290001C
:1009350000E49308F2900000E49308F2900000E4CC
:100945009308F2900000E49308F27843E27857F2B6
:10095500120A63E47844F27BFE7A0079527D06122E
:100965000ECA12104F7844E204F2E2C394A040E7A5
:060975001213740210B71A
:040B3B007845EFF218
:100B3F00E408F212135C900000E4937852F29000F4
:100B4F0000E49308F2900000E49308F2900000E4B0
:100B5F009308F2900000E49308F27845E27857F298
:100B6F00120AAB7BFE7A0079527D06120ECAC2932F
:030B7F0002135C02
:04097B007847EFF2D8
:10097F00E408F2121350900000E4937852F29000C2
:10098F0000E49308F2900000E49308F2900000E472
:10099F009308F2900000E49308F27847E27857F258
:1009AF0012101B12101B12101B7BFE7A0079527D46
:0D09BF0006120ECAC2937FB07E04020D091D
:0C1350007FB07E04120D09D293C2A722C8
:0C135C007F807E25120D09D293C2A722CB
:0B137400D2A7C2937F807E25020D09E6
:0B137F00D2A7C2937FB07E04020D09CC
:100BC900121350785274C8F20874C1F2900000E40C
:100BD9009308F2900000E49308F2900000E493086F
:100BE900F2900000E49308F2900000E49308F212F6
:100BF9000A637BFE7A0079527D08120ECA121083AD
:030C09000213745F
:1007240020910F782EE204F2C394784002E4F2C2DE
:100734000022200041D200782EE2FFD394234010FF
:10074400EFD39450500A7804E225E0F254FE80106E
:10075400782EE2D3945040147804E225E0F2440168
:10076400F27815E204F2E4782DF28005782DE204A3
:10077400F2E4782EF222782DE204F2C3943C40098C
:0A078400E47815F2D200780DF2229D
:10078E0030B00F782EE204F2C394784002E4F2C245
:10079E000022200041D200782EE2FFD39423401095
:1007AE00EFD39450500A7804E225E0F254FE801004
:1007BE00782EE2D3945040147804E225E0F24401FE
:1007CE00F27815E204F2E4782DF28005782DE20439
:1007DE00F2E4782EF222782DE204F2C3943C400922
:0A07EE00E47815F2D200780DF22233
:100C0C007815E264087039F27804E2FF780DE2FEA0
:100C1C002406F8EFF2EE700C7806E2B4C806780DF4
:100C2C007401F222EEB4010C7807E2B4E006780D00
:100C3C007402F222EEB40204D2058000E4780DF2C4
:010C4C002285
:07063E007849ECF208EDF22F
:10064500785274C8F20874E0F208EFF2E4784BF2DD
:10065500E4784CF2784BE22452F8E230E70DC2A37D
:100665007849E2FC08E2FD7F24800BC2A37849E2C9
:10067500FC08E2FD7F17120C8CD2A3784BE22452C2
:10068500F8C000E225E0D000F27849E2FC08E2FD7E
:100695007F0F120C8C784CE204F2E2C3940840B44C
:0B06A500784BE204F2E2C3940340A58E
:0106B0002227
:0706B100784DECF208EDF2B8
:1006B800785274C8F20874E0F208EFF2E4784FF266
:1006C800E47850F2784FE22452F8E230E70DC28124
:1006D800784DE2FC08E2FD7F24800BC281784DE270
:1006E800FC08E2FD7F17120C8CD281784FE224526D
:1006F800F8C000E225E0D000F2784DE2FC08E2FD07
:100708007F0F120C8C7850E204F2E2C3940840B4D4
:0B071800784FE204F2E2C3940340A516
:0107230022B3
:100A1800E47851F2900000937852F2900000E49349
:100A280008F2900000E49308F2900000E49308F2C2
:100A3800900000E49308F208EFF2120A63E4785198
:100A4800F27BFE7A0079527D06120ECA12104F7898
:0A0A580051E204F2E2C3940A40E701
:010A62002271
:0404AE00825F000069
:10101B00785F74FFF2087493F2785F08E22401FFA3
:0A102B00F218E23400F24F70F022D8
:10103500785F74FDF20874E3F2785F08E22401FF3B
:0A104500F218E23400F24F70F022BE
:10104F00785F74FBF20874C7F2785F08E22401FF3F
:0A105F00F218E23400F24F70F022A4
:10106900785F74FAF20874EFF2785F08E22401FFFE
:0A107900F218E23400F24F70F0228A
:10108300785F74EAF20874E7F2785F08E22401FFFC
:0A109300F218E23400F24F70F02270
:10109D00785F74D5F20874CFF2785F08E22401FF0F
:0A10AD00F218E23400F24F70F02256
:1010B700785F742DF208740FF2785F08E22401FF5D
:0A10C700F218E23400F24F70F0223C
:10113400AE071FEE60107C137D88ED1DAA047001BC
:061144001C4A60EC80F47F
:01114A002282
:070C8C007859ECF208EDF2CB
:100C9300E408F208F2EFFDC3785CE29D18E29400E9
:100CA3005025E4FEEEFDD3785AE29D7480F5F018EA
:100CB300E2648095F040030E80EA785CE22401F25E
:070CC30018E23400F280CEBC
:010CCA002207
:100F8700E4FDFCC3ED9FEC9E5015E4FBFA0BBB00A0
:0F0F9700010AEB64644A70F50DBD00010C80E4A3
:010FA6002228
:1010EB00E4FDFCC3ED9FEC9E500EE4FB0BEBB40454
:0810FB00FB0DBD00010C80EBB0
:0111030022C9
:070CCB00785DEEF208EFF284
:100CD200E4F9E4FAFBD3785EE29B18E29A40070B50
:100CE200BB00010A80EF09E9B432E7E4F920921669
:100CF200E4FAFBC3EB9DEA9C50070BBB00010A80A0
:060D0200F209E9B432E73A
:010D080022C8
:0F04B200C112C1118264000082620000816100EA
:100FC500200003121262D212E47824F27F14121167
:0B0FD50034E47800F2300002C2002279
:1010D100D200C200E47800F2C2007800F2200009D8
:0A10E100121253200003120FFF2229
:0B138A00C211C20FC212D284D2832213
:10110400300014D2001212441211B42007047FC319
:0811140080027FC612092122AE
:100F440030001E7800E204F2C394054014C200E4A9
:100F5400F27800F27800E27006200003121368C2EF
:020F6400002269
:100FE00030121720A5147824E204F2C39403400AB7
:0B0FF000E4F2C212200003121368227A
:100F1E003000227800E204F2D3940A4018C200E4B2
:100F2E00F27800F208F27800F208F2C200C200C2B3
:060F3E0000C200C2002207
:10114B003008127805E2C39405500A7FC5120921B5
:06115B007805E204F22217
:10116100301012782FE2C39405500A7FC41209216E
:06117100782FE204F222D7
:10117700300E127801E2C39414500A7FC21209217B
:061187007801E204F222EF
:09139E00300005C200120B82228E
:1011E90030000CC200E47825F2C200C200C2062217
:100FA70030001A7800E204F2D394034010E4782565
:0E0FB700F2C200C200C2067800F212137422C9
:100F6600200A1D200D1A2000177800E204F2D394FF
:100F760005400D7403F2C200C2002000031213687C
:010F86002248
:1008C20030A54C3081257863E22401F218E234002D
:1008D200F2C308E2947018E2941740247417F208E5
:1008E2007471F2E47861F2C2008015D37863E29405
:1008F2003218E294004009E4F208F27861E204F26C
:100902007861E2D394064007E4F2D2001211C730B4
:0F091200000CC200D200C2001200001211C72256
:100EF50030A5257800E2702030001D120B827800A5
:100F05007401F2C200E47800F2C2007800F2D20067
:090F15001200001210D1C20022EA
:100AF30030A5032000387800E264017031200A3702
:100B0300200D347865E22401F218E23400F2C308C0
:100B1300E294DC18E29405401E30A503200018126D
:100B23000000E47800F2120FC5C200C2002230A513
:080B330006E47864F208F222E6
:100E6F00308003208708D20AE4781DF208F2300A96
:100E7F001D781D08E22401FFF218E23400FEF2C3D0
:0F0E8F00EF94D0EE94074006C20AE4F208F22274
:100E9E00308208D20DE47829F208F2300D1D78293F
:100EAE0008E22401FFF218E23400FEF2C3EF94D000
:0C0EBE00EE94074006C20DE4F208F22298
:100E0D007866EEF208EFF208ECF208EDF2EBFD7CFD
:100E1D00007FC112063ED2A2C2A37866E2FE08E2AE
:100E2D00FF08E2FC08E2FD120CCBD2A2D2A3C285D0
:010E3D002292
:100E3E00786AEEF208EFF208ECF208EDF2EBFD7CC8
:100E4E00007FC11206B1D2A2C2A3786AE2FE08E206
:100E5E00FF08E2FC08E2FD120CCBC2A2C2A3C285BF
:010E6E002261
:0E133400D285C2A2D2A3120CCBD2A2D2A32287
:0E134200D285C2A2D2A3120CCBC2A2C2A32299
:100B8200C20FC211C208C210E47800F27819F278DA
:100B92000EF27812F208F27816F208F27827F208CA
:100BA200F27814F27821F2C200C206C2007825F26D
:100BB200C20B7826F2C201780FF2C207C212782461
:070BC200F2C20E7801F222DD
:0C136800D20FD211E47800F27819F222C2
:08000300C2A41210B7D2A4221E
:10111C0075DCC0786EE4F208741DF218E2FC08E28B
:08112C00FDECF5D1EDF5D9222F
:10080000EF14601F14603114604324037053786E3A
:10081000E4F208740DF218E2FC08E2FDECF5D2ED0A
:10082000F5DA22786E7401F208E4F218E2FC08E2CC
:10083000FDECF5D3EDF5DB22786EE4F2087480F27E
:1008400018E2FC08E2FDECF5D5EDF5DD22786EE46A
:10085000F2087440F218E2FC08E2FDECF5D6EDF582
:02086000DE2296
:0807F800E4FF12080002111CCD
:0705C900787CECF208EDF272
:1005D0007E007C2B7D331202F8E47B0CFAF9F812D2
:1005E0000258C3E49FFFE49E7872F27874EFF278C9
:1005F0007CE2FE08E2FFEE3395E0FDFCE47B0BFAC3
:10060000F9F81201CDE47B0CFAF9F8120258C3E4B0
:100610009FFFE49EAD07FF7873F2AE057875EEF2AA
:100620007589117872E2F58C7874E2F58A8F8D8E77
:0D0630008BD2A9D28CD2ABD28ED2BBD2AF6E
:01063D00229A
:0409CC007870EFF25E
:1009D000E408F27871E2FFC39402500A1200007832
:1009E00071E204F280ED7870E2FF7E007C2B7D33B3
:1009F0001202F8E47B0CFAF9F8120258C3E49FFFE4
:100A0000E49EAD07FC7872F27874EFF25389F043FC
:070A100089011211F9D2A9BE
:010A170022BC
:0313B800D2AF228F
:040FFB004387012205
:0F11F900C28C7874E2F58A7872E2F58CD28C227F
:100D090053A2BF75985A758920AB07AA06E4F9F86A
:100D19007F807E70FDFC1202581202EA8F8B8F8D44
:100D29007F011209CCC299C298D2ACD28ED28CD290
:060D3900A9D2BCD2AF22DA
:0813B0008F993099FDC29922CA
:100ECA007876EBF208EAF208E9F2AF051DEF601A4C
:100EDA007876E2FB0808E2F92401F218E2FA340013
:0B0EEA00F21201B4FF1213B080E022EE
:0304C100817B013B
:040D3F007879EFF2DE
:100D4300C2A0121083D2A0121083E4787AF27879C9
:100D5300E2FF08E2C39F5019D2A17F147E00121054
:100D6300EBC2A17F147E001210EB787AE204F280CA
:010D7300DDA2
:010D7400225C
:10100000C294C2A1C2A07F5E7E011210EBD2A07F6B
:0B1010005E7E011210EBD294C294220D
:010FFF0022CF
:0F120800D2947F04120D3F7F50121134C29422F2
:0F121700D2947F18120D3F7F01121134C294221E
:0F122600D2947F18120D3F7F1E121134C29422F2
:1011C700D2947F19120D3F7F1E121134C294C200B0
:0111D70022F5
:1011A100D2947F02120D3F7F5A121134C2947F1ED6
:0311B100021134F4
:0F123500D2947F13120D3F7F8C121134C294227A
:0F124400D2947F10120D3F7F3C121134C29422BE
:1011B400D2947F03120D3F7FB4121134C2947F1472
:0311C400021134E1
:0F125300D2947F11120D3F7F3C121134C29422AE
:0F126200D2947F12120D3F7F3C121134C294229E
:0F127100D2947F0F120D3F7F64121134C294226A
:0F128000D2947F14120D3F7F78121134C2942242
:0F128F00D2947F15120D3F7F96121134C2942214
:0F129E00D2947F09120D3F7F50121134C2942257
:0F12AD00D2947F07120D3F7F32121134C2942268
:0F12BC00D2947F04120D3F7FB4121134C29422DA
:0F12CB00D2947F03120D3F7F8C121134C29422F4
:0F12DA00D2947F02120D3F7F78121134C29422FA
:0F12E900D2947F0B120D3F7F50121134C294220A
:0F12F800D2947F07120D3F7F32121134C294221D
:0F130700D2947F08120D3F7F50121134C29422EE
:0F131600D2947F0C120D3F7F50121134C29422DB
:0F132500D2947F0D120D3F7F50121134C29422CB
:1011D8007800E2700B200008200005121226D200C9
:0111E80022E4
:100DDB007800E204F2D3940340277405F23000212B
:100DEB0020001E20081B201018200E157810E2FE84
:100DFB0008E2FF7800EEF2FE08EFF2FF12001EC2CF
:020E0B000022C3
:0913A700300005C2001211C7223A
:030000000204C532
:0C04C500787FE4F6D8FD75812202050C5A
:1001B400BB010689828A83E0225002E722BBFE0249
:0901C400E32289828A83E493227C
:1001CD00E88FF0A4CC8BF0A42CFCE98EF0A42CFCD1
:1001DD008AF0EDA42CFCEA8EF0A4CDA8F08BF0A44F
:1001ED002DCC3825F0FDE98FF0A42CCD35F0FCEBAE
:1001FD008EF0A4FEA9F0EB8FF0A4CFC5F02ECD3973
:0F020D00FEE43CFCEAA42DCE35F0FDE43CFC22DF
:10021C0075F008758200EF2FFFEE33FECD33CDCC99
:10022C0033CCC58233C5829BED9AEC99E58298401C
:10023C000CF582EE9BFEED9AFDEC99FC0FD5F0D6F9
:10024C00E4CEFBE4CDFAE4CCF9A88222B800C1B923
:10025C000059BA002DEC8BF084CFCECDFCE5F0CB61
:10026C00F97818EF2FFFEE33FEED33FDEC33FCEB9A
:10027C0033FB10D703994004EB99FB0FD8E5E4F955
:10028C00FA227818EF2FFFEE33FEED33FDEC33FC42
:10029C00C933C910D7059BE99A4007EC9BFCE99A36
:1002AC00F90FD8E0E4C9FAE4CCFB2275F010EF2F7B
:1002BC00FFEE33FEED33FDCC33CCC833C810D7077B
:1002CC009BEC9AE899400AED9BFDEC9AFCE899F8B6
:0E02DC000FD5F0DAE4CDFBE4CCFAE4C8F92249
:0E02EA00C3E49FFFE49EFEE49DFDE49CFC2225
:1002F800EC8EF0A4CCC5F0CCCDF8EFA4CEC5F02D93
:10030800FDE43CFCE8A42EC8C5F03DFDE43CFCEF50
:0D031800A4FFE5F028FEE43DFDE43CFC22DE
:1004D10002118DE493A3F8E493A34003F68001F2A3
:1004E10008DFF48029E493A3F85407240CC8C3332C
:1004F100C4540F4420C8834004F456800146F6DFFB
:10050100E4800B010204081020408090040BE47E7B
:10051100019360BCA3FF543F30E509541FFEE493EF
:10052100A360010ECF54C025E060A840B8E493A3B6
:10053100FAE493A3F8E493A3C8C582C8CAC583CAE1
:10054100F0A3C8C582C8CAC583CADFE9DEE780BE99
:0104C4000037
:00000001FF
