:1008F900E4FAEF6405703343F620C2F8C2F9D2FA7C
:1009090043E180C2FCD2FBADF8EDC413135403FDDF
:10091900AFE2AB07EB7E007802C333CE33CED8F912
:100929007C002DFBEC3EAF03FE22EF6406703543DD
:10093900F640D2F8C2F9D2FA43E180C2FCD2FBAD4B
:10094900F8EDC413135403FDAFE27A00AB07EB7E55
:10095900007802C333CE33CED8F97C002DFBEC3EB0
:07096900FEAF0322E4FEFFD4
:010970002264
:0304E30081000095
:0D17A9007F061208F97861EEF208EFF222D7
:100690007883EEF208EFF2C3948CEE9402400CD211
:1006A000947F121210A47F3C0207357883E2FE0883
:1006B000E2FFC3948CEE94025014C3EF9480EE9446
:1006C00002400BD2947F081210A47F648067788365
:1006D000E2FE08E2FFC39480EE94025014C3EF944C
:1006E00075EE9402400BD2947F071210A47F6480B1
:1006F000447883E2FE08E2FFC39475EE940250143E
:10070000C3EF946DEE9402400BD2947F061210A4B6
:100710007F6480217883E2FE08E2FFC3946DEE944B
:10072000025018C3EF945CEE9402400FD2947F0500
:100730001210A47F6412154DC29422C37884E294EF
:0B0740005C18E29402500312166222C3
:0904E600871C000000000000006A
:0917E500C290D2A7C293C2A62251
:100DCB00780374AAF2E418F2E47801F27803E2C231
:100DDB00907D147C007F2E120FF1D2907803E225C8
:100DEB00E0F27D187C007F28120FF17801E204F20B
:100DFB00E2C3940840D6780374AAF218E204F2E234
:070E0B00C3940340C3D29021
:010E120022BD
:100E1300780674AAF2E418F2E47804F27806E2C2DF
:100E2300907D147C007F2E120FF1D2907806E2257C
:100E3300E0F27D187C007F28120FF17804E204F2BF
:100E4300E2C3940640D6780674AAF218E204F2E2EA
:070E5300C3940240C3D290DA
:010E5A002275
:040C73007807EFF21D
:100C7700E408F2E47809F27808E2241CF8E230E7A5
:100C87000CC2907807E2FD7C007F24800AC290782E
:100C970007E2FD7C007F17120FF1D2907808E2245B
:100CA7001CF8C000E225E0D000F27807E2FD7C00E6
:100CB7007F14120FF17809E204F2E2C3940840B7F7
:0B0CC7007808E204F2E2C3940340A8A6
:010CD20022FF
:10110E00780AEFF208ECF208EDF2D2937F14121582
:10111E004DC2A7781C74C8F20874E0F2780AE2781F
:10112E001EF2120DCB780B08E2FF120C73D2A7D26F
:02113E009322FA
:1010DA00780DEFF208ECF208EDF2D2937F141215B4
:1010EA004DC2A7781C74C8F20874E0F2780DE27851
:1010FA001EF2120DCB780E08E2FF120C73C2A7C2C1
:04110A0093C29022DA
:040CD3007810EFF2B4
:100CD700E408F21217B6903000E493781CF29030D3
:100CE70001E49308F2903002E49308F2903003E4B1
:100CF7009308F2903004E49308F27810E27821F236
:100D0700120DCBE47811F27BFE7A00791C7D061276
:100D170012B61214807811E204F2E2C3941E40E77F
:030D27000217EEC2
:040EA2007812EFF2E1
:100EA600E408F21217B6903000E493781CF2903002
:100EB60001E49308F2903002E49308F2903003E4E0
:100EC6009308F2903004E49308F27812E27821F263
:100ED600120E137BFE7A00791C7D061212B60217DB
:010EE600EE1D
:0C17B6007FB07E0412106ED293C2A722F6
:0917EE00C2937F807E2502106E7B
:100EE7001217B6781C74C8F20874C1F2903000E487
:100EF7009308F2903001E49308F2903002E49308EB
:100F0700F2903003E49308F2903004E49308F2126D
:100F17000DCB7BFE7A00791C7D071212B61214B432
:030F27000217EEC0
:100B3D0020910F7880E204F2C394784002E4F2C26F
:100B4D000022200041D2007880E2FFD39423401090
:100B5D00EFD39450500A7851E225E0F254FE801004
:100B6D007880E2D3945040147851E225E0F24401AC
:100B7D00F27867E204F2E4787FF28005787FE20490
:100B8D00F2E47880F222787FE204F2C3943C4009CB
:0A0B9D00E47867F2D200785CF222DF
:100BA70030B00F7880E204F2C394784002E4F2C2D6
:100BB7000022200041D2007880E2FFD39423401026
:100BC700EFD39450500A7851E225E0F254FE80109A
:100BD7007880E2D3945040147851E225E0F2440142
:100BE700F27867E204F2E4787FF28005787FE20426
:100BF700F2E47880F222787FE204F2C3943C400961
:0A0C0700E47867F2D200785CF22274
:100FB0007867E264087039F27851E2FF785CE2FE0B
:100FC0002455F8EFF2EE700C7855E2B4C806785C60
:100FD0007401F222EEB4010C7856E2B4E006785CBB
:100FE0007402F222EEB40204D2058000E4785CF2CE
:010FF00022DE
:0709E6007814ECF208EDF2B9
:1009ED00781C74C8F20874E0F208EFF2E47816F29D
:1009FD00E47817F27816E2241CF8E230E70DC2A372
:100A0D007814E2FC08E2FD7F24800BC2A37814E287
:100A1D00FC08E2FD7F17120FF1D2A37816E2241C19
:100A2D00F8C000E225E0D000F27814E2FC08E2FD07
:100A3D007F0F120FF17817E204F2E2C3940840B46D
:0B0A4D007816E204F2E2C3940340A517
:010A5800227B
:070A59007818ECF208EDF241
:100A6000781C74C8F20874E0F208EFF2E4781AF225
:100A7000E4781BF2781AE2241CF8E230E70DC28118
:100A80007818E2FC08E2FD7F24800BC2817818E22E
:100A9000FC08E2FD7F17120FF1D281781AE2241CC4
:100AA000F8C000E225E0D000F27818E2FC08E2FD90
:100AB0007F0F120FF1781BE204F2E2C3940840B4F6
:0B0AC000781AE204F2E2C3940340A5A0
:010ACB002208
:0404EF00822900005E
:10144C00782974FFF2087493F2782908E22401FFDA
:0A145C00F218E23400F24F70F022A3
:10146600782974FDF20874E3F2782908E22401FF72
:0A147600F218E23400F24F70F02289
:10148000782974FBF20874C7F2782908E22401FF76
:0A149000F218E23400F24F70F0226F
:10149A00782974FAF20874EFF2782908E22401FF35
:0A14AA00F218E23400F24F70F02255
:1014B400782974EAF20874E7F2782908E22401FF33
:0A14C400F218E23400F24F70F0223B
:1014CE00782974D5F20874CFF2782908E22401FF46
:0A14DE00F218E23400F24F70F02221
:1014E8007829742DF208740FF2782908E22401FF94
:0A14F800F218E23400F24F70F02207
:10154D00AE071FEE60107C137D88ED1DAA0470019F
:06155D001C4A60EC80F462
:011563002265
:070FF1007823ECF208EDF299
:100FF800E408F208F2EFFDC37826E29D18E29400B7
:101008005025E4FEEEFDD37824E29D7480F5F018B7
:10101800E2648095F040030E80EA7826E22401F22B
:0710280018E23400F280CE53
:01102F00229E
:1013BA00E4FDFCC3ED9FEC9E5015E4FBFA0BBB0069
:0F13CA00010AEB64644A70F50DBD00010C80E46C
:0113D90022F1
:10151C00E4FDFCC3ED9FEC9E500EE4FB0BEBB4041E
:08152C00FB0DBD00010C80EB7A
:011534002294
:071030007827EEF208EFF251
:10103700E4F9E4FAFBD37828E29B18E29A40070B1D
:10104700BB00010A80EF09E9B432E7E4F920921600
:10105700E4FAFBC3EB9DEA9C50070BBB00010A8037
:06106700F209E9B432E7D2
:01106D002260
:0404F300C124C1233C
:10120300200A161216AD7861E2FE08E2FF784CEE72
:10121300F2FE08EFF2FF120690D224E47874F27F14
:0E1223001412154DE4786BF2300A02C20A2252
:10133000D212C214E4786EF2C21A786BF2200A1349
:1013400012169E20020A784CE2FE08E2FF12069076
:041350001218272226
:0B17DA00C223C220C224D284D283228A
:0C17C200301C08D21612168F1215FA22E5
:10137700301A1E786EE204F2C394054014C21AE4D0
:10138700F2786BF2787EE270062006031217CEC25F
:0213970006222C
:1014160030241720A5147874E204F2C39403400A1A
:0B142600E4F2C2242006031217CE22BD
:10130A00301E227866E204F2D3940A4018C21EE420
:10131A00F27853F208F2785EF208F2C20EC20FC2F5
:06132A0010C211C21322E3
:10157B003009127852E2C39405500A7FC5120CD37E
:06158B007852E204F22296
:101591003022127881E2C39405500A7FC4120CD321
:0615A1007881E204F22251
:1015A700301F12784BE2C39405500A7FC2120CD346
:0615B700784BE204F22271
:0917F700300D05C20D120E5B223B
:10164200300B0CC20BE47875F2C21CC216C2072220
:1013DA00301C1A7882E204F2D394034010E4787540
:0E13EA00F2C21CC216C2077882F21217EE225F
:1013990020181D201B1A200217784EE204F2D3945C
:1013A90003400D7405F2C212C21A2006031217CEA9
:0113B9002211
:10074B0020A5030207D630813EE4785EF208F278EA
:10075B005308E22401FFF218E23400FEF2D3EF94C7
:10076B00A0EE940F4013740FF20874A2F2C20EC2E3
:10077B000FC210C211C2138052D20E300F02D21010
:10078B00301148D2138044E47853F208F2300E0251
:10079B00D20F301002D211301307D21EC213121611
:1007AB0020785E08E22401FFF218E23400FEF2D357
:1007BB00EF94A0EE940F4013740FF20874A2F2C2E0
:1007CB000EC20FC210C211C213C21E301516C215B3
:1007DB00D217C20EC20FC210C211C213C21E120F09
:0507EB002A1216202275
:1012E10030A525787EE27020301A1D120E5B787EC3
:1012F1007401F2C214E4786EF2C21A786BF2D2125F
:09130100121631121330C202224F
:10128B0030A503201224787EE26401701D20181A09
:10129B00201B1712144C30A50320120E12179BE4BF
:0B12AB00787EF2121203C20DC2142262
:1011D400308003208708D218E4786FF208F23018C0
:1011E4001D786F08E22401FFF218E23400FEF2C316
:0F11F400EF94D0EE94074006C218E4F208F222FE
:10125F00308208D21BE47879F208F2301B1D7879BE
:10126F0008E22401FFF218E23400FEF2C3EF94D03B
:0C127F00EE94074006C21BE4F208F222C5
:10117200782BEEF208EFF208ECF208EDF2EBFD7CD0
:10118200007FC11209E6D2A2C2A3782BE2FE08E2D6
:10119200FF08E2FC08E2FD121030D2A2D2A3C285FF
:0111A200222A
:1011A300782FEEF208EFF208ECF208EDF2EBFD7C9B
:1011B300007FC1120A59D2A2C2A3782FE2FE08E22D
:1011C300FF08E2FC08E2FD121030C2A2C2A3C285EE
:0111D30022F9
:0E177F00D285C2A2D2A3121030D2A2D2A322CF
:0E178D00D285C2A2D2A3121030C2A2C2A322E1
:100E5B00C220C223C209C222E4784AF2786AF2782D
:100E6B005DF27863F208F27868F208F27877F208AC
:100E7B00F27865F27873F2C216C207C21C7875F26B
:100E8B00C2197876F2C2017860F2C208C224787473
:070E9B00F2C21F784BF222A6
:0C17CE00D220D223E4784AF2786AF2229A
:08000300C2A41214E8D2A422E9
:1015350075DCC07833E4F208741DF218E2FC08E2A9
:08154500FDECF5D1EDF5D92212
:100C1100EF14601F14603114604324037053783360
:100C2100E4F208740DF218E2FC08E2FDECF5D2EDF5
:100C3100F5DA2278337401F208E4F218E2FC08E2F2
:100C4100FDECF5D3EDF5DB227833E4F2087480F2A4
:100C510018E2FC08E2FDECF5D5EDF5DD227833E490
:100C6100F2087440F218E2FC08E2FDECF5D6EDF56D
:020C7100DE2281
:08180900E4FF120C1102153579
:070971007835ECF208EDF20D
:100978007E007C2B7D33120396E47B0CFAF9F81287
:1009880002F0C3E49FFFE49E7837F27839EFF278FB
:1009980035E2FE08E2FFEE3395E0FDFCE47B0BFA5E
:1009A800F9F8120265E47B0CFAF9F81202F0C3E4D4
:1009B8009FFFE49EAD07FF7838F2AE05783AEEF275
:1009C8007589117837E2F58C7839E2F58A8F8D8E42
:0D09D8008BD2A9D28CD2ABD28ED2BBD2AFC3
:0109E50022EF
:101354007E007C2B7D33120396E47B0CFAF9F812A1
:1013640002F0C3E49FFFE49E7837F27839EFF27518
:021374008921CD
:011376002254
:0418190043870122DE
:10106E0053A2BF75985A758920AB07AA06E4F9F802
:10107E007F807E70FDFC1202F01203828F8B8F8DAB
:10108E007F01121354C299C298D2ACD28ED28CD296
:06109E00A9D2BCD2AF2272
:081811008F993099FDC2992264
:1012B600783BEBF208EAF208E9F2AF051DEF601A97
:1012C600783BE2FB0808E2F92401F218E2FA34005E
:0B12D600F212024CFF12181180E022FF
:0304F700813E0142
:0410A4007887EFF268
:1010A800C2A01214B4D2A01214B4E47888F27887DB
:1010B800E2FF08E2C39F5019D2A17F147E001215E7
:1010C8001CC2A17F147E0012151C7888E204F280ED
:0110D800DD3A
:0110D90022F4
:10143100C294C2A1C2A07F5E7E0112151CD2A07F00
:0B1441005E7E0112151CD294C29422A2
:01182700229E
:0F166200D2947F041210A47F5012154DC294220F
:0F167100D2947F181210A47F1E12154DC294221E
:10162000D2947F191210A47F1E12154DC294C217B6
:011630002297
:1015E700D2947F021210A47F5A12154DC2947F1E07
:0315F70002154D8D
:0F168000D2947F111210A47F8C12154DC29422A8
:0F168F00D2947F0E1210A47F2812154DC2942200
:1015FA00D2947F031210A47FB412154DC2947F14A3
:03160A0002154D79
:0F169E00D2947F0F1210A47F3C12154DC29422DC
:0F16AD00D2947F101210A47F3C12154DC29422CC
:0F16BC00D2947F0D1210A47F6412154DC2942298
:0F16CB00D2947F141210A47F7812154DC294226E
:0F16DA00D2947F131210A47F9612154DC2942242
:0F16E900D2947F091210A47F5012154DC2942283
:0F16F800D2947F071210A47F3212154DC2942294
:0F170700D2947F051210A47F9612154DC2942222
:0F171600D2947F031210A47F8C12154DC294221F
:0F172500D2947F021210A47F7812154DC2942225
:0F173400D2947F0B1210A47F5012154DC2942235
:0F174300D2947F0B1210A47F3212154DC2942244
:0F175200D2947F0F1210A47F5012154DC2942213
:0F176100D2947F0C1210A47F5012154DC2942207
:0F177000D2947F0D1210A47F5012154DC29422F7
:031821000216713B
:10114000787DE204F2D3940340277405F2301D2128
:10115000201C1E20091B202218201F157861E2FE8A
:1011600008E2FF784CEEF2FE08EFF2FF120690C2A2
:021170001D223E
:09180000302105C221121620223C
:10160D0075AF30C2AF75C7AA75C755439F01D2AF2D
:03161D0002150EA5
:1015D30075AF3012150EC2AF75C7AA75C755539FA5
:0415E300FED2AF2263
:0C150200E2FC08E2FDECF5A7AF058FA6A7
:0E150E00C2AF75C7AA75C75543A401D2AF225C
:10000E007883EEF208EFF212160D75AF2278831296
:05001E0015020215D3DC
:061231007857E2FD7E305B
:101237007883EEF208EFF208EDF212160D75AF2182
:101247007883E2FC08E2FDECF5A7AF058FA608E27C
:08125700F5AE12150E0215D3CD
:0713F800783FEEF208EFF26E
:1013FF0012160DE4F5AF783F12150208E5AEF212A2
:06140F0015D37841E2FF55
:0114150022B4
:100F2A007F007E3012000E7855E2FD7F007E30127F
:100F3A0012377856E2FD7F017E301212377F021295
:100F4A0012317858E2FD7F037E301212377859E267
:100F5A00FD7F047E30121237785AE2FD7F057E301B
:030F6A0002123739
:100F6D007F007E3012000E7F001212317858E2FDA4
:100F7D007F017E301212377859E2FD7F027E3012EA
:100F8D001237785AE2FD7F037E30121237785BE21A
:100F9D00FD7F047E30121237785CE2FD7F057E30D6
:030FAD00021237F6
:0318240002163178
:10163100120D2AD2A2C2A31215BDD2A2D2A3C28573
:011641002286
:0E179B00D285C2A2D2A3121652D2A2D2A3228B
:100D2A00781C74C8F20874E0F20874C1F2E4788995
:100D3A00F2E4788AF27889E2241CF8E230E707C202
:100D4A00A312149A8005C2A3121466D2A37889E268
:100D5A00241CF8C000E2FF25E0D000F212146678E5
:100D6A008AE204F2E2C3940840CB7889E204F2E210
:050D7A00C3940340BC1E
:010D7F002251
:1015BD001214CE1214E81214E81214E81214E820D2
:0615CD0092031214E82253
:101652001214E81214E82092061214E81214E82276
:0304FA0081460038
:100ACC00E47842F27842E2FFC39405505EEF75F091
:100ADC0008A4242CF8E6604C7842E2FF75F008A4D8
:100AEC00242BF8E6D39400403BEF75F008A42425A2
:100AFC00F8E6FE08E6AA06F91203907842E2FF75C2
:100B0C00F008A4242BF816EF75F008A42429F8E6B5
:100B1C00FE08E64E700E7842E275F008A42425F823
:100B2C00E4F608F67842E204F280991218280218CA
:010B3C001D9B
:07087C007843EEF208EFF2F1
:10088300E4FFEF75F008A42425F8E6F58308E645B0
:10089300836009EFC3940550030F80E6EFB40508A6
:1008A30078467401F27F05227843E2F58308E2F586
:1008B30082EF75F008A42425F8A68308A682EF75B5
:1008C300F008A42427F8A60408A605AC02AD03EF9C
:1008D30075F008A42429F8A60408A605A225E43384
:1008E300FEEF75F008A4242CF8A606EF75F008A413
:0508F300242BF8E4F6DF
:0108F80022DD
:100D8000EF75F008A42425F8E6FC08E64C70097815
:100D9000467402F2D2268002C226EF75F008A4241F
:100DA00025F8E4F608F6EF75F008A42427F8E4F631
:100DB00008F6EF75F008A42429F8E4F608F6EF75B4
:0A0DC000F008A4242BF8E4F6A226A4
:010DCA002206
:01182800229D
:04181D0043870122DA
:1005CB00E47845F27845E2FFC39405400302068FB9
:1005DB00EF75F008A42425F8E6FE08E64E7003023A
:1005EB0006877845E2FF75F008A42427F8E6FC0897
:1005FB00E64C7077EF75F008A4242CF8E6600D78C4
:10060B0045E275F008A4242BF806803D7845E27589
:10061B00F008A42425F8E6FE08E6AA06F9120390D2
:10062B007845E2FF75F008A4242BF816EF75F00857
:10063B00A42429F8E6FE08E64E700E7845E275F024
:10064B0008A42425F8E4F608F67845E2FF75F008CF
:10065B00A42429F8E6FC08E6FD4C6020EF75F008B1
:10066B00A42427F8A60408A60580117845E275F0A6
:10067B0008A42427F808E616187001167845E2043A
:04068B00F20205CFA3
:01068F002248
:1004FD00C11A816B00C116C120C11CC119817500C3
:10050D00817600C109C122815D008268000081737E
:10051D000081650082770000C101814A008263007D
:10052D0000816A008181008152008271000087552F
:10053D0000000000000000C105815C0081510081B8
:10054D006700C180817F00818000816D00816C001A
:10055D00827B0000C104817E0082610000824C001C
:10056D0000816000C11F814B00C103824F0000C19B
:10057D0018826F0000C108816E00817400C107C12F
:10058D001B82790000C10D82530000825E0000C104
:10059D000EC10FC110C111C113C11E816600C1155D
:1005AD00C10AC117817D00C11DC10CC106C121C188
:0D05BD0012814E00C114818200C10BC18269
:101564001214317F807E2512106E1217DA1217E5DD
:07157400121824D28580FE4D
:03000B00020026CA
:10002600C0E0C0F0C083C082C0D075D000C000C0A0
:1000360001C002C003C004C005C006C0077837E28D
:10004600F58C7839E2F58A787108E22401FFF21816
:10005600E23400FEF2C3EF94D0EE9407401FE4F2C0
:1000660008F21217A912114012137712141612175A
:10007600C21217F71216421213DA12130A121800D6
:1000860012074B1211D412125F1212E112128B20B8
:1000960023030201A7784AE21460451470030201A3
:1000A6002E2402600302017D30800320872B201658
:1000B6002820172530A722786AE204F2C39401505B
:1000C6000302017DE4F2784A04F21214E81214E8FD
:1000D6001214E81214E802017D786AE4F202017D46
:1000E600308003208716785DE204F2C39401401045
:1000F600E4F2784A7402F21215E78004785DE4F2BD
:10010600786308E22401FFF218E23400FEF2C3EF3E
:1001160094A0EE940F4060784AE4F2785DF2786A33
:10012600F27863F208F2804F3080032087177865F3
:10013600E204F2C394014011E4F2D21CD219D207B0
:100146007882F280047865E4F2786808E22401FF98
:10015600F218E23400FEF2C3EF94A0EE940F4017BB
:10016600784AE4F2786AF2785DF27863F208F27817
:1001760068F208F27865F220810CD21CD2197882D6
:10018600E4F2D208800D30810A300807D20BC2088B
:10019600121671C37861E294015004D21F8002C224
:1001A6001F302042208413786CE204F2B40A16D27F
:1001B60022C20920040FD201800BC2227881E4F208
:1001C600786CF2C201208313786DE204F2B40A1649
:1001D600D209C22220040FD201800BC2097852E450
:1001E600F2786DF2C201300142787B08E22401FF09
:1001F600F218E23400FEF2C3EF94A0EE940F402B07
:10020600C201E4F208F2D204784AF2786AF2785D22
:10021600F27863F208F27868F208F278777403F2FB
:10022600087420F27865E4F27873F2D007D006D02D
:1002360005D004D003D002D001D000D0D0D082D0D7
:0602460083D0F0D0E0328D
:030023000203C312
:1003C300C0E0C0F0C083C082C0D075D000C000C000
:1003D30001C002C003C004C005C006C007209803C3
:1003E3000204C8C298785CE2FF2455F8E599F2301C
:1003F3001E030204BAEF701390300093FF7855E2A6
:10040300B50708785C7401F20204C8785CE2B401B1
:1004130014903001E493FF7856E2B50708785C74D2
:1004230002F20204C8785CE2FFB40214903002E4E2
:1004330093FE7857E2B50608785C7403F20204C8A9
:10044300EFB40313903003E493FF7858E2B5070742
:10045300785C7404F2806E785CE2B4041390300428
:10046300E493FF7859E2B50707785C7405F2805589
:10047300785CE26405703A90300593FF785AE26F36
:10048300702F785CF2D21A786EF2D20D121821789E
:100493006BE2FF04F2EFC394014002D20A786BE2ED
:1004A30004F2C3940B401ED206D221C20AE4F280A6
:1004B30014785CE4F2800E785CE204F2C3940640A4
:1004C30004E4F2D215D007D006D005D004D003D06F
:1004D30002D001D000D0D0D082D083D0F0D0E0328F
:030000000207F004
:0C07F000787FE4F6D8FD75814C020837D4
:10024C00BB010689828A83E0225002E722BBFE02B0
:09025C00E32289828A83E49322E3
:10026500E88FF0A4CC8BF0A42CFCE98EF0A42CFC38
:100275008AF0EDA42CFCEA8EF0A4CDA8F08BF0A4B6
:100285002DCC3825F0FDE98FF0A42CCD35F0FCEB15
:100295008EF0A4FEA9F0EB8FF0A4CFC5F02ECD39DA
:0F02A500FEE43CFCEAA42DCE35F0FDE43CFC2247
:1002B40075F008758200EF2FFFEE33FECD33CDCC01
:1002C40033CCC58233C5829BED9AEC99E582984084
:1002D4000CF582EE9BFEED9AFDEC99FC0FD5F0D661
:1002E400E4CEFBE4CDFAE4CCF9A88222B800C1B98B
:1002F4000059BA002DEC8BF084CFCECDFCE5F0CBC9
:10030400F97818EF2FFFEE33FEED33FDEC33FCEB01
:1003140033FB10D703994004EB99FB0FD8E5E4F9BC
:10032400FA227818EF2FFFEE33FEED33FDEC33FCA9
:10033400C933C910D7059BE99A4007EC9BFCE99A9D
:10034400F90FD8E0E4C9FAE4CCFB2275F010EF2FE2
:10035400FFEE33FEED33FDCC33CCC833C810D707E2
:100364009BEC9AE899400AED9BFDEC9AFCE899F81D
:0E0374000FD5F0DAE4CDFBE4CCFAE4C8F922B0
:0E038200C3E49FFFE49EFEE49DFDE49CFC228C
:060390008A838982E473F8
:10039600EC8EF0A4CCC5F0CCCDF8EFA4CEC5F02DF4
:1003A600FDE43CFCE8A42EC8C5F03DFDE43CFCEFB2
:0D03B600A4FFE5F028FEE43DFDE43CFC2240
:1007FC00021564E493A3F8E493A34003F68001F29A
:10080C0008DFF48029E493A3F85407240CC8C333FD
:10081C00C4540F4420C8834004F456800146F6DFCC
:10082C00E4800B01020408102040809004E3E47E75
:10083C00019360BCA3FF543F30E509541FFEE493C1
:10084C00A360010ECF54C025E060A840B8E493A388
:10085C00FAE493A3F8E493A3C8C582C8CAC583CAB3
:10086C00F0A3C8C582C8CAC583CADFE9DEE780BE6B
:0105CA000030
:00000001FF
