:1009CB00E4FAEF6405703343F620C2F8C2F9D2FAA9
:1009DB0043E180C2FCD2FBADF8EDC413135403FD0D
:1009EB00AFE2AB07EB7E007802C333CE33CED8F940
:1009FB007C002DFBEC3EAF03FE22EF64067035430B
:100A0B00F640D2F8C2F9D2FA43E180C2FCD2FBAD78
:100A1B00F8EDC413135403FDAFE27A00AB07EB7E82
:100A2B00007802C333CE33CED8F97C002DFBEC3EDD
:070A3B00FEAF0322E4FEFF01
:010A42002291
:0606A2008100008101004F
:0D1777007F061209CB7855EEF208EFF22242
:10125300783EE2FE08E2FF7855E2FC08E2FDC39F18
:10126300EC9E4009D3ED9417EC94034007783EECD1
:0E127300F208EDF2783EE2FE08E2FF020026ED
:100026007878EEF208EFF2D2947F081211847F46B8
:10003600121554C37879E294A818E294025002216A
:100046003D7878E2FE08E2FFC394A8EE9402400AE7
:10005600EF94B6EE9402500221C07878E2FE08E2F0
:10006600FFC394B6EE94024016EF94C7EE94025086
:100076000E7F151211847F1E1215547F10413A7897
:1000860078E2FE08E2FFC394C7EE94024020EF94A4
:10009600D8EE940250187F0D1211847F1E1215544B
:1000A6007F151211847F1E1215547F0C413A787801
:1000B600E2FE08E2FFC394D8EE94024020EF94E2F9
:1000C600EE940250187F0D1211847F1E1215547F74
:1000D600151211847F1E1215547F13413A7878E267
:1000E600FE08E2FFC394E2EE94024020EF94ECEEA9
:1000F600940250187F0E1211847F1E1215547F151C
:100106001211847F1E1215547F11413A7878E2FE4F
:1001160008E2FFC394ECEE94024020EF94F7EE94CD
:100126000250187F0F1211847F1E1215547F15126C
:1001360011847F1E1215547F0E413A7878E2FE082C
:10014600E2FFC394F7EE94024020EF9402EE94038C
:1001560050187F101211847F1E1215547F1512112C
:10016600847F1E1215547F0C413A7878E2FE08E22D
:10017600FFC39402EE94034016EF940CEE940350E2
:100186000E7F111211847F1E1215547F15413A7885
:1001960078E2FE08E2FFC3940CEE94034020EF944D
:1001A60011EE940350187F111211847F1E121554FC
:1001B6007F151211847F1E1215547F12807678786F
:1001C600E2FE08E2FFC39411EE94034020EF94157B
:1001D600EE940350187F121211847F1E1215547F5D
:1001E600151211847F1E1215547F0F80477878E20E
:1001F600FE08E2FFC39415EE94034020EF9417EE39
:10020600940350187F131211847F1E1215547F1504
:100216001211847F1E1215547F0D8018C37879E25F
:10022600941718E2940340147F141211847F1E124F
:1002360015547F151211847F1E1215547F0B12114F
:10024600847F3C121554C294D2A01214A2C2A002FA
:0202560014A2F0
:0906A800870B00000000000000B7
:1007B600780474AAF2E418F2E47802F27804E2C249
:1007C600907D147C007F2E12110ED2907804E225C3
:1007D600E0F27D187C007F2812110E7802E204F206
:1007E600E2C3940840D6780474AAF218E204F2E24E
:0707F600C3940140C3D2903F
:0107FD0022D9
:100F8E00780774AAF2E418F2E47805F27807E2C260
:100F9E00907D147C007F2E12110ED2907807E225E0
:100FAE00E0F27D187C007F2812110E7805E204F223
:100FBE00E2C3940440D6780774AAF218E204F2E26F
:070FCE00C3940140C3D2905F
:010FD50022F9
:040D3A007808EFF254
:100D3E00E408F2E4780AF27809E2240BF8E230E7EC
:100D4E000CC2907808E2FD7C007F24800AC2907865
:100D5E0008E2FD7C007F1712110ED2907809E22472
:100D6E000BF8C000E225E0D000F27808E2FD7C002E
:100D7E007F1412110E780AE204F2E2C3940840B70F
:0B0D8E007809E204F2E2C3940340A8DD
:010D99002237
:100C040020910F7875E204F2C394784002E4F2C2B2
:100C14000022200041D2007875E2FFD394234010D3
:100C2400EFD39450500A7845E225E0F254FE801048
:100C34007875E2D3945040147845E225E0F24401FB
:100C4400F2785BE204F2E47874F280057874E204EA
:100C5400F2E47875F2227874E204F2C3943C400919
:0A0C6400E4785BF2D2007850F2222F
:100C6E0030B00F7875E204F2C394784002E4F2C219
:100C7E000022200041D2007875E2FFD39423401069
:100C8E00EFD39450500A7845E225E0F254FE8010DE
:100C9E007875E2D3945040147845E225E0F2440191
:100CAE00F2785BE204F2E47874F280057874E20480
:100CBE00F2E47875F2227874E204F2C3943C4009AF
:0A0CCE00E4785BF2D2007850F222C5
:1010CD00785BE264087039F27845E2FF7850E2FE11
:1010DD002449F8EFF2EE700C7849E2B4C806785066
:1010ED007401F222EEB4010C784AE2B4E0067850B5
:1010FD007402F222EEB40204D2058000E47850F2BC
:01110D0022BF
:0406B10082160000AD
:10143A00781674FFF2087493F2781608E22401FF12
:0A144A00F218E23400F24F70F022B5
:10145400781674FDF20874E3F2781608E22401FFAA
:0A146400F218E23400F24F70F0229B
:10146E00781674FBF20874C7F2781608E22401FFAE
:0A147E00F218E23400F24F70F02281
:10148800781674FAF20874EFF2781608E22401FF6D
:0A149800F218E23400F24F70F02267
:1014A200781674EAF20874E7F2781608E22401FF6B
:0A14B200F218E23400F24F70F0224D
:1014BC00781674D5F20874CFF2781608E22401FF7E
:0A14CC00F218E23400F24F70F02233
:1014D6007816742DF208740FF2781608E22401FFCC
:0A14E600F218E23400F24F70F02219
:10155400AE071FEE60107C137D88ED1DAA04700198
:061564001C4A60EC80F45B
:01156A00225E
:07110E007812ECF208EDF28B
:10111500E408F208F2EFFDC37815E29D18E29400A9
:101125005025E4FEEEFDD37813E29D7480F5F018AA
:10113500E2648095F040030E80EA7815E22401F21E
:0711450018E23400F280CE35
:01114C002280
:10138700E4FDFCC3ED9FEC9E5015E4FBFA0BBB009C
:0F139700010AEB64644A70F50DBD00010C80E49F
:0113A6002224
:10150A00E4FDFCC3ED9FEC9E500EE4FB0BEBB40430
:08151A00FB0DBD00010C80EB8C
:0115220022A6
:1006B500C129C12882200000821E0000811B00C1C3
:0C06C5002782180000821C0000811A002F
:1013A700200A061216A5121253D229E47869F27F91
:0E13B70014121554E4785FF2300A02C20A22C2
:1011F000D212C214E47863F2C21A785FF21214D6E3
:101200001214D61214D61214D6C285201F02D28010
:10121000200A0E200203121253121624C28512074E
:02122000FE22AC
:0517B600C228C2292237
:0C178400301C08D2161216961216112204
:10130000301A1E7863E204F2C3940F4014C21AE448
:10131000F2785FF27873E27006200603121790C22B
:021320000622A3
:1013C50030291A30A5033023147869E204F2C39456
:0E13D50003400AE4F2C22920060312179022F8
:1012DA00302022785AE204F2D3940A4018C220E459
:1012EA00F27847F208F27852F208F2C20EC20FC23E
:0612FA0010C211C2132214
:10156B003009127846E2C39405500A7FC512000079
:06157B007846E204F222B2
:101581003026127876E2C39405500A7FC412000017
:061591007876E204F2226C
:10159700302112783DE2C39414500A7FC212000032
:0615A700783DE204F2228F
:09179C00300D05C20D12100022EF
:10164A00300B0CC20BE4786AF2C21CC216C2072223
:1013E300301C1A7877E204F2D394054010E4786A4B
:0E13F300F2C21CC216C2077877F21200002266
:1013660020271D201B1A2002177840E204F2D3948E
:1013760006400D7407F2C212C21A20060312179015
:011386002244
:100B980020A503301F4B30A725781FE22401F21847
:100BA800E23400F2C308E2947018E2941740247407
:100BB80017F2087471F2E4781BF2C2208015D3781A
:100BC8001FE2943218E294004009E4F208F2781B1C
:100BD800E204F2781BE2D394064020E4F2D22080AB
:100BE8001720A5177873E27012201F0F30150CC25A
:0C0BF80015D217C22012104712000E2266
:10114D0020A503301F307873E2702B301A2820064B
:10115D002512100078737401F2C214E47863F2C2A0
:10116D001A785FF2D212120DF51211F0C202C223DB
:07117D00E47841F208F222C0
:100D9A0020A503301F063012033023457873E2641E
:100DAA0001703EC280201842201B3F7821E22401B4
:100DBA00F218E23400F2C308E294DC18E294054027
:100DCA002930A506301203302320120E4BE4787323
:100DDA00F21213A7C20DC214E47841F208F2C21F3C
:0B0DEA002230A506E47820F208F22277
:100B290030820630820320A621781AE204F2C394A7
:100B390002401BE4F2D2187864F208F2D22778183E
:100B4900F208F27841F208F28004E4781AF23018D7
:100B59001D786408E22401FFF218E23400FEF2C3B2
:100B6900EF94A0EE940F4006C218E4F208F2302781
:100B79001D781808E22401FFF218E23400FEF2C3DE
:0F0B8900EF9410EE94274006C227E4F208F22200
:1012220030810DD21BE4786EF208F27841F208F2B6
:10123200301B1D786E08E22401FFF218E23400FE32
:10124200F2C3EF94D0EE94074006C21BE4F208F218
:011252002279
:10100000C222C228C209C226E4783CF2785EF27895
:1010100051F27857F208F2785CF208F2786CF20834
:10102000F27859F27868F2C216C207C21C786AF2E6
:10103000C219786BF2C2017854F2C208C2297869E9
:07104000F2C221783DF2220B
:0C179000D222D228E4783CF2785EF222EB
:10153C0075DCC07822E4F208741DF218E2FC08E2B3
:08154C00FDECF5D1EDF5D9220B
:100CD800EF14601F146031146043240370537822AA
:100CE800E4F208740DF218E2FC08E2FDECF5D2ED2E
:100CF800F5DA2278227401F208E4F218E2FC08E23C
:100D0800FDECF5D3EDF5DB227822E4F2087480F2ED
:100D180018E2FC08E2FDECF5D5EDF5DD227822E4D9
:100D2800F2087440F218E2FC08E2FDECF5D6EDF5A5
:020D3800DE22B9
:08000300E4FF120CD802153CC9
:070A43007824ECF208EDF24B
:100A4A007E007C2B7D33120558E47B0CFAF9F812F0
:100A5A0004B2C3E49FFFE49E7826F27828EFF27886
:100A6A0024E2FE08E2FFEE3395E0FDFCE47B0BFA9C
:100A7A00F9F8120427E47B0CFAF9F81204B2C3E479
:100A8A009FFFE49EAD07FF7827F2AE057829EEF2C4
:100A9A007589117826E2F58C7828E2F58A8F8D8E91
:0D0AAA008BD2A9D28CD2ABD28ED2BBD2AFF0
:010AB700221C
:040EF700787EEFF220
:100EFB00E408F2787FE2FFC39402500A120F4378A2
:100F0B007FE204F280ED787EE2FF7E007C2B7D3366
:100F1B00120558E47B0CFAF9F81204B2C3E49FFFF4
:100F2B00E49EAD07FC7826F27828EFF25389F04364
:070F3B00890112165AD2A928
:010F4200228C
:0317C300D2AF2280
:0417BB00438701223D
:0F165A00C28C7828E2F58A7826E2F58CD28C22B1
:0306D100812A017A
:04118400787EEFF290
:10118800D2A01214A2C2A01214A2E4787FF2787E30
:10119800E2FF08E2C39F5019D2A17F147E00121506
:1011A8000AC2A17F147E0012150A787FE204F28039
:0111B800DD59
:0111B9002213
:10152300C294C2A1D2A07F5E7E0112150AC2A07F1F
:091533005E7E0112150AC2942229
:0107FE0022D8
:0F166900D2947F041211847F50121554C2942220
:0F167800D2947F181211847F01121554C294224C
:1015EB00D2947F1A1211847F1E121554D21EE478E6
:0315FB0061F22278
:10000E00D294E47861F27F1B1211847F1E12155474
:05001E00C294C217228C
:1015FE00D2947F021211847F5A121554C2947F1E08
:03160E000215546E
:0F168700D2947F161211847F8C121554C29422B4
:0F169600D2947F071211847F3C121554C2942204
:10161100D2947F031211847FB4121554C2947F14A3
:031621000215545B
:10162400D294E47861F27F091211847F3C1215543C
:03163400C294223B
:0F16A500D2947F0A1211847F3C121554C29422F2
:0F16B400D2947F0F1211847F64121554C29422B6
:0F16C300D2947F1C1211847F78121554C2942286
:0F16D200D2947F151211847F96121554C2942260
:0F16E100D2947F061211847F50121554C29422A6
:0F16F000D2947F051211847F32121554C29422B6
:0F16FF00D2947F041211847FB4121554C2942226
:0F170E00D2947F031211847F8C121554C294223F
:0F171D00D2947F021211847F78121554C2942245
:0F172C00D2947F0B1211847F50121554C2942255
:0F173B00D2947F071211847F32121554C2942268
:0F174A00D2947F081211847F50121554C294223A
:0F175900D2947F0C1211847F50121554C2942227
:0F176800D2947F0D1211847F50121554C2942217
:0317C6000215EB1E
:101322007872E204F2D3940340177405F2301D116F
:10133200201C0E20090B202608202105121253C260
:021342001D226A
:0917A500302405C22412000E22BA
:1016370075AF30C2AF75C7AA75C755439F01D2AF03
:031647000214FC8E
:1015D70075AF301214FCC2AF75C7AA75C755539FB4
:0415E700FED2AF225F
:0C14F000E2FC08E2FDECF5A7AF058FA6BA
:0E14FC00C2AF75C7AA75C75543A401D2AF226F
:1015AD007878EEF208EFF212163775AF22787812CE
:0515BD0014F00215D737
:06128100784BE2FD7E3017
:101287007878EEF208EFF208EDF212163775AF2113
:101297007878E2FC08E2FDECF5A7AF058FA608E237
:0812A700F5AE1214FC0215D78C
:07140100782BEEF208EFF278
:10140800121637E4F5AF782B1214F008E5AEF21295
:0614180015D7782DE2FF5C
:01141E0022AB
:101047007F007E301215AD7849E2FD7F007E3012B9
:101057001287784AE2FD7F017E301212877F0212E3
:101067001281784CE2FD7F037E30121287784DE2C1
:10107700FD7F047E30121287784EE2FD7F057E30B9
:03108700021287CB
:10108A007F007E301215AD7F00121281784CE2FD8E
:10109A007F017E30121287784DE2FD7F027E301288
:1010AA001287784EE2FD7F037E30121287784FE274
:1010BA00FD7F047E301212877850E2FD7F057E3074
:0310CA0002128788
:0206D400C12A39
:100DF500780B74C8F20874E0F20874C1F2E47878EC
:100E0500F2E47879F27878E2240BF8E230E707C269
:100E1500901214888005C290121454D2907878E20A
:100E2500240BF8C000E2FF25E0D000F2121454783C
:100E350079E204F2E2C3940840CB7878E204F2E266
:050E4500C3940340BC52
:010E4A002285
:100E4B00780B74C8F20874E0F20874C2F2E4787894
:100E5B00F2E47879F27878E2240BF8E230E707C213
:100E6B00901214888005C290121454D2907878E2B4
:100E7B00240BF8C000E2FF25E0D000F212145478E6
:100E8B0079E204F2E2C3940840CB7878E204F2E210
:050E9B00C3940340BCFC
:010EA000222F
:100EA100780B74C8F20874E0F20874C3F2E4782E87
:100EB100F2E4782FF2782EE2240BF8E230E707C251
:100EC100901214888005C290121454D290782EE2A8
:100ED100240BF8C000E2FF25E0D000F21214547890
:100EE1002FE204F2E2C3940840CB782EE204F2E24E
:050EF100C3940340BCA6
:010EF60022D9
:1015C2001214D61214D61214D61214D61214D6121B
:0515D20014D60214D63E
:10141F001214D61214D61214D61214D61214D612BF
:0B142F0014D61214D61214D60214D6E4
:100FD600302A137830E204F2E2C3940A401AE4F2AB
:100FE600120000C22A227830E204F2E2C3940A40D8
:090FF60007E4F2120000D22A22E5
:0306D6008135006B
:100AB800E47831F27831E2FFC39405505EEF75F0C7
:100AC80008A4242DF8E6604C7831E2FF75F008A4FC
:100AD800242CF8E6D39400403BEF75F008A42426B4
:100AE800F8E6FE08E6AA06F91205527831E2FF7523
:100AF800F008A4242CF816EF75F008A4242AF8E6C8
:100B0800FE08E64E700E7831E275F008A42426F847
:100B1800E4F608F67831E204F280991207FF02172A
:010B2800BF0D
:07094E007832EEF208EFF22F
:10095500E4FFEF75F008A42426F8E6F58308E645DC
:10096500836009EFC3940550030F80E6EFB40508D3
:1009750078357401F27F05227832E2F58308E2F5D5
:1009850082EF75F008A42426F8A68308A682EF75E1
:10099500F008A42428F8A60408A605AC02AD03EFC8
:1009A50075F008A4242AF8A60408A605A22BE433AA
:1009B500FEEF75F008A4242DF8A606EF75F008A43F
:0509C500242CF8E4F60B
:0109CA00220A
:100F4300EF75F008A42426F8E6FC08E64C7009784F
:100F5300357402F2D22C8002C22CEF75F008A4245F
:100F630026F8E4F608F6EF75F008A42428F8E4F66A
:100F730008F6EF75F008A4242AF8E4F608F6EF75EE
:0A0F8300F008A4242CF8E4F6A22CD8
:010F8D002241
:0107FF0022D7
:0417BF004387012239
:10080000E47834F27834E2FFC39405400201C1EF8A
:1008100075F008A42426F8E6FE08E64E700201BA38
:100820007834E2FF75F008A42428F8E6FC08E64CCA
:100830007077EF75F008A4242DF8E6600D7834E2A7
:1008400075F008A4242CF806803D7834E275F00891
:10085000A42426F8E6FE08E6AA06F9120552783422
:10086000E2FF75F008A4242CF816EF75F008A42414
:100870002AF8E6FE08E64E700E7834E275F008A419
:100880002426F8E4F608F67834E2FF75F008A4248C
:100890002AF8E6FC08E6FD4C6020EF75F008A42479
:1008A00028F8A60408A60580117834E275F008A49B
:1008B0002428F808E616187001167834E204F201CC
:0108C0000433
:0108C1002214
:1011BA0053A2BF75985A758920AB07AA06E4F9F8B5
:1011CA007F807E70FDFC1204B21205448F8B8F8DD6
:1011DA007F01120EF7C299C298D2ACD28ED28CD2AB
:0611EA00A9D2BCD2AF2225
:0817AE008F993099FDC29922C8
:1012AF007839EBF208EAF208E9F2AF051DEF601AA0
:1012BF007839E2FB0808E2F92401F218E2FA340067
:0B12CF00F212040EFF1217AE80E022A6
:1006D900C11A815F00C116C122C11CC119816A00FA
:1006E900816B00C109C126815100825C00008168CB
:1006F90000815900826C0000C101813C00825700D1
:1007090000815E008176008146008266000087498B
:1007190000000000000000C10581500081450081F2
:100729005B00C18081740081750081620081600075
:1007390082700000C10481730082550000823E0F5F
:10074900FF815400C121813D00C10382430000C1E2
:100759001882640000C108816300816900C107C172
:100769001B826E0000C10DC11FC11E81610082473D
:10077900000082520000C10EC10FC110C111C11386
:10078900C120815A00C115C10AC117817200C11D5A
:10079900C10CC106C124C112814000C11481770076
:0C07A900C10BC182C125C12382410000A8
:101344001215231215EB7F807E251211BA1217B6DF
:10135400D28543B10653B2F943B5E053B61FC280F8
:0213640080FE09
:03000B0002025896
:10025800C0E0C0F0C083C082C0D075D000C000C06C
:1002680001C002C003C004C005C006C0077826E26A
:10027800F58C7828E2F58A786608E22401FFF218FE
:10028800E23400FEF2C3EF94D0EE9407404DE4F25E
:1002980008F2784108E22401FFF218E23400FEF285
:1002A800C3EF9464EE94004005202302D223301E4D
:1002B8000F7861E204F2E2D394024004E4F2C294BB
:1002C8001217771213221213001213C51217841271
:1002D800179C12164A1213E31212DA1217A5120B00
:1002E80098120B2912122212114D120D9A3025055F
:1002F800C22512167820280261F3783CE214604087
:1003080014700261932402600261E5308206308233
:100318000320A626201623201720785EE204F2C3C5
:100328009401500261E5E4F2783C04F21214D6120A
:1003380014D61214D61214D661E5785EE4F261E59B
:1003480030820630820320A6167851E204F2C39464
:10035800014010E4F2783C7402F21215FE80047831
:1003680051E4F2785708E22401FFF218E23400FE63
:10037800F2C3EF94A0EE940F4063783CE4F2785116
:10038800F2785EF27857F208F280523082063082B4
:100398000320A6177859E204F2C394034011E4F24B
:1003A800D21CD219D2077877F280047859E4F2780F
:1003B8005C08E22401FFF218E23400FEF2C3EF9475
:1003C800A0EE940F4017783CE4F2785EF27851F290
:1003D8007857F208F2785CF208F27859F2C3785547
:1003E800E294015004D2218002C221D007D006D065
:1003F80005D004D003D002D001D000D0D0D082D014
:0604080083D0F0D0E032C9
:030023000205854E
:10058500C0E0C0F0C083C082C0D075D000C000C03C
:1005950001C002C003C004C005C006C00720980200
:1005A500C187C2987850E2FF2449F8E599F23020D6
:1005B50002C179EF701290300093FF7849E2B507D8
:1005C5000778507401F2C1877850E2B40113903076
:1005D50001E493FF784AE2B5070778507402F2C147
:1005E500877850E2FFB40213903002E493FE784B13
:1005F500E2B5060778507403F2C187EFB403139090
:100605003003E493FF784CE2B5070778507404F2A1
:1006150080707850E2B40413903004E493FF784D71
:10062500E2B5070778507405F280577850E2640503
:10063500703C90300593FF784EE26F70317850F240
:10064500D21A7863F2D20D1217C6785FE2FF04F270
:10065500EFC394014002D20A785FE204F2C3940B1F
:100665004020B21FD21AD224C20AE4F28014785074
:10067500E4F2800E7850E204F2C394064004E4F2FA
:10068500D215D007D006D005D004D003D002D001B2
:0D069500D000D0D0D082D083D0F0D0E032A1
:030000000208C231
:0C08C200787FE4F6D8FD75814D0209092D
:10040E00BB010689828A83E0225002E722BBFE02EC
:09041E00E32289828A83E493221F
:10042700E88FF0A4CC8BF0A42CFCE98EF0A42CFC74
:100437008AF0EDA42CFCEA8EF0A4CDA8F08BF0A4F2
:100447002DCC3825F0FDE98FF0A42CCD35F0FCEB51
:100457008EF0A4FEA9F0EB8FF0A4CFC5F02ECD3916
:0F046700FEE43CFCEAA42DCE35F0FDE43CFC2283
:1004760075F008758200EF2FFFEE33FECD33CDCC3D
:1004860033CCC58233C5829BED9AEC99E5829840C0
:100496000CF582EE9BFEED9AFDEC99FC0FD5F0D69D
:1004A600E4CEFBE4CDFAE4CCF9A88222B800C1B9C7
:1004B6000059BA002DEC8BF084CFCECDFCE5F0CB05
:1004C600F97818EF2FFFEE33FEED33FDEC33FCEB3E
:1004D60033FB10D703994004EB99FB0FD8E5E4F9F9
:1004E600FA227818EF2FFFEE33FEED33FDEC33FCE6
:1004F600C933C910D7059BE99A4007EC9BFCE99ADA
:10050600F90FD8E0E4C9FAE4CCFB2275F010EF2F1E
:10051600FFEE33FEED33FDCC33CCC833C810D7071E
:100526009BEC9AE899400AED9BFDEC9AFCE899F859
:0E0536000FD5F0DAE4CDFBE4CCFAE4C8F922EC
:0E054400C3E49FFFE49EFEE49DFDE49CFC22C8
:060552008A838982E47334
:10055800EC8EF0A4CCC5F0CCCDF8EFA4CEC5F02D30
:10056800FDE43CFCE8A42EC8C5F03DFDE43CFCEFEE
:0D057800A4FFE5F028FEE43DFDE43CFC227C
:1008CE00021344E493A3F8E493A34003F68001F2E9
:1008DE0008DFF48029E493A3F85407240CC8C3332B
:1008EE00C4540F4420C8834004F456800146F6DFFA
:1008FE00E4800B01020408102040809006A2E47EE2
:10090E00019360BCA3FF543F30E509541FFEE493EE
:10091E00A360010ECF54C025E060A840B8E493A3B5
:10092E00FAE493A3F8E493A3C8C582C8CAC583CAE0
:10093E00F0A3C8C582C8CAC583CADFE9DEE780BE98
:0107B5000043
:00000001FF
