:1009CB00E4FAEF6405703343F620C2F8C2F9D2FAA9
:1009DB0043E180C2FCD2FBADF8EDC413135403FD0D
:1009EB00AFE2AB07EB7E007802C333CE33CED8F940
:1009FB007C002DFBEC3EAF03FE22EF64067035430B
:100A0B00F640D2F8C2F9D2FA43E180C2FCD2FBAD78
:100A1B00F8EDC413135403FDAFE27A00AB07EB7E82
:100A2B00007802C333CE33CED8F97C002DFBEC3EDD
:070A3B00FEAF0322E4FEFF01
:010A42002291
:0606BB0081000081010036
:0D1B1F007F061209CB7873EEF208EFF22278
:10152A00785CE2FE08E2FF7873E2FC08E2FDC39F02
:10153A00EC9E4009D3ED9411EC94024007785CECE0
:0E154A00F208EDF2785CE2FE08E2FF02028891
:100288007896EEF208EFF2D2947F081213FD7F46BB
:100298001218E3C37897E294DD18E2940150047FC2
:1002A8000D81097896E2FE08E2FFC394DDEE940121
:1002B800400CEF94E5EE940150047F108109789684
:1002C800E2FE08E2FFC394E5EE9401400CEF94EAE5
:1002D800EE940150047F1581097896E2FE08E2FF4A
:1002E800C394EAEE94014020EF94F6EE940150187E
:1002F8007F0D1213FD7F1E1218E37F151213FD7F69
:100308001E1218E37F1081097896E2FE08E2FFC307
:1003180094F6EE94014020EF94FAEE940150187F81
:100328000E1213FD7F1E1218E37F151213FD7F1E98
:100338001218E37F0E81097896E2FE08E2FFC39463
:10034800FAEE94014016EF9402EE9402500E7F0FDD
:100358001213FD7F1E1218E37F1581097896E2FEBD
:1003680008E2FFC39402EE94024020EF9406EE9454
:100378000250187F0F1213FD7F1E1218E37F15120B
:1003880013FD7F1E1218E37F1280767896E2FE082E
:10039800E2FFC39406EE94024020EF940CEE940220
:1003A80050187F101213FD7F1E1218E37F151213C9
:1003B800FD7F1E1218E37F1080477896E2FE08E260
:1003C800FFC3940CEE94024020EF9411EE94025077
:1003D800187F111213FD7F1E1218E37F151213FDEB
:1003E8007F1E1218E37F0E8018C37897E2941118C5
:1003F800E2940240147F121213FD7F1E1218E37F4D
:10040800151213FD7F1E1218E37F0B1213FD7F3C9C
:0F0418001218E3C294D2A012181AC2A002181A26
:0906C10087210000000000000088
:071B7A00C290D2A7C2932222
:100AB800782174C8F20874C1F2903000E49308F207
:100AC800903001E49308F2903002E49308F29030F9
:0C0AD80003E49308F2903004E49308F269
:100AE400780474AAF2E418F2E47802F27804E2C218
:100AF400907D147C007F2E1212D5D2907804E225CA
:100B0400E0F27D187C007F281212D57802E204F20C
:100B1400E2C3940840D6780474AAF218E204F2E21C
:070B2400C3940140C3D2900D
:010B2B0022A7
:10113800780774AAF2E418F2E47805F27807E2C2B4
:10114800907D147C007F2E1212D5D2907807E2256C
:10115800E0F27D187C007F281212D57805E204F2AF
:10116800E2C3940440D6780774AAF218E204F2E2C3
:07117800C3940140C3D290B3
:01117F00224D
:040E9B007808EFF2F2
:100E9F00E408F2E4780AF27809E22421F8E230E774
:100EAF000CC2907808E2FD7C007F24800AC2907803
:100EBF0008E2FD7C007F171212D5D2907809E22448
:100ECF0021F8C000E225E0D000F27808E2FD7C00B6
:100EDF007F141212D5780AE204F2E2C3940840B7E5
:0B0EEF007809E204F2E2C3940340A87B
:010EFA0022D5
:10146700780BEFF208ECF208EDF2D2937F14121822
:10147700E3C2A7782174C8F20874E0F2780BE27827
:1014870023F2120AE4780C08E2FF120E9BD2A7D2CD
:0214970093229E
:10143300780EEFF208ECF208EDF2D2937F14121853
:10144300E3C2A7782174C8F20874E0F2780EE27858
:1014530023F2120AE4780F08E2FF120E9BC2A7C21E
:0414630093C290227E
:040EFB007811EFF289
:100EFF00E408F2120FFB903000E4937821F2903067
:100F0F0001E49308F2903002E49308F2903003E486
:100F1F009308F2903004E49308F27811E27826F205
:100F2F00120AE4E47812F27BFE7A0079217D061230
:100F3F0015861217DA7812E204F2E2C394A040E7A2
:060F4F00121B8902184E7E
:041180007813EFF2FF
:10118400E408F21217F4903000E4937821F29030DE
:1011940001E49308F2903002E49308F2903003E4FF
:1011A4009308F2903004E49308F27813E27826F27C
:1011B4001211387BFE7A0079217D06121586C293BE
:0311C400021B4FBC
:040FAE007815EFF2D1
:100FB200E408F21217F4903000E4937821F29030B2
:100FC20001E49308F2903002E49308F2903003E4D3
:100FD2009308F2903004E49308F27815E27826F24E
:100FE2001217A61217A61217A67BFE7A0079217D88
:090FF20006121586C293021B4F82
:10131400E47817F2903000937821F2903001E4934E
:1013240008F2903002E49308F2903003E49308F258
:10133400903004E49308F208EFF21217A61217A6ED
:0E1344001217A67BFE7A0079217D060215861F
:050FFB00D293C2A72201
:0C17F4007F807E251213C7D293C2A7226B
:031B8900C29322E2
:091B4F00C2937FB07E040213C7AB
:1018CC00120FFB120AB87BFE7A0079217D081215E3
:0718DC008612181A021B8995
:1016D100D293C2A77F807E251213C7120AB87BFE60
:0F16E1007A0079217D0812158612181AC29322F9
:100D650020910F7893E204F2C394784002E4F2C232
:100D75000022200041D2007893E2FFD39423401053
:100D8500EFD39450500A7863E225E0F254FE8010C8
:100D95007893E2D3945040147863E225E0F244015D
:100DA500F27879E204F2E47892F280057892E2042E
:100DB500F2E47893F2227892E204F2C3943C40097B
:0A0DC500E47879F2D200786EF22291
:100DCF0030B00F7893E204F2C394784002E4F2C299
:100DDF000022200041D2007893E2FFD394234010E9
:100DEF00EFD39450500A7863E225E0F254FE80105E
:100DFF007893E2D3945040147863E225E0F24401F3
:100E0F00F27879E204F2E47892F280057892E204C3
:100E1F00F2E47893F2227892E204F2C3943C400910
:0A0E2F00E47879F2D200786EF22226
:101294007879E264087039F27863E2FF786EE2FEEE
:1012A4002467F8EFF2EE700C7867E2B4C806786E43
:1012B4007401F222EEB4010C7868E2B4E006786EB0
:1012C4007402F222EEB40204D2058000E4786EF2D5
:0112D40022F7
:070B2C007818ECF208EDF26D
:100B3300782174C8F20874E0F208EFF2E4781AF24C
:100B4300E4781BF2781AE22421F8E230E70DC2A31D
:100B53007818E2FC08E2FD7F24800BC2A37818E238
:100B6300FC08E2FD7F171212D5D2A3781AE22421E2
:100B7300F8C000E225E0D000F27818E2FC08E2FDBC
:100B83007F0F1212D5781BE204F2E2C3940840B43B
:0B0B9300781AE204F2E2C3940340A5CC
:010B9E002234
:070B9F00781CECF208EDF2F6
:100BA600782174C8F20874E0F208EFF2E4781EF2D5
:100BB600E4781FF2781EE22421F8E230E70DC281C4
:100BC600781CE2FC08E2FD7F24800BC281781CE2DF
:100BD600FC08E2FD7F171212D5D281781EE224218D
:100BE600F8C000E225E0D000F2781CE2FC08E2FD45
:100BF6007F0F1212D5781FE204F2E2C3940840B4C4
:0B0C0600781EE204F2E2C3940340A554
:010C110022C0
:1010A200E47820F2903000937821F2903001E493BA
:1010B20008F2903002E49308F2903003E49308F2CD
:1010C200903004E49308F208EFF2120AE4E4782084
:1010D200F27BFE7A0079217D061215861217DA78E4
:0A10E20020E204F2E2C3940A40E7A2
:0110EC0022E1
:0406CA00822E00007C
:1017A600782E74FFF2087493F2782E08E22401FF73
:0A17B600F218E23400F24F70F02246
:1017C000782E74FDF20874E3F2782E08E22401FF0B
:0A17D000F218E23400F24F70F0222C
:1017DA00782E74FBF20874C7F2782E08E22401FF0F
:0A17EA00F218E23400F24F70F02212
:10180000782E74FAF20874EFF2782E08E22401FFC1
:0A181000F218E23400F24F70F022EB
:10181A00782E74EAF20874E7F2782E08E22401FFBF
:0A182A00F218E23400F24F70F022D1
:10183400782E74D5F20874CFF2782E08E22401FFD2
:0A184400F218E23400F24F70F022B7
:10184E00782E742DF208740FF2782E08E22401FF20
:0A185E00F218E23400F24F70F0229D
:1018E300AE071FEE60107C137D88ED1DAA04700106
:0618F3001C4A60EC80F4C9
:0118F90022CC
:0712D5007828ECF208EDF2AD
:1012DC00E408F208F2EFFDC3782BE29D18E29400CB
:1012EC005025E4FEEEFDD37829E29D7480F5F018CC
:1012FC00E2648095F040030E80EA782BE22401F240
:07130C0018E23400F280CE6C
:0113130022B7
:1016B100E4FDFCC3ED9FEC9E5015E4FBFA0BBB006F
:0F16C100010AEB64644A70F50DBD00010C80E472
:0116D00022F7
:10188200E4FDFCC3ED9FEC9E500EE4FB0BEBB404B5
:08189200FB0DBD00010C80EB11
:01189A00222B
:07135200782CEEF208EFF227
:10135900E4F9E4FAFBD3782DE29B18E29A40070BF3
:10136900BB00010A80EF09E9B432E7E4F9209216DB
:10137900E4FAFBC3EB9DEA9C50070BBB00010A8012
:06138900F209E9B432E7AD
:01138F00223B
:1006CE00C129C1288238000082360000813300C162
:0C06DE00278230000082340000813200CE
:10172E00200A06121A3112152AD229E47887F27F7E
:0E173E00141218E3E4787DF2300A02C20A2287
:1014FB00D212C214E47881F2C21A787DF212184E1D
:10150B0012184E12184E12184EC285D296200A0E81
:0F151B0012199EC28520020312152A121B952257
:0B1B4400C228C222C229D284D2832210
:0C1B2C00301C08D216121A2212198B224B
:10164C00301A1E7881E204F2C3940F4014C21AE4DB
:10165C00F2787DF27891E27006200603121B38C2F4
:02166C00062254
:10174C0030291A30A5033023147887E204F2C394AD
:0E175C0003400AE4F2C229200603121B3822C1
:101601003020227878E204F2D3940A4018C220E410
:10161100F27865F208F27870F208F2C20EC20FC2D7
:0616210010C211C21322E9
:1018FA003009127864E2C39405500A7FC5120EFBC0
:06190A007864E204F22201
:101910003026127894E2C39405500A7FC4120EFB5D
:061920007894E204F222BB
:10192600302112785BE2C39414500A7FC2120EFB78
:06193600785BE204F222DE
:091B5800300D05C20D1211C72267
:1019D600300B0CC20BE47888F2C21CC216C2072276
:10176A00301C1A7895E204F2D394054010E4788884
:0E177A00F2C21CC216C2077895F2121B892219
:1016900020271D201B1A200217785EE204F2D39443
:1016A00006400D7407F2C212C21A200603121B383C
:0116B0002217
:100C120020A503301F50C2A43081257837E2240179
:100C2200F218E23400F2C308E2947018E29417401A
:100C3200247417F2087471F2E47833F2C22080153A
:100C4200D37837E2943218E294004009E4F208F2D1
:100C52007833E204F27833E2D394064016E4F2D217
:100C62002012000E800D20A50A7891E27005201F47
:100C720002D2A430150CC215D217C22012120E12C3
:030C8200000E223F
:1013900020A503301F307891E2702B301A282006E8
:1013A000251211C778917401F2C214E47881F2C257
:1013B0001A787DF2D2121216F01214FBC202C22366
:0713C000E4785FF208F2225D
:100F550020A503301F063012033023437891E26445
:100F650001703C201842201B3F7839E22401F21819
:100F7500E23400F2C308E294DC18E294054029301B
:100F8500A5063012033023201219C4E47891F21219
:100F9500172EC20DC214E4785FF208F2C21F223088
:090FA500A506E47838F208F222F6
:100CF60030800630800320A6217832E204F2C394C5
:100D060002401BE4F2D2187882F208F2D227783039
:100D1600F208F2785FF208F28004E47832F23018D2
:100D26001D788208E22401FFF218E23400FEF2C3C5
:100D3600EF94A0EE940F4006C218E4F208F23027B2
:100D46001D783008E22401FFF218E23400FEF2C3F7
:0F0D5600EF9410EE94274006C227E4F208F22231
:1007CF0030820DD21BE4788CF208F2785FF208F2D7
:1007DF00301B1D788C08E22401FFF218E23400FE72
:1007EF00F2C3EF94D0EE94074006C21BE4F208F276
:0107FF0022D7
:10149900783AEEF208EFF208ECF208EDF2EBFD7C97
:1014A900007FC1120B2CD2A2C2A3783AE2FE08E255
:1014B900FF08E2FC08E2FD121352D2A2D2A3C285B0
:0114C9002200
:1014CA00783EEEF208EFF208ECF208EDF2EBFD7C62
:1014DA00007FC1120B9FD2A2C2A3783EE2FE08E2AD
:1014EA00FF08E2FC08E2FD121352C2A2C2A3C2859F
:0114FA0022CF
:0E1B0300D285C2A2D2A3121352D2A2D2A32222
:0E1B1100D285C2A2D2A3121352C2A2C2A32234
:1011C700C222C228C209C226E4785AF2787CF27891
:1011D7006FF27875F208F2787AF208F2788AF208F4
:1011E700F27877F27886F2C216C207C21C7888F2C4
:1011F700C2197889F2C2017872F2C208C2297887C7
:07120700F2C221785BF22224
:0C1B3800D222D228E4785AF2787CF22203
:08000300C2A412184ED2A4227F
:1018B40075DCC07842E4F208741DF218E2FC08E218
:0818C400FDECF5D1EDF5D92290
:100E3900EF14601F14603114604324037053784227
:100E4900E4F208740DF218E2FC08E2FDECF5D2EDCB
:100E5900F5DA2278427401F208E4F218E2FC08E2B9
:100E6900FDECF5D3EDF5DB227842E4F2087480F26B
:100E790018E2FC08E2FDECF5D5EDF5DD227842E457
:100E8900F2087440F218E2FC08E2FDECF5D6EDF543
:020E9900DE2257
:081B6A00E4FF120E390218B469
:070A43007844ECF208EDF22B
:100A4A007E007C2B7D33120571E47B0CFAF9F812D7
:100A5A0004CBC3E49FFFE49E7846F27848EFF2782D
:100A6A0044E2FE08E2FFEE3395E0FDFCE47B0BFA7C
:100A7A00F9F8120440E47B0CFAF9F81204CBC3E447
:100A8A009FFFE49EAD07FF7847F2AE057849EEF284
:100A9A007589117846E2F58C7848E2F58A8F8D8E51
:0D0AAA008BD2A9D28CD2ABD28ED2BBD2AFF0
:010AB700221C
:04105600789CEFF2A1
:10105A00E408F2789DE2FFC39402500A1210ED7878
:10106A009DE204F280ED789CE2FF7E007C2B7D33CA
:10107A00120571E47B0CFAF9F81204CBC3E49FFF62
:10108A00E49EAD07FC7846F27848EFF25389F043C4
:07109A0089011219E6D2A939
:0110A100222C
:031B8C00D2AF22B3
:041B81004387012273
:0F19E600C28C7848E2F58A7846E2F58CD28C22E2
:1013C70053A2BF75985A758920AB07AA06E4F9F8A6
:1013D7007F807E70FDFC1204CB12055D8F8B8F8D95
:1013E7007F01121056C299C298D2ACD28ED28CD23B
:0613F700A9D2BCD2AF2216
:081B72008F993099FDC2992200
:10158600784AEBF208EAF208E9F2AF051DEF601AB5
:10159600784AE2FB0808E2F92401F218E2FA34007C
:0B15A600F2120427FF121B7280E022EB
:0306EA00814D013E
:0413FD00789CEFF2F7
:10140100D2A012181AC2A012181AE4789DF2789C80
:10141100E2FF08E2C39F5019D2A17F147E00121887
:1014210082C2A17F147E00121882789DE204F280AC
:01143100DDDD
:011432002297
:10189B00C294C2A1D2A07F5E7E01121882C2A07F29
:0918AB005E7E01121882C2942233
:011B9500222D
:0F19F500D2947F041213FD7F501218E3C2942284
:0F1A0400D2947F181213FD7F011218E3C29422AF
:10196500D2947F1A1213FD7F1E1218E3D21EE4785B
:031975007FF222DC
:10000E00D294E4787FF27F1B1213FD7F1E1218E349
:05001E00C294C217228C
:10197800D2947F021213FD7F5A1218E3C2947F1E7D
:031988000218E35F
:0F1A1300D2947F161213FD7F8C1218E3C2942217
:0F1A2200D2947F071213FD7F3C1218E3C2942267
:10198B00D2947F031213FD7FB41218E3C2947F1419
:03199B000218E34C
:10199E00D294E4787FF27F091213FD7F3C1218E394
:0319AE00C29422BE
:0F1A3100D2947F0A1213FD7F3C1218E3C2942255
:0F1A4000D2947F0F1213FD7F641218E3C2942219
:0F1A4F00D2947F1C1213FD7F781218E3C29422E9
:0F1A5E00D2947F151213FD7F961218E3C29422C3
:0F1A6D00D2947F061213FD7F501218E3C2942209
:0F1A7C00D2947F051213FD7F321218E3C2942219
:0F1A8B00D2947F041213FD7FB41218E3C2942289
:0F1A9A00D2947F031213FD7F8C1218E3C29422A3
:0F1AA900D2947F021213FD7F781218E3C29422A9
:0F1AB800D2947F0B1213FD7F501218E3C29422B9
:0F1AC700D2947F071213FD7F321218E3C29422CC
:0F1AD600D2947F081213FD7F501218E3C294229E
:0F1AE500D2947F0C1213FD7F501218E3C294228B
:0F1AF400D2947F0D1213FD7F501218E3C294227B
:031B8F00021965D3
:10166E007890E204F2D3940340177405F2301D1102
:10167E00201C0E20090B20260820210512152AC237
:02168E001D221B
:091B6100302405C22412000E22FA
:1019B10075AF30C2AF75C7AA75C755439F01D2AF86
:0319C10002187495
:1019510075AF30121874C2AF75C7AA75C755539FBA
:04196100FED2AF22E1
:0C186800E2FC08E2FDECF5A7AF058FA63E
:0E187400C2AF75C7AA75C75543A401D2AF22F3
:10193C007896EEF208EFF21219B175AF2278961282
:05194C001868021951AA
:061558007869E2FD7E301F
:10155E007896EEF208EFF208EDF21219B175AF219E
:10156E007896E2FC08E2FDECF5A7AF058FA608E23F
:08157E00F5AE121874021951B8
:07178800784EEEF208EFF2CB
:10178F001219B1E4F5AF784E12186808E5AEF212EF
:06179F0019517850E2FF31
:0117A5002221
:10120E007F007E3012193C7867E2FD7F007E30123F
:10121E00155E7868E2FD7F017E3012155E7F021248
:10122E001558786AE2FD7F037E3012155E786BE208
:10123E00FD7F047E3012155E786CE2FD7F057E30F8
:03124E0002155E28
:101251007F007E3012193C7F00121558786AE2FD3A
:101261007F017E3012155E786BE2FD7F027E3012C7
:10127100155E786CE2FD7F037E3012155E786DE2BB
:10128100FD7F047E3012155E786EE2FD7F057E30B3
:0312910002155EE5
:0206ED00C12A20
:031B92000219C471
:1016F00053B1FB53B2FBC282121000D2A2C2A3129A
:0F170000170FD2A2D2A3D28243B10453B2FB225D
:1019C400D285D2A4C296C2A2D2A3121627D2A2D280
:0219D400A3224C
:10100000782174C8F20874E0F20874C1F2E47896AA
:10101000F2E47897F27896E22421F8E230E707C20A
:10102000A31218008005C2A31217C0D2A37896E2BB
:101030002421F8C000E2FF25E0D000F21217C078AA
:1010400097E204F2E2C3940840CB7896E204F2E21D
:05105000C3940340BC45
:011055002278
:10170F0012184E12184E12184E12184E12184E1260
:0F171F00184E12184E20920612184E12184E2213
:1016270012184E12184E12184E12184E12184E1249
:10163700184E12184E12184E12184E2092061218F3
:051647004E12184E22B6
:1015B100302A137851E204F2E2C3940A401AE4F2A9
:1015C1001216F0C22A227851E204F2E2C3940A40D0
:0915D10007E4F21219C4D22A2227
:0306EF0081560031
:100C8500E47852F27852E2FFC39405505EEF75F0B6
:100C950008A4242DF8E6604C7852E2FF75F008A40C
:100CA500242CF8E6D39400403BEF75F008A42426E5
:100CB500F8E6FE08E6AA06F912056B7852E2FF751A
:100CC500F008A4242CF816EF75F008A4242AF8E6F9
:100CD500FE08E64E700E7852E275F008A42426F858
:100CE500E4F608F67852E204F28099121B96021B8C
:010CF5008579
:07094E007853EEF208EFF20E
:10095500E4FFEF75F008A42426F8E6F58308E645DC
:10096500836009EFC3940550030F80E6EFB40508D3
:1009750078567401F27F05227853E2F58308E2F593
:1009850082EF75F008A42426F8A68308A682EF75E1
:10099500F008A42428F8A60408A605AC02AD03EFC8
:1009A50075F008A4242AF8A60408A605A22BE433AA
:1009B500FEEF75F008A4242DF8A606EF75F008A43F
:0509C500242CF8E4F60B
:0109CA00220A
:1010ED00EF75F008A42426F8E6FC08E64C700978A4
:1010FD00567402F2D22C8002C22CEF75F008A42493
:10110D0026F8E4F608F6EF75F008A42428F8E4F6BE
:10111D0008F6EF75F008A4242AF8E4F608F6EF7542
:0A112D00F008A4242CF8E4F6A22C2C
:011137002295
:011B9600222C
:041B8500438701226F
:10080000E47855F27855E2FFC39405400201C1EF48
:1008100075F008A42426F8E6FE08E64E700201BA38
:100820007855E2FF75F008A42428F8E6FC08E64CA9
:100830007077EF75F008A4242DF8E6600D7855E286
:1008400075F008A4242CF806803D7855E275F00870
:10085000A42426F8E6FE08E6AA06F912056B7855E8
:10086000E2FF75F008A4242CF816EF75F008A42414
:100870002AF8E6FE08E64E700E7855E275F008A4F8
:100880002426F8E4F608F67855E2FF75F008A4246B
:100890002AF8E6FC08E6FD4C6020EF75F008A42479
:1008A00028F8A60408A60580117855E275F008A47A
:1008B0002428F808E616187001167855E204F201AB
:0108C0000433
:0108C1002214
:1006F200C11A817D00C116C122C11CC119818800A5
:10070200818900C109C126816F00827A0000818639
:1007120000817700828A0000C101815A008275003F
:1007220000817C00819400816400828400008767DC
:1007320000000000000000C105816E00816300819D
:100742007900C180819200819300818000817E00C6
:10075200828E0000C10481910082730000825C0FCE
:10076200FF817200C121815B00C10382610000C16F
:100772001882820000C108818100818700C107C1FF
:100782001B828C0000C10DC11FC11E817F008265CA
:10079200000082700000C10EC10FC110C111C1134F
:1007A200C120817800C115C10AC117819000C11D05
:1007B200C10CC106C124C112815E00C11481950021
:0C07C200C10BC182C125C123825F000071
:1015DA0012189B1219657F807E251213C7121B44AD
:1015EA00121B7AD28543B10653B2F943B52053B6DA
:0715FA00DFD2A4C29680FEBF
:03000B00020026CA
:10002600C0E0C0F0C083C082C0D075D000C000C0A0
:1000360001C002C003C004C005C006C0077846E27E
:10004600F58C7848E2F58A788408E22401FFF218F4
:10005600E23400FEF2C3EF94D0EE9407406CE4F273
:1000660008F2785F08E22401FFF218E23400FEF29B
:10007600C3EF9464EE94004005202302D223302877
:100086001C20810CD21CD2197895E4F2D208800D7E
:1000960030810A300807D20BC208121965301E0FCC
:1000A600787FE204F2E2D394024004E4F2C29412AE
:1000B6001B1F12166E12164C12174C121B2C121BFB
:1000C600581219D612176A121601121B61120C1257
:1000D600120CF61207CF121390120F55302505C2D7
:1000E60025121A0420280221E3785AE214604314E8
:1000F600700221832402600221D5308006308003FD
:1001060020A62920162620172330A720787CE20473
:10011600F2C39401500221D5E4F2785A04F212187F
:100126004E12184E12184E12184E21D5787CE4F253
:1001360021D530800630800320A616786FE204F2BF
:10014600C394014010E4F2785A7402F212197880CE
:1001560004786FE4F2787508E22401FFF218E234BD
:1001660000FEF2C3EF94A0EE940F4063785AE4F2D7
:10017600786FF2787CF27875F208F2805230800659
:1001860030800320A6177877E204F2C39403401167
:10019600E4F2D21CD219D2077895F280047877E47B
:1001A600F2787A08E22401FFF218E23400FEF2C384
:1001B600EF94A0EE940F4017785AE4F2787CF27828
:1001C6006FF27875F208F2787AF208F27877F2C36D
:1001D6007873E294015004D2218002C22130224277
:1001E600208413787EE204F2B40A16D226C20920CD
:1001F600040FD201800BC2267894E4F2787EF2C214
:10020600012083137880E204F2B40A16D209C226CA
:1002160020040FD201800BC2097864E4F27880F2E0
:10022600C201300142788E08E22401FFF218E2345E
:1002360000FEF2C3EF94A0EE940F402BC201E4F24D
:1002460008F2D204785AF2787CF2786FF27875F276
:1002560008F2787AF208F2788A7403F2087420F2C7
:100266007877E4F27886F2D007D006D005D004D0AD
:1002760003D002D001D000D0D0D082D083D0F0D02D
:02028600E03264
:0300230002059E35
:10059E00C0E0C0F0C083C082C0D075D000C000C023
:1005AE0001C002C003C004C005C006C007209802E7
:1005BE00C1A0C298786EE2FF2467F8E599F2302068
:1005CE0002C192EF701290300093FF7867E2B50788
:1005DE0007786E7401F2C1A0786EE2B40113903008
:1005EE0001E493FF7868E2B50707786E7402F2C1F2
:1005FE00A0786EE2FFB40213903002E493FE7869A5
:10060E00E2B50607786E7403F2C1A0EFB40313903F
:10061E003003E493FF786AE2B50707786E7404F24C
:10062E008070786EE2B40413903004E493FF786B1C
:10063E00E2B50707786E7405F28057786EE26405AE
:10064E00703C90300593FF786CE26F7031786EF2EB
:10065E00D21A7881F2D20D121B8F787DE2FF04F24E
:10066E00EFC394014002D20A787DE204F2C3940BE8
:10067E004020B21FD21AD224C20AE4F28014786E3D
:10068E00E4F2800E786EE204F2C394064004E4F2C3
:10069E00D215D007D006D005D004D003D002D00199
:0D06AE00D000D0D0D082D083D0F0D0E03288
:030000000208C231
:0C08C200787FE4F6D8FD75814D0209092D
:10042700BB010689828A83E0225002E722BBFE02D3
:09043700E32289828A83E4932206
:10044000E88FF0A4CC8BF0A42CFCE98EF0A42CFC5B
:100450008AF0EDA42CFCEA8EF0A4CDA8F08BF0A4D9
:100460002DCC3825F0FDE98FF0A42CCD35F0FCEB38
:100470008EF0A4FEA9F0EB8FF0A4CFC5F02ECD39FD
:0F048000FEE43CFCEAA42DCE35F0FDE43CFC226A
:10048F0075F008758200EF2FFFEE33FECD33CDCC24
:10049F0033CCC58233C5829BED9AEC99E5829840A7
:1004AF000CF582EE9BFEED9AFDEC99FC0FD5F0D684
:1004BF00E4CEFBE4CDFAE4CCF9A88222B800C1B9AE
:1004CF000059BA002DEC8BF084CFCECDFCE5F0CBEC
:1004DF00F97818EF2FFFEE33FEED33FDEC33FCEB25
:1004EF0033FB10D703994004EB99FB0FD8E5E4F9E0
:1004FF00FA227818EF2FFFEE33FEED33FDEC33FCCD
:10050F00C933C910D7059BE99A4007EC9BFCE99AC0
:10051F00F90FD8E0E4C9FAE4CCFB2275F010EF2F05
:10052F00FFEE33FEED33FDCC33CCC833C810D70705
:10053F009BEC9AE899400AED9BFDEC9AFCE899F840
:0E054F000FD5F0DAE4CDFBE4CCFAE4C8F922D3
:0E055D00C3E49FFFE49EFEE49DFDE49CFC22AF
:06056B008A838982E4731B
:10057100EC8EF0A4CCC5F0CCCDF8EFA4CEC5F02D17
:10058100FDE43CFCE8A42EC8C5F03DFDE43CFCEFD5
:0D059100A4FFE5F028FEE43DFDE43CFC2263
:1008CE000215DAE493A3F8E493A34003F68001F251
:1008DE0008DFF48029E493A3F85407240CC8C3332B
:1008EE00C4540F4420C8834004F456800146F6DFFA
:1008FE00E4800B01020408102040809006BBE47EC9
:10090E00019360BCA3FF543F30E509541FFEE493EE
:10091E00A360010ECF54C025E060A840B8E493A3B5
:10092E00FAE493A3F8E493A3C8C582C8CAC583CAE0
:10093E00F0A3C8C582C8CAC583CADFE9DEE780BE98
:0107CE00002A
:00000001FF
