:10097700E4FAEF6405703343F620C2F8C2F9D2FAFD
:1009870043E180C2FCD2FBADF8EDC413135403FD61
:10099700AFE2AB07EB7E007802C333CE33CED8F994
:1009A7007C002DFBEC3EAF03FE22EF64067035435F
:1009B700F640D2F8C2F9D2FA43E180C2FCD2FBADCD
:1009C700F8EDC413135403FDAFE27A00AB07EB7ED7
:1009D700007802C333CE33CED8F97C002DFBEC3E32
:0709E700FEAF0322E4FEFF56
:0109EE0022E6
:03053B008100003C
:0D18B5007F061209777862EEF208EFF2224A
:100625007884EEF208EFF2C39434EE9403400CD2D2
:10063500947F1212117C7F3C0206EE7884E2FE085C
:10064500E2FFC39434EE94035015C3EF9422EE9465
:1006550003400CD2947F0912117C7F640206EE7868
:1006650084E2FE08E2FFC39422EE94035014C3EF24
:100675009409EE9403400BD2947F0812117C7F6499
:1006850080677884E2FE08E2FFC39409EE94035084
:1006950014C3EF9401EE9403400BD2947F0712111B
:1006A5007C7F6480447884E2FE08E2FFC39401EE17
:1006B50094035014C3EF94F4EE9402400BD2947F4C
:1006C5000612117C7F6480217884E2FE08E2FFC374
:1006D50094F4EE94025018C3EF94ECEE9402400F9C
:1006E500D2947F0512117C7F6412165FC29422C3D7
:0F06F5007885E294EC18E29402500312176E22FB
:09053E00871C0000000000000011
:0918E500C290D2A7C293C2A62250
:100EE800780374AAF2E418F2E47801F27803E2C213
:100EF800907D147C007F2E1210C9D2907803E225D1
:100F0800E0F27D187C007F281210C97801E204F213
:100F1800E2C3940840D6780374AAF218E204F2E215
:070F2800C3940340C3D29003
:010F2F00229F
:100F3000780674AAF2E418F2E47804F27806E2C2C1
:100F4000907D147C007F2E1210C9D2907806E22585
:100F5000E0F27D187C007F281210C97804E204F2C8
:100F6000E2C3940640D6780674AAF218E204F2E2CC
:070F7000C3940240C3D290BC
:010F77002257
:040CF1007807EFF29F
:100CF500E408F2E47809F27808E2241CF8E230E727
:100D05000CC2907807E2FD7C007F24800AC29078AF
:100D150007E2FD7C007F171210C9D2907808E22403
:100D25001CF8C000E225E0D000F27807E2FD7C0067
:100D35007F141210C97809E204F2E2C3940840B79F
:0B0D45007808E204F2E2C3940340A827
:010D50002280
:1011E600780AEFF208ECF208EDF2D2937F141216A9
:1011F6005FC2A7781C74C8F20874E0F2780AE27835
:101206001EF2120EE8780B08E2FF120CF1D2A7D2FA
:02121600932221
:1011B200780DEFF208ECF208EDF2D2937F141216DA
:1011C2005FC2A7781C74C8F20874E0F2780DE27866
:1011D2001EF2120EE8780E08E2FF120CF1C2A7C24C
:0411E20093C2902202
:040D51007810EFF235
:100D5500E408F2121910903000E493781CF29030F8
:100D650001E49308F2903002E49308F2903003E432
:100D75009308F2903004E49308F27810E27821F2B7
:100D8500120EE8E47811F27BFE7A00791C7D0612DA
:100D950013901215607811E204F2E2C3941E40E745
:030DA50002191D13
:040FBF007812EFF2C3
:100FC300E408F2121910903000E493781CF2903088
:100FD30001E49308F2903002E49308F2903003E4C2
:100FE3009308F2903004E49308F27812E27821F245
:100FF300120F307BFE7A00791C7D061213900219C2
:011003001DCF
:05191000D293C2A722E2
:03191D00C2932250
:10100400121910781C74C8F20874C1F2903000E40C
:101014009308F2903001E49308F2903002E49308CC
:10102400F2903003E49308F2903004E49308F2124F
:101034000EE87BFE7A00791C7D071213901215943A
:0310440002191D71
:100BBB0020910F7881E204F2C394784002E4F2C2F0
:100BCB000022200041D2007881E2FFD39423401011
:100BDB00EFD39450500A7852E225E0F254FE801085
:100BEB007881E2D3945040147852E225E0F244012C
:100BFB00F27868E204F2E47880F280057880E2040F
:100C0B00F2E47881F2227880E204F2C3943C40094A
:0A0C1B00E47868F2D200785DF2225E
:100C250030B00F7881E204F2C394784002E4F2C256
:100C35000022200041D2007881E2FFD394234010A6
:100C4500EFD39450500A7852E225E0F254FE80101A
:100C55007881E2D3945040147852E225E0F24401C1
:100C6500F27868E204F2E47880F280057880E204A4
:100C7500F2E47881F2227880E204F2C3943C4009E0
:0A0C8500E47868F2D200785DF222F4
:101047007868E264087039F27852E2FF785DE2FE70
:101057002456F8EFF2EE700C7856E2B4C806785DC5
:101067007401F222EEB4010C7857E2B4E006785D21
:101077007402F222EEB40204D2058000E4785DF235
:011087002246
:070A64007814ECF208EDF23A
:100A6B00781C74C8F20874E0F208EFF2E47816F21E
:100A7B00E47817F27816E2241CF8E230E70DC2A3F3
:100A8B007814E2FC08E2FD7F24800BC2A37814E209
:100A9B00FC08E2FD7F171210C9D2A37816E2241CC2
:100AAB00F8C000E225E0D000F27814E2FC08E2FD89
:100ABB007F0F1210C97817E204F2E2C3940840B416
:0B0ACB007816E204F2E2C3940340A599
:010AD60022FD
:070AD7007818ECF208EDF2C3
:100ADE00781C74C8F20874E0F208EFF2E4781AF2A7
:100AEE00E4781BF2781AE2241CF8E230E70DC2819A
:100AFE007818E2FC08E2FD7F24800BC2817818E2B0
:100B0E00FC08E2FD7F171210C9D281781AE2241C6C
:100B1E00F8C000E225E0D000F27818E2FC08E2FD11
:100B2E007F0F1210C9781BE204F2E2C3940840B49E
:0B0B3E00781AE204F2E2C3940340A521
:010B49002289
:040547008229000005
:10152C00782974FFF2087493F2782908E22401FFF9
:0A153C00F218E23400F24F70F022C2
:10154600782974FDF20874E3F2782908E22401FF91
:0A155600F218E23400F24F70F022A8
:10156000782974FBF20874C7F2782908E22401FF95
:0A157000F218E23400F24F70F0228E
:10157A00782974FAF20874EFF2782908E22401FF54
:0A158A00F218E23400F24F70F02274
:10159400782974EAF20874E7F2782908E22401FF52
:0A15A400F218E23400F24F70F0225A
:1015AE00782974D5F20874CFF2782908E22401FF65
:0A15BE00F218E23400F24F70F02240
:1015C8007829742DF208740FF2782908E22401FFB3
:0A15D800F218E23400F24F70F02226
:10165F00AE071FEE60107C137D88ED1DAA0470018C
:06166F001C4A60EC80F44F
:011675002252
:0710C9007823ECF208EDF2C0
:1010D000E408F208F2EFFDC37826E29D18E29400DE
:1010E0005025E4FEEEFDD37824E29D7480F5F018DF
:1010F000E2648095F040030E80EA7826E22401F253
:0711000018E23400F280CE7A
:0111070022C5
:10149A00E4FDFCC3ED9FEC9E5015E4FBFA0BBB0088
:0F14AA00010AEB64644A70F50DBD00010C80E48B
:0114B9002210
:1015FC00E4FDFCC3ED9FEC9E500EE4FB0BEBB4043E
:08160C00FB0DBD00010C80EB99
:0116140022B3
:071108007827EEF208EFF278
:10110F00E4F9E4FAFBD37828E29B18E29A40070B44
:10111F00BB00010A80EF09E9B432E7E4F920921627
:10112F00E4FAFBC3EB9DEA9C50070BBB00010A805E
:06113F00F209E9B432E7F9
:011145002287
:04054B00C124C123E3
:10130B00200A161217B97862E2FE08E2FF784DEE5A
:10131B00F2FE08EFF2FF120625D224E47875F27F75
:0E132B001412165FE4786CF2300A02C20A2235
:10143300D212C214E4786FF2C21A786CF2200A1343
:101443001217AA20020A784DE2FE08E2FF120625CF
:041453001219262222
:0B18DA00C223C220C224D284D2832289
:0C18C200301C08D21612179B1216F622DA
:10145700301A1E786FE204F2C394054014C21AE4EE
:10146700F2786CF2787FE270062006031218CEC27B
:0214770006224B
:1014F60030241720A5147875E204F2C39403400A39
:0B150600E4F2C2242006031218CE22DB
:10140D00301E227867E204F2D3940A4018C21EE41B
:10141D00F27854F208F2785FF208F2C20EC20FC2EF
:06142D0010C211C21322DF
:10168D003009127853E2C39405500A7FC5120D51EB
:06169D007853E204F22282
:1016A3003022127882E2C39405500A7FC4120D518E
:0616B3007882E204F2223D
:1016B900301F12784CE2C39405500A7FC2120D51B3
:0616C900784CE204F2225D
:0918EE00300D05C20D120F782225
:10174F00300B0CC20BE47876F2C21CC216C2072211
:1014BA00301C1A7883E204F2D394034010E478765D
:0E14CA00F2C21CC216C2077883F212191D224C
:1014790020181D201B1A200217784FE204F2D3947A
:1014890004400D7405F2C212C21A2006031218CEC6
:011499002230
:1007C90020A50302085430813EE4785FF208F278EC
:1007D9005408E22401FFF218E23400FEF2D3EF9448
:1007E900A0EE940F4013740FF20874A2F2C20EC265
:1007F9000FC210C211C2138052D20E300F02D21092
:10080900301148D2138044E47854F208F2300E02D1
:10081900D20F301002D211301307D21EC213121791
:100829001C785F08E22401FFF218E23400FEF2D3DB
:10083900EF94A0EE940F4013740FF20874A2F2C261
:100849000EC20FC210C211C213C21E301516C21534
:10085900D217C20EC20FC210C211C213C21E120D8C
:05086900FE12171C2225
:1013BB0030A525787FE27020301A1D120F78787FC8
:1013CB007401F2C214E4786FF2C21A786CF2D21282
:0913DB0012173E121433C2022263
:1013650030A503201224787FE26401701D20181A2D
:10137500201B1712152C30A50320120E1218A7E4F6
:0B138500787FF212130BC20DC214227D
:1012DC00308003208708D218E47870F208F23018B6
:1012EC001D787008E22401FFF218E23400FEF2C30C
:0F12FC00EF94D0EE94074006C218E4F208F222F5
:10133900308208D21BE4787AF208F2301B1D787AE1
:1013490008E22401FFF218E23400FEF2C3EF94D060
:0C135900EE94074006C21BE4F208F222EA
:10124A00782BEEF208EFF208ECF208EDF2EBFD7CF7
:10125A00007FC1120A64D2A2C2A3782BE2FE08E27E
:10126A00FF08E2FC08E2FD121108D2A2D2A3C2854D
:01127A002251
:10127B00782FEEF208EFF208ECF208EDF2EBFD7CC2
:10128B00007FC1120AD7D2A2C2A3782FE2FE08E2D6
:10129B00FF08E2FC08E2FD121108C2A2C2A3C2853C
:0112AB002220
:0E188B00D285C2A2D2A3121108D2A2D2A322E9
:0E189900D285C2A2D2A3121108C2A2C2A322FB
:100F7800C220C223C209C222E4784BF2786BF2780D
:100F88005EF27864F208F27869F208F27878F2088A
:100F9800F27866F27874F2C216C207C21C7876F24A
:100FA800C2197877F2C2017861F2C208C224787552
:070FB800F2C21F784CF22287
:0C18CE00D220D223E4784BF2786BF22297
:08000300C2A41215C8D2A42208
:1016470075DCC07833E4F208741DF218E2FC08E296
:08165700FDECF5D1EDF5D922FF
:100C8F00EF14601F146031146043240370537833E2
:100C9F00E4F208740DF218E2FC08E2FDECF5D2ED77
:100CAF00F5DA2278337401F208E4F218E2FC08E274
:100CBF00FDECF5D3EDF5DB227833E4F2087480F226
:100CCF0018E2FC08E2FDECF5D5EDF5DD227833E412
:100CDF00F2087440F218E2FC08E2FDECF5D6EDF5EF
:020CEF00DE2203
:08190000E4FF120C8F021647F0
:0709EF007835ECF208EDF28F
:1009F6007E007C2B7D331203A7E47B0CFAF9F812F8
:100A06000301C3E49FFFE49E7837F27839EFF2786A
:100A160035E2FE08E2FFEE3395E0FDFCE47B0BFADF
:100A2600F9F8120276E47B0CFAF9F8120301C3E432
:100A36009FFFE49EAD07FF7838F2AE05783AEEF2F6
:100A46007589117837E2F58C7839E2F58A8F8D8EC3
:0D0A56008BD2A9D28CD2ABD28ED2BBD2AF44
:010A63002270
:040E5100788AEFF2BA
:100E5500E408F2788BE2FFC39402500A120E9D78E3
:100E65008BE204F280ED788AE2FF7E007C2B7D33F5
:100E75001203A7E47B0CFAF9F8120301C3E49FFF00
:100E8500E49EAD07FC7837F27839EFF25389F043E9
:070E9500890112175FD2A9C9
:010E9C002233
:03192000D2AF2221
:0419150043870122E1
:0F175F00C28C7839E2F58A7837E2F58CD28C2289
:1011460053A2BF75985A758920AB07AA06E4F9F829
:101156007F807E70FDFC1203011203938F8B8F8DAF
:101166007F01120E51C299C298D2ACD28ED28CD2C5
:06117600A9D2BCD2AF2299
:081908008F993099FDC299226C
:10139000783BEBF208EAF208E9F2AF051DEF601ABC
:1013A000783BE2FB0808E2F92401F218E2FA340083
:0B13B000F212025DFF12190880E0221B
:03054F00813E01E9
:04117C007888EFF28E
:10118000C2A0121594D2A0121594E47889F278883E
:10119000E2FF08E2C39F5019D2A17F147E0012150E
:1011A000FCC2A17F147E001215FC7889E204F28053
:0111B000DD61
:0111B100221B
:10151100C294C2A1C2A07F5E7E011215FCD2A07F3F
:0B1521005E7E011215FCD294C29422E1
:01192600229E
:0F176E00D2947F0412117C7F5012165FC2942216
:0F177D00D2947F1812117C7F1E12165FC2942225
:10171C00D2947F1912117C7F1E12165FC294C217CD
:01172C00229A
:1016E300D2947F0212117C7F5A12165FC2947F1E1E
:0316F30002165F7D
:0F178C00D2947F1112117C7F8C12165FC29422AF
:0F179B00D2947F0E12117C7F2812165FC2942207
:1016F600D2947F0312117C7FB412165FC2947F14BA
:0317060002165F69
:0F17AA00D2947F0F12117C7F3C12165FC29422E3
:0F17B900D2947F1012117C7F3C12165FC29422D3
:0F17C800D2947F0D12117C7F6412165FC294229F
:0F17D700D2947F1412117C7F7812165FC2942275
:0F17E600D2947F1312117C7F9612165FC2942249
:0F17F500D2947F0912117C7F5012165FC294228A
:0F180400D2947F0712117C7F3212165FC294229A
:0F181300D2947F0512117C7F9612165FC2942229
:0F182200D2947F0312117C7F8C12165FC2942226
:0F183100D2947F0212117C7F7812165FC294222C
:0F184000D2947F0B12117C7F5012165FC294223C
:0F184F00D2947F0B12117C7F3212165FC294224B
:0F185E00D2947F0F12117C7F5012165FC294221A
:0F186D00D2947F0C12117C7F5012165FC294220E
:0F187C00D2947F0D12117C7F5012165FC29422FE
:10172D00787FE2700B20120820140512177DD21459
:01173D002289
:10121800787EE204F2D3940340277405F2301D214E
:10122800201C1E20091B202218201F157862E2FEB0
:1012380008E2FF784DEEF2FE08EFF2FF120625C233
:021248001D2265
:0918F700302105C22112171C2248
:1017090075AF30C2AF75C7AA75C755439F01D2AF30
:031719000215EEC8
:1016CF0075AF301215EEC2AF75C7AA75C755539FC8
:0416DF00FED2AF2266
:0C15E200E2FC08E2FDECF5A7AF058FA6C7
:0E15EE00C2AF75C7AA75C75543A401D2AF227C
:10000E007884EEF208EFF212170975AF2278841297
:05001E0015E20216CFFF
:0812AC0078587F00E2FD7E305E
:1012B4007884EEF208EFF208EDF212170975AF2107
:1012C4007884E2FC08E2FDECF5A7AF058FA608E2FE
:0812D400F5AE1215EE0216CF73
:0714D800783FEEF208EFF28D
:1014DF00121709E4F5AF783F1215E208E5AEF212E4
:0614EF0016CF7841E2FF78
:0114F50022D4
:100DFE007F007E3012000E1212AC78597F01121253
:100E0E00B0785AE2FD7F027E301212B4785BE2FDBA
:100E1E007F037E301212B4785CE2FD7F047E3012C6
:100E2E0012B4785DE2FD7F057E301212B47856E280
:100E3E00FD7F067E301212B47857E2FD7F077E30BA
:030E4E000212B4D9
:101088007F007E3012000E1212AC7859E2FD7F010B
:101098007E301212B4785AE2FD7F027E301212B40A
:1010A800785BE2FD7F037E301212B4785CE2FD7F4C
:1010B800047E301212B4785DE2FD7F057E300212A4
:0110C800B473
:02055200C125C1
:031923000218A700
:10173E00120DA8D2A2C2A3121615D2A2D2A3C2858E
:01174E002278
:0E18A700D285C2A2D2A312162ED2A2D2A322A2
:100DA800781C74C8F20874E0F20874C1F2E478841C
:100DB800F2E47885F27884E2241CF8E230E707C28E
:100DC800A312157A8005C2A3121546D2A37884E22D
:100DD800241CF8C000E2FF25E0D000F21215467886
:100DE80085E204F2E2C3940840CB7884E204F2E29C
:050DF800C3940340BCA0
:010DFD0022D3
:101615001215AE1215AE1215AE1215C81215C81256
:0916250015C82092031215C82219
:10162E001215AE1215AE1215C81215C81215C82015
:09163E0092061215C81215C8220B
:1013E4003025137842E204F2E2C3940A401AE4F28C
:1013F40012173EC225227842E204F2E2C3940A4064
:0914040007E4F21218A7D2252218
:03055400814700DC
:100B4A00E47843F27843E2FFC39405505EEF75F010
:100B5A0008A4242CF8E6604C7843E2FF75F008A458
:100B6A00242BF8E6D39400403BEF75F008A4242523
:100B7A00F8E6FE08E6AA06F91203A17843E2FF7531
:100B8A00F008A4242BF816EF75F008A42429F8E637
:100B9A00FE08E64E700E7843E275F008A42425F8A4
:100BAA00E4F608F67843E204F2809912192702194A
:010BBA001921
:0708FA007844EEF208EFF272
:10090100E4FFEF75F008A42425F8E6F58308E64531
:10091100836009EFC3940550030F80E6EFB4050827
:1009210078477401F27F05227844E2F58308E2F505
:1009310082EF75F008A42425F8A68308A682EF7536
:10094100F008A42427F8A60408A605AC02AD03EF1D
:1009510075F008A42429F8A60408A605A226E43304
:10096100FEEF75F008A4242CF8A606EF75F008A494
:05097100242BF8E4F660
:01097600225E
:100E9D00EF75F008A42425F8E6FC08E64C700978F7
:100EAD00477402F2D2278002C227EF75F008A424FE
:100EBD0025F8E4F608F6EF75F008A42427F8E4F613
:100ECD0008F6EF75F008A42429F8E4F608F6EF7596
:0A0EDD00F008A4242BF8E4F6A22785
:010EE70022E8
:01192700229D
:0419190043870122DD
:10070400E47846F27846E2FFC3940540030207C842
:10071400EF75F008A42425F8E6FE08E64E700302FF
:1007240007C07846E2FF75F008A42427F8E6FC0821
:10073400E64C7077EF75F008A4242CF8E6600D7889
:1007440046E275F008A4242BF806803D7846E2754D
:10075400F008A42425F8E6FE08E6AA06F91203A187
:100764007846E2FF75F008A4242BF816EF75F0081C
:10077400A42429F8E6FE08E64E700E7846E275F0E9
:1007840008A42425F8E4F608F67846E2FF75F00894
:10079400A42429F8E6FC08E6FD4C6020EF75F00877
:1007A400A42427F8A60408A60580117846E275F06B
:1007B40008A42427F808E616187001167846E204FF
:0407C400F20207082E
:0107C800220E
:10055700C11A816C00C116C120C11CC11981760066
:10056700817700C109C122815E0082690000817420
:100577000081660082780000C101814B008264001F
:1005870000816B00818200815300827200008756D0
:1005970000000000000000C105815D00815200815C
:1005A7006800C180818000818100816E00816D00BB
:1005B700827C0000C104817F0082620000824D00BE
:1005C70000816100C11F814C00C10382500000C13E
:1005D7001882700000C108816F00817500C107C1D2
:1005E7001B827A0000C10D82540000825F0000C1A7
:1005F7000EC10FC110C111C113C11E816700C11502
:10060700C10AC117817E00C11DC10CC106C121C12C
:0D06170012814F00C114818300C10BC1820C
:101676001215117FB07E041211461218DA1218E5FF
:07168600121923D28580FE3A
:03000B00020026CA
:10002600C0E0C0F0C083C082C0D075D000C000C0A0
:1000360001C002C003C004C005C006C0077837E28D
:10004600F58C7839E2F58A787208E22401FFF21815
:10005600E23400FEF2C3EF94D0EE94074030E4F2AF
:1000660008F230A40ED21A786FF2D20D12172D783C
:100076004FE4F21218B51212181214791214F6126D
:1000860018C21218EE12174F1214BA12140D1218C3
:10009600F71207C91212DC1213391213BB121365B9
:1000A6002023030201B8784BE21460451470030262
:1000B600013F2402600302018E30800320872B203B
:1000C600162820172530A722786BE204F2C3940184
:1000D600500302018EE4F2784B04F21215C8121591
:1000E600C81215C81215C802018E786BE4F2020117
:1000F6008E308003208716785EE204F2C3940140B6
:1001060010E4F2784B7402F21216E38004785EE48F
:10011600F2786408E22401FFF218E23400FEF2C32A
:10012600EF94A0EE940F4060784BE4F2785EF2789C
:100136006BF27864F208F2804F30800320871778DC
:1001460066E204F2C394014011E4F2D21CD219D241
:10015600077883F280047866E4F2786908E224017D
:10016600FFF218E23400FEF2C3EF94A0EE940F40C3
:1001760017784BE4F2786BF2785EF27864F208F264
:100186007869F208F27866F220810CD21CD21978CE
:1001960083E4F2D208800D30810A300807D20BC200
:1001A6000812177DC37862E294015004D21F8002C0
:1001B600C21F302042208413786DE204F2B40A167E
:1001C600D222C20920040FD201800BC2227882E417
:1001D600F2786DF2C201208313786EE204F2B40A5B
:1001E60016D209C22220040FD201800BC20978530D
:1001F600E4F2786EF2C201300142787C08E2240112
:10020600FFF218E23400FEF2C3EF94A0EE940F4022
:100216002BC201E4F208F2D204784BF2786BF27842
:100226005EF27864F208F27869F208F2787874037C
:10023600F2087420F27866E4F27874F2D007D006F9
:10024600D005D004D003D002D001D000D0D0D082C7
:07025600D083D0F0D0E032AC
:030023000203D401
:1003D400C0E0C0F0C083C082C0D075D000C000C0EF
:1003E40001C002C003C004C005C006C007209803B2
:1003F400020520C298785DE2FF2456F8E599F230B0
:100404001E030204BCEF701290300093FF7856E292
:10041400B50707785D7401F28073785DE2B4011367
:10042400903001E493FF7857E2B50707785D7402D2
:10043400F2805A785DE2FFB40213903002E493FE36
:100444007858E2B50607785D7403F28040EFB40390
:1004540013903003E493FF7859E2B50707785D748D
:1004640004F28029785DE2B40413903004E493FF2D
:10047400785AE2B50707785D7405F28010785DE27A
:10048400B40506D205E4F28004785DE4F2200503A5
:10049400020520C205785BE224EF60152450707CCD
:1004A400D21A786FE4F2D20D12172D784FE4F2804D
:1004B4006BD20A12171C8064785DE2700D7856E2E4
:1004C400B4C807785D7401F28052785DE2FFB4012C
:1004D4000D7857E2B4C107785D7402F2803EEFB440
:1004E4000207785D7403F28033785DE2FFB403059C
:1004F4007404F28027EFB40407785D7405F2801C5D
:10050400EFB40507785D7406F28011EF785DB406E8
:1005140009E4F2D21512177D8002E4F2D007D00666
:10052400D005D004D003D002D001D000D0D0D082E6
:07053400D083D0F0D0E032CB
:0300000002086E85
:0C086E00787FE4F6D8FD75814C0208B5D7
:10025D00BB010689828A83E0225002E722BBFE029F
:09026D00E32289828A83E49322D2
:10027600E88FF0A4CC8BF0A42CFCE98EF0A42CFC27
:100286008AF0EDA42CFCEA8EF0A4CDA8F08BF0A4A5
:100296002DCC3825F0FDE98FF0A42CCD35F0FCEB04
:1002A6008EF0A4FEA9F0EB8FF0A4CFC5F02ECD39C9
:0F02B600FEE43CFCEAA42DCE35F0FDE43CFC2236
:1002C50075F008758200EF2FFFEE33FECD33CDCCF0
:1002D50033CCC58233C5829BED9AEC99E582984073
:1002E5000CF582EE9BFEED9AFDEC99FC0FD5F0D650
:1002F500E4CEFBE4CDFAE4CCF9A88222B800C1B97A
:100305000059BA002DEC8BF084CFCECDFCE5F0CBB7
:10031500F97818EF2FFFEE33FEED33FDEC33FCEBF0
:1003250033FB10D703994004EB99FB0FD8E5E4F9AB
:10033500FA227818EF2FFFEE33FEED33FDEC33FC98
:10034500C933C910D7059BE99A4007EC9BFCE99A8C
:10035500F90FD8E0E4C9FAE4CCFB2275F010EF2FD1
:10036500FFEE33FEED33FDCC33CCC833C810D707D1
:100375009BEC9AE899400AED9BFDEC9AFCE899F80C
:0E0385000FD5F0DAE4CDFBE4CCFAE4C8F9229F
:0E039300C3E49FFFE49EFEE49DFDE49CFC227B
:0603A1008A838982E473E7
:1003A700EC8EF0A4CCC5F0CCCDF8EFA4CEC5F02DE3
:1003B700FDE43CFCE8A42EC8C5F03DFDE43CFCEFA1
:0D03C700A4FFE5F028FEE43DFDE43CFC222F
:10087A00021676E493A3F8E493A34003F68001F208
:10088A0008DFF48029E493A3F85407240CC8C3337F
:10089A00C4540F4420C8834004F456800146F6DF4E
:1008AA00E4800B010204081020408090053BE47E9E
:1008BA00019360BCA3FF543F30E509541FFEE49343
:1008CA00A360010ECF54C025E060A840B8E493A30A
:1008DA00FAE493A3F8E493A3C8C582C8CAC583CA35
:1008EA00F0A3C8C582C8CAC583CADFE9DEE780BEED
:0106240000D5
:00000001FF
