:10090200E4FAEF6405703343F620C2F8C2F9D2FA72
:1009120043E180C2FCD2FBADF8EDC413135403FDD6
:10092200AFE2AB07EB7E007802C333CE33CED8F909
:100932007C002DFBEC3EAF03FE22EF6406703543D4
:10094200F640D2F8C2F9D2FA43E180C2FCD2FBAD42
:10095200F8EDC413135403FDAFE27A00AB07EB7E4C
:10096200007802C333CE33CED8F97C002DFBEC3EA7
:07097200FEAF0322E4FEFFCB
:01097900225B
:0306530081020021
:0D1683007F061209027863EEF208EFF222F2
:080003007800EEF208EFF22292
:09065600871E00000000000000F6
:0916D400C290D2A7C293C2A62263
:100DD400780574AAF2E418F2E47803F27805E2C222
:100DE400907D147C007F2E12103DD2907805E22570
:100DF400E0F27D187C007F2812103D7803E204F2B3
:100E0400E2C3940840D6780574AAF218E204F2E228
:070E1400C3940240C3D29019
:010E1B0022B4
:100E1C00780874AAF2E418F2E47806F27808E2C2D0
:100E2C00907D147C007F2E12103DD2907808E22524
:100E3C00E0F27D187C007F2812103D7806E204F267
:100E4C00E2C3940640D6780874AAF218E204F2E2DF
:070E5C00C3940240C3D290D1
:010E6300226C
:040C7C007809EFF212
:100C8000E408F2E4780BF2780AE2241EF8E230E796
:100C90000CC2907809E2FD7C007F24800AC2907823
:100CA00009E2FD7C007F1712103DD290780AE22401
:100CB0001EF8C000E225E0D000F27809E2FD7C00D9
:100CC0007F1412103D780BE204F2E2C3940840B79F
:0B0CD000780AE204F2E2C3940340A89B
:010CDB0022F6
:10112800780CEFF208ECF208EDF2D2937F14121467
:1011380055C2A7781E74C8F20874E0F2780CE278F9
:1011480020F2120DD4780D08E2FF120C7CD2A7D23F
:021158009322E0
:1010F400780FEFF208ECF208EDF2D2937F14121499
:1011040055C2A7781E74C8F20874E0F2780FE2782A
:1011140020F2120DD4781008E2FF120C7CC2A7C290
:0411240093C29022C0
:040CDC007812EFF2A9
:100CE000E408F21216CA903000E493781EF29030B5
:100CF00001E49308F2903002E49308F2903003E4A8
:100D00009308F2903004E49308F27812E27823F228
:100D1000120DD4E47813F27BFE7A00791E7D061260
:100D200011EA1213587813E204F2E2C3941E40E76A
:030D300002169D0B
:040E64007814EFF21D
:100E6800E408F21216CA903000E493781EF290302B
:100E780001E49308F2903002E49308F2903003E41E
:100E88009308F2903004E49308F27814E27823F29D
:100E9800120E1C7BFE7A00791E7D061211EA0216DC
:010EA8009DAC
:0A16CA00121285D28CD293C2A7221F
:0C169D00D2A7C293C290121262D28C221B
:100F33001216CA781E74C8F20874C1F2903000E425
:100F43009308F2903001E49308F2903002E493089E
:100F5300F2903003E49308F2903004E49308F21221
:100F63000DD47BFE7A00791E7D071211EA12138CD1
:030F730002169DC6
:100B460020910F7882E204F2C394784002E4F2C264
:100B56000022200041D2007882E2FFD39423401085
:100B6600EFD39450500A7853E225E0F254FE8010F9
:100B76007882E2D3945040147853E225E0F244019F
:100B8600F27869E204F2E47881F280057881E20481
:100B9600F2E47882F2227881E204F2C3943C4009BE
:0A0BA600E47869F2D200785EF222D2
:100BB00030B00F7882E204F2C394784002E4F2C2CB
:100BC0000022200041D2007882E2FFD3942340101B
:100BD000EFD39450500A7853E225E0F254FE80108F
:100BE0007882E2D3945040147853E225E0F2440135
:100BF000F27869E204F2E47881F280057881E20417
:100C0000F2E47882F2227881E204F2C3943C400953
:0A0C1000E47869F2D200785EF22267
:100FFC007869E264087039F27853E2FF785EE2FEB9
:10100C002457F8EFF2EE700C7857E2B4C806785E0D
:10101C007401F222EEB4010C7858E2B4E006785E6A
:10102C007402F222EEB40204D2058000E4785EF27F
:01103C002291
:0709EF007816ECF208EDF2AE
:1009F600781E74C8F20874E0F208EFF2E47818F290
:100A0600E47819F27818E2241EF8E230E70DC2A362
:100A16007816E2FC08E2FD7F24800BC2A37816E27A
:100A2600FC08E2FD7F1712103DD2A37818E2241EBF
:100A3600F8C000E225E0D000F27816E2FC08E2FDFC
:100A46007F0F12103D7819E204F2E2C3940840B415
:0B0A56007818E204F2E2C3940340A50C
:010A61002272
:070A6200781AECF208EDF236
:100A6900781E74C8F20874E0F208EFF2E4781CF218
:100A7900E4781DF2781CE2241EF8E230E70DC28109
:100A8900781AE2FC08E2FD7F24800BC281781AE221
:100A9900FC08E2FD7F1712103DD281781CE2241E6A
:100AA900F8C000E225E0D000F2781AE2FC08E2FD85
:100AB9007F0F12103D781DE204F2E2C3940840B49E
:0B0AC900781CE204F2E2C3940340A595
:010AD40022FF
:04065F00822B0000EA
:10133E00782B74FFF2087493F2782B08E22401FFE5
:0A134E00F218E23400F24F70F022B2
:10135800782B74FDF20874E3F2782B08E22401FF7D
:0A136800F218E23400F24F70F02298
:10137200782B74FBF20874C7F2782B08E22401FF81
:0A138200F218E23400F24F70F0227E
:10138C00782B74EAF20874E7F2782B08E22401FF58
:0A139C00F218E23400F24F70F02264
:1013A600782B74D5F20874CFF2782B08E22401FF6B
:0A13B600F218E23400F24F70F0224A
:1013C000782B742DF208740FF2782B08E22401FFB9
:0A13D000F218E23400F24F70F02230
:10145500AE071FEE60107C137D88ED1DAA04700198
:061465001C4A60EC80F45B
:01146B00225E
:07103D007825ECF208EDF24A
:10104400E408F208F2EFFDC37828E29D18E2940068
:101054005025E4FEEEFDD37826E29D7480F5F01869
:10106400E2648095F040030E80EA7828E22401F2DD
:0710740018E23400F280CE07
:01107B002252
:1012CA00E4FDFCC3ED9FEC9E5015E4FBFA0BBB005A
:0F12DA00010AEB64644A70F50DBD00010C80E45D
:0112E90022E2
:1013F400E4FDFCC3ED9FEC9E500EE4FB0BEBB40448
:08140400FB0DBD00010C80EBA3
:01140C0022BD
:07107C007829EEF208EFF203
:10108300E4F9E4FAFBD3782AE29B18E29A40070BCF
:10109300BB00010A80EF09E9B432E7E4F9209216B4
:1010A300E4FAFBC3EB9DEA9C50070BBB00010A80EB
:0610B300F209E9B432E786
:0110B9002214
:04066300C122C121CE
:10130800200A031216BFD222E47877F27F1412144F
:0B13180055E47868F2300A02C20A2295
:10146C00D211C214E47876F2C21A7868F2200A0615
:07147C001216B412170D2235
:0B16A900C221C21EC222D284D28322C2
:100EA90030171F7878E2C394045017D204121587BB
:100EB9007878E204F2C394044008E4F2C217C20449
:100EC900C20730191F7879E2C394045017D204126B
:100ED90015027879E204F2C394044008E4F2C219D5
:050EE900C204C2072253
:1012A800301A1E7876E204F2C394034014E4F2C2C2
:1012B8001A7868F27870E27006200603121528C2C0
:0212C8000622FC
:10140D0030221420A4117877E204F2C3940340072C
:08141D00E4F2C222121528229C
:10121500301324786FE204F2D39405401AE478552C
:10122500F208F27860F208F2C20DC20EC20FC210C7
:08123500C212C213786FF2220D
:101483003009127854E2C39405500A7FC5120CDC6C
:061493007854E204F2228D
:101499003020127883E2C39405500A7FC4120CDC11
:0614A9007883E204F22248
:1014AF00301D12784DE2C39405500A7FC2120CDC36
:0614BF00784DE204F22268
:10115A00782DEEF208EFF208ECF208EDF2EBFD7CE6
:10116A00007FC11209EFD2A2C2A3782DE2FE08E2E3
:10117A00FF08E2FC08E2FD12107CD2A2D2A3C285CB
:01118A002242
:10118B007831EEF208EFF208ECF208EDF2EBFD7CB1
:10119B00007FC1120A62D2A2C2A37831E2FE08E23A
:1011AB00FF08E2FC08E2FD12107CC2A2C2A3C285BA
:0111BB002211
:0E165900D285C2A2D2A312107CD2A2D2A322AA
:0E166700D285C2A2D2A312107CC2A2C2A322BC
:100EEE00C21EC221C209C220E4784CF2786CF2789C
:100EFE005FF27865F208F2786AF208F2787AF20810
:100F0E00F27867F27875F2C204C2177878F2C219D5
:100F1E007879F2C2017862F2C208C2227877F2C200
:050F2E001D784DF222C8
:10152800D21ED221E4784CF2786CF2C2227877F29B
:011538002290
:0816E600C2A41213C0D2A42219
:1014250075DCC07835E4F208741DF218E2FC08E2B8
:08143500FDECF5D1EDF5D92223
:100C1A00EF14601F14603114604324037053783555
:100C2A00E4F208740DF218E2FC08E2FDECF5D2EDEC
:100C3A00F5DA2278357401F208E4F218E2FC08E2E7
:100C4A00FDECF5D3EDF5DB227835E4F2087480F299
:100C5A0018E2FC08E2FDECF5D5EDF5DD227835E485
:100C6A00F2087440F218E2FC08E2FDECF5D6EDF564
:020C7A00DE2278
:0816EE00E4FF120C1A0214259E
:07097A007837ECF208EDF202
:100981007E007C2B7D33120529E47B0CFAF9F812E9
:100991000491C3E49FFFE49E7839F2783BEFF2784B
:1009A10037E2FE08E2FFEE3395E0FDFCE47B0BFA53
:1009B100F9F8120406E47B0CFAF9F8120491C3E485
:1009C1009FFFE49EAD07FF783AF2AE05783CEEF268
:1009D1007589117839E2F58C783BE2F58A8F8D8E35
:0D09E1008BD2A9C28CD2ABD28ED2BBD2AFCA
:0109EE0022E6
:10123D007E007C2B7D33120529E47B0CFAF9F81224
:10124D000491C3E49FFFE49E7839F2783BEFF27589
:04125D008921C28C95
:01126100226A
:0417050043870122F3
:1012620053A2BF75985A758920758BFD758DFDD275
:101272008E7F0112123DC299C298D2ACD2A9D2BCC1
:03128200D2AF22C6
:1012850053A2BF75985A758920758BE8758DE8D27C
:101295008E7F0112123DC299C298D2ACD2A9D2BC9E
:0312A500D2AF22A3
:0816F6008F993099FDC2992281
:1011EA00783DEBF208EAF208E9F2AF051DEF601A62
:1011FA00783DE2FB0808E2F92401F218E2FA340029
:0B120A00F21203EDFF1216F680E02246
:03066700814001CE
:0410BA00D2947F1934
:0410BE007887EFF24E
:1010C200C2A012138CD2A012138CE47888F2788713
:1010D200E2FF08E2C39F5019D2A17F147E001213CF
:1010E200F4C2A17F147E001213F47888E204F28025
:0110F200DD20
:0110F30022DA
:10132300C294C2A1C2A07F5E7E011213F4D2A07F39
:0B1333005E7E011213F4D294C29422DB
:01170D0022B9
:0F155A00D2947F041210BE7F50121455C29422F7
:0F156900D2947F181210BE7F1E121455C2942206
:0D1690001210BA7F1E121455C294C2162209
:1014EF00D2947F021210BE7F5A121455C2947F1EDF
:0314FF000214557F
:0F157800D2947F111210BE7F8C121455C2942290
:0F158700D2947F0E1210BE7F50121455C29422C0
:10150200D2947F031210BE7FB4121455C2947F147A
:031512000214556B
:0B16B4001210BA7F1E121455C29422BF
:0B16BF001210BA7F1E121455C29422B4
:0F159600D2947F0D1210BE7F64121455C294229E
:0F15A500D2947F141210BE7F78121455C2942274
:0F15B400D2947F131210BE7F96121455C2942248
:0F15C300D2947F091210BE7F50121455C2942289
:0F15D200D2947F071210BE7F32121455C294229A
:0F15E100D2947F051210BE7F96121455C2942229
:0F15F000D2947F031210BE7F8C121455C2942226
:0F15FF00D2947F021210BE7F78121455C294222C
:0F160E00D2947F0B1210BE7F50121455C294223B
:0F161D00D2947F0B1210BE7F32121455C294224A
:0F162C00D2947F0F1210BE7F50121455C2942219
:0F163B00D2947F0C1210BE7F50121455C294220D
:0F164A00D2947F0D1210BE7F50121455C29422FD
:0916DD00300C05C20C1215692243
:1015150075AF30C2AF75C7AA75C755439F01D2AF26
:031525000213E6C8
:1014DB0075AF301213E6C2AF75C7AA75C755539FC8
:0414EB00FED2AF225C
:0C13DA00E2FC08E2FDECF5A7AF058FA6D1
:0E13E600C2AF75C7AA75C75543A401D2AF2286
:10000E007884EEF208EFF212151575AF227884128D
:05001E0013DA0214DBFF
:0611BC007859E2FD7E30CF
:1011C2007884EEF208EFF208EDF212151575AF21F0
:1011D2007884E2FC08E2FDECF5A7AF058FA608E2F1
:0811E200F5AE1213E60214DB66
:0712EA007841EEF208EFF27B
:1012F100121515E4F5AF78411213DA08E5AEF212D2
:0613010014DB7843E2FF5B
:0113070022C3
:100F76007F007E3012000E7857E2FD7F007E301231
:100F860011C27858E2FD7F017E301211C27F021233
:100F960011BC785AE2FD7F037E301211C2785BE203
:100FA600FD7F047E301211C2785CE2FD7F057E3043
:030FB6000211C263
:100FB9007F007E3012000E7F001211BC785AE2FDCC
:100FC9007F017E301211C2785BE2FD7F027E301212
:100FD90011C2785CE2FD7F037E301211C2785DE2B6
:100FE900FD7F047E301211C2785EE2FD7F057E30FE
:030FF9000211C220
:0716FE00D2A2D2A3021539AC
:10153900120D33D2A2C2A31214C5D2A2D2A3C2855C
:01154900227F
:0E167500D285C2A2D2A312154AD2A2D2A322BB
:100D3300781E74C8F20874E0F20874C1F2E478878C
:100D4300F2E47888F27887E2241EF8E230E707C2FB
:100D5300A31213728005C2A3121358D2A37887E299
:100D6300241EF8C000E2FF25E0D000F212135878E9
:100D730088E204F2E2C3940840CB7887E204F2E20B
:050D8300C3940340BC15
:010D88002248
:1014C5001213C01213C020920C1213C01213C012B3
:0614D50013C01213C02237
:10154A001213C01213C02092061213C01213C02223
:03066A00814800C4
:100AD500E47844F27844E2FFC39405505EEF75F084
:100AE50008A4242CF8E6604C7844E2FF75F008A4CD
:100AF500242BF8E6D39400403BEF75F008A4242599
:100B0500F8E6FE08E6AA06F91205237844E2FF7521
:100B1500F008A4242BF816EF75F008A42429F8E6AC
:100B2500FE08E64E700E7844E275F008A42425F818
:100B3500E4F608F67844E204F2809912170E0217DB
:010B450009A6
:070885007845EEF208EFF2E6
:10088C00E4FFEF75F008A42425F8E6F58308E645A7
:10089C00836009EFC3940550030F80E6EFB405089D
:1008AC0078487401F27F05227845E2F58308E2F579
:1008BC0082EF75F008A42425F8A68308A682EF75AC
:1008CC00F008A42427F8A60408A605AC02AD03EF93
:1008DC0075F008A42429F8A60408A605A223E4337D
:1008EC00FEEF75F008A4242CF8A606EF75F008A40A
:0508FC00242BF8E4F6D6
:0109010022D3
:100D8900EF75F008A42425F8E6FC08E64C7009780C
:100D9900487402F2D2248002C224EF75F008A42418
:100DA90025F8E4F608F6EF75F008A42427F8E4F628
:100DB90008F6EF75F008A42429F8E4F608F6EF75AB
:0A0DC900F008A4242BF8E4F6A2249D
:010DD30022FD
:01170E0022B8
:0417090043870122EF
:10073400E47847F27847E2FFC3940540030207F8E0
:10074400EF75F008A42425F8E6FE08E64E700302CF
:1007540007F07847E2FF75F008A42427F8E6FC08C0
:10076400E64C7077EF75F008A4242CF8E6600D7859
:1007740047E275F008A4242BF806803D7847E2751B
:10078400F008A42425F8E6FE08E6AA06F9120523D3
:100794007847E2FF75F008A4242BF816EF75F008EB
:1007A400A42429F8E6FE08E64E700E7847E275F0B8
:1007B40008A42425F8E4F608F67847E2FF75F00863
:1007C400A42429F8E6FC08E6FD4C6020EF75F00847
:1007D400A42427F8A60408A60580117847E275F03A
:1007E40008A42427F808E616187001167847E204CE
:0407F400F2020738CE
:0107F80022DE
:10066D00C104C11EC117C119817800817900C1096A
:10067D00C120815F00826A00008175008167008260
:10068D007A0000C101814C0082650000816C0081FF
:10069D008300815400827300008757000000000022
:1006AD000000C105815E00815300816900C1808118
:1006BD008100818200816E00816D00827E0000C10B
:1006CD000381700082630000824E0000816200C1D0
:1006DD001D814D00C10282510000C11882710000C0
:1006ED00C108C11A817600817700C107C11B827CC8
:1006FD000000C10C8255000082600000C10DC10ECA
:10070D00C10FC110C112C113816F00C115816800E5
:10071D00C10AC116818000C11CC10BC106C11FC118
:06072D0011815000C1140F
:10143D001213231212621216A91216D41216FED20C
:08144D0085D28C120EA980FB70
:03000B00020026CA
:10002600C0E0C0F0C083C082C0D075D000C000C0A0
:1000360001C002C003C004C005C006C0077839E28B
:10004600F58C783BE2F58A787308E22401FFF21812
:10005600E23400FEF2C3EF94D0EE94074010E4F2CF
:1000660008F21212A812168312140D121215121685
:10007600DD301F05C21F12169020A40302010530B1
:10008600973E7860E4F208F2785508E22401FFF220
:1000960018E23400FEF2D3EF94A0EE940F401374EE
:1000A6000FF20874A2F2C20DC20EC20FC210C21223
:1000B600804DD20D300E02D20F301043D212803F47
:1000C6007855E4F208F2300D02D20E300F02D2104B
:1000D600301202D213786008E22401FFF218E234EB
:1000E60000FEF2D3EF94A0EE940F4013740FF208C3
:1000F60074A2F2C20DC20EC20FC210C212C21330D7
:100106001516C215D216C20DC20EC20FC210C212E9
:10011600C213120F7612169030A4267870E2702160
:10012600301A1E20061B120EEE78707401F2C214ED
:100136007876E4F2C21A7868F2D2111215391214DE
:100146006C30A4032011247870E26401701D20181D
:100156001A201B1712133E30A40320110E12167517
:100166007870E4F2121308C20CC2143080032087A0
:1001760008D2187871E4F208F230181D787108E296
:100186002401FFF218E23400FEF2C3EF94D0EE949D
:10019600074006C218E4F208F2308208D21B787CC7
:1001A600E4F208F2301B1D787C08E22401FFF21805
:1001B600E23400FEF2C3EF94D0EE94074006C21B71
:1001C600E4F208F2308003208708D2187871E4F24E
:1001D60008F2202103020303784CE21460451470F0
:1001E60003020271240260030202CA3080032087E0
:1001F6002B20042820162530A722786CE204F2C3AF
:10020600940150030202CAE4F2784C04F21213C0BD
:100216001213C01213C01213C00202CA786CE4F2A1
:100226000202CA308003208716785FE204F2C39484
:10023600014010E4F2784C7402F21214EF80047854
:100246005FE4F2786508E22401FFF218E23400FE6A
:10025600F2C3EF94A0EE940F406A784CE4F2785F14
:10026600F2786CF27865F208F280593080032087C4
:10027600147867E204F2C39401400EE4F2D217D276
:1002860019D20780047867E4F2786A08E22401FF4D
:10029600F218E23400FEF2C3EF94A0EE940F40246D
:1002A600784CE4F2786CF2785FF27865F208F278CE
:1002B6006AF208F2787A7403F2087420F27867E436
:1002C600F27875F220971A7862E2C394335012E2FC
:1002D60004F294324019D217D2197433F2D208803C
:1002E6000E30970B2007087862E4F2C217C219C3D2
:1002F6007863E294015004D21D8002C21D301E4272
:10030600208413786DE204F2B40A16D220C20920C2
:10031600030FD201800BC2207883E4F2786DF2C21B
:1003260001208313786EE204F2B40A16D209C220C1
:1003360020030FD201800BC2097854E4F2786EF2E2
:10034600C201300142787E08E22401FFF218E2344D
:1003560000FEF2C3EF94A0EE940F402BC201E4F22C
:1003660008F2D203784CF2786CF2785FF27865F294
:1003760008F2786AF208F2787A7403F2087420F2C6
:100386007867E4F27875F230870320801FD37852BD
:10039600E2948818E2941340137F031214553087B1
:1003A60003208008D2027851E4F208F2785108E27C
:1003B6002401FFF218E23400FEF2C3EF9488EE94B3
:1003C6001340097413F2087489F2C202D007D006EA
:1003D600D005D004D003D002D001D000D0D0D08236
:0703E600D083D0F0D0E0321B
:030023000205567D
:10055600C0E0C0F0C083C082C0D075D000C000C06B
:1005660001C002C003C004C005C006C0072098032E
:10057600020638C298785EE2FF2457F8E599F23011
:10058600130302062AEF700E7857E2B40108785E6C
:100596007401F2020638785EE2B4010D7858E27012
:1005A60008785E7402F2020638785EE2FFB4020D45
:1005B6007859E2B41A07785E7403F28075EFB403D3
:1005C6000D785AE2B49B07785E7404F28064785E14
:1005D600E2B4040D785BE2B41507785E7405F28028
:1005E60051785EE264057036785CE26495702F7827
:1005F6005EF2D21A7876F2120EEED20C7868E2FF2C
:1006060004F2EFC394014002D20A7868E204F2C30E
:10061600940B401ED206D21FC20AE4F28014785E02
:10062600E4F2800E785EE204F2C394064004E4F23B
:10063600D215D007D006D005D004D003D002D00101
:0D064600D000D0D0D082D083D0F0D0E032F0
:030000000207F9FB
:0C07F900787FE4F6D8FD75814C020840C2
:1003ED00BB010689828A83E0225002E722BBFE020E
:0903FD00E32289828A83E4932241
:10040600E88FF0A4CC8BF0A42CFCE98EF0A42CFC95
:100416008AF0EDA42CFCEA8EF0A4CDA8F08BF0A413
:100426002DCC3825F0FDE98FF0A42CCD35F0FCEB72
:100436008EF0A4FEA9F0EB8FF0A4CFC5F02ECD3937
:0F044600FEE43CFCEAA42DCE35F0FDE43CFC22A4
:1004550075F008758200EF2FFFEE33FECD33CDCC5E
:1004650033CCC58233C5829BED9AEC99E5829840E1
:100475000CF582EE9BFEED9AFDEC99FC0FD5F0D6BE
:10048500E4CEFBE4CDFAE4CCF9A88222B800C1B9E8
:100495000059BA002DEC8BF084CFCECDFCE5F0CB26
:1004A500F97818EF2FFFEE33FEED33FDEC33FCEB5F
:1004B50033FB10D703994004EB99FB0FD8E5E4F91A
:1004C500FA227818EF2FFFEE33FEED33FDEC33FC07
:1004D500C933C910D7059BE99A4007EC9BFCE99AFB
:1004E500F90FD8E0E4C9FAE4CCFB2275F010EF2F40
:1004F500FFEE33FEED33FDCC33CCC833C810D70740
:100505009BEC9AE899400AED9BFDEC9AFCE899F87A
:0E0515000FD5F0DAE4CDFBE4CCFAE4C8F9220D
:060523008A838982E47363
:10052900EC8EF0A4CCC5F0CCCDF8EFA4CEC5F02D5F
:10053900FDE43CFCE8A42EC8C5F03DFDE43CFCEF1D
:0D054900A4FFE5F028FEE43DFDE43CFC22AB
:1008050002143DE493A3F8E493A34003F68001F2B8
:1008150008DFF48029E493A3F85407240CC8C333F4
:10082500C4540F4420C8834004F456800146F6DFC3
:10083500E4800B0102040810204080900653E47EFA
:10084500019360BCA3FF543F30E509541FFEE493B8
:10085500A360010ECF54C025E060A840B8E493A37F
:10086500FAE493A3F8E493A3C8C582C8CAC583CAAA
:10087500F0A3C8C582C8CAC583CADFE9DEE780BE62
:0107330000C5
:00000001FF
