:10087D00E4FAEF6405703343F620C2F8C2F9D2FAF8
:10088D0043E180C2FCD2FBADF8EDC413135403FD5C
:10089D00AFE2AB07EB7E007802C333CE33CED8F98F
:1008AD007C002DFBEC3EAF03FE22EF64067035435A
:1008BD00F640D2F8C2F9D2FA43E180C2FCD2FBADC8
:1008CD00F8EDC413135403FDAFE27A00AB07EB7ED2
:1008DD00007802C333CE33CED8F97C002DFBEC3E2D
:0708ED00FEAF0322E4FEFF51
:0108F40022E1
:0604790081020081030076
:0D1B88007F0612087D787AEEF208EFF22257
:10167D007863E2FE08E2FF787AE2FC08E2FDC39FA0
:10168D00EC9E4009D3ED9491EC940240077863EC05
:0E169D00F208EDF27863E2FE08E2FF020ECEE4
:100ECE007800EEF208EFF2D294C3945FEE940250E3
:100EDE00097F271214E57F328031D37801E2949195
:100EEE0018E2940240287F081214E57F461219ABCF
:100EFE007F121214E57F1E1219AB7F151214E57FB7
:100F0E001E1219AB7F0B1214E57F3C1219ABC29463
:0A0F1E00D2A01218E2C2A00218E2ED
:09047F00872300000000000000CA
:071C1F00C290D2A7C293227C
:10096A00782374C8F20874C1F2903000E49308F254
:10097A00903001E49308F2903002E49308F2903048
:0C098A0003E49308F2903004E49308F2B8
:10099600780674AAF2E418F2E47804F27806E2C261
:1009A600907D147C007F2E121426D2907806E225C4
:1009B600E0F27D187C007F281214267804E204F207
:1009C600E2C3940840D6780674AAF218E204F2E26A
:0709D600C3940140C3D2905D
:0109DD0022F7
:1012D000780974AAF2E418F2E47807F27809E2C215
:1012E000907D147C007F2E121426D2907809E2257E
:1012F000E0F27D187C007F281214267807E204F2C1
:10130000E2C3940440D6780974AAF218E204F2E227
:07131000C3940140C3D29019
:0113170022B3
:040DB300780AEFF2D9
:100DB700E408F2E4780CF2780BE22423F8E230E757
:100DC7000CC290780AE2FD7C007F24800AC29078EA
:100DD7000AE2FD7C007F17121426D290780BE224DA
:100DE70023F8C000E225E0D000F2780AE2FD7C009B
:100DF7007F14121426780CE204F2E2C3940840B779
:0B0E0700780BE204F2E2C3940340A861
:010E120022BD
:1015BC00780DEFF208ECF208EDF2D2937F141219C9
:1015CC00ABC2A7782374C8F20874E0F2780DE27805
:1015DC0025F2120996780E08E2FF120DB3D2A7D2AB
:0215EC00932248
:101588007810EFF208ECF208EDF2D2937F141219FA
:10159800ABC2A7782374C8F20874E0F27810E27836
:1015A80025F2120996781108E2FF120DB3C2A7C2FC
:0415B80093C2902228
:040F28007813EFF259
:100F2C00E408F2121C26903000E4937823F29030FF
:100F3C0001E49308F2903002E49308F2903003E459
:100F4C009308F2903004E49308F27813E27828F2D4
:100F5C00120996E47814F27BFE7A0079237D06124E
:100F6C0017041218AE7814E204F2E2C394A040E71E
:060F7C00121C33021916DD
:041318007815EFF263
:10131C00E408F2121B95903000E4937823F290309D
:10132C0001E49308F2903002E49308F2903003E465
:10133C009308F2903004E49308F27815E27828F2DE
:10134C001212D07BFE7A0079237D06121704C29309
:03135C000207F68F
:0411A1007817EFF2DA
:1011A500E408F2121B95903000E4937823F2903016
:1011B50001E49308F2903002E49308F2903003E4DE
:1011C5009308F2903004E49308F27817E27828F255
:1011D50012187A12187A12187A7BFE7A0079237D12
:0911E50006121704C2930207F67A
:10146500E47819F2903000937823F2903001E493F8
:1014750008F2903002E49308F2903003E49308F206
:10148500903004E49308F208EFF212187A12187AF1
:0E14950012187A7BFE7A0079237D0602170476
:051C2600D293C2A722C9
:0C1B95007F807E25121552D293C2A72239
:031C3300C2932237
:0907F600C2937FB07E040215528B
:10199400121C2612096A7BFE7A0079237D0812172D
:0719A400041218E2021C33DB
:10180000D293C2A77F807E2512155212096A7BFEF1
:0F1810007A0079237D081217041218E2C293227E
:100C170020910F789AE204F2C394784002E4F2C27A
:100C27000022200041D200789AE2FFD3942340109B
:100C3700EFD39450500A786AE225E0F254FE801010
:100C4700789AE2D394504014786AE225E0F244019E
:100C5700F27880E204F2E47899F280057899E20468
:100C6700F2E4789AF2227899E204F2C3943C4009BC
:0A0C7700E47880F2D2007875F222D2
:100C810030B00F789AE204F2C394784002E4F2C2E1
:100C91000022200041D200789AE2FFD39423401031
:100CA100EFD39450500A786AE225E0F254FE8010A6
:100CB100789AE2D394504014786AE225E0F2440134
:100CC100F27880E204F2E47899F280057899E204FE
:100CD100F2E4789AF2227899E204F2C3943C400952
:0A0CE100E47880F2D2007875F22268
:1013E5007880E264087039F2786AE2FF7875E2FE87
:1013F500246EF8EFF2EE700C786EE2B4C8067875DC
:101405007401F222EEB4010C786FE2B4E00678754F
:101415007402F222EEB40204D2058000E47875F27B
:0114250022A4
:0709DE00781AECF208EDF2BB
:1009E500782374C8F20874E0F208EFF2E4781CF298
:1009F500E4781DF2781CE22423F8E230E70DC2A367
:100A0500781AE2FC08E2FD7F24800BC2A3781AE283
:100A1500FC08E2FD7F17121426D2A3781CE22423DA
:100A2500F8C000E225E0D000F2781AE2FC08E2FD09
:100A35007F0F121426781DE204F2E2C3940840B435
:0B0A4500781CE204F2E2C3940340A519
:010A50002283
:070A5100781EECF208EDF243
:100A5800782374C8F20874E0F208EFF2E47820F220
:100A6800E47821F27820E22423F8E230E70DC2810D
:100A7800781EE2FC08E2FD7F24800BC281781EE22A
:100A8800FC08E2FD7F17121426D2817820E2242385
:100A9800F8C000E225E0D000F2781EE2FC08E2FD92
:100AA8007F0F1214267821E204F2E2C3940840B4BE
:0B0AB8007820E204F2E2C3940340A5A2
:010AC3002210
:10123A00E47822F2903000937823F2903001E4931C
:10124A0008F2903002E49308F2903003E49308F233
:10125A00903004E49308F208EFF2120996E4782237
:10126A00F27BFE7A0079237D061217041218AE78F3
:0A127A0022E204F2E2C3940A40E706
:011284002247
:0404880082300000BE
:10187A00783074FFF2087493F2783008E22401FF9A
:0A188A00F218E23400F24F70F02271
:10189400783074FDF20874E3F2783008E22401FF32
:0A18A400F218E23400F24F70F02257
:1018AE00783074FBF20874C7F2783008E22401FF36
:0A18BE00F218E23400F24F70F0223D
:1018C800783074FAF20874EFF2783008E22401FFF5
:0A18D800F218E23400F24F70F02223
:1018E200783074EAF20874E7F2783008E22401FFF3
:0A18F200F218E23400F24F70F02209
:1018FC00783074D5F20874CFF2783008E22401FF06
:0A190C00F218E23400F24F70F022EE
:101916007830742DF208740FF2783008E22401FF53
:0A192600F218E23400F24F70F022D4
:1019AB00AE071FEE60107C137D88ED1DAA0470013D
:0619BB001C4A60EC80F400
:0119C1002203
:07142600782AECF208EDF258
:10142D00E408F208F2EFFDC3782DE29D18E2940076
:10143D005025E4FEEEFDD3782BE29D7480F5F01877
:10144D00E2648095F040030E80EA782DE22401F2EB
:07145D0018E23400F280CE1A
:011464002265
:1017DE00E4FDFCC3ED9FEC9E5015E4FBFA0BBB0041
:0F17EE00010AEB64644A70F50DBD00010C80E444
:0117FD0022C9
:10194A00E4FDFCC3ED9FEC9E500EE4FB0BEBB404EC
:08195A00FB0DBD00010C80EB48
:011962002262
:0714A300782EEEF208EFF2D3
:1014AA00E4F9E4FAFBD3782FE29B18E29A40070B9F
:1014BA00BB00010A80EF09E9B432E7E4F920921689
:1014CA00E4FAFBC3EB9DEA9C50070BBB00010A80C0
:0614DA00F209E9B432E75B
:0114E00022E9
:10048C00C129C128823A000082380000813500C1A0
:0C049C002782320000823600008134000C
:10179C00200A09121AC5121AA7121AA7D229E4781C
:1017AC008EF27F141219ABE47884F2300A02C20A6A
:0117BC00220A
:1016D900D212C214E47888F2C21A7884F212191666
:1016E900121916121916121916201F02D296121A59
:0B16F900A7200A06121A531207FF2256
:0B1BD100C228C222C229D284D2832283
:0C1BA100301C08D216121AB6121A40228C
:10175800301A1E7888E204F2C3940F4014C21AE4C7
:10176800F27884F27898E27006200603121BC5C24C
:02177800062247
:10183E0030291A30A503302314788EE204F2C394B3
:0E184E0003400AE4F2C229200603121BC52241
:100FD800302022787FE204F2D3940A4018C220E439
:100FE800F2786CF208F27877F208F2C20EC20FC2F9
:060FF80010C211C2132219
:1019C200300912786BE2C39405500A7FC5120F28C2
:0619D200786BE204F22232
:1019D800302612789BE2C39405500A7FC4120F2860
:0619E800789BE204F222EC
:1019EE003021127862E2C39414500A7FC2120F287B
:0619FE007862E204F2220F
:091BFD00300D05C20D1211512238
:101A7900300B0CC20BE4788FF2C21CC216C20722CB
:10177A00301C1E789CE204F2D394024014E4788F61
:10178A00F2C21CC216C207789CF2121C33C296D24D
:02179A008522A6
:1017BD0020271D201B1A2002177865E204F2D3940E
:1017CD0006400D7407F2C212C21A200603121BC581
:0117DD0022E9
:100AC40020A503301F50C2A43081257839E22401C7
:100AD400F218E23400F2C308E2947018E29417406A
:100AE400247417F2087471F2E47835F2C220801588
:100AF400D37839E2943218E294004009E4F208F21F
:100B04007835E204F27835E2D394064016E4F2D262
:100B14002012000E800D20A50A7898E27005201F8F
:100B240002D2A430150CC215D217C22012135F12C0
:030B3400000E228E
:10151B0020A503301F307898E2702B301A28200654
:10152B002512115178987401F2C214E47888F2C232
:10153B001A7884F2D212120CEB1216D9C202C22301
:07154B00E47866F208F222C9
:100E730020A503301F063012033023457898E2641F
:100E830001703E201844201B41783BE22401F218F4
:100E9300E23400F2C308E294F418E29401402B30E8
:100EA300A506301203302322C296120E13E478985B
:100EB300F212179CC20DC214E47866F208F2C21F44
:0B0EC3002230A506E4783AF208F22283
:100BA80030800630800320A6217834E204F2C39412
:100BB80001401BE4F2D2187889F208F2D227783281
:100BC800F208F27866F208F28004E47834F2301819
:100BD8001D788908E22401FFF218E23400FEF2C30E
:100BE800EF94D0EE94074006C218E4F208F23027DA
:100BF8001D783208E22401FFF218E23400FEF2C345
:0F0C0800EF9410EE94274006C227E4F208F22280
:1015EE0030820DD21BE47893F208F27866F208F29C
:1015FE00301B1D789308E22401FFF218E23400FE3E
:10160E00F2C3EF94D0EE94074006C21BE4F208F248
:01161E0022A9
:10161F00783CEEF208EFF208ECF208EDF2EBFD7C0D
:10162F00007FC11209DED2A2C2A3783CE2FE08E21B
:0F163F00FF08E2FC08E2FD1214A3D2A2D2A322FC
:10164E007840EEF208EFF208ECF208EDF2EBFD7CDA
:10165E00007FC1120A51D2A2C2A37840E2FE08E274
:0F166E00FF08E2FC08E2FD1214A3C2A2C2A322ED
:0C1BAD00C2A2D2A31214A3D2A2D2A3227F
:0C1BB900C2A2D2A31214A3C2A2C2A32293
:10115100C222C228C209C226E47861F27883F278F9
:1011610076F2787CF208F27881F208F27891F2084E
:10117100F2787EF2788DF2C216C207C21C788FF225
:10118100C2197890F2C2017879F2C208C229788E28
:10119100F2C2217862F27898E27004D285C2962276
:0C1BC500D222D228E47861F27883F22268
:08000300C2A4121916D2A422B6
:10197C0075DCC07844E4F208741DF218E2FC08E24D
:08198C00FDECF5D1EDF5D922C7
:100D5100EF14601F1460311460432403705378440E
:100D6100E4F208740DF218E2FC08E2FDECF5D2EDB4
:100D7100F5DA2278447401F208E4F218E2FC08E2A0
:100D8100FDECF5D3EDF5DB227844E4F2087480F252
:100D910018E2FC08E2FDECF5D5EDF5DD227844E43E
:100DA100F2087440F218E2FC08E2FDECF5D6EDF52C
:020DB100DE2240
:081C0F00E4FF120D5102197CE3
:0708F5007846ECF208EDF279
:1008FC007E007C2B7D3312044CE47B0CFAF9F8124D
:10090C0003A6C3E49FFFE49E7848F2784AEFF2789E
:10091C0046E2FE08E2FFEE3395E0FDFCE47B0BFAC9
:10092C00F9F812031BE47B0CFAF9F81203A6C3E4E2
:10093C009FFFE49EAD07FF7849F2AE05784BEEF2CF
:10094C007589117848E2F58C784AE2F58A8F8D8E9C
:0D095C008BD2A9D28CD2ABD28ED2BBD2AF3F
:01096900226B
:0411EE0078A2EFF202
:1011F200E408F278A3E2FFC39402500A121285783F
:10120200A3E204F280ED78A2E2FF7E007C2B7D3324
:1012120012044CE47B0CFAF9F81203A6C3E49FFF14
:10122200E49EAD07FC7848F2784AEFF25389F04326
:071232008901121A89D2A9FB
:011239002292
:031C3600D2AF2208
:041C2B0043870122C8
:0F1A8900C28C784AE2F58A7848E2F58CD28C223A
:1015520053A2BF75985A758920AB07AA06E4F9F819
:101562007F807E70FDFC1203A61204388F8B8F8D54
:101572007F011211EEC299C298D2ACD28ED28CD215
:06158200A9D2BCD2AF2289
:081C17008F993099FDC299225A
:10170400784CEBF208EAF208E9F2AF051DEF601A33
:10171400784CE2FB0808E2F92401F218E2FA3400FA
:0B172400F2120302FF121C1780E022EB
:0304A800814F0180
:0414E100D2947F041E
:0414E50078A2EFF208
:1014E900D2A01218E2C2A01218E2E478A3F278A2FC
:1014F900E2FF08E2C39F5019D2A17F147E0012199E
:101509004AC2A17F147E0012194A78A3E204F2802C
:01151900DDF4
:01151A0022AE
:10196300C294C2A1D2A07F5E7E0112194AC2A07F97
:091973005E7E0112194AC29422A1
:0107FF0022D7
:0B1BDC001214E17F501219ABC29422DA
:0F1A9800D2947F181214E57F011219ABC2942269
:0F1AA700D2947F1A1214E57F1E1219ABC294223B
:10000E00D294E47886F27F1B1214E57F1E1219AB90
:05001E00C294C217228C
:101A2D00D2947F021214E57F321219ABC2947F1E3D
:031A3D000219ABE0
:0B1BE7001214E17F8C1219ABC2942293
:0F1AB600D2947F181214E57F641219ABC29422E8
:101A4000D2947F191214E57FB41219ABC2947F149B
:031A50000219ABCD
:101A5300D294E47886F27F161214E57F3C1219AB18
:031A6300C2942208
:0F1AC500D2947F171214E57F3C1219ABC2942202
:0F1AD400D2947F0F1214E57F641219ABC29422D3
:0F1AE300D2947F1C1214E57F781219ABC29422A3
:0F1AF200D2947F151214E57F961219ABC294227D
:0F1B0100D2947F061214E57F501219ABC29422C2
:0F1B1000D2947F051214E57F321219ABC29422D2
:0B1BF2001214E17FB41219ABC2942260
:0F1B1F00D2947F031214E57F8C1219ABC294226B
:0F1B2E00D2947F021214E57F781219ABC2942271
:0F1B3D00D2947F0B1214E57F501219ABC2942281
:0F1B4C00D2947F071214E57F321219ABC2942294
:0F1B5B00D2947F081214E57F501219ABC2942266
:0F1B6A00D2947F0C1214E57F501219ABC2942253
:0F1B7900D2947F0D1214E57F501219ABC2942243
:031C3900021AA7E5
:10181F007897E204F2D3940340147405F2301D0E4E
:0F182F00201C0B200908202605202102C21D22A3
:091C0600302405C22412000E2254
:101A660075AF30C2AF75C7AA75C755439F01D2AFD0
:031A760002193C16
:101A190075AF3012193CC2AF75C7AA75C755539F28
:041A2900FED2AF2218
:0C193000E2FC08E2FDECF5A7AF058FA675
:0E193C00C2AF75C7AA75C75543A401D2AF222A
:101A0400789DEEF208EFF2121A6675AF22789D12F5
:051A14001930021A194F
:0616AB007870E2FD7E30C4
:1016B100789DEEF208EFF208EDF2121A6675AF218D
:1016C100789DE2FC08E2FDECF5A7AF058FA608E2E4
:0816D100F5AE12193C021A19D2
:07185C007850EEF208EFF2F4
:10186300121A66E4F5AF785012193008E5AEF21299
:061873001A197852E2FF91
:01187900224C
:10135F007F007E30121A04786EE2FD7F007E30121D
:10136F0016B1786FE2FD7F017E301216B17F021247
:10137F0016AB7871E2FD7F037E301216B17872E200
:10138F00FD7F047E301216B17873E2FD7F057E304B
:03139F000216B182
:1013A2007F007E30121A047F001216AB7871E2FDC4
:1013B2007F017E301216B17872E2FD7F027E30121A
:1013C20016B17873E2FD7F037E301216B17874E2B3
:1013D200FD7F047E301216B17875E2FD7F057E3006
:0313E2000216B13F
:0904AB00C12BC12AC12C815700AC
:031C3C00020E1382
:100CEB00D2A753B1FB53B2FBC282120F82D2A2C264
:100CFB00A31210ACD2A2D2A3E4789DF2302A2DC25B
:100D0B002A1218FCC2A2D2A3121916121916121902
:100D1B0016121916D2A2D2A31218FC1218FC120F1B
:100D2B0082D2A2C2A31210ACD2A2D2A3789DE204AB
:100D3B00F2E2C3940740C5D28243B10453B2FBC263
:050D4B002AD285C2A7B9
:010D50002280
:100E1300D2A7D285D2A4C296120F82C2A2C2A312B3
:100E230018FCC2A2D2A3121100D2A2D2A3C22CE4F4
:100E3300789DF2302A2AC22A1218FC120F82D2A2FB
:100E4300C2A3121916121916121916121916D2A2C2
:100E5300D2A31218FCC2A2D2A3121100D2A2D2A30F
:0F0E6300789DE204F2E2C3940740C8C22AC2A7F6
:010E7200225D
:100F8200782374C8F20874E0F20874C1F2E4789E1F
:100F9200F2E4789FF2789EE22423F8E230E707C277
:100FA200A31218C88005C2A3121894D2A3789EE295
:100FB2002423F8C000E2FF25E0D000F21218947852
:100FC2009FE204F2E2C3940840CB789EE204F2E28C
:050FD200C3940340BCC4
:010FD70022F7
:10100000782374C8F20874E0F20874C2F2E47853EA
:10101000F2E47854F27853E22423F8E230E707C28E
:10102000901218C88005C290121894D2907853E29A
:101030002423F8C000E2FF25E0D000F212189478D3
:1010400054E204F2E2C3940840CB7853E204F2E2A3
:05105000C3940340BC45
:011055002278
:10105600782374C8F20874E0F20874C3F2E4785591
:10106600F2E47856F27855E22423F8E230E707C234
:10107600901218C88005C290121894D2907855E242
:101086002423F8C000E2FF25E0D000F2121894787D
:1010960056E204F2E2C3940840CB7855E204F2E249
:0510A600C3940340BCEF
:0110AB002222
:1010AC001218FC1218FC1218FC1218FCE4789EF2B0
:1010BC0008F2309202D22A202A031218AE789FE24C
:1010CC002401F218E23400F2C308E2942318E294EB
:1010DC000040DF202A1512191612191612191612B1
:1010EC001916121916121916121916302A057857D4
:0310FC00E204F219
:0110FF0022CE
:101100001218FC1218FC1218FC1218FCE4789EF25B
:1011100008F2309202D22A202A031218AE789FE2F7
:101120002401F218E23400F2C308E2942318E29496
:101130000040DF202A12121916121916121916125F
:101140001916121916121916302A057857E204F2E8
:01115000227C
:0304B400815D0067
:100B3700E47859F27859E2FFC39405505EEF75F0F7
:100B470008A4242DF8E6604C7859E2FF75F008A454
:100B5700242CF8E6D39400403BEF75F008A4242634
:100B6700F8E6FE08E6AA06F91204467859E2FF7588
:100B7700F008A4242CF816EF75F008A4242AF8E648
:100B8700FE08E64E700E7859E275F008A42426F8A0
:100B9700E4F608F67859E204F28099120FFE021C77
:010BA7002F1E
:07080000785AEEF208EFF256
:10080700E4FFEF75F008A42426F8E6F58308E6452B
:10081700836009EFC3940550030F80E6EFB4050822
:10082700785D7401F27F0522785AE2F58308E2F5D4
:1008370082EF75F008A42426F8A68308A682EF7530
:10084700F008A42428F8A60408A605AC02AD03EF17
:1008570075F008A4242AF8A60408A605A22DE433F7
:10086700FEEF75F008A4242DF8A606EF75F008A48E
:05087700242CF8E4F65A
:01087C002259
:10128500EF75F008A42426F8E6FC08E64C7009780A
:101295005D7402F2D22E8002C22EEF75F008A424EE
:1012A50026F8E4F608F6EF75F008A42428F8E4F625
:1012B50008F6EF75F008A4242AF8E4F608F6EF75A9
:0A12C500F008A4242CF8E4F6A22E91
:0112CF0022FC
:010FFE0022D0
:041C2F0043870122C4
:1006A800E4785CF2785CE2FFC394054002E169EF0C
:1006B80075F008A42426F8E6FE08E64E7002E1620A
:1006C800785CE2FF75F008A42428F8E6FC08E64CFC
:1006D8007077EF75F008A4242DF8E6600D785CE2D9
:1006E80075F008A4242CF806803D785CE275F008C3
:1006F800A42426F8E6FE08E6AA06F9120446785C61
:10070800E2FF75F008A4242CF816EF75F008A4246D
:100718002AF8E6FE08E64E700E785CE275F008A44A
:100728002426F8E4F608F6785CE2FF75F008A424BD
:100738002AF8E6FC08E6FD4C6020EF75F008A424D2
:1007480028F8A60408A6058011785CE275F008A4CC
:100758002428F808E61618700116785CE204F2C13D
:01076800ACE4
:01076900226D
:1004B700C11A818400C116C122C11CC119818F00D4
:1004C700819000C109C12681760082810000818D5B
:1004D70000817E0082910000C101816100827C0061
:1004E70000818300819B00816B00828B0000876EF7
:1004F70000000000000000C105817500816A0081CD
:100507008000C180819900819A00818700818500E0
:1005170082950000C104819800827A000082630FEF
:10052700FF817900C121816200C10382680000C197
:100537001882890000C108818800818E00C107C127
:100547001B82930000C10DC11FC11E818600826CF2
:10055700000082770000C10EC10FC110C111C11385
:10056700C120817F00C115C10AC117819700C11D34
:10057700C10CC106C124C112816500C114819C0050
:0C058700C10BC182C125C12382660000A7
:10172F00121963121AA77F807E25121552121BD130
:10173F00121C1F43B10653B2F943B52053B6DFD283
:09174F00A4C296D285C2A780FE57
:03000B00020026CA
:10002600C0E0C0F0C083C082C0D075D000C000C0A0
:1000360001C002C003C004C005C006C0077848E27C
:10004600F58C784AE2F58A788B08E22401FFF218EB
:10005600E23400FEF2C3EF94D0EE94074069E4F276
:1000660008F2786608E22401FFF218E23400FEF294
:10007600C3EF9423EE94004005202302D2233028B8
:100086001C20810CD21CD219789CE4F2D208800D77
:1000960030810A300807D20BC208121AA7301E0F89
:1000A6007886E204F2E2D394024004E4F2C29412A7
:1000B6001B8812181F12175812183E121BA1121A6B
:1000C6007912177A120FD8121C06120AC4120BA83C
:1000D6001215EE121BFD12151B120E73302505C2EA
:1000E60025121A98202802415D7861E214605114A5
:1000F6007002219A14700221F224036002414F30EB
:10010600800630800320A63220162F20172C7883F5
:10011600E204F2C394015002414FE4F2787CF20803
:10012600F2786104F2D296C285121A2D12191612AD
:100136001916121916121916414F7883E4F2414F17
:1001460030800630800320A6207876E204F2C3943D
:1001560001401AE4F278617402F27881E4F208F25E
:10016600D296C285121A2D80047876E4F2787C083D
:10017600E22401FFF218E23400FEF2C3EF9440EEEF
:10018600941F5002414F7861E4F27876F27883F258
:10019600787C805330800630800320A620787EE26B
:1001A60004F2C39402401AE4F278617403F278818F
:1001B600E4F208F2D296C285121BE78004787EE448
:1001C600F2788108E22401FFF218E23400FEF2C35D
:1001D600EF9440EE941F40717861E4F2787EF278F5
:1001E60076F27883F27881F208F280593080063010
:1001F600800320A61B787EE204F2C394034015E434
:10020600F2D21CD219D207789CF2D296C28580040B
:10021600787EE4F2788108E22401FFF218E23400E5
:10022600FEF2C3EF9440EE941F401E7861E4F2782C
:1002360083F27876F2787CF208F27881F208F27826
:100246007EF2201C04C296D285C3787AE2940150CD
:1002560004D2218002C2213022422084137885E212
:1002660004F2B40A16D226C20920040FD201800B6A
:10027600C226789BE4F27885F2C201208313788740
:10028600E204F2B40A16D209C22620040FD2018073
:100296000BC209786BE4F27887F2C201300142782A
:1002A6009508E22401FFF218E23400FEF2C3EF944F
:1002B600A0EE940F402BC201E4F208F2D20478615A
:1002C600F27883F27876F2787CF208F27881F20896
:1002D600F278917403F2087420F2787EE4F2788D55
:1002E600F2D007D006D005D004D003D002D001D07A
:0C02F60000D0D0D082D083D0F0D0E03215
:030023000205943F
:10059400C0E0C0F0C083C082C0D075D000C000C02D
:1005A40001C002C003C004C005C006C007209802F1
:1005B400C18DC2987875E2FF246EF8E599F2302077
:1005C40002C17FEF701290300093FF786EE2B5079E
:1005D4000778757401F2C18D7875E2B40113903017
:1005E40001E493FF786FE2B5070778757402F2C1EE
:1005F4008D7875E2FFB40213903002E493FE7870B4
:10060400E2B5060778757403F2807EEFB4031390A5
:100614003003E493FF7871E2B5070778757404F248
:1006240080677875E2B40413903004E493FF787221
:10063400E2B5070778757405F2804E7875E26405B3
:10064400703390300593FF7873E26F70287875F2F9
:10065400D21A7888F2D20D121C397884E204F27826
:1006640084E204F2C3940B4020B21FD21AD224C2F3
:100674000AE4F280147875E4F2800E7875E204F2EC
:10068400C394064004E4F2D215D007D006D005D0B6
:1006940004D003D002D001D000D0D0D082D083D0F7
:0406A400F0D0E03280
:0300000002076A8A
:0C076A00787FE4F6D8FD75814D0207B1E0
:10030200BB010689828A83E0225002E722BBFE02F9
:09031200E32289828A83E493222C
:10031B00E88FF0A4CC8BF0A42CFCE98EF0A42CFC81
:10032B008AF0EDA42CFCEA8EF0A4CDA8F08BF0A4FF
:10033B002DCC3825F0FDE98FF0A42CCD35F0FCEB5E
:10034B008EF0A4FEA9F0EB8FF0A4CFC5F02ECD3923
:0F035B00FEE43CFCEAA42DCE35F0FDE43CFC2290
:10036A0075F008758200EF2FFFEE33FECD33CDCC4A
:10037A0033CCC58233C5829BED9AEC99E5829840CD
:10038A000CF582EE9BFEED9AFDEC99FC0FD5F0D6AA
:10039A00E4CEFBE4CDFAE4CCF9A88222B800C1B9D4
:1003AA000059BA002DEC8BF084CFCECDFCE5F0CB12
:1003BA00F97818EF2FFFEE33FEED33FDEC33FCEB4B
:1003CA0033FB10D703994004EB99FB0FD8E5E4F906
:1003DA00FA227818EF2FFFEE33FEED33FDEC33FCF3
:1003EA00C933C910D7059BE99A4007EC9BFCE99AE7
:1003FA00F90FD8E0E4C9FAE4CCFB2275F010EF2F2C
:10040A00FFEE33FEED33FDCC33CCC833C810D7072B
:10041A009BEC9AE899400AED9BFDEC9AFCE899F866
:0E042A000FD5F0DAE4CDFBE4CCFAE4C8F922F9
:0E043800C3E49FFFE49EFEE49DFDE49CFC22D5
:060446008A838982E47341
:10044C00EC8EF0A4CCC5F0CCCDF8EFA4CEC5F02D3D
:10045C00FDE43CFCE8A42EC8C5F03DFDE43CFCEFFB
:0D046C00A4FFE5F028FEE43DFDE43CFC2289
:1007760002172FE493A3F8E493A34003F68001F253
:1007860008DFF48029E493A3F85407240CC8C33384
:10079600C4540F4420C8834004F456800146F6DF53
:1007A600E4800B0102040810204080900479E47E66
:1007B600019360BCA3FF543F30E509541FFEE49348
:1007C600A360010ECF54C025E060A840B8E493A30F
:1007D600FAE493A3F8E493A3C8C582C8CAC583CA3A
:1007E600F0A3C8C582C8CAC583CADFE9DEE780BEF2
:010593000067
:00000001FF
