:10094300E4FAEF6405703343F620C2F8C2F9D2FA31
:1009530043E180C2FCD2FBADF8EDC413135403FD95
:10096300AFE2AB07EB7E007802C333CE33CED8F9C8
:100973007C002DFBEC3EAF03FE22EF640670354393
:10098300F640D2F8C2F9D2FA43E180C2FCD2FBAD01
:10099300F8EDC413135403FDAFE27A00AB07EB7E0B
:1009A300007802C333CE33CED8F97C002DFBEC3E66
:0709B300FEAF0322E4FEFF8A
:0109BA00221A
:0305330081000044
:0D180E007F061209437855EEF208EFF22232
:1006E0007877EEF208EFF2C3941BEE9403400CD23D
:1006F000947F121210FC7F3C02077F7877E2FE089D
:10070000E2FFC3941BEE94035014C3EF940CEE94D9
:1007100003400BD2947F081210FC7F6480617877CD
:10072000E2FE08E2C3940CEE94035011C3EE94036E
:10073000400BD2947F071210FC7F6480427877E2EE
:10074000FE08E2FFC3EE94035014C3EF94F5EE9459
:1007500002400BD2947F061210FC7F6480217877D0
:10076000E2FE08E2FFC394F5EE94025018C3EF9442
:10077000E1EE9402400FD2947F051210FC7F6412C8
:1007800015B4C29422C37878E294E118E29402503E
:05079000031216C72250
:090536008717000000000000001E
:09183200C290D2A7C293C2A62203
:100E6800787B74AAF2E418F2E47879F2787BE2C22B
:100E7800907D147C007F2E121049D290787BE22559
:100E8800E0F27D187C007F281210497879E204F29C
:100E9800E2C3940840D6787B74AAF218E204F2E21E
:070EA800C3940340C3D29084
:010EAF002220
:100EB000780374AAF2E418F2E47801F27803E2C24B
:100EC000907D147C007F2E121049D2907803E22589
:100ED000E0F27D187C007F281210497801E204F2CC
:100EE000E2C3940640D6780374AAF218E204F2E250
:070EF000C3940240C3D2903D
:010EF70022D8
:040CBD007804EFF2D6
:100CC100E408F2E47806F27805E22417F8E230E766
:100CD1000CC2907804E2FD7C007F24800AC29078E7
:100CE10004E2FD7C007F17121049D2907805E224BE
:100CF10017F8C000E225E0D000F27804E2FD7C00A4
:100D01007F141210497806E204F2E2C3940840B756
:0B0D11007805E204F2E2C3940340A85E
:010D1C0022B4
:101166007807EFF208ECF208EDF2D2937F1412152D
:10117600B4C2A7781774C8F20874E0F27807E27868
:1011860019F2120E68780808E2FF120CBDD2A7D237
:021196009322A2
:10113200780AEFF208ECF208EDF2D2937F1412155E
:10114200B4C2A7781774C8F20874E0F2780AE27899
:1011520019F2120E68780B08E2FF120CBDC2A7C288
:0411620093C2902282
:040D1D007877EFF202
:100D2100E408F212185D903000E4937817F29030E5
:100D310001E49308F2903002E49308F2903003E466
:100D41009308F2903004E49308F27877E2781CF289
:100D5100120E68E47878F27BFE7A0079177D06122C
:100D610012E21214E97878E204F2E2C3941E40E739
:030D710002186203
:040F3F00780DEFF248
:100F4300E408F212185D903000E4937817F29030C1
:100F530001E49308F2903002E49308F2903003E442
:100F63009308F2903004E49308F2780DE2781CF2CF
:100F7300120EB07BFE7A0079177D061212E2021878
:010F8300620B
:05185D00D293C2A72296
:05186200D2A7C2932291
:100F840012185D781774C8F20874C1F2903000E446
:100F94009308F2903001E49308F2903002E493084D
:100FA400F2903003E49308F2903004E49308F212D0
:100FB4000E687BFE7A0079177D071212E212150380
:030FC400021862AE
:100B870020910F7874E204F2C394784002E4F2C231
:100B97000022200041D2007874E2FFD39423401052
:100BA700EFD39450500A7845E225E0F254FE8010C6
:100BB7007874E2D3945040147845E225E0F244017A
:100BC700F2785BE204F2E47873F280057873E2046A
:100BD700F2E47874F2227873E204F2C3943C400999
:0A0BE700E4785BF2D2007850F222AD
:100BF10030B00F7874E204F2C394784002E4F2C298
:100C01000022200041D2007874E2FFD394234010E7
:100C1100EFD39450500A7845E225E0F254FE80105B
:100C21007874E2D3945040147845E225E0F244010F
:100C3100F2785BE204F2E47873F280057873E204FF
:100C4100F2E47874F2227873E204F2C3943C40092E
:0A0C5100E4785BF2D2007850F22242
:100FC700785BE264087039F27845E2FF7850E2FE18
:100FD7002449F8EFF2EE700C7849E2B4C80678506D
:100FE7007401F222EEB4010C784AE2B4E0067850BC
:100FF7007402F222EEB40204D2058000E47850F2C3
:0110070022C6
:070A3000780FECF208EDF273
:100A3700781774C8F20874E0F208EFF2E47811F25C
:100A4700E47812F27811E22417F8E230E70DC2A336
:100A5700780FE2FC08E2FD7F24800BC2A3780FE247
:100A6700FC08E2FD7F17121049D2A37811E2241780
:100A7700F8C000E225E0D000F2780FE2FC08E2FDC2
:100A87007F0F1210497812E204F2E2C3940840B4CF
:0B0A97007811E204F2E2C3940340A5D2
:010AA2002231
:070AA3007813ECF208EDF2FC
:100AAA00781774C8F20874E0F208EFF2E47815F2E5
:100ABA00E47816F27815E22417F8E230E70DC281DD
:100ACA007813E2FC08E2FD7F24800BC2817813E2EE
:100ADA00FC08E2FD7F17121049D2817815E224172B
:100AEA00F8C000E225E0D000F27813E2FC08E2FD4B
:100AFA007F0F1210497816E204F2E2C3940840B458
:0B0B0A007815E204F2E2C3940340A55A
:010B150022BD
:04053F008220000016
:1014B500782074FFF2087493F2782008E22401FF83
:0A14C500F218E23400F24F70F0223A
:1014CF00782074FDF20874E3F2782008E22401FF1B
:0A14DF00F218E23400F24F70F02220
:1014E900782074FBF20874C7F2782008E22401FF1F
:0A14F900F218E23400F24F70F02206
:10150300782074EAF20874E7F2782008E22401FFF5
:0A151300F218E23400F24F70F022EB
:10151D00782074D5F20874CFF2782008E22401FF08
:0A152D00F218E23400F24F70F022D1
:101537007820742DF208740FF2782008E22401FF56
:0A154700F218E23400F24F70F022B7
:1015B400AE071FEE60107C137D88ED1DAA04700138
:0615C4001C4A60EC80F4FB
:0115CA0022FE
:07104900787CECF208EDF2E7
:10105000E408F208F2EFFDC3787FE29D18E2940005
:101060005025E4FEEEFDD3787DE29D7480F5F01806
:10107000E2648095F040030E80EA787FE22401F27A
:0710800018E23400F280CEFB
:011087002246
:10140700E4FDFCC3ED9FEC9E5015E4FBFA0BBB001B
:0F141700010AEB64644A70F50DBD00010C80E41E
:0114260022A3
:10156B00E4FDFCC3ED9FEC9E500EE4FB0BEBB404CF
:08157B00FB0DBD00010C80EB2B
:011583002245
:07108800781EEEF208EFF202
:10108F00E4F9E4FAFBD3781FE29B18E29A40070BCE
:10109F00BB00010A80EF09E9B432E7E4F9209216A8
:1010AF00E4FAFBC3EB9DEA9C50070BBB00010A80DF
:0610BF00F209E9B432E77A
:0110C5002208
:04054300C124C123EB
:1013C500200A09121712D21DE47871F2D224E478AA
:1013D50068F27F141215B4E4785FF2300A02C20A8B
:0113E50022E5
:10135C00D212C214E47862F2C21A785FF2200A1335
:10136C0012170320020A7840E2FE08E2FF1206E0A0
:04137C0012187222AF
:0B182700C223C220C224D284D283223C
:10158400301C14D2161216F42008047FC380027F84
:08159400C6120D1D12164B22B8
:1013A300301A1E7862E204F2C394044014C21AE4B1
:1013B300F2785FF27872E2700620060312181BC2FD
:0213C300062200
:10147F0030241720A4147868E204F2C39403400ABE
:0B148F00E4F2C22420060312181B2206
:10133600301E22785AE204F2D3940A4018C21EE400
:10134600F27847F208F27852F208F2C20EC20FC2E1
:0613560010C211C21322B7
:1015E2003009127846E2C39405500A7FC5120D1DD8
:0615F2007846E204F2223B
:1015F8003022127875E2C39405500A7FC4120D1D7B
:061608007875E204F222F5
:10160E00301F12783FE2C39405500A7FC2120D1D9F
:06161E00783FE204F22215
:09183B00300D05C20D120EF82259
:1016B700300B0CC20BE47869F2C21CC216C20722B7
:10142700301C1A7876E204F2D394054010E4786908
:0E143700F2C21CC216C2077876F212186222A8
:1013E60020181D201B1A2002177842E204F2D3941B
:1013F60003400D7405F2C212C21A20060312181B0E
:0114060022C3
:1007950020A40302082030813EE47852F208F27862
:1007A5004708E22401FFF218E23400FEF2D3EF9489
:1007B500A0EE940F4013740FF20874A2F2C20EC299
:1007C5000FC210C211C2138052D20E300F02D210C6
:1007D500301148D2138044E47847F208F2300E0213
:1007E500D20F301002D211301307D21EC2131216C7
:1007F50084785208E22401FFF218E23400FEF2D3B5
:10080500EF94A0EE940F4013740FF20874A2F2C295
:100815000EC20FC210C211C213C21E301516C21568
:10082500D217C20EC20FC210C211C213C21E120DC0
:05083500CA1216842226
:10130D0030A4257872E27020301A1D120EF8787212
:10131D007401F2C214E47862F2C21A785FF2D2124A
:09132D001216A612135CC2022282
:1012B70030A4032012247872E26401701D20181AEA
:1012C700201B171214B530A40320120E121800E4C5
:0B12D7007872F21213C5C20DC214227F
:10125C00308003208708D218E47863F208F2301843
:10126C001D786308E22401FFF218E23400FEF2C399
:0F127C00EF94D0EE94074006C218E4F208F22275
:10128B00308208D21BE4786DF208F2301B1D786DAA
:10129B0008E22401FFF218E23400FEF2C3EF94D00F
:0C12AB00EE94074006C21BE4F208F22299
:1011CA007822EEF208EFF208ECF208EDF2EBFD7C81
:1011DA00007FC1120A30D2A2C2A37822E2FE08E23C
:1011EA00FF08E2FC08E2FD121088D2A2D2A3C2854F
:0111FA0022D2
:1011FB007826EEF208EFF208ECF208EDF2EBFD7C4C
:10120B00007FC1120AA3D2A2C2A37826E2FE08E293
:10121B00FF08E2FC08E2FD121088C2A2C2A3C2853D
:01122B0022A0
:0E17E400D285C2A2D2A3121088D2A2D2A32212
:0E17F200D285C2A2D2A3121088C2A2C2A32224
:100EF800C220C223C209C222E4783EF2785EF278A8
:100F080051F27857F208F2785CF208F2786BF2083E
:100F1800F27859F27867F2C216C207C21C7869F2F1
:100F2800C219786AF2C2017854F2C208C2247868F9
:070F3800F2C21F783FF22214
:0C181B00D220D223E4783EF2785EF22264
:08000300C2A4121537D2A42299
:10159C0075DCC0782AE4F208741DF218E2FC08E24B
:0815AC00FDECF5D1EDF5D922AB
:100C5B00EF14601F14603114604324037053782A1F
:100C6B00E4F208740DF218E2FC08E2FDECF5D2EDAB
:100C7B00F5DA22782A7401F208E4F218E2FC08E2B1
:100C8B00FDECF5D3EDF5DB22782AE4F2087480F263
:100C9B0018E2FC08E2FDECF5D5EDF5DD22782AE44F
:100CAB00F2087440F218E2FC08E2FDECF5D6EDF523
:020CBB00DE2237
:08184D00E4FF120C5B02159C84
:0709BB00782CECF208EDF2CC
:1009C2007E007C2B7D3312039FE47B0CFAF9F81234
:1009D20002F9C3E49FFFE49E782EF27830EFF278BA
:1009E2002CE2FE08E2FFEE3395E0FDFCE47B0BFA1D
:1009F200F9F812026EE47B0CFAF9F81202F9C3E478
:100A02009FFFE49EAD07FF782FF2AE057831EEF23C
:100A1200758911782EE2F58C7830E2F58A8F8D8E09
:0D0A22008BD2A9D28CD2ABD28ED2BBD2AF78
:010A2F0022A4
:101380007E007C2B7D3312039FE47B0CFAF9F8126C
:1013900002F9C3E49FFFE49E782EF27830EFF275F5
:0213A0008921A1
:0113A2002228
:041867004387012290
:1010C60053A2BF75985A758920AB07AA06E4F9F8AA
:1010D6007F807E70FDFC1202F912038B8F8B8F8D41
:1010E6007F01121380C299C298D2ACD28ED28CD212
:0610F600A9D2BCD2AF221A
:081855008F993099FDC2992220
:1012E2007879EBF208EAF208E9F2AF051DEF601A2D
:1012F2007879E2FB0808E2F92401F218E2FA3400F4
:0B130200F2120255FF12185580E02285
:03054700813201FD
:0410FC007880EFF217
:10110000C2A0121503D2A0121503E47881F27880F0
:10111000E2FF08E2C39F5019D2A17F147E0012158E
:101120006BC2A17F147E0012156B7881E204F280FD
:01113000DDE1
:01113100229B
:10149A00C294C2A1C2A07F5E7E0112156BD2A07F48
:0B14AA005E7E0112156BD294C29422EA
:011872002253
:0F16C700D2947F041210FC7F501215B4C29422EB
:0F16D600D2947F181210FC7F1E1215B4C29422FA
:10168400D2947F191210FC7F1E1215B4C294C21793
:011694002233
:10163800D2947F021210FC7F5A1215B4C2947F1EF6
:031648000215B4D4
:0F16E500D2947F111210FC7F8C1215B4C2942284
:0F16F400D2947F0E1210FC7F281215B4C29422DC
:10164B00D2947F031210FC7FB41215B4C2947F1492
:03165B000215B4C1
:0F170300D2947F0F1210FC7F3C1215B4C29422B7
:0F171200D2947F101210FC7F3C1215B4C29422A7
:0F172100D2947F0D1210FC7F641215B4C2942273
:0F173000D2947F141210FC7F781215B4C2942249
:0F173F00D2947F131210FC7F961215B4C294221D
:0F174E00D2947F091210FC7F501215B4C294225E
:0F175D00D2947F071210FC7F321215B4C294226F
:0F176C00D2947F051210FC7F961215B4C29422FE
:0F177B00D2947F031210FC7F8C1215B4C29422FB
:0F178A00D2947F021210FC7F781215B4C2942201
:0F179900D2947F0B1210FC7F501215B4C2942211
:0F17A800D2947F0B1210FC7F321215B4C2942220
:0F17B700D2947F0F1210FC7F501215B4C29422EF
:0F17C600D2947F0C1210FC7F501215B4C29422E3
:0F17D500D2947F0D1210FC7F501215B4C29422D3
:101695007872E2700B2012082014051216D6D214A7
:0116A5002222
:101198007871E204F2D3940340277405F2301D21DC
:1011A800201C1E20091B202218201F157855E2FE3E
:1011B80008E2FF7840EEF2FE08EFF2FF1206E0C206
:0211C8001D22E6
:09184400302105C2211216842294
:10165E0075AF30C2AF75C7AA75C755439F01D2AFDC
:03166E0002155D05
:1016240075AF3012155DC2AF75C7AA75C755539F04
:04163400FED2AF2211
:0C155100E2FC08E2FDECF5A7AF058FA658
:0E155D00C2AF75C7AA75C75543A401D2AF220D
:10000E007877EEF208EFF212165E75AF227877125D
:05001E0015510216243B
:08122C00784B7F00E2FD7E30EB
:101234007877EEF208EFF208EDF212165E75AF2140
:101244007877E2FC08E2FDECF5A7AF058FA608E28B
:08125400F5AE12155D0216242F
:071445007833EEF208EFF22C
:10144C0012165EE4F5AF783312155108E5AEF212C0
:06145C0016247835E2FFC2
:011462002267
:100DCA007F007E3012000E12122C784C7F01121214
:100DDA0030784DE2FD7F027E30121234784EE2FD09
:100DEA007F037E30121234784FE2FD7F047E301288
:100DFA0012347850E2FD7F057E301212347849E2CF
:100E0A00FD7F067E30121234784AE2FD7F077E307B
:030E1A000212348D
:101008007F007E3012000E12122C784CE2FD7F0118
:101018007E30121234784DE2FD7F027E3012123497
:10102800784EE2FD7F037E30121234784FE2FD7F66
:10103800047E301212347850E2FD7F057E300212B1
:011048003473
:03186F000218005C
:1016A600120D74D2A2C2A3121671D2A2D2A3C285FF
:0116B6002211
:0E180000D285C2A2D2A3121463D2A2D2A32216
:100D7400781774C8F20874E0F20874C1F2E4787762
:100D8400F2E47878F27877E22417F8E230E707C2E1
:100D9400A31214E98005C2A31214CFD2A37877E278
:100DA4002417F8C000E2FF25E0D000F21214CF7837
:100DB40078E204F2E2C3940840CB7877E204F2E2EA
:050DC400C3940340BCD4
:010DC9002207
:10167100121537121537121537121537209203122A
:03168100153722F8
:101463001215371215371215371215371215371291
:0C1473001537209206121537121537228B
:03054A00813A00F3
:100B1600E47836F27836E2FFC39405505EEF75F05E
:100B260008A4242CF8E6604C7836E2FF75F008A499
:100B3600242BF8E6D39400403BEF75F008A4242557
:100B4600F8E6FE08E6AA06F91203997836E2FF757A
:100B5600F008A4242BF816EF75F008A42429F8E66B
:100B6600FE08E64E700E7836E275F008A42425F8E5
:100B7600E4F608F67836E204F28099121873021841
:010B86006B03
:0708C6007837EEF208EFF2B3
:1008CD00E4FFEF75F008A42425F8E6F58308E64566
:1008DD00836009EFC3940550030F80E6EFB405085C
:1008ED00783A7401F27F05227837E2F58308E2F554
:1008FD0082EF75F008A42425F8A68308A682EF756B
:10090D00F008A42427F8A60408A605AC02AD03EF51
:10091D0075F008A42429F8A60408A605A225E43339
:10092D00FEEF75F008A4242CF8A606EF75F008A4C8
:05093D00242BF8E4F694
:010942002292
:100E1D00EF75F008A42425F8E6FC08E64C70097877
:100E2D003A7402F2D2268002C226EF75F008A4248D
:100E3D0025F8E4F608F6EF75F008A42427F8E4F693
:100E4D0008F6EF75F008A42429F8E4F608F6EF7516
:0A0E5D00F008A4242BF8E4F6A22606
:010E67002268
:011873002252
:04186B00438701228C
:10061B00E47839F27839E2FFC3940540030206DF30
:10062B00EF75F008A42425F8E6FE08E64E700302E9
:10063B0006D77839E2FF75F008A42427F8E6FC0802
:10064B00E64C7077EF75F008A4242CF8E6600D7873
:10065B0039E275F008A4242BF806803D7839E27551
:10066B00F008A42425F8E6FE08E6AA06F912039979
:10067B007839E2FF75F008A4242BF816EF75F00813
:10068B00A42429F8E6FE08E64E700E7839E275F0E0
:10069B0008A42425F8E4F608F67839E2FF75F0088B
:1006AB00A42429F8E6FC08E6FD4C6020EF75F00861
:1006BB00A42427F8A60408A60580117839E275F062
:1006CB0008A42427F808E616187001167839E204F6
:0406DB00F202061F02
:0106DF0022F8
:10054D00C11A815F00C116C120C11CC1198169008A
:10055D00816A00C109C122815100825C000081675E
:10056D0000815900826B0000C101813E008257005D
:10057D0000815E008175008146008265000087491B
:10058D0000000000000000C1058150008145008180
:10059D005B00C18081730081740081610081600006
:1005AD00826F0000C10481720082550000824000FC
:1005BD0000815400C11F813F00C10382430000C16F
:1005CD001882630000C108816200816800C107C103
:1005DD001B826D0000C10D8247000082520000C1D8
:1005ED000EC10FC110C111C113C11E815A00C11519
:1005FD00C10AC117817100C11DC10CC106C121C144
:0D060D0012814200C114817600C10BC18230
:1015CB0012149A7FB07E041210C61218271218320A
:0715DB0012186FD28580FE9B
:03000B00020026CA
:10002600C0E0C0F0C083C082C0D075D000C000C0A0
:1000360001C002C003C004C005C006C007782EE296
:10004600F58C7830E2F58A786508E22401FFF2182B
:10005600E23400FEF2C3EF94D0EE94074028E4F2B7
:1000660008F212180E1211981213E612147F1215C6
:10007600E21215F812160E12158412183B1216B754
:1000860012142712133612184412079512125C1214
:10009600128B12130D1212B72023030201B0783E01
:1000A600E214604514700302013724026003020162
:1000B6008630800320872B20162820172530A7227C
:1000C600785EE204F2C394015003020186E4F278FA
:1000D6003E04F2121537121537121537121537026C
:1000E6000186785EE4F20201863080032087167866
:1000F60051E204F2C394014010E4F2783E7402F235
:1001060012163880047851E4F2785708E22401FF89
:10011600F218E23400FEF2C3EF94A0EE940F4060B2
:10012600783EE4F27851F2785EF27857F208F2807F
:100136004F3080032087177859E204F2C3940140B8
:1001460011E4F2D21CD219D2077876F280047859DB
:10015600E4F2785C08E22401FFF218E23400FEF2D1
:10016600C3EF94A0EE940F4017783EE4F2785EF267
:100176007851F27857F208F2785CF208F27859F280
:1001860020810CD21CD2197876E4F2D208800D3088
:10019600810A300807D20BC2081216D6C37855E278
:1001A60094015004D21F8002C21F302042208413C3
:1001B6007860E204F2B40A16D222C20920040FD2F1
:1001C60001800BC2227875E4F27860F2C2012083C6
:1001D600137861E204F2B40A16D209C22220040F8F
:1001E600D201800BC2097846E4F27861F2C201308E
:1001F6000142786F08E22401FFF218E23400FEF2B1
:10020600C3EF94A0EE940F402BC201E4F208F2D2A1
:1002160004783EF2785EF27851F27857F208F27876
:100226005CF208F2786B7403F2087420F27859E4F1
:10023600F27867F2D007D006D005D004D003D002FA
:0F024600D001D000D0D0D082D083D0F0D0E03221
:030023000203CC09
:1003CC00C0E0C0F0C083C082C0D075D000C000C0F7
:1003DC0001C002C003C004C005C006C007209803BA
:1003EC00020518C2987850E2FF2449F8E599F230DA
:1003FC001E030204B4EF701290300093FF7849E2B0
:10040C00B5070778507401F280737850E2B4011389
:10041C00903001E493FF784AE2B5070778507402F4
:10042C00F2805A7850E2FFB40213903002E493FE4B
:10043C00784BE2B5060778507403F28040EFB403B2
:10044C0013903003E493FF784CE2B50707785074AF
:10045C0004F280297850E2B40413903004E493FF42
:10046C00784DE2B5070778507405F280107850E2A9
:10047C00B40506D205E4F280047850E4F2200503BA
:10048C00020518C205784EE224EF60152450707CEA
:10049C00D21A7862E4F2D20D1216957842E4F28008
:1004AC006BD20A12168480647850E2700D7849E29F
:1004BC00B4C80778507401F280527850E2FFB4014E
:1004CC000D784AE2B4C10778507402F2803EEFB462
:1004DC00020778507403F280337850E2FFB40305BE
:1004EC007404F28027EFB4040778507405F2801C72
:1004FC00EFB4050778507406F28011EF7850B4060B
:10050C0009E4F2D2151216D68002E4F2D007D00616
:10051C00D005D004D003D002D001D000D0D0D082EE
:07052C00D083D0F0D0E032D3
:0300000002083AB9
:0C083A00787FE4F6D8FD75814C0208813F
:10025500BB010689828A83E0225002E722BBFE02A7
:09026500E32289828A83E49322DA
:10026E00E88FF0A4CC8BF0A42CFCE98EF0A42CFC2F
:10027E008AF0EDA42CFCEA8EF0A4CDA8F08BF0A4AD
:10028E002DCC3825F0FDE98FF0A42CCD35F0FCEB0C
:10029E008EF0A4FEA9F0EB8FF0A4CFC5F02ECD39D1
:0F02AE00FEE43CFCEAA42DCE35F0FDE43CFC223E
:1002BD0075F008758200EF2FFFEE33FECD33CDCCF8
:1002CD0033CCC58233C5829BED9AEC99E58298407B
:1002DD000CF582EE9BFEED9AFDEC99FC0FD5F0D658
:1002ED00E4CEFBE4CDFAE4CCF9A88222B800C1B982
:1002FD000059BA002DEC8BF084CFCECDFCE5F0CBC0
:10030D00F97818EF2FFFEE33FEED33FDEC33FCEBF8
:10031D0033FB10D703994004EB99FB0FD8E5E4F9B3
:10032D00FA227818EF2FFFEE33FEED33FDEC33FCA0
:10033D00C933C910D7059BE99A4007EC9BFCE99A94
:10034D00F90FD8E0E4C9FAE4CCFB2275F010EF2FD9
:10035D00FFEE33FEED33FDCC33CCC833C810D707D9
:10036D009BEC9AE899400AED9BFDEC9AFCE899F814
:0E037D000FD5F0DAE4CDFBE4CCFAE4C8F922A7
:0E038B00C3E49FFFE49EFEE49DFDE49CFC2283
:060399008A838982E473EF
:10039F00EC8EF0A4CCC5F0CCCDF8EFA4CEC5F02DEB
:1003AF00FDE43CFCE8A42EC8C5F03DFDE43CFCEFA9
:0D03BF00A4FFE5F028FEE43DFDE43CFC2237
:100846000215CBE493A3F8E493A34003F68001F2E8
:1008560008DFF48029E493A3F85407240CC8C333B3
:10086600C4540F4420C8834004F456800146F6DF82
:10087600E4800B0102040810204080900533E47EDA
:10088600019360BCA3FF543F30E509541FFEE49377
:10089600A360010ECF54C025E060A840B8E493A33E
:1008A600FAE493A3F8E493A3C8C582C8CAC583CA69
:1008B600F0A3C8C582C8CAC583CADFE9DEE780BE21
:01061A0000DF
:00000001FF
