:100C0400E4FAEF6405703343F620C2F8C2F9D2FA6D
:100C140043E180C2FCD2FBADF8EDC413135403FDD1
:100C2400AFE2AB07EB7E007802C333CE33CED8F904
:100C34007C002DFBEC3EAF03FE22EF6406703543CF
:100C4400F640D2F8C2F9D2FA43E180C2FCD2FBAD3D
:100C5400F8EDC413135403FDAFE27A00AB07EB7E47
:100C6400007802C333CE33CED8F97C002DFBEC3EA2
:070C7400FEAF0322E4FEFFC6
:010C7B002256
:0607FF00810200810300ED
:0D1D94007F06120C04786FEEF208EFF222C9
:10138200201B1F7858E2FE08E2FF786FE2FC08E2B9
:10139200FDC39FEC9E4028D3ED9411EC94024026AD
:1013A200801D7858E2FE08E2FF786FE2FC08E2FD59
:1013B200C39FEC9E4009D3ED9493EC9402400778CE
:1013C20058ECF208EDF27858E2FE08E2FF0200263D
:100026007800EEF208EFF2301B02218BC3E294E572
:1000360018E2940150022197D2947F081217677F25
:1000460046121BAC7800E2FE08E2FFC394E5EE948C
:1000560001400AEF94EAEE94015002217F7800E213
:10006600FE08E2FFC394EAEE9401400CEF94F6EE2C
:10007600940150047F0D80777800E2FE08E2FFC30A
:1000860094F6EE94014020EF94FAEE940150187F16
:100096000D1217677F1E121BAC7F151217677F1E86
:1000A600121BAC7F1321817800E2FE08E2FFC394A5
:1000B600FAEE94014020EF9402EE940250187F0E5F
:1000C6001217677F1E121BAC7F151217677F1E1251
:1000D6001BAC7F0F21817800E2FE08E2FFC3940289
:1000E600EE94024020EF9406EE940250187F0F1211
:1000F60017677F1E121BAC7F151217677F1E121B18
:10010600AC7F0C80767800E2FE08E2FFC39406EE30
:1001160094024020EF940CEE940250187F0F1217B1
:10012600677F1E121BAC7F151217677F1E121BAC52
:100136007F1280477800E2FE08E2FFC3940CEE943B
:10014600024020EF9411EE940250187F10121767A8
:100156007F1E121BAC7F151217677F1E121BAC7F0A
:100166000F8018C37801E2941118E2940240147FBC
:10017600111217677F1E121BAC7F151217677F1EA1
:10018600121BAC6198C37801E2945018E2940250B5
:100196000CD2947F271217677F1E021BACD2947F66
:1001A600081217677F46121BAC7800E2FE08E2FFD2
:1001B600C39450EE9402400AEF9456EE9402500215
:1001C600618E7800E2FE08E2FFC39456EE94024088
:1001D6000AEF945BEE94025002610C7800E2FE088E
:1001E600E2FFC3945BEE9402400AEF9460EE940241
:1001F6005002616A7800E2FE08E2FFC39460EE9462
:10020600024014EF9465EE9402500C7F0D121767AE
:100216007F1E121BAC618E7800E2FE08E2FFC394DB
:1002260065EE9402400CEF946AEE940250047F0D42
:1002360041D57800E2FE08E2FFC3946AEE940240DC
:1002460014EF946FEE9402500C7F0E1217677F1E08
:10025600121BAC610C7800E2FE08E2FFC3946FEE5D
:100266009402400CEF9474EE940250047F0E6133B6
:100276007800E2FE08E2FFC39474EE94024014EFA5
:10028600947FEE9402500C7F0F1217677F1E121B8D
:10029600AC616A7800E2FE08E2FFC3947FEE940246
:1002A6004014EF9484EE9402500C7F101217677F6F
:1002B6001E121BAC618E7800E2FE08E2FFC3948436
:1002C600EE94024020EF9489EE940250187F1012AB
:1002D60017677F1E121BAC7F151217677F1E121B36
:1002E600AC7F1161907800E2FE08E2FFC39489EECC
:1002F60094024020EF948EEE940250187F1112174C
:10030600677F1E121BAC7F151217677F1E121BAC70
:100316007F0D80767800E2FE08E2FFC3948EEE94AD
:10032600024020EF9493EE940250187F1112176743
:100336007F1E121BAC7F151217677F1E121BAC7F28
:100346001380477800E2FE08E2FFC39493EE94021E
:100356004020EF9499EE940250187F121217677F8F
:100366001E121BAC7F151217677F1E121BAC7F0F68
:100376008018C37801E2949918E2940240147F131E
:100386001217677F1E121BAC7F151217677F1E128E
:100396001BAC7F0B1217677F3C121BACC294D2A01A
:0903A600121AFBC2A0121AFB227C
:09080500871E0000000000000045
:071E2C00C290D2A7C293226D
:100CF100781E74C8F20874C1F2903000E49308F2CF
:100D0100903001E49308F2903002E49308F29030BD
:0C0D110003E49308F2903004E49308F22D
:100D1D00780674AAF2E418F2E47804F27806E2C2D6
:100D2D00907D147C007F2E1216A8D2907806E225B5
:100D3D00E0F27D187C007F281216A87804E204F2F8
:100D4D00E2C3940840D6780674AAF218E204F2E2DF
:070D5D00C3940140C3D290D2
:010D6400226C
:10155200780974AAF2E418F2E47807F27809E2C290
:10156200907D147C007F2E1216A8D2907809E22575
:10157200E0F27D187C007F281216A87807E204F2B8
:10158200E2C3940440D6780974AAF218E204F2E2A3
:07159200C3940140C3D29095
:01159900222F
:04106600780AEFF223
:10106A00E408F2E4780CF2780BE2241EF8E230E7A6
:10107A000CC290780AE2FD7C007F24800AC2907834
:10108A000AE2FD7C007F171216A8D290780BE224A0
:10109A001EF8C000E225E0D000F2780AE2FD7C00EA
:1010AA007F141216A8780CE204F2E2C3940840B73F
:0B10BA00780BE204F2E2C3940340A8AC
:0110C5002208
:10186900780DEFF208ECF208EDF2D2937F14121B17
:10187900ACC2A7781E74C8F20874E0F2780DE27859
:1018890020F2120D1D780E08E2FF121066D2A7D2BF
:02189900932298
:101835007810EFF208ECF208EDF2D2937F14121B48
:10184500ACC2A7781E74C8F20874E0F27810E2788A
:1018550020F2120D1D781108E2FF121066C2A7C210
:0418650093C2902278
:041181007813EFF2FE
:10118500E408F2121E33903000E493781EF290309A
:1011950001E49308F2903002E49308F2903003E4FE
:1011A5009308F2903004E49308F27813E27823F27E
:1011B500120D1DE47814F27BFE7A00791E7D06126D
:1011C50017D3121AC77814E204F2E2C394A040E7D9
:0611D500121E40021B2F58
:04159A007815EFF2DF
:10159E00E408F2121DA1903000E493781EF2903010
:1015AE0001E49308F2903002E49308F2903003E4E1
:1015BE009308F2903004E49308F27815E27823F25F
:1015CE001215527BFE7A00791E7D061217D3C29336
:0315DE00021E09E1
:041422007817EFF256
:10142600E408F2121DA1903000E493781EF2903089
:1014360001E49308F2903002E49308F2903003E45A
:101446009308F2903004E49308F27817E27823F2D6
:10145600121A93121A93121A937BFE7A00791E7D42
:09146600061217D3C293021E09FD
:1016E700E47819F290300093781EF2903001E49379
:1016F70008F2903002E49308F2903003E49308F282
:10170700903004E49308F208EFF2121A93121A9336
:0E171700121A937BFE7A00791E7D060217D30C
:051E3300D293C2A722BA
:0C1DA1007F807E2512179DD293C2A722DE
:031E4000C2932228
:091E0900C2937FB07E0402179D14
:101B9500121E33120CF17BFE7A00791E7D08121796
:071BA500D3121AFB021E40DF
:101A1900D293C2A77F807E2512179D120CF17BFEFF
:0F1A29007A00791E7D081217D3121AFBC293227E
:100F2B0020910F788FE204F2C394784002E4F2C26E
:100F3B000022200041D200788FE2FFD3942340108F
:100F4B00EFD39450500A785FE225E0F254FE801004
:100F5B00788FE2D394504014785FE225E0F244019D
:100F6B00F27875E204F2E4788EF28005788EE20472
:100F7B00F2E4788FF222788EE204F2C3943C4009BB
:0A0F8B00E47875F2D200786AF222D1
:100F950030B00F788FE204F2C394784002E4F2C2D5
:100FA5000022200041D200788FE2FFD39423401025
:100FB500EFD39450500A785FE225E0F254FE80109A
:100FC500788FE2D394504014785FE225E0F2440133
:100FD500F27875E204F2E4788EF28005788EE20408
:100FE500F2E4788FF222788EE204F2C3943C400951
:0A0FF500E47875F2D200786AF22267
:101667007875E264087039F2785FE2FF786AE2FE23
:101677002463F8EFF2EE700C7863E2B4C806786A78
:101687007401F222EEB4010C7864E2B4E006786AE1
:101697007402F222EEB40204D2058000E4786AF202
:0116A7002220
:070D6500781AECF208EDF230
:100D6C00781E74C8F20874E0F208EFF2E4781CF212
:100D7C00E4781DF2781CE2241EF8E230E70DC2A3E1
:100D8C00781AE2FC08E2FD7F24800BC2A3781AE2F9
:100D9C00FC08E2FD7F171216A8D2A3781CE2241ED1
:100DAC00F8C000E225E0D000F2781AE2FC08E2FD7F
:100DBC007F0F1216A8781DE204F2E2C3940840B427
:0B0DCC00781CE204F2E2C3940340A58F
:010DD70022F9
:04080E00822B000039
:101A9300782B74FFF2087493F2782B08E22401FF89
:0A1AA300F218E23400F24F70F02256
:101AAD00782B74FDF20874E3F2782B08E22401FF21
:0A1ABD00F218E23400F24F70F0223C
:101AC700782B74FBF20874C7F2782B08E22401FF25
:0A1AD700F218E23400F24F70F02222
:101AE100782B74FAF20874EFF2782B08E22401FFE4
:0A1AF100F218E23400F24F70F02208
:101AFB00782B74EAF20874E7F2782B08E22401FFE2
:0A1B0B00F218E23400F24F70F022ED
:101B1500782B74D5F20874CFF2782B08E22401FFF4
:0A1B2500F218E23400F24F70F022D3
:101B2F00782B742DF208740FF2782B08E22401FF42
:0A1B3F00F218E23400F24F70F022B9
:101BAC00AE071FEE60107C137D88ED1DAA0470013A
:061BBC001C4A60EC80F4FD
:011BC2002200
:0716A8007825ECF208EDF2D9
:1016AF00E408F208F2EFFDC37828E29D18E29400F7
:1016BF005025E4FEEEFDD37826E29D7480F5F018F8
:1016CF00E2648095F040030E80EA7828E22401F26C
:0716DF0018E23400F280CE96
:0116E60022E1
:1019F900E4FDFCC3ED9FEC9E5015E4FBFA0BBB0024
:0F1A0900010AEB64644A70F50DBD00010C80E426
:011A180022AB
:101B6300E4FDFCC3ED9FEC9E500EE4FB0BEBB404D1
:081B7300FB0DBD00010C80EB2D
:011B7B002247
:071725007829EEF208EFF253
:10172C00E4F9E4FAFBD3782AE29B18E29A40070B1F
:10173C00BB00010A80EF09E9B432E7E4F920921604
:10174C00E4FAFBC3EB9DEA9C50070BBB00010A803B
:06175C00F209E9B432E7D6
:011762002264
:10081200C12AC1298235000082330000813000C123
:0C08220028822D000082310000812F0090
:10194F00302405121CC28006121C95121C95D22A37
:10195F00E47883F27F14121BACE47879F2300A0238
:03196F00C20A2287
:10197200D212C214E4787DF2C21A7879F2121B2FC5
:10198200121B2F121B2F121B2F202002D296121C69
:0219920095229C
:0B1DDD00C229C223C22AD284D2832272
:0C1DAD00301D08D216121DFE121C2E2242
:10199400301A1E787DE204F2C3940F4014C21AE494
:1019A400F27879F2788DE27006200603121DD1C216
:0219B400062209
:101A5700302A1A30A5033024147883E204F2C394A1
:0E1A670003400AE4F2C22A200603121DD12217
:101929003021227874E204F2D3940A4018C221E4E7
:10193900F27861F208F2786CF208F2C20EC20FC2B4
:0619490010C211C21322BE
:101BC3003009127860E2C39405500A7FC51211816F
:061BD3007860E204F2223A
:101BD9003027127890E2C39405500A7FC41211810C
:061BE9007890E204F222F4
:101BEF003022127857E2C39414500A7FC212118127
:061BFF007857E204F22217
:091E1200300D05C20D1213D2229D
:101C6700300B0CC20BE47884F2C21DC216C20722E5
:1019B600301D1E7891E204F2D394034014E4788437
:1019C600F2C21DC216C2077891F2121E40C296D20A
:0219D600852268
:1019D80020281D201C1A200217785AE204F2D394FA
:1019E80006400D7407F2C212C21A200603121DD156
:0119F80022CC
:100DD80020A503302050C2A43081257834E22401B4
:100DE800F218E23400F2C308E2947018E294174053
:100DF800247417F2087471F2E47830F2C221801575
:100E0800D37834E2943218E294004009E4F208F20C
:100E18007830E204F27830E2D394064016E4F2D255
:100E28002112000E800D20A50A788DE27005202081
:100E380002D2A430150CC215D217C2211215E11224
:030E4800000E2277
:10146F0020A503302045788DE27040301A3D2006CC
:10147F003A1213D2788D7401F2C214E4787DF2C25D
:10148F001A7879F2D212121000121972300212C3A6
:10149F007870E2943018E294025004C21B8002D29A
:0C14AF001BC202C224E4785BF208F222A7
:1011260020A503302006301203302445788DE26472
:1011360001703E201844201C417836E22401F21842
:10114600E23400F2C308E294F418E29401402B3032
:10115600A506301203302422C2961210C6E4788DFA
:10116600F212194FC20DC214E4785BF208F2C220E3
:0B1176002230A506E47835F208F222D2
:100EBC0030800630800320A621782FE204F2C39400
:100ECC0001401BE4F2D218787EF208F2D228782D79
:100EDC00F208F2785BF208F28004E4782FF2301812
:100EEC001D787E08E22401FFF218E23400FEF2C302
:100EFC00EF94D0EE94074006C218E4F208F23028C2
:100F0C001D782D08E22401FFF218E23400FEF2C332
:0F0F1C00EF9410EE94274006C228E4F208F22268
:10189B0030820DD21CE47888F208F2785BF208F201
:1018AB00301C1D788808E22401FFF218E23400FE98
:1018BB00F2C3EF94D0EE94074006C21CE4F208F298
:0118CB0022FA
:1018CC007837EEF208EFF208ECF208EDF2EBFD7C63
:1018DC00007FC1120D65D2A2C2A37837E2FE08E2E6
:0F18EC00FF08E2FC08E2FD121725D2A2D2A322C8
:0C1DB900C2A2D2A3121725D2A2D2A322EC
:0C1DC500C2A2D2A3121725C2A2C2A32200
:1013D200C223C229C209C227E47856F27878F27889
:1013E2006BF27871F208F27876F208F27886F208F7
:1013F200F27873F27882F2C216C207C21D7884F2C2
:10140200C2197885F2C201786EF2C208C22A7883C4
:10141200F2C2227857F2788DE27004D285C2962207
:0C1DD100D223D229E47856F27878F2226E
:08000300C2A4121B2FD2A4229B
:070C7C00783BECF208EDF2F9
:100C83007E007C2B7D331207D2E47B0CFAF9F81239
:100C9300072CC3E49FFFE49E783DF2783FEFF278A0
:100CA3003BE2FE08E2FFEE3395E0FDFCE47B0BFA4A
:100CB300F9F81206A1E47B0CFAF9F812072CC3E445
:100CC3009FFFE49EAD07FF783EF2AE057840EEF25B
:100CD300758911783DE2F58C783FE2F58A8F8D8E28
:0D0CE3008BD2A9D28CD2ABD28ED2BBD2AFB5
:010CF00022E1
:0414BB007897EFF23D
:1014BF00E408F27898E2FFC39402500A12150778F5
:1014CF0098E204F280ED7897E2FF7E007C2B7D336B
:1014DF001207D2E47B0CFAF9F812072CC3E49FFF32
:1014EF00E49EAD07FC783DF2783FEFF25389F0436D
:0714FF008901121C77D2A93C
:0115060022C2
:031E4300D2AF22F9
:041E380043870122B9
:0F1C7700C28C783FE2F58A783DE2F58CD28C2260
:10179D0053A2BF75985A758920AB07AA06E4F9F8CC
:1017AD007F807E70FDFC12072C1207BE8F8B8F8DF4
:1017BD007F011214BBC299C298D2ACD28ED28CD2F8
:0617CD00A9D2BCD2AF223C
:081E24008F993099FDC299224B
:1017D3007841EBF208EAF208E9F2AF051DEF601A6F
:1017E3007841E2FB0808E2F92401F218E2FA340036
:0B17F300F2120688FF121E2480E02284
:03082E0081440101
:04176300D2947F1885
:041767007897EFF28E
:10176B00D2A0121AFBC2A0121AFBE47898F2789757
:10177B00E2FF08E2C39F5019D2A17F147E00121B17
:10178B0063C2A17F147E00121B637898E204F2807F
:01179B00DD70
:01179C00222A
:101B7C00C294C2A1D2A07F5E7E01121B63C2A07F61
:091B8C005E7E01121B63C294226B
:010FFF0022CF
:0F1C8600D2947F041217677F50121BACC29422B6
:0B1DE8001217637F01121BACC2942293
:0F1C9500D2947F1A1217677F1E121BACC29422C3
:10000E00D294E4787BF27F1B1217677F1E121BAC13
:05001E00C294C217228C
:0F1CA4001217637F32121BACC2947F1E021BAC5F
:0B1DF3001217637F32121BACC2942257
:0B1DFE001217637F64121BACC294221A
:101C2E00D2947F191217677FB4121BACC2947F1423
:031C3E00021BACDA
:101C4100D294E4787BF27F161217677F3C121BACAB
:031C5100C2942218
:0F1CB300D2947F171217677F3C121BACC294228A
:0F1CC200D2947F1C1217677F3C121BACC2942276
:0F1CD100D2947F0F1217677F64121BACC294224C
:0F1CE000D2947F1C1217677F78121BACC294221C
:0F1CEF00D2947F151217677F96121BACC29422F6
:0F1CFE00D2947F061217677F50121BACC294223C
:0F1D0D00D2947F051217677F32121BACC294224B
:0F1D1C00D2947F041217677FB4121BACC29422BB
:0F1D2B00D2947F031217677F8C121BACC29422D5
:0F1D3A00D2947F021217677F78121BACC29422DB
:0F1D4900D2947F0B1217677F50121BACC29422EB
:0F1D5800D2947F071217677F32121BACC29422FE
:0F1D6700D2947F081217677F50121BACC29422D0
:0F1D7600D2947F0C1217677F50121BACC29422BD
:0F1D8500D2947F0D1217677F50121BACC29422AD
:031E4600021C95E6
:101A3800788CE204F2D3940340147405F2301E0E3D
:0F1A4800201D0B200908202705202202C21E2284
:091E1B00302505C22512000E223B
:101C540075AF30C2AF75C7AA75C755439F01D2AFE0
:031C6400021B550B
:101C1A0075AF30121B55C2AF75C7AA75C755539F0A
:041C2A00FED2AF2215
:0C1B4900E2FC08E2FDECF5A7AF058FA65A
:0E1B5500C2AF75C7AA75C75543A401D2AF220F
:101C05007892EEF208EFF2121C5475AF2278921218
:051C15001B49021C1A2E
:0618FB007865E2FD7E307D
:101901007892EEF208EFF208EDF2121C5475AF2155
:101911007892E2FC08E2FDECF5A7AF058FA608E29C
:08192100F5AE121B55021C1A61
:071A75007845EEF208EFF2E4
:101A7C00121C54E4F5AF7845121B4908E5AEF2127E
:061A8C001C1A7847E2FF7E
:011A92002231
:1015E1007F007E30121C057863E2FD7F007E3012A1
:1015F10019017864E2FD7F017E301219017F021228
:1016010018FB7866E2FD7F037E301219017867E2EC
:10161100FD7F047E301219017868E2FD7F057E307E
:03162100021901AA
:101624007F007E30121C057F001218FB7866E2FDF5
:101634007F017E301219017867E2FD7F027E30124D
:1016440019017868E2FD7F037E301219017869E29E
:10165400FD7F047E30121901786AE2FD7F057E3039
:0316640002190167
:09083100C12CC12BC12D814C002A
:031E49000210C6BE
:10100000D2A753B1FB53B2FBC2821211DBD2A2C2F0
:10101000A31212DDD2A2D2A3E47892F2302B2DC219
:101020002B121B15C2A2D2A3121B2F121B2F121B95
:101030002F121B2FD2A2D2A3121B15121B15121195
:10104000DBD2A2C2A31212DDD2A2D2A37892E20412
:10105000F2E2C3940740C5D28243B10453B2FBC24B
:051060002BD285C2A7A0
:011065002268
:1010C600D2A7D285D2A4C2961211DBC2A2C2A312A3
:1010D6001B15C2A2D2A3121331D2A2D2A3C22DE4EF
:1010E6007892F2302B2AC22B121B151211DBD2A2D8
:1010F600C2A3121B2F121B2F121B2F121B2FD2A2A1
:10110600D2A3121B15C2A2D2A3121331D2A2D2A30A
:0F1116007892E204F2E2C3940740C8C22BC2A74A
:0111250022A7
:1011DB00781E74C8F20874E0F20874C1F2E47893D4
:1011EB00F2E47894F27893E2241EF8E230E707C237
:1011FB00A3121AE18005C2A3121AADD2A37893E20F
:10120B00241EF8C000E2FF25E0D000F2121AAD78E0
:10121B0094E204F2E2C3940840CB7893E204F2E246
:05122B00C3940340BC68
:01123000229B
:10123100781E74C8F20874E0F20874C2F2E47848C7
:10124100F2E47849F27848E2241EF8E230E707C276
:1012510090121AE18005C290121AADD2907848E23C
:10126100241EF8C000E2FF25E0D000F2121AAD788A
:1012710049E204F2E2C3940840CB7848E204F2E286
:05128100C3940340BC12
:011286002245
:10128700781E74C8F20874E0F20874C3F2E4784A6E
:10129700F2E4784BF2784AE2241EF8E230E707C21C
:1012A70090121AE18005C290121AADD290784AE2E4
:1012B700241EF8C000E2FF25E0D000F2121AAD7834
:1012C7004BE204F2E2C3940840CB784AE204F2E22C
:0512D700C3940340BCBC
:0112DC0022EF
:1012DD00121B15121B15121B15121B15E47893F218
:1012ED0008F2309202D22B202B03121AC77894E207
:1012FD002401F218E23400F2C308E2942318E294B8
:10130D000040DF202B15121B2F121B2F121B2F122B
:10131D001B2F121B2F121B2F121B2F302B05784C3E
:03132D00E204F2E5
:01133000229A
:10133100121B15121B15121B15121B15E47893F2C3
:1013410008F2309202D22B202B03121AC77894E2B2
:101351002401F218E23400F2C308E2942318E29463
:101361000040DF202B12121B2F121B2F121B2F12DA
:101371001B2F121B2F121B2F302B05784CE204F26E
:011381002249
:03083A00815200E8
:100E4B00E4784EF2784EE2FFC39405505EEF75F0F6
:100E5B0008A4242DF8E6604C784EE2FF75F008A448
:100E6B00242CF8E6D39400403BEF75F008A424261D
:100E7B00F8E6FE08E6AA06F91207CC784EE2FF75F3
:100E8B00F008A4242CF816EF75F008A4242AF8E631
:100E9B00FE08E64E700E784EE275F008A42426F894
:100EAB00E4F608F6784EE204F280991217FE021E61
:010EBB003CFA
:070B8700784FEEF208EFF2D7
:100B8E00E4FFEF75F008A42426F8E6F58308E645A1
:100B9E00836009EFC3940550030F80E6EFB4050898
:100BAE0078527401F27F0522784FE2F58308E2F560
:100BBE0082EF75F008A42426F8A68308A682EF75A6
:100BCE00F008A42428F8A60408A605AC02AD03EF8D
:100BDE0075F008A4242AF8A60408A605A22EE4336C
:100BEE00FEEF75F008A4242DF8A606EF75F008A404
:050BFE00242CF8E4F6D0
:010C030022CE
:10150700EF75F008A42426F8E6FC08E64C70097885
:10151700527402F2D22F8002C22FEF75F008A42472
:1015270026F8E4F608F6EF75F008A42428F8E4F6A0
:1015370008F6EF75F008A4242AF8E4F608F6EF7524
:0A154700F008A4242CF8E4F6A22F0B
:011551002277
:0117FE0022C8
:041E3C0043870122B5
:100A3900E47851F27851E2FFC39405400241FAEF9C
:100A490075F008A42426F8E6FE08E64E700241F384
:100A59007851E2FF75F008A42428F8E6FC08E64C72
:100A69007077EF75F008A4242DF8E6600D7851E24F
:100A790075F008A4242CF806803D7851E275F00839
:100A8900A42426F8E6FE08E6AA06F91207CC78514E
:100A9900E2FF75F008A4242CF816EF75F008A424D9
:100AA9002AF8E6FE08E64E700E7851E275F008A4C1
:100AB9002426F8E4F608F67851E2FF75F008A42434
:100AC9002AF8E6FC08E6FD4C6020EF75F008A4243E
:100AD90028F8A60408A60580117851E275F008A443
:100AE9002428F808E616187001167851E204F24134
:010AF9003DBF
:010AFA0022D9
:10083D00C11A817900C116C123C11DC1198184005E
:10084D00818500C109C127816B00827600008182FC
:10085D000081730082860000C10181560082710003
:10086D0000817800819000816000828000008763A4
:10087D0000000000000000C105816A00815F008159
:10088D007500C180818E00818F00817C00817A008E
:10089D00828A0000C104818D00826F000082580F92
:1008AD00FF816E00C122815700C103825D0000C12E
:1008BD0018827E0000C108817D00818300C107C1BF
:1008CD001C82880000C10DC120C11F817B00826187
:1008DD000000826C0000C10EC10FC110C111C11307
:1008ED00C121817400C115C10AC117818C00C11EBF
:1008FD00C10CC106C125C112815A00C114819100DC
:0E090D00C10BC182C126C124825B0000C11B48
:10180000121B7C121C957F807E2512179D121DDDF8
:10181000121E2C43B10653B2F943B52053B6DFD2A2
:10182000A4C296D285C2A77F06120C04786FEEF28E
:0518300008EFF280FE4C
:03000B000203AF3E
:1003AF00C0E0C0F0C083C082C0D075D000C000C014
:1003BF0001C002C003C004C005C006C007783DE2FB
:1003CF00F58C783FE2F58A788008E22401FFF21875
:1003DF00E23400FEF2C3EF94D0EE94074069E4F2EA
:1003EF0008F2785B08E22401FFF218E23400FEF213
:1003FF00C3EF9423EE94004005202402D224302929
:10040F001C20810CD21DD2197891E4F2D208800DF4
:10041F0030810A300807D20BC208121C95301F0F0B
:10042F00787BE204F2E2D394024004E4F2C2941225
:10043F001D94121A38121994121A57121DAD121C4C
:10044F00671219B6121929121E1B120DD8120EBCE3
:10045F0012189B121E1212146F121126302605C28B
:10046F0026121DE8202902A1E37856E214604E14EB
:10047F007002A120147002A17824036002A1D5306C
:10048F00800630800320A62F20162C20172978787D
:10049F00E204F2C394015002A1D5E4F27871F2089C
:1004AF00F2785604F2D296C285121B2F121B2F120E
:1004BF001B2F121B2FA1D57878E4F2A1D53080061F
:1004CF0030800320A620786BE204F2C39401401A17
:1004DF00E4F278567402F27876E4F208F2D296C219
:1004EF0085121CA48004786BE4F2787108E2240171
:1004FF00FFF218E23400FEF2C3EF9440EE941F5067
:10050F0002A1D57856E4F2786BF27878F2787180A0
:10051F005330800630800320A6207873E204F2C3A4
:10052F009402401AE4F278567403F27876E4F208F3
:10053F00F2D296C285121DF380047873E4F27876B6
:10054F0008E22401FFF218E23400FEF2C3EF9440F8
:10055F00EE941F40717856E4F27873F2786BF2786C
:10056F0078F27876F208F2805930800630800320D6
:10057F00A61B7873E204F2C394034015E4F2D21D74
:10058F00D219D2077891F2D296C28580047873E49B
:10059F00F2787608E22401FFF218E23400FEF2C38B
:1005AF00EF9440EE941F401E7856E4F27878F2787C
:1005BF006BF27871F208F27876F208F27873F22023
:1005CF001D04C296D285C3786FE294015004D222E3
:1005DF008002C222302342208413787AE204F2B4DC
:1005EF000A16D227C20920040FD201800BC2277826
:1005FF0090E4F2787AF2C201208313787CE204F25D
:10060F00B40A16D209C22720040FD201800BC209E7
:10061F007860E4F2787CF2C201300142788A08E215
:10062F002401FFF218E23400FEF2C3EF94A0EE941F
:10063F000F402BC201E4F208F2D2047856F2787818
:10064F00F2786BF27871F208F27876F208F2788627
:10065F007403F2087420F27873E4F27882F2D00710
:10066F00D006D005D004D003D002D001D000D0D016
:09067F00D082D083D0F0D0E0322B
:0300230002091CB3
:10091C00C0E0C0F0C083C082C0D075D000C000C0A1
:10092C0001C002C003C004C005C006C00720980265
:10093C00411EC298786AE2FF2463F8E599F23021EF
:10094C00024110EF701290300093FF7863E2B5070C
:10095C0007786A7401F2411E786AE2B40113903090
:10096C0001E493FF7864E2B50707786A7402F241F8
:10097C001E786AE2FFB40213903002E493FE7865AD
:10098C00E2B50607786A7403F2411EEFB4031390C4
:10099C003003E493FF7866E2B50707786A7404F2D3
:1009AC008070786AE2B40413903004E493FF7867A3
:1009BC00E2B50707786A7405F28057786AE2640535
:1009CC00703C90300593FF7868E26F7031786AF272
:1009DC00D21A787DF2D20D121E467879E2FF04F21B
:1009EC00EFC394014002D20A7879E204F2C3940B6B
:1009FC004020B220D21AD225C20AE4F28014786ABE
:100A0C00E4F2800E786AE204F2C394064004E4F245
:100A1C00D215D007D006D005D004D003D002D00117
:0D0A2C00D000D0D0D082D083D0F0D0E03206
:03000000020AFBF6
:0C0AFB00787FE4F6D8FD75814D020B42B7
:10068800BB010689828A83E0225002E722BBFE0270
:09069800E32289828A83E49322A3
:1006A100E88FF0A4CC8BF0A42CFCE98EF0A42CFCF8
:1006B1008AF0EDA42CFCEA8EF0A4CDA8F08BF0A476
:1006C1002DCC3825F0FDE98FF0A42CCD35F0FCEBD5
:1006D1008EF0A4FEA9F0EB8FF0A4CFC5F02ECD399A
:0F06E100FEE43CFCEAA42DCE35F0FDE43CFC2207
:1006F00075F008758200EF2FFFEE33FECD33CDCCC1
:1007000033CCC58233C5829BED9AEC99E582984043
:100710000CF582EE9BFEED9AFDEC99FC0FD5F0D620
:10072000E4CEFBE4CDFAE4CCF9A88222B800C1B94A
:100730000059BA002DEC8BF084CFCECDFCE5F0CB88
:10074000F97818EF2FFFEE33FEED33FDEC33FCEBC1
:1007500033FB10D703994004EB99FB0FD8E5E4F97C
:10076000FA227818EF2FFFEE33FEED33FDEC33FC69
:10077000C933C910D7059BE99A4007EC9BFCE99A5D
:10078000F90FD8E0E4C9FAE4CCFB2275F010EF2FA2
:10079000FFEE33FEED33FDCC33CCC833C810D707A2
:1007A0009BEC9AE899400AED9BFDEC9AFCE899F8DD
:0E07B0000FD5F0DAE4CDFBE4CCFAE4C8F92270
:0E07BE00C3E49FFFE49EFEE49DFDE49CFC224C
:0607CC008A838982E473B8
:1007D200EC8EF0A4CCC5F0CCCDF8EFA4CEC5F02DB4
:1007E200FDE43CFCE8A42EC8C5F03DFDE43CFCEF72
:0D07F200A4FFE5F028FEE43DFDE43CFC2200
:100B0700021800E493A3F8E493A34003F68001F2EC
:100B170008DFF48029E493A3F85407240CC8C333EF
:100B2700C4540F4420C8834004F456800146F6DFBE
:100B3700E4800B01020408102040809007FFE47E48
:100B4700019360BCA3FF543F30E509541FFEE493B3
:100B5700A360010ECF54C025E060A840B8E493A37A
:100B6700FAE493A3F8E493A3C8C582C8CAC583CAA5
:100B7700F0A3C8C582C8CAC583CADFE9DEE780BE5D
:01091B0000DB
:00000001FF
