:100B7200E4FAEF6405703343F620C2F8C2F9D2FA00
:100B820043E180C2FCD2FBADF8EDC413135403FD64
:100B9200AFE2AB07EB7E007802C333CE33CED8F997
:100BA2007C002DFBEC3EAF03FE22EF640670354362
:100BB200F640D2F8C2F9D2FA43E180C2FCD2FBADD0
:100BC200F8EDC413135403FDAFE27A00AB07EB7EDA
:100BD200007802C333CE33CED8F97C002DFBEC3E35
:070BE200FEAF0322E4FEFF59
:010BE90022E9
:06076D0081000081010083
:0D1D42007F06120B72786DEEF208EFF222B0
:10131C00201B1F7856E2FE08E2FF786DE2FC08E223
:10132C00FDC39FEC9E4028D3ED9411EC9402402613
:10133C00801D7856E2FE08E2FF786DE2FC08E2FDC3
:10134C00C39FEC9E4009D3ED9493EC940240077834
:10135C0056ECF208EDF27856E2FE08E2FF020026A7
:100026007890EEF208EFF2301B022167C3E294DD0E
:1000360018E2940150022173D2947F081217017FAF
:1000460046121B5A7890E2FE08E2FFC394DDEE9456
:1000560001400AEF94E5EE94015002212C7890E2DB
:10006600FE08E2FFC394E5EE9401400CEF94EEEE39
:10007600940150047F0D21537890E2FE08E2FFC3FD
:1000860094EEEE94014020EF94F7EE940150187F21
:100096000D1217017F1E121B5A7F151217017F1EA4
:1000A600121B5A7F13215D7890E2FE08E2FFC3948B
:1000B600F7EE94014020EF9402EE940250187F0E62
:1000C6001217017F1E121B5A7F151217017F1E126F
:1000D6001B5A7F11215D7890E2FE08E2FFC394026D
:1000E600EE94024020EF940DEE940250187F0F120A
:1000F60017017F1E121B5A7F151217017F1E121B36
:100106005A7F0F80527890E2FE08E2FFC3940DEE0C
:1001160094024020EF9415EE940250187F101217A7
:10012600017F1E121B5A7F151217017F1E121B5AC2
:100136007F0D80237890E2FE08E2FFC39415EE94CB
:1001460002401CEF942FEE940250147F11121701F7
:100156007F1E121B5A7F151217017F1E121B5A6132
:1001660006C37891E2944A18E29402500CD2947F26
:10017600271217017F1E021B5AD2947F08121701FD
:100186007F46121B5A7890E2FE08E2FFC3944AEEBD
:100196009402400AEF9452EE9402500241FC789089
:1001A600E2FE08E2FFC39452EE9402400AEF94592D
:1001B600EE94025002414B7890E2FE08E2FFC394AF
:1001C60059EE94024014EF945DEE9402500C7F0DAC
:1001D6001217017F1E121B5A41FC7890E2FE08E2BC
:1001E600FFC3945DEE9402400CEF945FEE940250D0
:1001F600047F0D80777890E2FE08E2FFC3945FEEFD
:1002060094024020EF9468EE940250187F0E121765
:10021600017F1E121B5A7F151217017F1E121B5AD1
:100226007F0D41FE7890E2FE08E2FFC39468EE94EB
:10023600024020EF9473EE940250187F0F121701BC
:100246007F1E121B5A7F151217017F1E121B5A7F23
:100256000F41FE7890E2FE08E2FFC39473EE94022B
:100266004020EF947EEE940250187F101217017F03
:100276001E121B5A7F151217017F1E121B5A7F1161
:1002860080767890E2FE08E2FFC3947EEE94024008
:1002960020EF9482EE940250187F111217017F1EF0
:1002A600121B5A7F151217017F1E121B5A7F1380CD
:1002B600477890E2FE08E2FFC39482EE9402402063
:1002C600EF9487EE940250187F121217017F1E12C8
:1002D6001B5A7F151217017F1E121B5A7F0F80189B
:1002E600C37891E2948718E2940240147F131217A0
:1002F600017F1E121B5A7F151217017F1E121B5AF1
:100306007F0B1217017F3C121B5AC294D2A0121AFD
:07031600A9C2A0121AA922DE
:09077300871C00000000000000DA
:071DDA00C290D2A7C29322C0
:100C5F00781C74C8F20874C1F2903000E49308F263
:100C6F00903001E49308F2903002E49308F2903050
:0C0C7F0003E49308F2903004E49308F2C0
:100C8B00780474AAF2E418F2E47802F27804E2C26F
:100C9B00907D147C007F2E121642D2907804E225B0
:100CAB00E0F27D187C007F281216427802E204F2F3
:100CBB00E2C3940840D6780474AAF218E204F2E274
:070CCB00C3940140C3D29065
:010CD20022FF
:1014EC00780774AAF2E418F2E47805F27807E2C2FD
:1014FC00907D147C007F2E121642D2907807E22544
:10150C00E0F27D187C007F281216427805E204F286
:10151C00E2C3940440D6780774AAF218E204F2E20B
:07152C00C3940140C3D290FB
:011533002295
:041000007808EFF28B
:10100400E408F2E4780AF27809E2241CF8E230E712
:101014000CC2907808E2FD7C007F24800AC290789C
:1010240008E2FD7C007F17121642D2907809E22470
:101034001CF8C000E225E0D000F27808E2FD7C0054
:101044007F14121642780AE204F2E2C3940840B70D
:0B1054007809E204F2E2C3940340A814
:01105F00226E
:10180000780BEFF208ECF208EDF2D2937F14121B82
:101810005AC2A7781C74C8F20874E0F2780BE27818
:101820001EF2120C8B780C08E2FF121000D2A7D225
:02183000932201
:1017A200780EEFF208ECF208EDF2D2937F14121BDE
:1017B2005AC2A7781C74C8F20874E0F2780EE27874
:1017C2001EF2120C8B780F08E2FF121000C2A7C2A1
:0417D20093C290220C
:04111B007811EFF266
:10111F00E408F2121DE1903000E493781CF2903055
:10112F0001E49308F2903002E49308F2903003E464
:10113F009308F2903004E49308F27811E27821F2E8
:10114F00120C8BE47812F27BFE7A00791C7D06126A
:10115F0018F1121A757812E204F2E2C394A040E774
:06116F00121DEA021ADD68
:041534007813EFF247
:10153800E408F2121D4F903000E493781CF29030CA
:1015480001E49308F2903002E49308F2903003E447
:101558009308F2903004E49308F27813E27821F2C9
:101568001214EC7BFE7A00791C7D061218F1C293E6
:03157800021DB79A
:0413BC007815EFF2BF
:1013C000E408F2121D4F903000E493781CF2903044
:1013D00001E49308F2903002E49308F2903003E4C1
:1013E0009308F2903004E49308F27815E27821F241
:1013F000121A41121A41121A417BFE7A00791C7DA1
:09140000061218F1C293021DB797
:10168100E47817F290300093781CF2903001E493E3
:1016910008F2903002E49308F2903003E49308F2E8
:1016A100903004E49308F208EFF2121A41121A4141
:0E16B100121A417BFE7A00791C7D060218F1A8
:051DE100D293C2A7220D
:0C1D4F007F807E25121737D293C2A72296
:031DEA00C293227F
:091DB700C2937FB07E04021737CD
:101B4300121DE1120C5F7BFE7A00791C7D081218CE
:071B5300F1121AA9021DEABC
:1019E600D293C2A77F807E25121737120C5F7BFE2B
:0F19F6007A00791C7D081218F1121AA9C29322E7
:100E990020910F788DE204F2C394784002E4F2C203
:100EA9000022200041D200788DE2FFD39423401024
:100EB900EFD39450500A785DE225E0F254FE801099
:100EC900788DE2D394504014785DE225E0F2440134
:100ED900F27873E204F2E4788CF28005788CE2040B
:100EE900F2E4788DF222788CE204F2C3943C400952
:0A0EF900E47873F2D2007868F22268
:100F030030B00F788DE204F2C394784002E4F2C269
:100F13000022200041D200788DE2FFD394234010B9
:100F2300EFD39450500A785DE225E0F254FE80102E
:100F3300788DE2D394504014785DE225E0F24401C9
:100F4300F27873E204F2E4788CF28005788CE204A0
:100F5300F2E4788DF222788CE204F2C3943C4009E7
:0A0F6300E47873F2D2007868F222FD
:101601007873E264087039F2785DE2FF7868E2FE8F
:101611002461F8EFF2EE700C7861E2B4C8067868E4
:101621007401F222EEB4010C7862E2B4E00678684B
:101631007402F222EEB40204D2058000E47868F26A
:011641002286
:070CD3007818ECF208EDF2C5
:100CDA00781C74C8F20874E0F208EFF2E4781AF2A9
:100CEA00E4781BF2781AE2241CF8E230E70DC2A37A
:100CFA007818E2FC08E2FD7F24800BC2A37818E290
:100D0A00FC08E2FD7F17121642D2A3781AE2241CCD
:100D1A00F8C000E225E0D000F27818E2FC08E2FD13
:100D2A007F0F121642781BE204F2E2C3940840B421
:0B0D3A00781AE204F2E2C3940340A523
:010D4500228B
:04077C0082290000CE
:101A4100782974FFF2087493F2782908E22401FFDF
:0A1A5100F218E23400F24F70F022A8
:101A5B00782974FDF20874E3F2782908E22401FF77
:0A1A6B00F218E23400F24F70F0228E
:101A7500782974FBF20874C7F2782908E22401FF7B
:0A1A8500F218E23400F24F70F02274
:101A8F00782974FAF20874EFF2782908E22401FF3A
:0A1A9F00F218E23400F24F70F0225A
:101AA900782974EAF20874E7F2782908E22401FF38
:0A1AB900F218E23400F24F70F02240
:101AC300782974D5F20874CFF2782908E22401FF4B
:0A1AD300F218E23400F24F70F02226
:101ADD007829742DF208740FF2782908E22401FF99
:0A1AED00F218E23400F24F70F0220C
:101B5A00AE071FEE60107C137D88ED1DAA0470018C
:061B6A001C4A60EC80F44F
:011B70002252
:071642007823ECF208EDF241
:10164900E408F208F2EFFDC37826E29D18E294005F
:101659005025E4FEEEFDD37824E29D7480F5F01860
:10166900E2648095F040030E80EA7826E22401F2D4
:0716790018E23400F280CEFC
:011680002247
:1019C600E4FDFCC3ED9FEC9E5015E4FBFA0BBB0057
:0F19D600010AEB64644A70F50DBD00010C80E45A
:0119E50022DF
:101B1100E4FDFCC3ED9FEC9E500EE4FB0BEBB40423
:081B2100FB0DBD00010C80EB7F
:011B29002299
:0716BF007827EEF208EFF2BC
:1016C600E4F9E4FAFBD37828E29B18E29A40070B88
:1016D600BB00010A80EF09E9B432E7E4F92092166B
:1016E600E4FAFBC3EB9DEA9C50070BBB00010A80A2
:0616F600F209E9B432E73D
:0116FC0022CB
:10078000C12AC1298233000082310000812E00C1BC
:0C07900028822B0000822F0000812D0029
:100FD300302405121C708006121C43121C43200A85
:100FE30006121C6112131CD22AE47881F27F1412B8
:0C0FF3001B5AE47877F2300A02C20A228E
:10183200D212C214E4787BF2C21A7877F2121ADD5D
:10184200121ADD121ADD121ADD202002D296121CA3
:1018520043200A0C12191C121BEF20020312131C44
:011862002263
:0B1D8B00C229C223C22AD284D28322C4
:0C1D5B00301D08D216121DAC121BDC2239
:10193F00301A1E787BE204F2C3940F4014C21AE4EB
:10194F00F27877F2788BE27006200603121D7FC2C1
:02195F0006225E
:101A0500302A1A30A5033024147881E204F2C394F5
:0E1A150003400AE4F2C22A200603121D7F22BB
:1017D6003021227872E204F2D3940A4018C221E43E
:1017E600F2785FF208F2786AF208F2C20EC20FC20D
:0617F60010C211C2132213
:101B7100300912785EE2C39405500A7FC512111B29
:061B8100785EE204F2228E
:101B8700302712788EE2C39405500A7FC412111BC6
:061B9700788EE204F22248
:101B9D003022127855E2C39414500A7FC212111BE1
:061BAD007855E204F2226B
:091DC000300D05C20D12136C2256
:101C1500300B0CC20BE47882F2C21DC216C2072239
:10196100301D1E788FE204F2D394034014E4788290
:10197100F2C21DC216C207788FF2121DEAC296D2B8
:021981008522BD
:1019A50020281D201C1A2002177858E204F2D3942F
:1019B50006400D7407F2C212C21A200603121D7FDB
:0119C50022FF
:100D460020A503302050C2A43081257832E2240148
:100D5600F218E23400F2C308E2947018E2941740E5
:100D6600247417F2087471F2E4782EF2C221801509
:100D7600D37832E2943218E294004009E4F208F2A1
:100D8600782EE204F2782EE2D394064016E4F2D2EC
:100D96002112000E800D20A50A788BE27005202016
:100DA60002D2A430150CC215D217C22112157B121D
:030DB600000E220A
:1014090020A503302045788BE27040301A3D200634
:101419003A12136C788B7401F2C214E4787BF2C22D
:101429001A7877F2D212120F6D121832300212C3E3
:10143900786EE2943618E294025004C21B8002D2FC
:0C1449001BC202C224E47859F208F2220F
:1010C00020A503302006301203302445788BE264DB
:1010D00001703E201844201C417834E22401F218AB
:1010E000E23400F2C308E294F418E29401402B3099
:1010F000A506301203302422C296121060E4788BC9
:10110000F2120FD3C20DC214E47859F208F2C220D1
:0B1110002230A506E47833F208F2223A
:100E2A0030800630800320A621782DE204F2C39494
:100E3A0001401BE4F2D218787CF208F2D228782B0F
:100E4A00F208F27859F208F28004E4782DF23018A8
:100E5A001D787C08E22401FFF218E23400FEF2C396
:100E6A00EF94D0EE94074006C218E4F208F2302854
:100E7A001D782B08E22401FFF218E23400FEF2C3C7
:0F0E8A00EF9410EE94274006C228E4F208F222FB
:1018630030820DD21CE47886F208F27859F208F23D
:10187300301C1D788608E22401FFF218E23400FED2
:10188300F2C3EF94D0EE94074006C21CE4F208F2D0
:011893002232
:101894007835EEF208EFF208ECF208EDF2EBFD7C9D
:1018A400007FC1120CD3D2A2C2A37835E2FE08E2B3
:0F18B400FF08E2FC08E2FD1216BFD2A2D2A32267
:0C1D6700C2A2D2A31216BFD2A2D2A322A5
:0C1D7300C2A2D2A31216BFC2A2C2A322B9
:10136C00C223C229C209C227E47854F27876F278F3
:10137C0069F2786FF208F27874F208F27884F20865
:10138C00F27871F27880F2C216C207C21D7882F22E
:10139C00C2197883F2C201786CF2C208C22A788131
:1013AC00F2C2227855F2788BE27004D285C2962272
:0C1D7F00D223D229E47854F27876F222C4
:08000300C2A4121ADDD2A422EE
:070BEA007839ECF208EDF28E
:100BF1007E007C2B7D33120740E47B0CFAF9F8125E
:100C0100069AC3E49FFFE49E783BF2783DEFF278C9
:100C110039E2FE08E2FFEE3395E0FDFCE47B0BFADE
:100C2100F9F812060FE47B0CFAF9F812069AC3E4FC
:100C31009FFFE49EAD07FF783CF2AE05783EEEF2F1
:100C4100758911783BE2F58C783DE2F58A8F8D8EBE
:0D0C51008BD2A9D28CD2ABD28ED2BBD2AF47
:010C5E002273
:041455007896EFF2A4
:10145900E408F27897E2FFC39402500A1214A178C3
:1014690097E204F280ED7896E2FF7E007C2B7D33D3
:10147900120740E47B0CFAF9F812069AC3E49FFFBD
:10148900E49EAD07FC783BF2783DEFF25389F043D7
:071499008901121C25D2A9F4
:0114A0002229
:031DED00D2AF2250
:0417FC0043870122FC
:0F1C2500C28C783DE2F58A783BE2F58CD28C22B6
:1017370053A2BF75985A758920AB07AA06E4F9F832
:101747007F807E70FDFC12069A12072C8F8B8F8D7F
:101757007F01121455C299C298D2ACD28ED28CD2C4
:06176700A9D2BCD2AF22A2
:081DD2008F993099FDC299229E
:1018F100783FEBF208EAF208E9F2AF051DEF601A52
:10190100783FE2FB0808E2F92401F218E2FA340018
:0B191100F21205F6FF121DD280E0224A
:03079C0081420196
:0416FD00D2947F18EC
:041701007896EFF2F5
:10170500D2A0121AA9C2A0121AA9E47897F2789663
:10171500E2FF08E2C39F5019D2A17F147E00121B7D
:1017250011C2A17F147E00121B117897E204F2808A
:01173500DDD6
:011736002290
:101B2A00C294C2A1D2A07F5E7E01121B11C2A07F05
:091B3A005E7E01121B11C294220F
:10191C00D2947F051217017F1E121B5A7F061217D5
:10192C00017F1E121B5A7F041217017F64121B5A6F
:03193C00C2942230
:0F1C3400D2947F041217017F50121B5AC29422C0
:0B1D96001216FD7F01121B5AC294229E
:0F1C4300D2947F1A1217017F1E121B5AC29422CD
:10000E00D294E47879F27F1B1217017F1E121B5ACD
:05001E00C294C217228C
:0F1C52001216FD7F32121B5AC2947F1E021B5ABC
:0B1DA1001216FD7F32121B5AC2942262
:0B1DAC001216FD7F64121B5AC2942225
:101BDC00D2947F191217017FB4121B5AC2947F142E
:031BEC00021B5A7F
:101BEF00D294E47879F27F161217017F3C121B5AB8
:031BFF00C294226B
:0F1C6100D2947F171217017F3C121B5AC2942294
:0F1C7000D2947F1C1217017F3C121B5AC2942280
:0F1C7F00D2947F0F1217017F64121B5AC2942256
:0F1C8E00D2947F1C1217017F78121B5AC2942226
:0F1C9D00D2947F151217017F96121B5AC2942200
:0F1CAC00D2947F061217017F50121B5AC2942246
:0F1CBB00D2947F051217017F32121B5AC2942256
:0F1CCA00D2947F041217017FB4121B5AC29422C6
:0F1CD900D2947F031217017F8C121B5AC29422E0
:0F1CE800D2947F021217017F78121B5AC29422E6
:0F1CF700D2947F0B1217017F50121B5AC29422F6
:0F1D0600D2947F071217017F32121B5AC2942208
:0F1D1500D2947F081217017F50121B5AC29422DA
:0F1D2400D2947F0C1217017F50121B5AC29422C7
:0F1D3300D2947F0D1217017F50121B5AC29422B7
:031DF000021C438F
:10198300788AE204F2D3940340177405F2301E11EF
:10199300201D0E20090B20270820220512131CC22C
:0219A3001E2202
:091DC900302505C22512000E228E
:101C020075AF30C2AF75C7AA75C755439F01D2AF32
:031C1200021B03AF
:101BC80075AF30121B03C2AF75C7AA75C755539FAF
:041BD800FED2AF2268
:0C1AF700E2FC08E2FDECF5A7AF058FA6AD
:0E1B0300C2AF75C7AA75C75543A401D2AF2261
:101BB3007890EEF208EFF2121C0275AF22789012C1
:051BC3001AF7021BC827
:0618C3007863E2FD7E30B7
:1018C9007890EEF208EFF208EDF2121C0275AF21E2
:1018D9007890E2FC08E2FDECF5A7AF058FA608E2D7
:0818E900F5AE121B03021BC83F
:071A23007843EEF208EFF238
:101A2A00121C02E4F5AF7843121AF708E5AEF21277
:061A3A001BC87845E2FF25
:011A40002283
:10157B007F007E30121BB37861E2FD7F007E30125C
:10158B0018C97862E2FD7F017E301218C97F021202
:10159B0018C37864E2FD7F037E301218C97865E2C8
:1015AB00FD7F047E301218C97866E2FD7F057E3020
:0315BB000218C94A
:1015BE007F007E30121BB37F001218C37864E2FDE9
:1015CE007F017E301218C97865E2FD7F027E3012EF
:1015DE0018C97866E2FD7F037E301218C97867E27B
:1015EE00FD7F047E301218C97868E2FD7F057E30DB
:0315FE000218C907
:09079F00C12CC12BC12D814A00BF
:031DF3000210607B
:100F6D00D2A753B1FB53B2FBC282121175D2A2C2EA
:100F7D00A3121277D2A2D2A3E47890F2302B2DC215
:100F8D002B121AC3C2A2D2A3121ADD121ADD121A23
:100F9D00DD121ADDD2A2D2A3121AC3121AC3121174
:100FAD0075D2A2C2A3121277D2A2D2A37890E20474
:100FBD00F2E2C3940740C5D28243B10453B2FBC2DF
:050FCD002BD285C2A734
:010FD20022FC
:10106000D2A7D285D2A4C296121175C2A2C2A3126F
:101070001AC3C2A2D2A31212CBD2A2D2A3C22DE40F
:101080007890F2302B2AC22B121AC3121175D2A2F9
:10109000C2A3121ADD121ADD121ADD121ADDD2A253
:1010A000D2A3121AC3C2A2D2A31212CBD2A2D2A32B
:0F10B0007890E204F2E2C3940740C8C22BC2A7B3
:0110BF00220E
:10117500781C74C8F20874E0F20874C1F2E478913E
:10118500F2E47892F27891E2241CF8E230E707C2A3
:10119500A3121A8F8005C2A3121A5BD2A37891E21B
:1011A500241CF8C000E2FF25E0D000F2121A5B789B
:1011B50092E204F2E2C3940840CB7891E204F2E2B1
:0511C500C3940340BCCF
:0111CA002202
:1011CB00781C74C8F20874E0F20874C2F2E4784632
:1011DB00F2E47847F27846E2241CF8E230E707C2E3
:1011EB0090121A8F8005C290121A5BD2907846E249
:1011FB00241CF8C000E2FF25E0D000F2121A5B7845
:10120B0047E204F2E2C3940840CB7846E204F2E2F0
:05121B00C3940340BC78
:0112200022AB
:10122100781C74C8F20874E0F20874C3F2E47848D8
:10123100F2E47849F27848E2241CF8E230E707C288
:1012410090121A8F8005C290121A5BD2907848E2F0
:10125100241CF8C000E2FF25E0D000F2121A5B78EE
:1012610049E204F2E2C3940840CB7848E204F2E296
:05127100C3940340BC22
:011276002255
:10127700121AC3121AC3121AC3121AC3E47891F2CC
:1012870008F2309202D22B202B03121A757892E2C1
:101297002401F218E23400F2C308E2942318E2941E
:1012A7000040DF202B15121ADD121ADD121ADD128B
:1012B7001ADD121ADD121ADD121ADD302B05784AF3
:0312C700E204F24C
:0112CA002201
:1012CB00121AC3121AC3121AC3121AC3E47891F278
:1012DB0008F2309202D22B202B03121A757892E26D
:1012EB002401F218E23400F2C308E2942318E294CA
:1012FB000040DF202B12121ADD121ADD121ADD123A
:10130B001ADD121ADD121ADD302B05784AE204F2CF
:01131B0022AF
:0307A8008150007D
:100DB900E4784CF2784CE2FFC39405505EEF75F08D
:100DC90008A4242DF8E6604C784CE2FF75F008A4DD
:100DD900242CF8E6D39400403BEF75F008A42426B0
:100DE900F8E6FE08E6AA06F912073A784CE2FF751A
:100DF900F008A4242CF816EF75F008A4242AF8E6C4
:100E0900FE08E64E700E784CE275F008A42426F828
:100E1900E4F608F6784CE204F28099120FFF021DFD
:010E2900E6E2
:070AF500784DEEF208EFF26C
:100AFC00E4FFEF75F008A42426F8E6F58308E64534
:100B0C00836009EFC3940550030F80E6EFB405082A
:100B1C0078507401F27F0522784DE2F58308E2F5F6
:100B2C0082EF75F008A42426F8A68308A682EF7538
:100B3C00F008A42428F8A60408A605AC02AD03EF1F
:100B4C0075F008A4242AF8A60408A605A22EE433FE
:100B5C00FEEF75F008A4242DF8A606EF75F008A496
:050B6C00242CF8E4F662
:010B71002261
:1014A100EF75F008A42426F8E6FC08E64C700978EC
:1014B100507402F2D22F8002C22FEF75F008A424DB
:1014C10026F8E4F608F6EF75F008A42428F8E4F607
:1014D10008F6EF75F008A4242AF8E4F608F6EF758B
:0A14E100F008A4242CF8E4F6A22F72
:0114EB0022DE
:010FFF0022CF
:041DE600438701220C
:1009A700E4784FF2784FE2FFC3940540024168EFC5
:1009B70075F008A42426F8E6FE08E64E70024161A9
:1009C700784FE2FF75F008A42428F8E6FC08E64C07
:1009D7007077EF75F008A4242DF8E6600D784FE2E4
:1009E70075F008A4242CF806803D784FE275F008CE
:1009F700A42426F8E6FE08E6AA06F912073A784F75
:100A0700E2FF75F008A4242CF816EF75F008A4246B
:100A17002AF8E6FE08E64E700E784FE275F008A455
:100A27002426F8E4F608F6784FE2FF75F008A424C8
:100A37002AF8E6FC08E6FD4C6020EF75F008A424D0
:100A470028F8A60408A6058011784FE275F008A4D7
:100A57002428F808E61618700116784FE204F221E8
:010A6700ABE3
:010A6800226B
:1007AB00C11A817700C116C123C11DC119818200F5
:1007BB00818300C109C12781690082740000818097
:1007CB000081710082840000C101815400826F009E
:1007DB0000817600818E00815E00827E0000876141
:1007EB0000000000000000C105816800815D0081F0
:1007FB007300C180818C00818D00817A008178002B
:10080B0082880000C104818B00826D000082560F2C
:10081B00FF816C00C122815500C103825B0000C1C6
:10082B0018827C0000C108817B00818100C107C157
:10083B001C82860000C10DC120C11F817900825F1F
:10084B000000826A0000C10EC10FC110C111C1139B
:10085B00C121817200C115C10AC117818A00C11E55
:10086B00C10CC106C125C112815800C114818F0072
:0E087B00C10BC182C126C12482590000C11BDD
:10176D00121B2A121C437F807E25121737121D8BE8
:10177D00121DDA43B10653B2F943B52053B6DFD289
:10178D00A4C296D285C2A77F06120B72786DEEF2B7
:05179D0008EFF280FEE0
:03000B0002031DD0
:10031D00C0E0C0F0C083C082C0D075D000C000C0A6
:10032D0001C002C003C004C005C006C007783BE28F
:10033D00F58C783DE2F58A787E08E22401FFF2180B
:10034D00E23400FEF2C3EF94D0EE94074069E4F27C
:10035D0008F2785908E22401FFF218E23400FEF2A7
:10036D00C3EF9423EE94004005202402D2243029BB
:10037D001C20810CD21DD219788FE4F2D208800D89
:10038D0030810A300807D20BC208121C43301F0FF0
:10039D007879E204F2E2D394024004E4F2C29412BA
:1003AD001D4212198312193F121A05121D5B121CE0
:1003BD00151219611217D6121DC9120D46120E2AE9
:1003CD00121863121DC01214091210C0302605C276
:1003DD0026121D96202902A1517854E214604E1464
:1003ED007002818E14700281E624036002A14330F5
:1003FD00800630800320A62F20162C201729787612
:10040D00E204F2C394015002A143E4F2786FF208C2
:10041D00F2785404F2D296C285121ADD121ADD1248
:10042D001ADD121ADDA1437876E4F2A1433080067D
:10043D0030800320A6207869E204F2C39401401AAB
:10044D00E4F278547402F27874E4F208F2D296C2AF
:10045D0085121C5280047869E4F2786F08E2240159
:10046D00FFF218E23400FEF2C3EF9440EE941F50F9
:10047D0002A1437854E4F27869F27876F2786F80CD
:10048D005330800630800320A6207871E204F2C339
:10049D009402401AE4F278547403F27874E4F2088A
:1004AD00F2D296C285121DA180047871E4F278749F
:1004BD0008E22401FFF218E23400FEF2C3EF94408B
:1004CD00EE941F40717854E4F27871F27869F27805
:1004DD0076F27874F208F28059308006308003206D
:1004ED00A61B7871E204F2C394034015E4F2D21D09
:1004FD00D219D207788FF2D296C28580047871E432
:10050D00F2787408E22401FFF218E23400FEF2C31F
:10051D00EF9440EE941F401E7854E4F27876F27812
:10052D0069F2786FF208F27874F208F27871F220BD
:10053D001D04C296D285C3786DE294015004D22277
:10054D008002C2223023422084137878E204F2B470
:10055D000A16D227C20920040FD201800BC22778B8
:10056D008EE4F27878F2C201208313787AE204F2F5
:10057D00B40A16D209C22720040FD201800BC2097A
:10058D00785EE4F2787AF2C201300142788808E2AE
:10059D002401FFF218E23400FEF2C3EF94A0EE94B2
:1005AD000F402BC201E4F208F2D2047854F27876AF
:1005BD00F27869F2786FF208F27874F208F27884C2
:1005CD007403F2087420F27871E4F27880F2D007A7
:1005DD00D006D005D004D003D002D001D000D0D0A9
:0905ED00D082D083D0F0D0E032BE
:0300230002088A46
:10088A00C0E0C0F0C083C082C0D075D000C000C034
:10089A0001C002C003C004C005C006C007209802F8
:1008AA00218CC2987868E2FF2461F8E599F2302138
:1008BA0002217EEF701290300093FF7861E2B50753
:1008CA000778687401F2218C7868E2B401139030D9
:1008DA0001E493FF7862E2B5070778687402F221AF
:1008EA008C7868E2FFB40213903002E493FE7863D6
:1008FA00E2B5060778687403F2218CEFB40313900B
:10090A003003E493FF7864E2B5070778687404F269
:10091A0080707868E2B40413903004E493FF786539
:10092A00E2B5070778687405F280577868E26405CB
:10093A00703C90300593FF7866E26F70317868F208
:10094A00D21A787BF2D20D121DF07877E2FF04F208
:10095A00EFC394014002D20A7877E204F2C3940BFF
:10096A004020B220D21AD225C20AE4F28014786852
:10097A00E4F2800E7868E204F2C394064004E4F2DA
:10098A00D215D007D006D005D004D003D002D001AA
:0D099A00D000D0D0D082D083D0F0D0E03299
:03000000020A6988
:0C0A6900787FE4F6D8FD75814D020AB0DC
:1005F600BB010689828A83E0225002E722BBFE0203
:09060600E32289828A83E4932235
:10060F00E88FF0A4CC8BF0A42CFCE98EF0A42CFC8A
:10061F008AF0EDA42CFCEA8EF0A4CDA8F08BF0A408
:10062F002DCC3825F0FDE98FF0A42CCD35F0FCEB67
:10063F008EF0A4FEA9F0EB8FF0A4CFC5F02ECD392C
:0F064F00FEE43CFCEAA42DCE35F0FDE43CFC2299
:10065E0075F008758200EF2FFFEE33FECD33CDCC53
:10066E0033CCC58233C5829BED9AEC99E5829840D6
:10067E000CF582EE9BFEED9AFDEC99FC0FD5F0D6B3
:10068E00E4CEFBE4CDFAE4CCF9A88222B800C1B9DD
:10069E000059BA002DEC8BF084CFCECDFCE5F0CB1B
:1006AE00F97818EF2FFFEE33FEED33FDEC33FCEB54
:1006BE0033FB10D703994004EB99FB0FD8E5E4F90F
:1006CE00FA227818EF2FFFEE33FEED33FDEC33FCFC
:1006DE00C933C910D7059BE99A4007EC9BFCE99AF0
:1006EE00F90FD8E0E4C9FAE4CCFB2275F010EF2F35
:1006FE00FFEE33FEED33FDCC33CCC833C810D70735
:10070E009BEC9AE899400AED9BFDEC9AFCE899F86F
:0E071E000FD5F0DAE4CDFBE4CCFAE4C8F92202
:0E072C00C3E49FFFE49EFEE49DFDE49CFC22DE
:06073A008A838982E4734A
:10074000EC8EF0A4CCC5F0CCCDF8EFA4CEC5F02D46
:10075000FDE43CFCE8A42EC8C5F03DFDE43CFCEF04
:0D076000A4FFE5F028FEE43DFDE43CFC2292
:100A750002176DE493A3F8E493A34003F68001F213
:100A850008DFF48029E493A3F85407240CC8C33382
:100A9500C4540F4420C8834004F456800146F6DF51
:100AA500E4800B010204081020408090076DE47E6D
:100AB500019360BCA3FF543F30E509541FFEE49346
:100AC500A360010ECF54C025E060A840B8E493A30D
:100AD500FAE493A3F8E493A3C8C582C8CAC583CA38
:100AE500F0A3C8C582C8CAC583CADFE9DEE780BEF0
:01088900006E
:00000001FF
